:1000000017C1000046C1000044C1000042C1000009
:1000100040C100003EC100003CC100003AC10000E8
:1000200038C1000036C1000034C1000032C10000F8
:1000300030C100000C94950B2CC100002AC10000B7
:1000400028C1000026C1000024C1000022C1000018
:1000500020C100001EC100001CC10000A9C4000096
:1000600018C10000BBC3000090C3000012C1000013
:1000700010C100000EC100000CC100000AC1000048
:1000800008C1000006C1000004C1000002C1000058
:1000900053C3000028C30000FCC00000FAC00000E9
:1000A000F8C00000F6C00000F4C00000F2C000007C
:1000B000F0C00000EEC00000ECC00000EAC000008C
:1000C000E8C00000E6C00000E4C00000E3C2000099
:1000D000B8C20000DEC000008BC2000060C2000099
:1000E000D8C00000FA11061214121D122612321284
:1000F0003E1247125B125B125B125B125B125012D4
:100100004604490438043C04400480044D0451046E
:1001100057045B045F04650469046D048004730480
:1001200077047B0400000A0B02090C0D0E0807037C
:1001300004010000000000000000000000000000BA
:1001400000000000000000000000000000000000AF
:10015000121110000000000000000000000000006C
:100160000000000000000000000000002200250048
:1001700028002B002E003100340002010000050190
:1001800008010B0100002100240027002A002D0097
:100190003000330001010000040107010A010505D8
:1001A0000505070508080808020202020A0A0808ED
:1001B000040404040101010101010101030303031B
:1001C00003030303040707070C0C0C0C0C0C0C0CAA
:1001D0000202020206060606060606060B0B0B0BBB
:1001E0000B0B0B0B010210202008081020401020E0
:1001F00040800201020108040201010204081020EB
:1002000040808040201008040201800402018040E8
:100210002010080402010804020101020408102051
:1002200040800102040810204080020047133F1361
:1002300011241FBECFEFD1E2DEBFCDBF00E00CBF67
:1002400026E0AEEFB3E001C01D92A13DB207E1F799
:1002500013E0A0E0B2E0E4ECFDE200E00BBF02C07E
:1002600007900D92AE3FB107D9F711E0C7E1D1E099
:1002700000E006C021970109802FFE010E94811431
:10028000C631D10780E00807A9F70E94790C0C94C9
:10029000D116B6CEFC01A089B1898C91A689B78907
:1002A00082FD0FC09C91818D8F5F8F73228D82178D
:1002B00049F0218DDF01A20FB11D5D969C93818FC6
:1002C00008958C910895089580E090E00895FC01D0
:1002D000538D448D252F30E0842F90E0821B930BAB
:1002E000541710F0CF96089501970895FC01918D51
:1002F000828D981761F0828DDF01A80FB11D5D9688
:100300008C91928D9F5F9F73928F90E008958FEFF5
:100310009FEF0895FC01918D828D981731F0828DA9
:10032000E80FF11D858D90E008958FEF9FEF089500
:10033000FC01918D228D892F90E0805C9F4F821B64
:1003400091098F73992708958AE394E0F1DF21E002
:10035000892B09F420E0822F089587ED94E0E8DFEF
:1003600021E0892B09F420E0822F089584E795E0AD
:10037000DFDF21E0892B09F420E0822F089581E15D
:1003800096E0D6DF21E0892B09F420E0822F089542
:10039000FC01848DDF01A80FB11DA35ABF4F2C9122
:1003A000848D90E001968F739927848FA689B789F1
:1003B0002C93A089B1898C9180648C93938D848DCA
:1003C000981306C00288F389E02D80818F7D808399
:1003D0000895EF92FF920F931F93CF93DF93EC0159
:1003E00081E0888F9B8D8C8D981305C0E889F989F1
:1003F000808185FD23C0F62E0B8D10E00F5F1F4F0F
:100400000F731127E02E8C8DE8120BC00FB607FC7E
:10041000FACFE889F989808185FFF5CFCE01B8DF71
:10042000F2CF8B8DFE01E80FF11DE35AFF4FF082F2
:100430000B8FEA89FB898081806207C0EE89FF8982
:100440006083E889F98980818064808381E090E01D
:10045000DF91CF911F910F91FF90EF900895CF936F
:10046000DF93EC01888D8823C1F0EA89FB898081C4
:1004700085FD05C0A889B9898C9186FD0EC00FB68F
:1004800007FCF5CF808185FFF2CFA889B9898C91CF
:1004900085FFEDCFCE017CDFE8CFDF91CF910895CE
:1004A00080E090E0892B19F06ADF811116C080E0AE
:1004B00090E0892B19F05ADF811112C080E090E0A2
:1004C000892B19F04ADF81110EC080E090E0892B62
:1004D00079F03ADF81110AC008950E940000E7CF49
:1004E0000E940000EBCF0E940000EFCF0C940000B0
:1004F00008953FB7F8948091360490913704A09105
:100500003804B091390426B5A89B05C02F3F19F0D7
:100510000196A11DB11D3FBFBA2FA92F982F882783
:10052000820F911DA11DB11DBC01CD0142E0660FDE
:10053000771F881F991F4A95D1F70895FC012681DE
:100540003781620F731F848195818617970738F072
:100550008281938177836683820F931F089580E061
:1005600090E008950E949A160F931F93CF93DF9304
:100570008B01FC01C281D381209759F06A817B8174
:10058000C8010E94A716892B21F00990D881C02D9F
:10059000F3CFCE01DF91CF911F910F9108951F925C
:1005A0000F920FB60F9211240BB60F922F933F9319
:1005B0004F935F936F937F938F939F93AF93BF936B
:1005C000EF93FF938AE394E0E3DEFF91EF91BF9115
:1005D000AF919F918F917F916F915F914F913F91DB
:1005E0002F910F900BBE0F900FBE0F901F9018957C
:1005F0001F920F920FB60F9211240BB60F922F93EA
:100600003F934F935F936F937F938F939F93AF939A
:10061000BF93EF93FF938AE394E03CDEFF91EF9169
:10062000BF91AF919F918F917F916F915F914F910A
:100630003F912F910F900BBE0F900FBE0F901F9008
:1006400018951F920F920FB60F9211240BB60F92AE
:100650002F933F934F935F936F937F938F939F93CA
:10066000AF93BF93EF93FF9387ED94E091DEFF91FB
:10067000EF91BF91AF919F918F917F916F915F911A
:100680004F913F912F910F900BBE0F900FBE0F9087
:100690001F9018951F920F920FB60F9211240BB650
:1006A0000F922F933F934F935F936F937F938F930B
:1006B0009F93AF93BF93EF93FF9387ED94E0EADDB1
:1006C000FF91EF91BF91AF919F918F917F916F912A
:1006D0005F914F913F912F910F900BBE0F900FBEE6
:1006E0000F901F9018951F920F920FB60F92112422
:1006F0000BB60F922F933F934F935F936F937F931C
:100700008F939F93AF93BF93EF93FF9384E795E00D
:100710003FDEFF91EF91BF91AF919F918F917F91BC
:100720006F915F914F913F912F910F900BBE0F9062
:100730000FBE0F901F9018951F920F920FB60F9239
:1007400011240BB60F922F933F934F935F936F93A8
:100750007F938F939F93AF93BF93EF93FF9384E720
:1007600095E098DDFF91EF91BF91AF919F918F91AF
:100770007F916F915F914F913F912F910F900BBEA1
:100780000F900FBE0F901F9018951F920F920FB6EB
:100790000F9211240BB60F922F933F934F935F93B9
:1007A0006F937F938F939F93AF93BF93EF93FF9339
:1007B00081E196E0EDDDFF91EF91BF91AF919F91C7
:1007C0008F917F916F915F914F913F912F910F90FA
:1007D0000BBE0F900FBE0F901F9018951F920F9297
:1007E0000FB60F9211240BB60F922F933F934F9396
:1007F0005F936F937F938F939F93AF93BF93EF9389
:10080000FF9381E196E046DDFF91EF91BF91AF91BB
:100810009F918F917F916F915F914F913F912F9118
:100820000F900BBE0F900FBE0F901F901895362F94
:1008300090E0FC01EC5DFE4F4491FC01EC51FE4F59
:100840002491FC01E256FE4F9491992309F46BC068
:10085000442309F455C050E0FA013197E231F10523
:1008600008F04EC08827E058FF4F8F4F0C9481143A
:10087000809180008F7707C0809180008F7D03C0BA
:1008800080918000877F809380003AC084B58F7705
:1008900002C084B58F7D84BD33C08091B0008F7756
:1008A00003C08091B0008F7D8093B00029C08091FB
:1008B00090008F7707C0809190008F7D03C080915A
:1008C0009000877F809390001BC08091A0008F775D
:1008D00007C08091A0008F7D03C08091A000877F1A
:1008E0008093A0000DC0809120018F7707C0809178
:1008F00020018F7D03C080912001877F809320019C
:10090000E92FF0E0EE0FFF1FE659FE4FA591B491DD
:100910008FB7F894EC91311103C020952E2301C0BC
:100920002E2B2C938FBF08958F929F92AF92BF92E0
:10093000CF92DF92EF92FF926B017C01DADD4B01E7
:100940005C01C114D104E104F104E9F0D2DDDC0161
:10095000CB0188199909AA09BB09883E9340A105D2
:10096000B10578F321E0C21AD108E108F10888EE58
:10097000880E83E0981EA11CB11CC114D104E104AF
:10098000F10421F7DECFFF90EF90DF90CF90BF9082
:10099000AF909F908F9008952FB7F8946091320494
:1009A0007091330480913404909135042FBF0895E1
:1009B0001F920F920FB60F9211242F933F938F9394
:1009C0009F93AF93BF938091320490913304A09191
:1009D0003404B09135043091310423E0230F2D37D6
:1009E00020F40196A11DB11D05C026E8230F029633
:1009F000A11DB11D209331048093320490933304E0
:100A0000A0933404B0933504809136049091370458
:100A1000A0913804B09139040196A11DB11D8093B5
:100A2000360490933704A0933804B0933904BF91EF
:100A3000AF919F918F913F912F910F900FBE0F908B
:100A40001F90189560E083E0F2DE61E082E0EFCE77
:100A50000F931F93CF93DF9387DDEC01892BC1F0B8
:100A60000C811D810130110559F46E817F81611562
:100A7000710531F085ED93E00E94A716892B41F0B6
:100A8000015011090230110518F48E819F8102C0B6
:100A900080E090E0DF91CF911F910F910895FC01CC
:100AA000A081B1818C918D3051F024F48950823035
:100AB000B8F505C0803219F08F3219F008951196FB
:100AC0002CC011968C9111978A3219F08F32D1F087
:100AD00008951196B183A083A081B181CD010196C3
:100AE0009183808311968C9111978823C9F08A3263
:100AF00099F712968C9112978F3271F713960DC059
:100B00008A3071F2A081B181CD01019691838083F9
:100B100011968C918111F4CF03C0B183A083C0CF13
:100B200008950F931F93CF93DF931F92CDB7DEB736
:100B30008C016983B4DFD801ED91FC91119780811C
:100B40006981861305C03196ED93FC9381E001C065
:100B500080E00F90DF91CF911F910F910895EF9258
:100B6000FF920F931F93CF93DF938C01DC011496B8
:100B7000CD91DC911597EA80FB808E819F81E80EF4
:100B8000F91EC80102968BDFD8011296ED91FC91F7
:100B900013979081973291F1923281F180ED890F14
:100BA0008A3060F0892F8F7D81548A3138F09B32F2
:100BB00029F083ED890F823008F060C0F8012281AE
:100BC00033812F5F3F4F338322832E813F81A901E1
:100BD0004F5F5F4F6C817D816417750740F06A81BC
:100BE0007B81FB01E20FF31F5F834E839083D8016B
:100BF0001296ED91FC9113979081D0CF3196D80148
:100C00001396FC93EE931297D8011296ED91FC91F6
:100C100013972081222391F1AF014F5F5F4F13960D
:100C20005C934E931297291749F12C35A9F4218131
:100C3000AEEDB3E08C91882339F0821303C0119696
:100C40002C9102C01296F6CF2223C1F03296D80121
:100C50001396FC93EE9312974E815F81BA016F5FFA
:100C60007F4FEC81FD81E617F70770F2EA81FB8187
:100C7000E40FF51F7F836E832083C6CF8E819F8113
:100C80009C012F5F3F4F4C815D814217530748F015
:100C90004A815B81FA01E80FF91F3F832E8310829E
:100CA00002C0E12CF12CC701DF91CF911F910F9170
:100CB000FF90EF9008950F931F93CF93DF93EC0174
:100CC0008C01060F171FC017D10729F069918AE31D
:100CD00094E07FDBF8CF60ED77E080E090E024DE09
:100CE0008AE394E025DB892B21F08AE394E0FEDAA5
:100CF000F7CFDF91CF911F910F910895DF92EF927F
:100D0000FF920F931F93CF93DF93CDB7DEB72C974E
:100D10000FB6F894DEBF0FBECDBF9B012A5F3D4FDB
:100D2000790121E02427F7013081321328C0D42E25
:100D30008C0169EE73E0CE010196A0D4BE016F5F15
:100D40007F4FCE01079681D4B801CE010796CED34E
:100D500091D1CE01079649D4CE01019646D4A8017F
:100D6000110F660B770B77FF04C084E795E099D5E8
:100D700004C02AE084E795E04CD5F701D0822C9698
:100D80000FB6F894DEBF0FBECDBFDF91CF911F919C
:100D90000F91FF90EF90DF9008950F931F93CF93E3
:100DA000DF93CDB7DEB72C970FB6F894DEBF0FBE3A
:100DB000CDBF8C0169EE73E0CE0101965FD4BE0118
:100DC0006F5F7F4FCE01079640D4B801CE010796E2
:100DD0008DD350D1CE01079608D4CE01019605D40B
:100DE000A801110F660B770B77FF04C084E795E02D
:100DF00058D504C02AE084E795E00BD52C960FB6B1
:100E0000F894DEBF0FBECDBFDF91CF911F910F9140
:100E10000895AF92BF92CF92DF92EF92FF920F931D
:100E2000CF93DF93EC015B0169017A0168EE73E017
:100E300025D4F501448155816081718187ED94E06D
:100E4000D9D3AADDC60ED71EE81EF91EA5DD6C1586
:100E50007D058E059F0560F487ED94E069DA892BA6
:100E6000A9F387ED94E042DA682FCE010CD3F4CFDA
:100E7000011102C0CE01FED0CE01DF91CF910F91C2
:100E8000FF90EF90DF90CF90BF90AF900895DB017F
:100E9000109749F0ED91FC9111970190F081E02DB0
:100EA000BC01CD01199480E090E008959F92AF922B
:100EB000BF92CF92DF92EF92FF920F931F93CF9347
:100EC000DF9300D000D0CDB7DEB76C01FC0100810C
:100ED0001181B80184E090E0DADF009739F0FC017D
:100EE00011830083138212828C0111C08091290426
:100EF00081110BC010922604109225041092280430
:100F00001092270481E08093290405E214E0760121
:100F1000F2E0EF0EF11C6BE7C70103DE882309F452
:100F20005EC06DE7C701FDDD81116AC086E0982EC5
:100F3000C60115DE5C01892B09F451C06AE3C701C3
:100F4000F0DD882309F44BC01A821982BE016F5F5D
:100F50007F4FC601CBD0882309F441C0B501C80139
:100F600003DBDC01892B49F5F801608171818AE09E
:100F700090E08DDFDC01892B39F011961C921E92D6
:100F800015961C921E921497F80122813381211527
:100F9000310551F0F90180819181009711F09C0198
:100FA000F9CFB183A08303C0F801B383A283109764
:100FB000B1F01396BC92AE921297FE013196149640
:100FC000892D01900D928A95E1F76DE7C701A9DDA2
:100FD000811116C06CE2C701A4DD8111A9CF8091F7
:100FE000290481110BC0109226041092250410923E
:100FF00028041092270481E08093290405E214E07C
:10100000C80126960FB6F894DEBF0FBECDBFDF91A4
:10101000CF911F910F91FF90EF90DF90CF90BF90F5
:10102000AF909F9008950F931F93CF93DF93EC01A0
:1010300088819981009729F02A813B8126173707FB
:1010400088F48B016F5F7F4F0E94B615009761F0A7
:10105000998388831B830A832C813D81232B11F480
:10106000FC01108281E001C080E0DF91CF911F91EF
:101070000F910895CF93DF93FC01448155816081E6
:10108000718181E196E0B6D2EC0166EC73E081E11A
:1010900096E0AAD38C0F9D1FDF91CF910895FC019C
:1010A000A089B18982E08C93A485B5851C92A68520
:1010B000B7858FEC8C93108EA489B58986E08C93CC
:1010C000A289B3898C9180618C93A289B3898C9118
:1010D00088608C93A289B3898C9180688C930288F4
:1010E000F389E02D80818F7D808308959F92AF9258
:1010F000BF92CF92DF92EF92FF920F931F93CF9305
:10110000DF9300D000D0CDB7DEB7FC0196819923E4
:1011100009F4D8C06B017F01915096835F0182E092
:10112000A80EB11CC501BBDCD7011296ED91FC9154
:10113000139780818B3521F08B3709F492C09BC0C7
:10114000F70100811181B80184E090E0A0DE0097F2
:1011500051F0DC0111961C930E9313961C921E9273
:1011600012978C0111C08091BE0681110BC01092A4
:10117000BB061092BA061092BD061092BC0681E022
:101180008093BE060AEB16E06BE5C501CADC882336
:1011900009F447C06DE5C501C4DC811153C086E088
:1011A000982E1A821982BE016F5F7F4FC7019EDFA2
:1011B0008823B9F1F8016081718188E090E067DEF1
:1011C000DC01892B39F011961C921E9213961C9209
:1011D0001E921297F801228133812115310551F0B9
:1011E000F90180819181009711F09C01F9CFB183C1
:1011F000A08303C0F801B383A283109791F0FE018E
:1012000031961296892D01900D928A95E1F76DE540
:10121000C50187DC811116C06CE2C50182DC811139
:10122000C0CF8091BE0681110BC01092BB061092F8
:10123000BA061092BD061092BC0681E08093BE06ED
:101240000AEB16E0D8018D919C91892B11F410E0E6
:1012500031C086E090E0F60191838083138302839E
:1012600028C0C70123DEDC012D913C91232B79F3AB
:1012700027E030E019C011E0873219F0823209F01E
:1012800010E0C7016CDC009711F3112359F022E044
:1012900030E0D60111963C932E9313969C938E9337
:1012A000129708C021E030E0F60131832083938358
:1012B000828311E0D70116968C9116978F5F169650
:1012C0008C9301C010E0812F26960FB6F894DEBFF4
:1012D0000FBECDBFDF91CF911F910F91FF90EF9087
:1012E000DF90CF90BF90AF909F90089590E0FC0169
:1012F000EC51FE4F2491FC01E256FE4F849188236D
:1013000099F090E0880F991FFC01EC57FE4FA591D2
:10131000B491FC01E659FE4F859194918FB7F894F2
:10132000EC91E22BEC938FBF08950F931F9334DB66
:101330006093DF047093E0048093E1049093E204EF
:10134000E091D704F091D8040284F385E02D87ED75
:1013500094E0199597FF1EC01FDB0091DF041091E8
:10136000E0042091E1043091E204DC01CB01801B18
:10137000910BA20BB30B0091DB041091DC042091C4
:10138000DD043091DE0480179107A207B307C0F295
:101390008FEF9FEF1F910F910895CF93DF93FC0183
:1013A00024813581232B71F0FB01DC01CD91DC918F
:1013B00060817181CE010E94B716009719F08C1BD5
:1013C0009D0B02C08FEF9FEFDF91CF910895EF92B9
:1013D000FF920F931F93CF93DF93FC0124813581FC
:1013E0006115710511F480E018C041155105A1F097
:1013F0007B01EC018A01020F131FB80114DE882360
:1014000091F3288139818C819D81B701820F931FCF
:101410000E94B0161D830C8381E0DF91CF911F9154
:101420000F91FF90EF900895EF92FF920F931F930B
:10143000CF93DF93CDB7DEB727970FB6F894DEBF13
:101440000FBECDBF7C01CB014AE08E010F5F1F4F65
:10145000B8010E943614F80101900020E9F7319795
:10146000AF01401B510BB801C701B1DF27960FB682
:10147000F894DEBF0FBECDBFDF91CF911F910F91CA
:10148000FF90EF900895CF93DF931F921F92CDB7F7
:10149000DEB769831A8241E050E0BE016F5F7F4F83
:1014A00096DF0F900F90DF91CF9108956115710530
:1014B00049F0FB0101900020E9F73197AF01461B8D
:1014C000570B85CF80E00895CF93DF93EC0188819F
:1014D0009981009711F00E941E15198218821D82B1
:1014E0001C821B821A82DF91CF910895EF92FF92A6
:1014F0000F931F93CF93DF93CDB7DEB728970FB627
:10150000F894DEBF0FBECDBF7C01CB014AE08E0157
:101510000F5F1F4FB8010E941714F80101900020BF
:10152000E9F73197AF01401B510BB801C7014FDFFD
:10153000811102C0C701C8DFC70128960FB6F89411
:10154000DEBF0FBECDBFDF91CF911F910F91FF90F6
:10155000EF900895CF93DF93EC016115710559F079
:10156000FB0101900020E9F73197AF01461B570BB3
:101570002EDF811102C0CE01A7DFCE01DF91CF9116
:101580000895EF92FF920F931F93CF93DF93EC0197
:101590007B018A01BA0147DD811103C0CE0194DFCE
:1015A00007C01D830C83B701888199810E94B01602
:1015B000CE01DF91CF911F910F91FF90EF90089591
:1015C000CF93DF93EC016115710551F0FB010190A0
:1015D0000020E9F73197AF01461B570BD2DF01C05E
:1015E00073DFCE01DF91CF910895FC01808191815D
:1015F0000C941E15CF92DF92EF92FF920F931F93E0
:10160000CF93DF936C017A018B01C0E0D0E0CE155F
:10161000DF0589F0D8016D918D01D601ED91FC9126
:101620000190F081E02DC6011995892B11F47E01FE
:1016300002C02196ECCFC701DF91CF911F910F918E
:10164000FF90EF90DF90CF900895FB01DC011196A1
:101650001C921E9213961C921E92129715961C9223
:101660001E9214978617970741F06081718161156A
:10167000710519F04481558184CF0895FC011182D0
:10168000108213821282158214826115710549F04D
:10169000FB0101900020E9F73197AF01461B570B82
:1016A00070CF08959091090298133DC0EAE2F2E0EC
:1016B000E4919FEF90930902E230C9F050F4EE23D9
:1016C00099F0E13081F590916F009D7F90936F00CC
:1016D0002AC0E43019F1E0F0E53029F5909173006B
:1016E0009D7F909373001FC010926E001CC090915C
:1016F00070009D7F9093700091E09093B000909166
:10170000B100987F94609093B1001092B3000BC029
:10171000909171009D7F9093710005C0909172002F
:101720009D7F9093720060E082C81F920F920FB667
:101730000F9211240BB60F922F933F934F935F9309
:101740006F937F938F939F93AF93BF93EF93FF9389
:101750008091C9069091CA06A091CB06B091CC06A3
:10176000892B8A2B8B2B51F18091C806E091C606FC
:10177000F091C7069081892780838091C906909156
:10178000CA06A091CB06B091CC06181619061A0607
:101790001B06BCF48091C9069091CA06A091CB06A5
:1017A000B091CC060197A109B1098093C906909325
:1017B000CA06A093CB06B093CC0603C08091090261
:1017C00071DFFF91EF91BF91AF919F918F917F91C9
:1017D0006F915F914F913F912F910F900BBE0F90A2
:1017E0000FBE0F901F9018956115710579F0FB01E0
:1017F00001900020E9F73197AF01461B570BDC0140
:10180000ED91FC910280F381E02D199480E090E04D
:1018100008954F925F926F927F92EF92FF920F9393
:101820001F93CF93DF93CDB7DEB7A1970FB6F89490
:10183000DEBF0FBECDBF7C01FA01CB0119A2223061
:1018400008F42AE08E010F5D1F4F422E512C612CAF
:10185000712CBF01A30192010E945F14F901CA011A
:10186000015011096A3014F4605D01C0695CD8014F
:101870006C93232B242B252B61F7B801C701B4DF10
:10188000A1960FB6F894DEBF0FBECDBFDF91CF910A
:101890001F910F91FF90EF907F906F905F904F900E
:1018A0000895CF92DF92EF92FF920F931F93CF9301
:1018B000DF93EC016A017B01E881F9810190F081FD
:1018C000E02D6DE219958C0144275527BA014C197A
:1018D0005D096E097F092AE0CE019BDF800F911F11
:1018E000DF91CF911F910F91FF90EF90DF90CF90FC
:1018F0000895CF93DF93CDB7DEB7C859D1090FB69E
:10190000F894DEBF0FBECDBF789484B5826084BDED
:1019100084B5816084BD85B5826085BD85B58160F3
:1019200085BD80916E00816080936E001092810071
:10193000809181008260809381008091810081602C
:1019400080938100809180008160809380008091ED
:10195000B10084608093B1008091B0008160809379
:10196000B0008091910082608093910080919100FD
:1019700081608093910080919000816080939000BD
:101980008091A10082608093A1008091A10081607C
:101990008093A1008091A00081608093A00080913D
:1019A00021018260809321018091210181608093D7
:1019B00021018091200181608093200180917A0033
:1019C000846080937A0080917A00826080937A00AC
:1019D00080917A00816080937A0080917A0080689B
:1019E00080937A001092C10083E080DC82E07EDC8C
:1019F00060E083E00E94170460E082E00E94170428
:101A000081E196E04CDB84E795E049DB87ED94E0EB
:101A100046DB68EE73E080E090E00E94940468E2A8
:101A200072E0CE0183599F4F29DE00E028EB3BE0B6
:101A300040E050E0BE0163597F4FCE0101967C012A
:101A4000E8D9C701D2DDCE0183599F4FCEDD61E3D6
:101A500072E0CE0183599F4F11DE20ED37E040E068
:101A600050E0BE0163597F4FC701D3D9C701BDDD27
:101A7000CE0183599F4FB9DD66E372E0CE018359F1
:101A80009F4FFCDD20ED37E040E050E0BE016359A0
:101A90007F4FC701BED9C701A8DDCE0183599F4F33
:101AA000A4DD64E472E0CE0183599F4FE7DD20EDB1
:101AB00037E040E050E0BE0163597F4FC701A9D92C
:101AC000C70193DDCE0183599F4F8FDD62E572E040
:101AD000CE0183599F4FD2DD20ED37E040E050E04A
:101AE000BE0163597F4FC70194D9C7017EDDCE0186
:101AF00083599F4F7ADD8AE394E0D1DA6CE070E09D
:101B000086E692E0D8D86AE070E083E792E0D3D826
:101B10000E9422058AE394E00E949801892BD1F368
:101B200060ED77E080E090E00E949404E7EBCE2E39
:101B3000EFE4DE2E44244A94542C320182EA882EAB
:101B400081E0982E98EE292E91E0392E8AE394E0D8
:101B50000E949801892B09F432C38AE394E00E9421
:101B60007601C856DF4F8883C859D0408B3721F49F
:101B700081E080932104C9C280912104882309F463
:101B8000C4C2C856DF4F9881C859D0409D3709F06C
:101B9000BCC2109221046DE784EB96E074DCE9E0AE
:101BA000F0E0EC0FFD1FFC83EB8384E690E09E8366
:101BB0008D8318861F82E4E1F2E0FA83E983809145
:101BC000B4069091B506009711F488EE93E0AF96B5
:101BD000FFAEEEAEAF97E1969FAF8EAFE197E39683
:101BE000FFAEEEAEE397FAE0E496FFAFE497CE01E6
:101BF00083599F4F5BD98C016EE772E00E942805E4
:101C0000909301028093000267E872E0C8010E948D
:101C1000280590930302809302026CE872E0C801E9
:101C20000E94280590930502809304020E942205D9
:101C300060E972E0CE0183599F4F20DD00E020ED86
:101C400037E040E050E0BE0163597F4FC701E1D863
:101C5000C701CBDCCE0183599F4FC7DC0091040242
:101C600010910502A0900202B09003026BE972E0AD
:101C7000CE0183599F4F02DDBE0163597F4FC701DB
:101C8000E4DCB501C70166DC66EA72E063DCB8013A
:101C900061DC6AEA72E05EDCBC01CE0186589F4FCF
:101CA000D4DCC701A2DCCE0183599F4F9EDCBE016C
:101CB00066587F4FCE0183599F4FC7DC00E028E86C
:101CC00033E140E050E0BE0163597F4FC701A1D826
:101CD000C7018BDCCE0183599F4F87DC6EEA72E02F
:101CE000C701CCDC61EB72E0CE018C589F4FC6DCA3
:101CF00028EB3BE040E050E0BE016C587F4FCE0146
:101D000083599F4F86D8B701CE0183599F4F45DB3A
:101D10008C01CE0183599F4F68DCCE018C589F4FB8
:101D200064DCC70162DC0F3F1F4F09F4E3C140913F
:101D3000B8065091B9066091B4067091B50684E773
:101D400095E058DC84E795E00E949801892BD1F357
:101D500068EE73E080E090E00E94940484E795E0F0
:101D60000E949801892BC1F084E795E00E947601DA
:101D7000182FE0911106F09112060190F081E02DEC
:101D8000682F81E196E0199566EC73E081E196E0B9
:101D90002BDD113319F3B0C16DEB72E0CE01835925
:101DA0009F4F6CDC00E020ED37E040E050E0BE01EA
:101DB00063597F4FC7012DD8C70117DCCE01835966
:101DC0009F4F13DC61E083E00E94170460E082E033
:101DD0000E94170480910902843021F4EAE2F2E0C3
:101DE0001491E4C08F3F09F079C184E08093090227
:101DF000EAE2F2E014911F3F09F470C1123009F4D5
:101E00006FC044F5112309F44FC0113009F0CEC062
:101E100010928000109281008091810088608093F0
:101E2000810080918100816080938100F401849120
:101E3000E82FF0E0EE0FFF1FE659FE4F85919491D9
:101E40009093090480930804F1018491809307041E
:101E500011E0AEC0143009F487C00CF463C0153033
:101E600009F0A4C01092200110922101809121015B
:101E700088608093210180912101816080932101FC
:101E8000F4018491E82FF0E0EE0FFF1FE659FE4FBA
:101E900085919491909300048093FF03F1018491C4
:101EA0008093FE0315E084C014BC15BC84B5826029
:101EB00084BD85B5816085BDF4018491E82FF0E093
:101EC000EE0FFF1FE659FE4F8591949190930C04FD
:101ED00080930B04F101849180930A0410E068C0A0
:101EE0001092B0001092B1008091B0008260809397
:101EF000B0008091B10081608093B100F4018491C1
:101F0000E82FF0E0EE0FFF1FE659FE4F8591949108
:101F10009093C7068093C606F10184918093C8060A
:101F200012E046C0109290001092910080919100B2
:101F300088608093910080919100816080939100EE
:101F4000F4018491E82FF0E0EE0FFF1FE659FE4FF9
:101F5000859194919093060480930504F1018491F6
:101F60008093040413E024C01092A0001092A100FA
:101F70008091A10088608093A1008091A100816080
:101F80008093A100F4018491E82FF0E0EE0FFF1F91
:101F9000E659FE4F85919491909303048093020437
:101FA000F10184918093010414E002C017FD96C0F2
:101FB00084E09CD9112309F44EC3123009F442C0C5
:101FC0001130C1F480918100887F8160809381000D
:101FD000D0928900C09288004092190450921A044D
:101FE00060921B0470921C0480916F008260809349
:101FF0006F0074C0133039F480919100887F816044
:102000008093910036C0143039F48091A100887F0C
:1020100081608093A1003FC0153039F48091210187
:10202000887F81608093210148C0133011F12CF426
:10203000123009F053C087EB0CC0143061F1153039
:10204000E1F14CC08091B100887F85608093B10040
:102050008EE98093B3004092C9065092CA066092FE
:10206000CB067092CC0680917000826080937000E5
:1020700035C0D0929900C0929800409215045092B9
:1020800016046092170470921804809171008260A7
:102090008093710023C0D092A900C092A800409202
:1020A00011045092120460921304709214048091EF
:1020B000720082608093720011C0D0922901C09298
:1020C000280140920D0450920E0460920F04709209
:1020D00010048091730082608093730068EE73E057
:1020E00080E090E00E94940484E0DCDA81E0809358
:1020F000240402C00E942205CE0186589F4F75DA43
:1021000068EE73E084EB96E05BDA8091210488232B
:1021100009F41CCDC856DF4F6881C859D04084EB04
:1021200096E0B1D90BCD87ED94E00E942F0287EDA8
:1021300094E00E949801892B09F43FC068EE73E097
:10214000CE018E569F4F9ADAF0D897FF3DC068ECCB
:1021500072E0C70193DACA56DF4F48815981C659E8
:10216000D040CE56DF4F68817981C259D040C70137
:102170002ED9811102C0C701A7D9C7010E943A0810
:10218000C70133DACA56DF4F48815981C659D0405A
:10219000CE56DF4F68817981C259D0408EEA96E0F1
:1021A00016D9CA56DF4F88819981C659D040892BEC
:1021B000A9F4CE018E569F4F18DA0E9450028091EA
:1021C00024048823D1F3AFCF8A30910509F4BFCF1F
:1021D000682FCE018E569F4F56D9B6CFCE56DF4FC1
:1021E000E881F981C259D040309719F380818D3050
:1021F00001F7809122049091230401969093230487
:102200008093220460ED72E081E196E0EDDA409186
:10221000220450912304052E000C660B770B77FFE8
:1022200004C081E196E03DDB04C02AE081E196E054
:10223000F0DA66EC73E081E196E0D6DA8091220470
:1022400090912304029709F0B4CF109223041092C6
:10225000220460EE72E0C70111DAB7018EEA96E05F
:102260009CD805962091B2063091B3068217930749
:1022700060F42091AE063091AF062115310529F0AA
:10228000F901E80FF91FC08001C0C12C0C2C000C13
:10229000DD08F0E3CF1AD108C701A7D9A60160E095
:1022A00070E02AE081E196E0B4DA66EC73E081E167
:1022B00096E09ADA66EE72E0C701E0D9B7018EEADD
:1022C00096E06BD85C01C70190D984E0A80EB11CE0
:1022D0000091B2061091B3060A151B0528F49A2D39
:1022E0008B2D5801092F182F68EE73E0CE0184570B
:1022F0009F4FC4D98091B2069091B306A816B90633
:10230000F0F48017910708F48C01E091AE06F0918B
:10231000AF06E00FF11F908010828091AE06909181
:10232000AF06BC016A0D7B1DCE0184579F4F48D973
:10233000E091AE06F091AF06E00FF11F9082C45716
:10234000DF4F88819981CC58D040009721F049D245
:10235000DC01CB0103C080E090E0DC018C01AF9692
:102360001FAE1EAEAF97E1961FAE1EAEE197E3968D
:102370001FAE1EAEE3974AE0B70159D2B701CE01B6
:1023800083599F4F1DD96BEE72E0C70177D9E39651
:102390004EAD5FADE397AF966EAD7FADAF97C70122
:1023A00016D8811102C0C7018FD8B701CE018C5851
:1023B0009F4F4BD9CE018C589F4F0E943A08CE01B7
:1023C0008C589F4F12D9C70110D9CE0183599F4F06
:1023D0000CD968EE73E0CE018A579F4F4FD9F801B0
:1023E0003297EE30F10508F066C08827EE58FF4FAF
:1023F0008F4F87C265EF72E0CE018A579F4FE0D8BA
:1024000041E060E070E082E090E00BC06EEF72E0CF
:10241000CE018A579F4FD4D840E060E070E083E05F
:1024200090E00E947E064DC069E073E0CE018A57BD
:102430009F4FC6D884E090E03BC060E173E0CE01DE
:102440008A579F4FBDD885E090E032C068E173E0C5
:10245000CE018A579F4FB4D841E061E070E086E03A
:1024600090E0DFCF61E273E0CE018A579F4FA8D89A
:1024700040E061E070E087E090E0D3CF6CE273E091
:10248000CE018A579F4F9CD888E090E011C063E34B
:1024900073E0CE018A579F4F93D889E090E008C03F
:1024A0006BE373E0CE018A579F4F8AD88FE090E0AC
:1024B0000E94CD0606C067E473E0CE018A579F4FA5
:1024C0007FD868EE73E08EEA96E07AD86BE473E02A
:1024D000CE0180589F4FD2D86DE573E0CE01805871
:1024E0009F4F0E94560A64E873E0CE0180589F4FC8
:1024F0000E94560AC657DF4F68817981CA58D0407A
:10250000CE0180589F4F0E94140A66EC73E0CE0102
:1025100080589F4F0E94560A64E973E0CE018058AC
:102520009F4F0E94560A64EB73E0CE0180589F4F84
:102530000E94560AC657DF4F48815981CA58D04079
:10254000CA57DF4F68817981C658D040CE01805884
:102550009F4F0E94E709CC57DF4FA880B980C4582D
:10256000D04069EC73E0C70189D8B701CE01835927
:102570009F4F6BD8B601CE0183599F4F0E94140A1A
:10258000811105C0CE0183599F4F0E94640A64EEF9
:1025900072E0CE0183599F4F0E94AA0A8C01B501B7
:1025A0000E94140A811103C0C8010E94640A66ECEB
:1025B00073E0C8010E94AA0ABC01CE018C589F4F4B
:1025C00044D800E028EB3BE040E050E0BE016C580E
:1025D0007F4FCE0186589F4F0E940907CE01865833
:1025E0009F4F03D8CE018C589F4F0E94F50ACE0111
:1025F00083599F4F0E94F50AC7010E94F50ABE0148
:1026000060587F4FC70121D801E028EE33E040E059
:1026100050E0B701CE0183599F4F0E940907CE01B8
:1026200083599F4F0E94F50AC7010E94F50A87ED62
:1026300094E00E942F02CE0180589F4F0E94F50A1D
:10264000CE018A579F4F0E94F50ACE0184579F4FB3
:102650000E94F50AAECD85B5887F846085BD9EE475
:1026600097BD40921D0450921E0460921F04709208
:10267000200480916E00826080936E002FCD8EEAE0
:1026800096E00E94F50A84EB96E00C94F50AEAE3E2
:10269000F4E01382128248EE53E060E070E044837D
:1026A0005583668377838AE192E09183808325E373
:1026B00031E03587248724E331E03787268720E31C
:1026C00031E0318B208B21E331E0338B228B22E30D
:1026D00031E0358B248B26E331E0378B268B118E4E
:1026E000128E138E148EE7EDF4E01382128244836F
:1026F0005583668377839183808325ED30E035872A
:10270000248724ED30E03787268720ED30E0318BB9
:10271000208B21ED30E0338B228B22ED30E0358BA6
:10272000248B26ED30E0378B268B118E128E138E84
:10273000148EE4E7F5E013821282448355836683A6
:102740007783918380832DEC30E0358724872CECD0
:1027500030E03787268728EC30E0318B208B29EC5E
:1027600030E0338B228B2AEC30E0358B248B2EEC3F
:1027700030E0378B268B118E128E138E148EE1E192
:10278000F6E01382128244835583668377839183B4
:10279000808385EC90E09587848784EC90E0978730
:1027A000868780EC90E0918B808B81EC90E0938B1E
:1027B000828B82EC90E0958B848B86EC90E0978BFB
:1027C000868B118E128E138E148E68EE73E084EB5E
:1027D00096E00E943E0B68EE73E08EEA96E00C9461
:1027E0003E0B1F93FC0199278827BC01E8941191A7
:1027F0001032E9F3193010F01E30C8F31B3249F0E3
:102800001D3241F4689405C01CD0610F711D811DFB
:10281000911D119110531A30B8F33EF490958095A4
:10282000709561957F4F8F4F9F4F1F910895BB27E4
:102830004A3031F4992322F4BDE2909581959F4F5F
:1028400016C0592F482F372F262F660F771F881F46
:10285000991F660F771F881F991F620F731F841FB0
:10286000951F660F771F881F991F0895BB27FB01CF
:102870005527AA27880F991FAA1FA41710F0A41B79
:1028800083955051B9F7A05DAA3308F0A95DA193D3
:10289000009779F7B111B1931192CB0100C0DC011F
:1028A000FC01672F71917723E1F7329704C07C9187
:1028B0006D9370836291AE17BF07C8F30895A1E2CC
:1028C0001A2EAA1BBB1BFD010DC0AA1FBB1FEE1FAA
:1028D000FF1FA217B307E407F50720F0A21BB30BF5
:1028E000E40BF50B661F771F881F991F1A9469F771
:1028F00060957095809590959B01AC01BD01CF01CD
:102900000895EE0FFF1F881F8BBF0790F691E02DF3
:102910001994CF93DF938230910510F482E090E018
:10292000E091CF06F091D00620E030E0C0E0D0E0AA
:10293000309711F14081518148175907C0F048176D
:10294000590761F482819381209719F09B838A83D0
:102950002BC09093D0068093CF0626C02115310559
:1029600019F04217530718F49A01BE01DF01EF0175
:102970000280F381E02DDCCF2115310509F1281B00
:10298000390B2430310590F412968D919C91139758
:102990006115710521F0FB019383828304C090933C
:1029A000D0068093CF06FD01329644C0FD01E20FB0
:1029B000F31F81939193225031092D933C933AC098
:1029C0002091CD063091CE06232B41F420910C02AC
:1029D00030910D023093CE062093CD0620910A024D
:1029E00030910B022115310541F42DB73EB74091CE
:1029F0000E0250910F02241B350BE091CD06F09191
:102A0000CE06E217F307A0F42E1B3F0B2817390759
:102A100078F0AC014E5F5F4F2417350748F04E0F3A
:102A20005F1F5093CE064093CD068193919302C0D1
:102A3000E0E0F0E0CF01DF91CF9108950F931F9375
:102A4000CF93DF93009709F48CC0FC013297138277
:102A500012820091CF061091D0060115110581F464
:102A600020813181820F931F2091CD063091CE06B7
:102A70002817390779F5F093CE06E093CD0671C09B
:102A8000D80140E050E0AE17BF0750F412962D91E8
:102A90003C911397AD012115310509F1D901F3CF0F
:102AA0009D01DA013383228360817181860F971F34
:102AB0008217930769F4EC0128813981260F371FAB
:102AC0002E5F3F4F318320838A819B819383828352
:102AD000452B29F4F093D006E093CF0642C013961D
:102AE000FC93EE931297ED01499159919E01240FA9
:102AF000351FE217F30771F480819181840F951FD0
:102B0000029611969C938E938281938113969C9347
:102B10008E931297E0E0F0E0D80112968D919C918F
:102B20001397009719F0F8018C01F6CF8D919C91C5
:102B300098012E5F3F4F820F931F2091CD06309159
:102B4000CE062817390769F4309729F41092D00679
:102B50001092CF0602C0138212821093CE06009309
:102B6000CD06DF91CF911F910F9108956F927F92C3
:102B70008F929F92AF92BF92CF92DF92EF92FF928D
:102B80000F931F93CF93DF93EC01009781F4CB0158
:102B9000DF91CF911F910F91FF90EF90DF90CF9039
:102BA000BF90AF909F908F907F906F90B2CEFC01BE
:102BB000E60FF71F9C0122503109E217F30708F4D2
:102BC000A8C0D9010D911C91119706171707A8F0FD
:102BD0000530110508F49BC0C801049786179707B4
:102BE00008F495C002501109061B170B01931193AD
:102BF0006D937C93CF0122DF8AC05B01A01AB10ADA
:102C00004C01800E911EA091CF06B091D00640E0FD
:102C100050E0E12CF12C109709F44AC0A815B90531
:102C2000D1F56D907C901197630182E0C80ED11CA4
:102C3000CA14DB0480F1A3014A195B096A0182E02E
:102C4000C80ED11C1296BC9012971396AC91B5E0A9
:102C5000CB16D10440F0B282A38351834083D901C3
:102C60006D937C930AC00E5F1F4FC301800F911FAD
:102C7000F90191838083EB2DFA2FE114F10431F0F7
:102C8000D7011396FC93EE93129741C0F093D006B0
:102C9000E093CF063CC08D919C911197481759073E
:102CA00008F4AC017D0112960D90BC91A02DB3CF1C
:102CB0008091CD069091CE0688159905E1F44617CE
:102CC0005707C8F480910A0290910B02009741F4D3
:102CD0008DB79EB740910E0250910F02841B950B49
:102CE000E817F907B0F4F093CE06E093CD06F901AA
:102CF000718360830CC0CB010CDE7C01009749F02E
:102D0000A801BE011BD0CE0199DEC70104C0CE01CF
:102D100002C080E090E0DF91CF911F910F91FF9072
:102D2000EF90DF90CF90BF90AF909F908F907F906B
:102D30006F90089581E090E0F89433C0FB01DC01CE
:102D400002C001900D9241505040D8F70895FB0108
:102D5000DC018D91019080190110D9F3990B089530
:102D6000FB01DC0101900D920020E1F70895FB01C9
:102D700051915523A9F0BF01DC014D914517411137
:102D8000E1F759F4CD010190002049F04D91401533
:102D90004111C9F3FB014111EFCF81E090E00197B0
:102DA000089511E0C7E1D1E000E005C0802FFE01E9
:102DB000A8DD2196011DC831D10780E00807B1F7D1
:042DC000F894FFCFB5
:102DC400E803E803E803010101FF0000D1068000E5
:102DD400000000009E0200000000E901FA0A6701F9
:102DE4002F02980176018A0141542B5253540D0A43
:102DF4000041540D0A0041542B43574D4F44453D67
:102E0400310D0A0041542B4349504D55583D310D65
:102E14000A0041542B4349505345525645523D31C3
:102E24002C38300D0A0041542B4E414D45706C61D5
:102E34006E740041542B50494E3230313400757356
:102E440065724E616D650073736964007073770019
:102E540041542B43575141500D0A0041542B4357C1
:102E64004A41503D2200222C2200220D0A004F4BE1
:102E74000041542B43574A41503F0D0A0041542B03
:102E840043494653520D0A0044454255473A2000EF
:102E94006275666665725F636F756E74203A2000B2
:102EA4002B4950442C00636D643D00636D642069BC
:102EB40073203A20006C65645F6175746F006C6503
:102EC400645F6D616E75616C006C65645F6F6E004C
:102ED4006C65645F6F66660066616E5F6175746FD2
:102EE4000066616E5F6D616E75616C0066616E5F38
:102EF4006F6E0066616E5F6F666600746573745F03
:102F0400627574746F6E0065727200485454502F69
:102F1400312E3120323030204F4B0D0A00436F6E7A
:102F240074656E742D547970653A746578742F687D
:102F3400746D6C3B636861727365743D5554462DC2
:102F4400380D0A00436F6E74656E742D4C656E67A0
:102F540074683A004163636573732D436F6E7472D2
:102F64006F6C2D416C6C6F772D4F726967696E3A87
:102F74002A0D0A00436F6E6E656374696F6E3A635F
:102F84006C6F73650D0A0D0A0041542B434950536D
:102F9400454E443D006E756C6C0022225C5C6208F8
:102FA400660C6E0A720D740900726571756573742E
:0E2FB40020746F20736C617665203A20000057
:00000001FF
