:1000000024C1000053C1000051C100004FC10000D5
:100010004DC100004BC1000049C1000047C10000B4
:1000200045C10000FDC50000FBC50000F9C500008A
:100030003DC100000C94F20D39C1000037C1000031
:1000400035C1000033C1000031C100002FC10000E4
:100050002DC100002BC1000029C1000097C5000080
:1000600025C100006DC4000042C400001FC1000093
:100070001DC100001BC1000019C1000017C1000014
:1000800015C1000013C1000011C100000FC1000024
:1000900005C40000DAC3000009C1000007C1000068
:1000A00005C1000003C1000001C10000FFC0000045
:1000B000FDC00000FBC00000F9C00000F7C0000058
:1000C000F5C00000F3C00000F1C0000095C30000BF
:1000D0006AC30000EBC000003DC3000012C3000073
:1000E000E5C0000081169316A416B5161017101758
:1000F000C316D616E416F2161017101710170417A9
:10010000F804FB04EA04EE04F2043205FF040305DC
:1001100009050D05110517051B051F0532052505E8
:1001200029052D0500002100240027002A002D00AC
:100130003000330001010000040107010A01000042
:100140000A0B02090C0D0E08070304010000000051
:10015000000000000000000000000000000000009F
:10016000000000000000000000001211100000005C
:10017000000000000000000000000000000000007F
:100180000000000000002200250028002B002E00A7
:100190003100340002010000050108010B010000DC
:1001A00020002300260029002C002F00320000012F
:1001B00000000301060109010505050507050808FA
:1001C0000808020202020A0A0808040404040101E1
:1001D00001010101010103030303030303030407F6
:1001E00007070C0C0C0C0C0C0C0C0202020206068D
:1001F0000606060606060B0B0B0B0B0B0B0B010280
:100200001020200808102040102040800201020128
:1002100008040201010204081020408080402010E0
:100220000804020180040201804020100804020139
:1002300008040201010204081020408001020408A1
:100240001020408002002B18FC1711241FBECFEF96
:10025000D1E2DEBFCDBF00E00CBF28E0A2E0B5E0F8
:1002600001C01D92AC34B207E1F715E0A0E0B2E0A6
:10027000EAEAF9E300E00BBF02C007900D92A2305A
:10028000B107D9F711E0C4E2D1E000E006C0219740
:100290000109802FFE010E94551AC332D10780E068
:1002A0000807A9F70E94E40E0C94C41CA9CEFC0117
:1002B000A089B1898C91A689B78982FD0FC09C91D4
:1002C000818D8F5F8F73228D821749F0218DDF0121
:1002D000A20FB11D5D969C93818F08958C91089516
:1002E000FC01538D448D252F30E0842F90E0821B3C
:1002F000930B541710F0CF96089501970895FC01C1
:10030000918D828D981761F0828DDF01A80FB11D4C
:100310005D968C91928D9F5F9F73928F90E0089570
:100320008FEF9FEF0895FC01918D828D981731F02A
:10033000828DE80FF11D858D90E008958FEF9FEF7E
:100340000895FC01918D228D892F90E0805C9F4F54
:10035000821B91098F739927089584E895E0F1DF56
:1003600021E0892B09F420E0822F089581E296E0B4
:10037000E8DF21E0892B09F420E0822F08958EEB3D
:1003800096E0DFDF21E0892B09F420E0822F089539
:100390008BE597E0D6DF21E0892B09F420E0822F5E
:1003A0000895FC01848DDF01A80FB11DA35ABF4F32
:1003B0002C91848D90E001968F739927848FA68964
:1003C000B7892C93A089B1898C9180648C93938D8B
:1003D000848D981306C00288F389E02D80818F7D7B
:1003E00080830895EF92FF920F931F93CF93DF9333
:1003F000EC0181E0888F9B8D8C8D981305C0E88976
:10040000F989808185FD23C0F62E0B8D10E00F5FEA
:100410001F4F0F731127E02E8C8DE8120BC00FB603
:1004200007FCFACFE889F989808185FFF5CFCE01F5
:10043000B8DFF2CF8B8DFE01E80FF11DE35AFF4FBD
:10044000F0820B8FEA89FB898081806207C0EE8988
:10045000FF896083E889F98980818064808381E0F5
:1004600090E0DF91CF911F910F91FF90EF90089551
:10047000CF93DF93EC01888D8823C1F0EA89FB8953
:10048000808185FD05C0A889B9898C9186FD0EC043
:100490000FB607FCF5CF808185FFF2CFA889B98917
:1004A0008C9185FFEDCFCE017CDFE8CFDF91CF913E
:1004B000089580E090E0892B19F06ADF811116C061
:1004C00080E090E0892B19F05ADF811112C080E0A2
:1004D00090E0892B19F04ADF81110EC080E090E096
:1004E000892B79F03ADF81110AC008950E9400003B
:1004F000E7CF0E940000EBCF0E940000EFCF0C94EA
:10050000000008953FB7F89480918005909181058F
:10051000A0918205B091830526B5A89B05C02F3F09
:1005200019F00196A11DB11D3FBFBA2FA92F982F19
:100530008827820F911DA11DB11DBC01CD0142E094
:10054000660F771F881F991F4A95D1F7089520914C
:100550000405309105052817390771F490910205BB
:1005600080910305981741F0E0910205F0E0E55C09
:10057000FA4F808190E008958FEF9FEF08950895DE
:100580001F93CF93DF93DC015C962D913C915D9797
:100590002115310539F481E090E013969C938E93F8
:1005A00012973DC05196ED91FC91529750969C91B7
:1005B0005097892F80951FB75E964C915E9741FBAF
:1005C000772770F941FD6095F8944081772311F009
:1005D000492B01C048234083E9012197F1F748E006
:1005E000508160FF02C0592B01C058235083E9019C
:1005F0002197F1F76695415099F7772321F0908183
:100600008923808303C08081982B90831FBF5C96D1
:100610008D919C915D970197F1F721E030E0C90140
:10062000DF91CF911F910895209104053091050528
:100630002817390769F4809103052091020590E09D
:10064000805C9F4F821B910960E470E00C94201A3B
:1006500080E090E008952091040530910505281769
:100660003907B9F49091020580910305981789F034
:10067000E0910205F0E0E55CFA4F808120910205EF
:1006800030E02F5F3F4F2F7333272093020590E018
:1006900008958FEF9FEF0895089580E090E008950A
:1006A000FC0126813781620F731F84819581861733
:1006B000970738F08281938177836683820F931F37
:1006C000089580E090E008950E94821C0F931F938C
:1006D000CF93DF938B01FC01C281D381209759F026
:1006E0006A817B81C8010E949A1C892B21F00990A4
:1006F000D881C02DF3CFCE01DF91CF911F910F9103
:1007000008951F920F920FB60F9211240BB60F92FD
:100710002F933F934F935F936F937F938F939F9309
:10072000AF93BF93EF93FF9384E895E03ADEFF9198
:10073000EF91BF91AF919F918F917F916F915F9159
:100740004F913F912F910F900BBE0F900FBE0F90C6
:100750001F9018951F920F920FB60F9211240BB68F
:100760000F922F933F934F935F936F937F938F934A
:100770009F93AF93BF93EF93FF9384E895E097DD4A
:10078000FF91EF91BF91AF919F918F917F916F9169
:100790005F914F913F912F910F900BBE0F900FBE25
:1007A0000F901F9018951F920F920FB60F92112461
:1007B0000BB60F922F933F934F935F936F937F935B
:1007C0008F939F93AF93BF93EF93FF9381E296E054
:1007D000E8DDFF91EF91BF91AF919F918F917F9154
:1007E0006F915F914F913F912F910F900BBE0F90A2
:1007F0000FBE0F901F9018951F920F920FB60F9279
:1008000011240BB60F922F933F934F935F936F93E7
:100810007F938F939F93AF93BF93EF93FF9381E267
:1008200096E045DDFF91EF91BF91AF919F918F9140
:100830007F916F915F914F913F912F910F900BBEE0
:100840000F900FBE0F901F9018951F920F920FB62A
:100850000F9211240BB60F922F933F934F935F93F8
:100860006F937F938F939F93AF93BF93EF93FF9378
:100870008EEB96E096DDFF91EF91BF91AF919F9146
:100880008F917F916F915F914F913F912F910F9039
:100890000BBE0F900FBE0F901F9018951F920F92D6
:1008A0000FB60F9211240BB60F922F933F934F93D5
:1008B0005F936F937F938F939F93AF93BF93EF93C8
:1008C000FF938EEB96E0F3DCFF91EF91BF91AF9138
:1008D0009F918F917F916F915F914F913F912F9158
:1008E0000F900BBE0F900FBE0F901F9018951F9288
:1008F0000F920FB60F9211240BB60F922F933F93C6
:100900004F935F936F937F938F939F93AF93BF9317
:10091000EF93FF938BE597E044DDFF91EF91BF915B
:10092000AF919F918F917F916F915F914F913F9187
:100930002F910F900BBE0F900FBE0F901F90189528
:100940001F920F920FB60F9211240BB60F922F9396
:100950003F934F935F936F937F938F939F93AF9347
:10096000BF93EF93FF938BE597E0A1DCFF91EF91AD
:10097000BF91AF919F918F917F916F915F914F91B7
:100980003F912F910F900BBE0F900FBE0F901F90B5
:100990001895362F90E0FC01E25CFE4F4491FC017B
:1009A000E250FE4F2491FC01E854FE4F94919923AC
:1009B00009F46BC0442309F455C050E0FA013197A3
:1009C000E231F10508F04EC08827E058FF4F8F4F05
:1009D0000C94551A809180008F7707C08091800019
:1009E0008F7D03C080918000877F809380003AC014
:1009F00084B58F7702C084B58F7D84BD33C080916C
:100A0000B0008F7703C08091B0008F7D8093B000DD
:100A100029C0809190008F7707C0809190008F7DD2
:100A200003C080919000877F809390001BC08091CD
:100A3000A0008F7707C08091A0008F7D03C08091B8
:100A4000A000877F8093A0000DC0809120018F7748
:100A500007C0809120018F7D03C080912001877F96
:100A600080932001E92FF0E0EE0FFF1FEC57FE4FBF
:100A7000A591B4918FB7F894EC91311103C02095F2
:100A80002E2301C02E2B2C938FBF0895CF93DF937D
:100A900090E0FC01E250FE4F2491FC01E854FE4F2F
:100AA0008491882361F190E0880F991FFC01EC5D2F
:100AB000FE4FC591D491FC01EC57FE4FA591B49126
:100AC000611109C09FB7F89488812095822388839B
:100AD000EC912E230BC0623061F49FB7F8943881FB
:100AE000822F809583238883EC912E2B2C939FBF9C
:100AF00006C08FB7F894E8812E2B28838FBFDF9133
:100B0000CF9108958F929F92AF92BF92CF92DF9232
:100B1000EF92FF926B017C01F5DC4B015C01C1148B
:100B2000D104E104F104E9F0EDDCDC01CB0188192A
:100B30009909AA09BB09883E9340A105B10578F33C
:100B400021E0C21AD108E108F10888EE880E83E09E
:100B5000981EA11CB11CC114D104E104F10421F7B9
:100B6000DECFFF90EF90DF90CF90BF90AF909F903F
:100B70008F9008952FB7F89460917C0570917D0552
:100B800080917E0590917F052FBF08951F920F924F
:100B90000FB60F9211242F933F938F939F93AF9390
:100BA000BF9380917C0590917D05A0917E05B091C9
:100BB0007F0530917B0523E0230F2D3720F401962C
:100BC000A11DB11D05C026E8230F0296A11DB11D70
:100BD00020937B0580937C0590937D05A0937E05F3
:100BE000B0937F058091800590918105A091820549
:100BF000B09183050196A11DB11D8093800590934E
:100C00008105A0938205B0938305BF91AF919F9119
:100C10008F913F912F910F900FBE0F901F901895BD
:100C20001F920F920FB60F9211240BB60F922F93B3
:100C30003F934F935F936F937F938F939F93AF9364
:100C4000BF93EF93FF93E0910405F0910505309772
:100C500009F451C0968DA685B785858591FF04C09E
:100C60009C91892329F447C09C91892309F043C0B2
:100C7000A389B4899C918589809589238C938689E1
:100C800097890197F1F7608D718DA685B785558598
:100C900038E020E0CB010197F1F7822F90E09595A5
:100CA0008795282F4C91452309F02068315091F702
:100CB000868D81FD20958091030590E001968F73CC
:100CC000992730910205381749F0A0910305B0E04B
:100CD000A55CBA4F2C938093030503C0868D816079
:100CE000868F828D938D0197F1F7A389B4899C91AA
:100CF0008589892B8C93FF91EF91BF91AF919F9143
:100D00008F917F916F915F914F913F912F910F90B4
:100D10000BBE0F900FBE0F901F90189560E081E3FF
:100D200038DE61E083E335CE0F931F93CF93DF93DB
:100D3000CDDCEC01892BC1F00C811D810130110546
:100D400059F46E817F816115710531F084E994E079
:100D50000E949A1C892B41F00150110902301105A3
:100D600018F48E819F8102C080E090E0DF91CF91E6
:100D70001F910F910895FC01A081B1818C918D305C
:100D800051F024F489508230B8F505C0803219F052
:100D90008F3219F0089511962CC011968C911197ED
:100DA0008A3219F08F32D1F008951196B183A08361
:100DB000A081B181CD0101969183808311968C91A0
:100DC00011978823C9F08A3299F712968C9112975D
:100DD0008F3271F713960DC08A3071F2A081B18104
:100DE000CD0101969183808311968C918111F4CF6E
:100DF00003C0B183A083C0CF08950F931F93CF93F7
:100E0000DF931F92CDB7DEB78C016983B4DFD801C1
:100E1000ED91FC91119780816981861305C031960F
:100E2000ED93FC9381E001C080E00F90DF91CF91C2
:100E30001F910F910895EF92FF920F931F93CF93FD
:100E4000DF938C01DC011496CD91DC911597EA803B
:100E5000FB808E819F81E80EF91EC80102968BDF10
:100E6000D8011296ED91FC9113979081973291F1F0
:100E7000923281F180ED890F8A3060F0892F8F7D69
:100E800081548A3138F09B3229F083ED890F82300A
:100E900008F060C0F801228133812F5F3F4F338318
:100EA00022832E813F81A9014F5F5F4F6C817D813D
:100EB0006417750740F06A817B81FB01E20FF31F25
:100EC0005F834E839083D8011296ED91FC91139726
:100ED0009081D0CF3196D8011396FC93EE93129760
:100EE000D8011296ED91FC9113972081222391F164
:100EF000AF014F5F5F4F13965C934E931297291784
:100F000049F12C35A9F42181ADE9B4E08C91882315
:100F100039F0821303C011962C9102C01296F6CFBD
:100F20002223C1F03296D8011396FC93EE931297C8
:100F30004E815F81BA016F5F7F4FEC81FD81E617C3
:100F4000F70770F2EA81FB81E40FF51F7F836E8360
:100F50002083C6CF8E819F819C012F5F3F4F4C81A4
:100F60005D814217530748F04A815B81FA01E80F1F
:100F7000F91F3F832E83108202C0E12CF12CC701A0
:100F8000DF91CF911F910F91FF90EF9008950F93F4
:100F90001F93CF93DF93EC018C01060F171FC0172F
:100FA000D10729F0699184E895E01CDAF8CF60ED6B
:100FB00077E080E090E0A6DD84E895E0C2D9892B57
:100FC00021F084E895E09BD9F7CFDF91CF911F9175
:100FD0000F9108950F931F93CF93DF93CDB7DEB793
:100FE0002C970FB6F894DEBF0FBECDBF8C0168EA18
:100FF00074E0CE0101969ED5BE016F5F7F4FCE019A
:1010000007967FD5B801CE01079639D4A6D1CE0177
:10101000079609D5CE01019606D5B80188EF97E06D
:10102000ADD12C960FB6F894DEBF0FBECDBFDF91C9
:10103000CF911F910F9108958F929F92AF92BF927F
:10104000CF92DF92EF92FF920F93CF93DF93CDB7C2
:10105000DEB72A970FB6F894DEBF0FBECDBF7C0176
:101060006B0167EA74E02F83388749875A8762D516
:10107000B60181E296E015D67DDD2F813885498560
:101080005A854B015C01820E931EA41EB51E72DDB3
:10109000681579058A059B0560F481E296E051D9CF
:1010A000892BA9F381E296E02AD9682FC7016FD373
:1010B000F4CFF60184819581892B09F444C06FEC4B
:1010C00072E0808191810E949A1C892B09F03BC0BB
:1010D00064EC74E0CE0101962DD5BE016F5F7F4FA9
:1010E000C701DFD25C01CE0101969DD460EC72E0B5
:1010F000CE0101961FD5BE016F5F7F4FC701D1D2D0
:101100006C01CE0101968FD469EC74E08BE597E019
:10111000D6D5C50162D263ED74E08BE597E0CFD5FB
:10112000C6015BD2960124503109A501B701CE0159
:10113000019635D4BE016F5F7F4F8FE298E048D3B0
:10114000CE01019670D4011102C0C70106D1C701BA
:101150002A960FB6F894DEBF0FBECDBFDF91CF91B8
:101160000F91FF90EF90DF90CF90BF90AF909F9046
:101170008F900895DB01109749F0ED91FC91119744
:101180000190F081E02DBC01CD01199480E090E048
:1011900008959F92AF92BF92CF92DF92EF92FF920B
:1011A0000F931F93CF93DF9300D000D0CDB7DEB75E
:1011B0006C01FC0100811181B80184E090E0DADF6C
:1011C000009739F0FC0111830083138212828C0195
:1011D00011C08091330581110BC01092300510921F
:1011E0002F05109232051092310581E0809333056E
:1011F0000FE215E07601F2E0EF0EF11C6BE7C7019C
:10120000FCDD882309F45EC06DE7C701F6DD8111BE
:101210006AC086E0982EC6010EDE5C01892B09F4B7
:1012200051C06AE3C701E9DD882309F44BC01A8283
:101230001982BE016F5F7F4FC601CFD0882309F4AA
:1012400041C0B501C80142DADC01892B49F5F8013A
:10125000608171818AE090E08DDFDC01892B39F0BB
:1012600011961C921E9215961C921E921497F801CC
:10127000228133812115310551F0F901808191815D
:10128000009711F09C01F9CFB183A08303C0F8014E
:10129000B383A2831097B1F01396BC92AE921297CB
:1012A000FE0131961496892D01900D928A95E1F7F1
:1012B0006DE7C701A2DD811116C06CE2C7019DDD9B
:1012C0008111A9CF8091330581110BC01092300597
:1012D00010922F05109232051092310581E0809313
:1012E00033050FE215E0C80126960FB6F894DEBF6D
:1012F0000FBECDBFDF91CF911F910F91FF90EF9067
:10130000DF90CF90BF90AF909F9008950F931F9361
:10131000CF93DF93EC0188819981009729F02A818E
:101320003B812617370788F48B016F5F7F4F0E9440
:101330009E1B009761F0998388831B830A832C810D
:101340003D81232B11F4FC01108281E001C080E07B
:10135000DF91CF911F910F910895CF93DF93BC013F
:101360008BE597E09ED4EC0165E874E08BE597E0AF
:10137000A6D48C0F9D1FDF91CF910895AB01770FFD
:10138000660B770B77FDF8C42AE0AEC4FC01A08998
:10139000B18982E08C93A485B5851C92A685B7851A
:1013A0008FEC8C93108EA489B58986E08C93A289EA
:1013B000B3898C9180618C93A289B3898C91886068
:1013C0008C93A289B3898C9180688C930288F3896D
:1013D000E02D80818F7D808308959F92AF92BF9290
:1013E000CF92DF92EF92FF920F931F93CF93DF93F1
:1013F00000D000D0CDB7DEB7FC019681992309F467
:10140000D8C06B017F01915096835F0182E0A80EE6
:10141000B11CC501B0DCD7011296ED91FC91139778
:1014200080818B3521F08B3709F492C09BC0F70186
:1014300000811181B80184E090E09CDE009751F0BA
:10144000DC0111961C930E9313961C921E92129718
:101450008C0111C08091390881110BC0109236089F
:1014600010923508109238081092370881E0809366
:10147000390805E318E06BE5C501BFDC882309F4F2
:1014800047C06DE5C501B9DC811153C086E0982ED7
:101490001A821982BE016F5F7F4FC7019EDF8823CA
:1014A000B9F1F8016081718188E090E063DEDC01D0
:1014B000892B39F011961C921E9213961C921E9243
:1014C0001297F801228133812115310551F0F9017C
:1014D00080819181009711F09C01F9CFB183A083A5
:1014E00003C0F801B383A283109791F0FE013196F7
:1014F0001296892D01900D928A95E1F76DE5C5014F
:101500007CDC811116C06CE2C50177DC8111C0CF93
:101510008091390881110BC010923608109235085D
:10152000109238081092370881E08093390805E35B
:1015300018E0D8018D919C91892B11F410E031C0F5
:1015400086E090E0F601918380831383028328C0B4
:10155000C7011FDEDC012D913C91232B79F327E09D
:1015600030E019C011E0873219F0823209F010E042
:10157000C70161DC009711F3112359F022E030E03C
:10158000D60111963C932E9313969C938E931297AB
:1015900008C021E030E0F601318320839383828309
:1015A00011E0D70116968C9116978F5F16968C9343
:1015B00001C010E0812F26960FB6F894DEBF0FBE53
:1015C000CDBFDF91CF911F910F91FF90EF90DF90F2
:1015D000CF90BF90AF909F900895CF93DF93AC01D1
:1015E000990F660B770B77FF04C08BE597E0C4D3A8
:1015F00004C02AE08BE597E077D3EC0165E874E05E
:101600008BE597E05CD38C0F9D1FDF91CF91089500
:101610000F931F93AFDA6093290670932A06809385
:101620002B0690932C06E0912106F091220602846D
:10163000F385E02D81E296E0199597FF1EC09ADAB6
:101640000091290610912A0620912B0630912C0634
:10165000DC01CB01801B910BA20BB30B0091250683
:1016600010912606209127063091280680179107B1
:10167000A207B307C0F28FEF9FEF1F910F9108955C
:10168000CF93DF93BC018BE597E019D3EC0165E8BC
:1016900074E08BE597E013D38C0F9D1FDF91CF9102
:1016A0000895CF93DF93FC0124813581232B71F0C2
:1016B000FB01DC01CD91DC9160817181CE010E9442
:1016C000AA1C009719F08C1B9D0B02C08FEF9FEF97
:1016D000DF91CF910895EF92FF920F931F93CF93D5
:1016E000DF93FC01248135816115710511F480E0DF
:1016F00018C041155105A1F07B01EC018A01020FD0
:10170000131FB80103DE882391F3288139818C816E
:101710009D81B701820F931F0E94A31C1D830C8320
:1017200081E0DF91CF911F910F91FF90EF9008958D
:10173000EF92FF920F931F93CF93DF93CDB7DEB756
:1017400027970FB6F894DEBF0FBECDBF7C01CB014B
:101750004AE08E010F5F1F4FB8010E94F719F80190
:1017600001900020E9F73197AF01401B510BB80100
:10177000C701B1DF27960FB6F894DEBF0FBECDBF0D
:10178000DF91CF911F910F91FF90EF900895CF932C
:10179000DF931F921F92CDB7DEB769831A8241E0B3
:1017A00050E0BE016F5F7F4F96DF0F900F90DF918B
:1017B000CF9108956115710549F0FB01019000205A
:1017C000E9F73197AF01461B570B85CF80E00895AD
:1017D0000F931F93CF93DF938C01EB01FC0180816A
:1017E00091810097B1F0688179816115710579F077
:1017F000428153812C813D814217530740F00E9462
:10180000A31C8C819D81F8019583848313C00E9461
:10181000061B88819981F801918380838A819B814D
:10182000938382838C819D8195838483198218821E
:101830001B821A821D821C82DF91CF911F910F9112
:101840000895CF93DF93EC0188819981009711F07F
:101850000E94061B198218821D821C821B821A821A
:10186000DF91CF910895CF93DF93EC0161DF811178
:1018700002C0CE01E6DFCE01DF91CF910895EF9255
:10188000FF920F931F93CF93DF93CDB7DEB72897C7
:101890000FB6F894DEBF0FBECDBF7C01CB014AE08E
:1018A0008E010F5F1F4FB8010E94D819F8010190F7
:1018B0000020E9F73197AF01401B510BB801C70178
:1018C0000ADF811102C0C701BCDFC70128960FB62D
:1018D000F894DEBF0FBECDBFDF91CF911F910F9166
:1018E000FF90EF900895CF93DF93EC0161157105A0
:1018F00059F0FB0101900020E9F73197AF01461B39
:10190000570BE9DE811102C0CE019BDFCE01DF91D2
:10191000CF910895CF93DF93EC01FB014481558172
:1019200060817181D8DE811102C0CE018ADFCE01D3
:10193000DF91CF910895EF92FF920F931F93CF9372
:10194000DF93EC017B018A01BA01E0DC811103C065
:10195000CE0177DF07C01D830C83B7018881998191
:101960000E94A31CCE01DF91CF911F910F91FF9098
:10197000EF900895CF93DF93EC016115710551F05D
:10198000FB0101900020E9F73197AF01461B570B8F
:10199000D2DF01C056DFCE01DF91CF910895BF9213
:1019A000CF92DF92EF92FF920F931F93CF93DF932B
:1019B0007C016B018A01E9012417350720F4812F8E
:1019C0008901C42FD82F67EA74E0C701B3D0D601CC
:1019D00014968D919C91159708171907C8F48C17C8
:1019E0009D0708F4EC01D601ED91FC911197EC0FE5
:1019F000FD1FB08010824D915C91BA01600F711F84
:101A0000C701B8DFD601ED91FC91EC0FFD1FB0824C
:101A1000C701DF91CF911F910F91FF90EF90DF9061
:101A2000CF90BF900895FC01808191810C94061B9A
:101A3000EF92FF921F93CF93DF93CDB7DEB72C9732
:101A40000FB6F894DEBF0FBECDBF21E02627309140
:101A5000060232131EC0162F7C016DEE74E0CE011B
:101A6000079668D0BE01695F7F4FCE01019649D0CD
:101A7000B701CE01019603DF70DCCE010196D3DF02
:101A8000CE010796D0DFB7018EEB96E077DC10939E
:101A900006022C960FB6F894DEBF0FBECDBFDF91C5
:101AA000CF911F91FF90EF9008950895CF92DF920C
:101AB000EF92FF920F931F93CF93DF936C017A0104
:101AC0008B01C0E0D0E0CE15DF0589F0D8016D9123
:101AD0008D01D601ED91FC910190F081E02DC601C0
:101AE0001995892B11F47E0102C02196ECCFC70114
:101AF000DF91CF911F910F91FF90EF90DF90CF90EA
:101B00000895FB01DC0111961C921E9213961C9203
:101B10001E92129715961C921E921497861797077D
:101B200041F0608171816115710519F04481558121
:101B300002CF0895FC011182108213821282158255
:101B400014826115710549F0FB0101900020E9F74D
:101B50003197AF01461B570BEECE089590910902C5
:101B600098133DC0E4E4F2E0E4919FEF9093090202
:101B7000E230C9F050F4EE2399F0E13081F5909114
:101B80006F009D7F90936F002AC0E43019F1E0F060
:101B9000E53029F5909173009D7F909373001FC0ED
:101BA00010926E001CC0909170009D7F9093700009
:101BB00091E09093B0009091B100987F94609093E1
:101BC000B1001092B3000BC0909171009D7F909373
:101BD000710005C0909172009D7F9093720060E04B
:101BE0000C94C9041F920F920FB60F9211240BB6DA
:101BF0000F922F933F934F935F936F937F938F93A6
:101C00009F93AF93BF93EF93FF938091440890917C
:101C10004508A0914608B0914708892B8A2B8B2B49
:101C200051F180914308E0914108F0914208908180
:101C3000892780838091440890914508A0914608A7
:101C4000B0914708181619061A061B06BCF48091B5
:101C5000440890914508A0914608B0914708019723
:101C6000A109B1098093440890934508A0934608C0
:101C7000B093470803C08091090270DFFF91EF9194
:101C8000BF91AF919F918F917F916F915F914F9194
:101C90003F912F910F900BBE0F900FBE0F901F9092
:101CA0001895DC01ED91FC91DB0114964D915C914E
:101CB00015976D917C910280F381E02D1994611547
:101CC000710579F0FB0101900020E9F73197AF0130
:101CD000461B570BDC01ED91FC910280F381E02D56
:101CE000199480E090E008954F925F926F927F92F6
:101CF000EF92FF920F931F93CF93DF93CDB7DEB791
:101D0000A1970FB6F894DEBF0FBECDBF7C01FA01DC
:101D1000CB0119A2223008F42AE08E010F5D1F4F7B
:101D2000422E512C612C712CBF01A30192010E9403
:101D3000331AF901CA01015011096A3014F4605DC7
:101D400001C0695CD8016C93232B242B252B61F7F0
:101D5000B801C701B4DFA1960FB6F894DEBF0FBE7D
:101D6000CDBFDF91CF911F910F91FF90EF907F90AA
:101D70006F905F904F900895CF92DF92EF92FF9215
:101D80000F931F93CF93DF93EC016A017B01E881EE
:101D9000F9810190F081E02D6DE219958C014427C5
:101DA0005527BA014C195D096E097F092AE0CE0159
:101DB0009BDF800F911FDF91CF911F910F91FF90BB
:101DC000EF90DF90CF900895CF93DF93CDB7DEB73C
:101DD000C859D1090FB6F894DEBF0FBECDBF7894B5
:101DE00084B5826084BD84B5816084BD85B5826020
:101DF00085BD85B5816085BD80916E0081608093D1
:101E00006E00109281008091810082608093810039
:101E10008091810081608093810080918000816049
:101E2000809380008091B10084608093B1008091A4
:101E3000B00081608093B0008091910082608093B7
:101E40009100809191008160809391008091900039
:101E50008160809390008091A10082608093A100B6
:101E60008091A10081608093A1008091A000816099
:101E70008093A00080912101826080932101809154
:101E800021018160809321018091200181608093F4
:101E9000200180917A00846080937A0080917A009A
:101EA000826080937A0080917A00816080937A00CA
:101EB00080917A00806880937A001092C10061E07E
:101EC00081E30E94460561E08FE10E94460561E0E2
:101ED00083E30E94460560E08FE10E94C90460E050
:101EE00081E30E94C90460E083E30E94C9048BE59A
:101EF00097E04CDA8EEB96E049DA81E296E046DA3A
:101F000010921308109212081092110810921008E3
:101F100010920F0810920E088DE991E09093150829
:101F2000809314088091040896EF980F943048F03D
:101F30002EEC280F243028F022EC280F283008F04F
:101F400070C02DEB30E030930F0820930E082BE982
:101F500031E030931108209310082CE231E03093E7
:101F6000130820931208943070F02EEC280F2430C0
:101F700050F022EC280F283010F40C94F217A0E057
:101F8000B0E00C94F417A8E6B0E0E8E6F0E02081B9
:101F9000943018F08E53883010F081E001C084E056
:101FA000822B8C938091040896EF980F943058F010
:101FB0002EEC280F243038F022EC280F283030F097
:101FC00020E030E005C02BE630E002C02DE630E036
:101FD00030930C0820930B08943010F49AEF0BC048
:101FE000823381F0833381F0843381F092EC980F57
:101FF000983070F492EC980F81E001C0880F9A95A8
:10200000EAF707C088E005C084E003C082E001C0B1
:1020100081E080930D088091140890911508019734
:10202000F1F78091120890911308892B49F1E09102
:102030000405F091050587E0E83FF80709F13097BE
:1020400039F0A389B4899C918589809589238C93E3
:10205000809116088E7F80931608109203051092C7
:10206000020588EF97E09093050580930405E091C1
:102070000B08F0910C08908180910D08892B8083CA
:1020800068EE73E080E090E00E9482056AE372E00F
:10209000CE0183599F4F4EDD00E028EB3BE040E04E
:1020A00050E0BE0163597F4FFE0131967F01CF01A1
:1020B0000E941C08C701B7DCCE0183599F4FB3DCD7
:1020C00063E472E0CE0183599F4F34DD20ED37E0A9
:1020D00040E050E0BE0163597F4FC7010E941C08D9
:1020E000C701A1DCCE0183599F4F9DDC68E472E0FB
:1020F000CE0183599F4F1EDD20ED37E040E050E0D8
:10210000BE0163597F4FC7010E941C08C7018BDCC9
:10211000CE0183599F4F87DC66E572E0CE0183597B
:102120009F4F08DD20ED37E040E050E0BE016359ED
:102130007F4FC7010E941C08C70175DCCE0183597F
:102140009F4F71DC64E672E0CE0183599F4FF2DC51
:1021500020ED37E040E050E0BE0163597F4FC701FA
:102160000E941C08C7015FDCCE0183599F4F5BDCD6
:1021700084E895E00BD96CE070E088E792E00E947B
:10218000C7076AE070E085E892E00E94C7070E94F6
:102190008E0684E895E00E94A101892BD1F360EDC1
:1021A00077E080E090E00E948205E7EBCE2EEFE43E
:1021B000DE2E44244A94542C32018DEE882E81E088
:1021C000982E93E3292E92E0392E84E895E00E9420
:1021D000A101892B09F4FFC284E895E00E947F01E8
:1021E000C856DF4F8883C859D0408B3721F481E02F
:1021F00080932905E1C280912905882309F4DCC276
:10220000C856DF4FF881C859D040FD3709F0D4C215
:10221000109229056DE78DE198E0B9DA89E090E048
:102220008C0F9D1F9C838B83E4E6F0E0FE83ED839F
:1022300018861F8284E192E09A83898380911D0829
:1022400090911E08009711F487EA94E0AF96FFAED4
:10225000EEAEAF97E1969FAF8EAFE197E396FFAEFC
:10226000EEAEE3979AE0E4969FAFE497CE018359F0
:102270009F4F0E94C9088C0160E972E00E94940699
:10228000909301028093000269E972E0C8010E9404
:10229000940690930302809302026EE972E0C801F3
:1022A0000E94940690930502809304020E948E0679
:1022B00062EA72E0CE0183599F4F3CDC00E020EDE2
:1022C00037E040E050E0BE0163597F4FC7010E94F4
:1022D0001C08C701A8DBCE0183599F4FA4DB0091E6
:1022E000040210910502A0900202B09003026DEA70
:1022F00072E0CE0183599F4F1DDCBE0163597F4FB1
:10230000C701FFDBB501C701EEDA68EB72E0EBDA7B
:10231000B801E9DA6CEB72E0E6DABC01CE0186586E
:102320009F4FEFDBC7017FDBCE0183599F4F7BDBE4
:10233000BE0166587F4FCE0183599F4FE2DB00E01C
:1023400028E833E140E050E0BE0163597F4FC70108
:102350000E941C08C70167DBCE0183599F4F63DBD6
:1023600060EC72E0C701E6DB63EC72E0CE018C58F2
:102370009F4FE0DB28EB3BE040E050E0BE016C58B3
:102380007F4FCE0183599F4F0E941C08B701CE0199
:1023900083599F4F86D98C01CE0183599F4F43DBD0
:1023A000CE018C589F4F3FDBC7013DDB0F3F1F4FD6
:1023B00009F4F7C16DE178E08EEB96E072DC8EEB0C
:1023C00096E00E94A101892BD1F368EE73E080E0D2
:1023D00090E00E9482058EEB96E00E94A101892B7D
:1023E00079F18EEB96E00E947F01182FE0915B0758
:1023F000F0915C070190F081E02D682F8BE597E06C
:10240000199565E874E08BE597E059DC113319F311
:102410006FEC72E0CE0183599F4F8CDB00E020ED22
:1024200037E040E050E0BE0163597F4FC7010E9492
:102430001C08C701F8DACE0183599F4FF4DAB3C103
:102440006FEC72E0CE0183599F4F74DB00E020ED0A
:1024500037E040E050E0BE0163597F4FC7010E9462
:102460001C08C701E0DACE0183599F4FDCDA61E036
:1024700081E30E94C90460E083E30E94C904809163
:102480000902853321F4E4E4F2E01491E4C08F3FC3
:1024900009F07BC185E380930902E4E4F2E0149142
:1024A0001F3F09F472C1123009F46FC044F51123C3
:1024B00009F44FC0113009F0CEC010928000109284
:1024C00081008091810088608093810080918100EB
:1024D000816080938100F4018491E82FF0E0EE0F99
:1024E000FF1FEC57FE4F85919491909311058093B7
:1024F0001005F101849180930F0511E0AEC01430F6
:1025000009F487C00CF463C0153009F0A4C0109220
:102510002001109221018091210188608093210186
:1025200080912101816080932101F4018491E82F41
:10253000F0E0EE0FFF1FEC57FE4F859194919093C2
:10254000080580930705F10184918093060515E045
:1025500084C014BC15BC84B5826084BD85B581601F
:1025600085BDF4018491E82FF0E0EE0FFF1FEC57DA
:10257000FE4F859194919093140580931305F1017A
:1025800084918093120510E068C01092B000109200
:10259000B1008091B00082608093B0008091B10062
:1025A00081608093B100F4018491E82FF0E0EE0F98
:1025B000FF1FEC57FE4F85919491909342088093B2
:1025C0004108F10184918093430812E046C01092C3
:1025D000900010929100809191008860809391000A
:1025E00080919100816080939100F4018491E82FA3
:1025F000F0E0EE0FFF1FEC57FE4F85919491909302
:102600000E0580930D05F101849180930C0513E074
:1026100024C01092A0001092A1008091A1008860B7
:102620008093A1008091A10081608093A100F401BA
:102630008491E82FF0E0EE0FFF1FEC57FE4F8591DD
:10264000949190930B0580930A05F10184918093F6
:10265000090514E002C017FD98C061E085E30E94FF
:102660004605112309F4AAC4123009F442C01130FE
:10267000C1F480918100887F816080938100D09235
:102680008900C092880040922105509222056092F4
:1026900023057092240580916F00826080936F0003
:1026A00074C0133039F480919100887F81608093E9
:1026B000910036C0143039F48091A100887F816088
:1026C0008093A1003FC0153039F480912101887FAB
:1026D00081608093210148C0133011F12CF4123035
:1026E00009F053C087EB0CC0143061F11530E1F1F3
:1026F0004CC08091B100887F85608093B1008EE9E5
:102700008093B30040924408509245086092460876
:10271000709247088091700082608093700035C08D
:10272000D0929900C092980040921D0550921E05CB
:1027300060921F05709220058091710082608093E5
:10274000710023C0D092A900C092A8004092190540
:1027500050921A0560921B0570921C0580917200C0
:1027600082608093720011C0D0922901C09228012A
:102770004092150550921605609217057092180543
:102780008091730082608093730068EE73E080E054
:1027900090E00E94820585E3E1D981E080932E05D7
:1027A00002C00E948E06CE0186589F4F3CD967EA30
:1027B00074E08DE198E0DED880912905882309F442
:1027C00004CDC856DF4F6881C859D0408DE198E0EC
:1027D0000E94C70BF2CC6AED72E08BE597E06FDAEE
:1027E0008FE298E00E94AD0960912F087091300847
:1027F0006115710541F0409133085091340889E228
:1028000098E099D803C089E298E01BD867EE72E09F
:10281000CE0183599F4F8ED9BE0163597F4FC701A7
:1028200070D969EB72E0C7015ED86BEF72E05BD8DC
:1028300067E073E058D860E570E015D865E874E0AB
:1028400052D8BC01CE0184579F4F5BD9C701EBD84A
:10285000CE0183599F4FE7D860EC72E0C7016AD977
:10286000BE0164577F4FCE018C589F4F4AD900E07C
:1028700028E833E140E050E0BE016C587F4FCE01C4
:1028800083599F4F0E941C08B701CE0183599F4F67
:102890000E94510B8C01CE0183599F4FC4D8CE01A9
:1028A0008C589F4FC0D8C701BED80F3F1F4F31F47F
:1028B00081E296E00E94380210E097C06FE278E073
:1028C000C7011FD96AE073E0CE0183599F4F32D907
:1028D000B701CE0183599F4F1DD8BC01CE018A5745
:1028E0009F4F0FD9CE0183599F4F9DD8C7019BD8C9
:1028F0006FE073E0C7011ED963E278E0C7010AD830
:10290000BE016A577F4F06D865E874E00E94730CD9
:10291000BC01CE0180589F4FF4D8C70184D864E130
:1029200073E0CE0180589F4F0E94DA0BCC57DF4FE7
:1029300008811981C458D04069E273E0CE018658FD
:102940009F4FF8D8BE0166587F4FCE018C589F4FDD
:10295000D8D8B801CE018C589F4F0E94330C65E83F
:1029600074E00E94730CBC01CE0183599F4FC9D8FB
:1029700000E028EE33E040E050E0BE0163597F4FB5
:10298000C7010E941C08C7014ED8CE0183599F4F32
:102990004AD8CE018C589F4F46D8CE0186589F4FBB
:1029A00042D8BE0160587F4FCE0183599F4FA9D8AE
:1029B00028EE33E040E050E0BE0163597F4FC7018D
:1029C0000E941C08C7012FD8CE0183599F4F2BD8D6
:1029D00081E296E00E943802CE0180589F4F23D8B2
:1029E000CE018A579F4F1FD811E0CE0184579F4FC9
:1029F0001AD8112319F087E393E002C087E493E02B
:102A00000E94400B00912A0510912B0503301105FF
:102A100009F453C069E278E0CE0183599F4F71D821
:102A2000E396CEACDFACE397C114D10491F0AF963E
:102A3000AEACBFACAF976EE270E0C50170D7009747
:102A400041F0AC014A195B0941338DE2580719F492
:102A500008C04FEF5FEF0F5F1F4F10932B050093E0
:102A60002A054F5F5F4F9601BE0163597F4FC70133
:102A70000E94CF0CB701CE0183599F4F0E94E80BF3
:102A8000C7010E94130D1A8219821C821B821E82AA
:102A90001D82BE0163597F4FC7010E94E80BB70139
:102AA00089E298E00E94E80BC7010E94130DCE0155
:102AB00083599F4F0E94130DA5CF66E573E08BE508
:102AC00097E0FDD889E298E00E94AD0969E278E0DC
:102AD0008EEB96E0E6D880912E05882309F46BC230
:102AE00081E296E00E94380281E296E00E94A10114
:102AF000892B09F460C267EA74E0CE018E569F4FBD
:102B000019D80E94080B97FD0AC08A30910539F048
:102B1000682FCE018E569F4F0E94C70BF2CF61E601
:102B200073E0C70107D8BE016E567F4FC7010E94F0
:102B30008A0C0E94AD09C7010E94130DCA56DF4FCF
:102B400048815981C659D040CE56DF4F688179817E
:102B5000C259D04087E198E00E946B0BCA56DF4F04
:102B600088819981C659D040892B09F41FC2CE565D
:102B7000DF4FE881F981C259D040309709F416C27D
:102B800080818D3009F012C280912C0590912D0525
:102B9000019690932D0580932C05029709F006C2AB
:102BA00010922D0510922C0569E673E0C7010E9472
:102BB0009A0DB70187E198E00E94510B059620918C
:102BC0001B0830911C088217930760F420911708A6
:102BD000309118082115310529F0F901E80FF91F86
:102BE000008101C000E0002E000C110B0053110900
:102BF000C7010E94130DA80160E070E02AE08BE598
:102C000097E072D865E874E08BE597E058D86FE6F6
:102C100073E0C7010E949A0DB70187E198E00E9416
:102C2000510B6C01C7010E94130D20911B083091BC
:102C30001C08A6014C5F5F4F67E178E0CE01845726
:102C40009F4F0E94CF0CC457DF4F88819981CC5889
:102C5000D040009721F086D34B015C0103C0812C4A
:102C6000912C5401AF961FAE1EAEAF97E1961FAEEA
:102C70001EAEE197E3961FAE1EAEE3974AE0B701A2
:102C8000C40196D3B701CE0183599F4F0E94BA0C5D
:102C900064E773E0C7010E949A0DBE0163597F4F3C
:102CA000C7010E948A0CBC01CE018C589F4F0E9424
:102CB000810DCE018C589F4F0E94AD09CE018C58DA
:102CC0009F4F0E94130DC7010E94130DCE0183591F
:102CD0009F4F0E94130D67EA74E0CE018A579F4F01
:102CE0000E949A0D092C000CAA08BB08F401329727
:102CF000EE30F10508F094C08827EE58FF4F8F4F53
:102D0000D4C36EE773E0CE018A579F4F0E94BA0C7E
:102D100061E082E090E00E94180D81E0809306025D
:102D20008093070284C06BE873E0CE018A579F4FFF
:102D30000E94BA0C60E083E090E00E94180D1092AF
:102D400006021092070273C08091060281110AC028
:102D50006AE973E0CE018A579F4F0E94BA0C84E063
:102D600090E05BC081EA93E01EC080910602811171
:102D7000F9CF69EB73E0CE018A579F4F0E94BA0CDE
:102D800085E090E04AC08091070281110AC061ECA1
:102D900073E0CE018A579F4F0E94BA0C88E090E002
:102DA0003CC088EC93E00E94400B41C08091070238
:102DB0008111F7CF60EE73E0CE018A579F4F0E94DA
:102DC000BA0C89E090E029C068EE73E0CE018A5722
:102DD0009F4F0E94BA0C61E08FE10E94C9046AE033
:102DE00070E00DC060EF73E0CE018A579F4F0E94E4
:102DF000BA0C60E08FE10E94C9046BE070E08EEBDA
:102E000096E00E94BE0913C069EF73E0CE018A57B5
:102E10009F4F0E94BA0C8FE090E00E94EA0707C023
:102E200065E074E0CE018A579F4F0E94BA0C67EAB2
:102E300074E087E198E00E94BA0C69E074E0CE018A
:102E400080589F4F0E949A0D6BE174E0CE0180582C
:102E50009F4F0E94DA0B62E474E0CE0180589F4FCE
:102E60000E94DA0BC657DF4F68817981CA58D0407B
:102E7000CE0180589F4F0E94980B65E874E0CE0108
:102E800080589F4F0E94DA0B62E574E0CE018058B3
:102E90009F4F0E94DA0B62E774E0CE0180589F4F8B
:102EA0000E94DA0BC657DF4F48815981CA58D0407B
:102EB000CA57DF4F68817981C658D040CE0180580B
:102EC0009F4F0E946B0BCC57DF4FC880D980C458EE
:102ED000D04068E874E0C7010E949A0DB701CE01A6
:102EE00083599F4F0E94810DB801CE0183599F4F96
:102EF0000E94330C68E073E00E94730CB6010E94DC
:102F0000330C65E874E00E94730CBC01CE018C5850
:102F10009F4F0E94810D00E028EB3BE040E050E035
:102F2000BE016C587F4FCE0186589F4F0E941C08EF
:102F3000CE0186589F4F0E94130DCE018C589F4F93
:102F40000E94130DCE0183599F4F0E94130DC7019C
:102F50000E94130DBE0160587F4FC7010E94810D72
:102F600001E028EE33E040E050E0B701CE018359A4
:102F70009F4F0E941C08CE0183599F4F0E94130D42
:102F8000C7010E94130D81E296E00E943802CE0133
:102F900080589F4F0E94130DCE018A579F4F0E9469
:102FA000130DCE0184579F4F0E94130DCE018E56F4
:102FB0009F4F0E94130D0E9459028DCD85B5887FC9
:102FC000846085BD9EE497BD4092250550922605FC
:102FD000609227057092280580916E008260809330
:102FE0006E00D3CBA8E6B0E0283010F40C94C50FE7
:102FF000E0E0F0E00C94C70F8CE292E09093F907C8
:103000008093F8078091040590910505885F9740AB
:1030100071F4E0910B08F0910C08908180910D08FB
:10302000809589238083109205051092040587E11D
:1030300098E00E94130D8DE198E00E94130D83E249
:1030400098E00E94130D89E298E00E94130D8FE230
:1030500098E00C94130DCF92DF92EF92FF921092B2
:1030600087051092860598EEC92E93E0D92EE12CA3
:10307000F12CC0928805D0928905E0928A05F092E1
:103080008B058AE192E0909385058093840525E382
:1030900031E0309391052093900524E331E03093A3
:1030A00093052093920520E331E03093950520931A
:1030B000940521E331E0309397052093960522E3B0
:1030C00031E0309399052093980526E331E0309361
:1030D0009B0520939A0510929D0510929E051092D3
:1030E0009F051092A0051092240610922306C0920C
:1030F0002506D0922606E0922706F09228069093A5
:1031000022068093210625ED30E030932E06209391
:103110002D0624ED30E03093300620932F0620ED6D
:1031200030E0309332062093310621ED30E03093C9
:1031300034062093330622ED30E030933606209398
:10314000350626ED30E0309338062093370610928E
:103150003A0610923B0610923C0610923D061092E1
:10316000C1061092C006C092C206D092C306E09279
:10317000C406F092C5069093BF068093BE062DEC60
:1031800030E03093CB062093CA062CEC30E030932D
:10319000CD062093CC0628EC30E03093CF06209368
:1031A000CE0629EC30E03093D1062093D0062AECED
:1031B00030E03093D3062093D2062EEC30E03093EB
:1031C000D5062093D4061092D7061092D8061092F6
:1031D000D9061092DA0610925E0710925D07C0922F
:1031E0005F07D0926007E0926107F09262079093C8
:1031F0005C0780935B0785EC90E090936807809371
:10320000670784EC90E090936A078093690780ECED
:1032100090E090936C0780936B0781EC90E0909323
:103220006E0780936D0782EC90E090937007809317
:103230006F0786EC90E0909372078093710710926D
:10324000740710927507109276071092770767EA55
:1032500074E08FE298E00E949A0D6DED74E089E2CF
:1032600098E00E949A0D62EE74E083E298E00E947A
:103270009A0D67EA74E08DE198E00E949A0D67EA82
:1032800074E087E198E00E949A0D1092FB0710927B
:10329000FA07C092FC07D092FD07E092FE07F09279
:1032A000FF078CE292E09093F9078093F807109261
:1032B0000F0810920E081092110810921008109228
:1032C00013081092120810921508109214086091B9
:1032D00016086E7F6D7F609316086695617081E0B9
:1032E00068278AE00E94C90461E08AE00E944605DE
:1032F000E8E0F2E0E491E0930808E2ECF1E0E49128
:10330000F0E0EE0FFF1FEC57FE4F859194919093E4
:103310000A088093090860E08BE00E9446058091CE
:10332000160881FD04C061E08BE00E94C9048BE0B7
:1033300080930408E9E0F2E0E491E0930508E3EC0F
:10334000F1E0E491F0E0EE0FFF1FE256FE4F8591B1
:1033500094919093070880930608FF90EF90DF9078
:10336000CF9008951F93FC0199278827BC01E8940A
:1033700011911032E9F3193010F01E30C8F31B32EE
:1033800049F01D3241F4689405C01CD0610F711DD5
:10339000811D911D119110531A30B8F33EF4909590
:1033A0008095709561957F4F8F4F9F4F1F91089526
:1033B000BB274A3031F4992322F4BDE290958195E0
:1033C0009F4F16C0592F482F372F262F660F771F74
:1033D000881F991F660F771F881F991F620F731F21
:1033E000841F951F660F771F881F991F0895BB279D
:1033F000FB015527AA27880F991FAA1FA41710F0B1
:10340000A41B83955051B9F7A05DAA3308F0A95DBC
:10341000A193009779F7B111B1931192CB0100C03C
:10342000DC01FC01672F71917723E1F7329704C02B
:103430007C916D9370836291AE17BF07C8F30895B6
:1034400097FB072E16F4009406D077FD08D035D0F0
:1034500007FC05D03EF4909581959F4F0895709597
:1034600061957F4F0895A1E21A2EAA1BBB1BFD0197
:103470000DC0AA1FBB1FEE1FFF1FA217B307E40753
:10348000F50720F0A21BB30BE40BF50B661F771FAB
:10349000881F991F1A9469F760957095809590958B
:1034A0009B01AC01BD01CF010895EE0FFF1F881FE6
:1034B0008BBF0790F691E02D1994AA1BBB1B51E11D
:1034C00007C0AA1FBB1FA617B70710F0A61BB70B94
:1034D000881F991F5A95A9F780959095BC01CD0139
:1034E0000895CF93DF938230910510F482E090E04D
:1034F000E0914A08F0914B0820E030E0C0E0D0E0D5
:10350000309711F14081518148175907C0F0481791
:10351000590761F482819381209719F09B838A83F4
:103520002BC090934B0880934A0826C02115310583
:1035300019F04217530718F49A01BE01DF01EF0199
:103540000280F381E02DDCCF2115310509F1281B24
:10355000390B2430310590F412968D919C9113977C
:103560006115710521F0FB019383828304C0909360
:103570004B0880934A08FD01329644C0FD01E20FDA
:10358000F31F81939193225031092D933C933AC0BC
:103590002091480830914908232B41F420910C02D6
:1035A00030910D02309349082093480820910A0277
:1035B00030910B022115310541F42DB73EB74091F2
:1035C0000E0250910F02241B350BE0914808F09138
:1035D0004908E217F307A0F42E1B3F0B2817390701
:1035E00078F0AC014E5F5F4F2417350748F04E0F5F
:1035F0005F1F50934908409348088193919302C0FC
:10360000E0E0F0E0CF01DF91CF9108950F931F9399
:10361000CF93DF93009709F48CC0FC01329713829B
:10362000128200914A0810914B080115110581F48E
:1036300020813181820F931F2091480830914908E1
:103640002817390779F5F0934908E093480871C0C5
:10365000D80140E050E0AE17BF0750F412962D910C
:103660003C911397AD012115310509F1D901F3CF33
:103670009D01DA013383228360817181860F971F58
:103680008217930769F4EC0128813981260F371FCF
:103690002E5F3F4F318320838A819B819383828376
:1036A000452B29F4F0934B08E0934A0842C0139647
:1036B000FC93EE931297ED01499159919E01240FCD
:1036C000351FE217F30771F480819181840F951FF4
:1036D000029611969C938E938281938113969C936C
:1036E0008E931297E0E0F0E0D80112968D919C91B4
:1036F0001397009719F0F8018C01F6CF8D919C91EA
:1037000098012E5F3F4F820F931F20914808309100
:1037100049082817390769F4309729F410924B08A3
:1037200010924A0802C01382128210934908009333
:103730004808DF91CF911F910F9108956F927F926A
:103740008F929F92AF92BF92CF92DF92EF92FF92B1
:103750000F931F93CF93DF93EC01009781F4CB017C
:10376000DF91CF911F910F91FF90EF90DF90CF905D
:10377000BF90AF909F908F907F906F90B2CEFC01E2
:10378000E60FF71F9C0122503109E217F30708F4F6
:10379000A8C0D9010D911C91119706171707A8F021
:1037A0000530110508F49BC0C801049786179707D8
:1037B00008F495C002501109061B170B01931193D1
:1037C0006D937C93CF0122DF8AC05B01A01AB10AFE
:1037D0004C01800E911EA0914A08B0914B0840E028
:1037E00050E0E12CF12C109709F44AC0A815B90556
:1037F000D1F56D907C901197630182E0C80ED11CC9
:10380000CA14DB0480F1A3014A195B096A0182E052
:10381000C80ED11C1296BC9012971396AC91B5E0CD
:10382000CB16D10440F0B282A38351834083D901E7
:103830006D937C930AC00E5F1F4FC301800F911FD1
:10384000F90191838083EB2DFA2FE114F10431F01B
:10385000D7011396FC93EE93129741C0F0934B0857
:10386000E0934A083CC08D919C91119748175907E5
:1038700008F4AC017D0112960D90BC91A02DB3CF40
:10388000809148089091490888159905E1F44617F8
:103890005707C8F480910A0290910B02009741F4F7
:1038A0008DB79EB740910E0250910F02841B950B6D
:1038B000E817F907B0F4F0934908E0934808F901D4
:1038C000718360830CC0CB010CDE7C01009749F052
:1038D000A801BE011BD0CE0199DEC70104C0CE01F4
:1038E00002C080E090E0DF91CF911F910F91FF9097
:1038F000EF90DF90CF90BF90AF909F908F907F9090
:103900006F90089581E090E0F8943EC0FB01DC01E7
:1039100002C001900D9241505040D8F70895FC012B
:103920008191861721F08823D9F799270895319737
:10393000CF010895FB01DC018D91019080190110E8
:10394000D9F3990B0895FB01DC0101900D92002041
:10395000E1F70895FB0151915523A9F0BF01DC0166
:103960004D9145174111E1F759F4CD010190002027
:1039700049F04D9140154111C9F3FB014111EFCFC1
:1039800081E090E00197089511E0C4E2D1E000E009
:1039900005C0802FFE0189DD2196011DC532D107AA
:0A39A00080E00807B1F7F894FFCFAC
:1039AA00A704A704A704010101FF00004C08800036
:1039BA0000000000500300000000F201560D7001E3
:1039CA003802A1017F01930100000000C002560DD8
:1039DA004D03BF0214032B03A70241542B52535425
:1039EA000D0A0041540D0A0041542B43574D4F44D0
:1039FA00453D310D0A0041542B4349504D55583D20
:103A0A00310D0A0041542B434950534552564552F1
:103A1A003D312C38300D0A0041542B4E414D457032
:103A2A006C616E740041542B50494E32303134006F
:103A3A00757365724E616D650073736964007073A6
:103A4A00770041542B43575141500D0A0041542BE2
:103A5A0043574A41503D2200222C2200220D0A00DF
:103A6A004F4B0041542B43574A41503F0D0A0041E6
:103A7A00542B43494653520D0A00646576696365BF
:103A8A00204950203A200041542B43495053544175
:103A9A0052543D302C2254435022003139322E31B7
:103AAA0036382E342E3100222C003F69703D0047F3
:103ABA0045542000436F6E6E656374696F6E3A6396
:103ACA006C6F73650D0A0D0A0041542B434950531C
:103ADA00454E443D302C00495020ECA084EC86A190
:103AEA00EC9984EBA38C004950ECA084EC86A1EC01
:103AFA008BA4ED8CA800534620436F6465203A20BE
:103B0A000044454255473A20002B4950442C006353
:103B1A006D643D00636D64206973203A20006C6512
:103B2A00645F66616E5F6175746F006C65645F6681
:103B3A00616E5F6D616E75616C006C65645F6F6E5E
:103B4A00004C6564206D6F6465206973206E6F7424
:103B5A00206D616E75616C2E006C65645F6F6666C0
:103B6A000066616E5F6F6E0066616E206D6F6465E0
:103B7A00206973206E6F74206D616E75616C2E0002
:103B8A0066616E5F6F66660070756D705F6F6E005E
:103B9A0070756D705F6F666600746573745F6275C9
:103BAA0074746F6E0065727200485454502F312E2F
:103BBA003120323030204F4B0D0A00436F6E74654E
:103BCA006E742D547970653A746578742F68746DC3
:103BDA006C3B636861727365743D5554462D380DAC
:103BEA000A00436F6E74656E742D4C656E67746857
:103BFA003A004163636573732D436F6E74726F6C21
:103C0A002D416C6C6F772D4F726967696E3A2A0D78
:103C1A000A00436F6E6E656374696F6E3A20636C57
:103C2A006F73650D0A0D0A0041542B4349505345E1
:103C3A004E443D006E756C6C0022225C5C62086624
:103C4A000C6E0A720D7409007265717565737420C1
:103C5A00746F20636F6E74726F6C20626F6172642E
:103C6A00203A20003139322E0069702069647820A8
:103C7A003A20006F6B5F696478203A20006E6F6E9D
:103C8A0065002F696E6465782E70687000726571C0
:103C9A007565737420746F20736C617665203A20A1
:023CAA00000018
:00000001FF
