:1000000011C1000040C100003EC100003CC1000021
:100010003AC1000038C1000036C1000034C1000000
:1000200032C1000030C100002EC100002CC1000010
:100030002AC100000C94AE0B26C1000024C10000B0
:1000400022C1000020C100001EC100001CC1000030
:100050001AC1000018C1000016C10000A3C40000AE
:1000600012C10000B5C300008AC300000CC100002B
:100070000AC1000008C1000006C1000004C1000060
:1000800002C1000000C10000FEC00000FCC0000072
:100090004DC3000022C30000F6C00000F4C0000001
:1000A000F2C00000F0C00000EEC00000ECC0000094
:1000B000EAC00000E8C00000E6C00000E4C00000A4
:1000C000E2C00000E0C00000DEC00000DDC20000B1
:1000D000B2C20000D8C0000085C200005AC20000B1
:1000E000D2C000009C11A811B611BF11C811D411C3
:1000F000E011E91140044304320436043A047A045E
:1001000047044B045104550459045F046304670415
:100110007A046D047104750400000A0B02090C0DC9
:100120000E080703040100000000000000000000AA
:1001300000000000000000000000000000000000BF
:10014000000000001211100000000000000000007C
:10015000000000000000000000000000000000009F
:100160002200250028002B002E003100340002015F
:100170000000050108010B010000210024002700F8
:100180002A002D00300033000101000004010701A6
:100190000A0105050505070508080808020202020C
:1001A0000A0A080804040404010101010101010113
:1001B0000303030303030303040707070C0C0C0CDE
:1001C0000C0C0C0C020202020606060606060606C7
:1001D0000B0B0B0B0B0B0B0B010210202008081054
:1001E00020401020408002010201080402010102A7
:1001F0000408102040808040201008040201800480
:1002000002018040201008040201080402010102DA
:1002100004081020408001020408102040800200E1
:10022000CD12C71211241FBECFEFD1E2DEBFCDBF6A
:1002300000E00CBF26E0A6EEB3E001C01D92A93B92
:10024000B207E1F713E0A0E0B2E0EAE5FCE200E08B
:100250000BBF02C007900D92A63EB107D9F711E07F
:10026000C1E1D1E000E006C021970109802FFE0125
:100270000E94CC13C031D10780E00807A9F70E9483
:10028000690C0C941C16BCCEFC01A089B1898C9120
:10029000A689B78982FD0FC09C91818D8F5F8F7376
:1002A000228D821749F0218DDF01A20FB11D5D96CD
:1002B0009C93818F08958C910895089580E090E03B
:1002C0000895FC01538D448D252F30E0842F90E05C
:1002D000821B930B541710F0CF9608950197089541
:1002E000FC01918D828D981761F0828DDF01A80F3E
:1002F000B11D5D968C91928D9F5F9F73928F90E060
:1003000008958FEF9FEF0895FC01918D828D9817CE
:1003100031F0828DE80FF11D858D90E008958FEF0B
:100320009FEF0895FC01918D228D892F90E0805CD4
:100330009F4F821B91098F739927089582E294E061
:10034000F1DF21E0892B09F420E0822F08958FEB63
:1003500094E0E8DF21E0892B09F420E0822F089562
:100360008CE595E0DFDF21E0892B09F420E0822F86
:10037000089589EF95E0D6DF21E0892B09F420E08C
:10038000822F0895FC01848DDF01A80FB11DA35AAF
:10039000BF4F2C91848D90E001968F739927848FA5
:1003A000A689B7892C93A089B1898C9180648C939C
:1003B000938D848D981306C00288F389E02D808187
:1003C0008F7D80830895EF92FF920F931F93CF93B9
:1003D000DF93EC0181E0888F9B8D8C8D981305C095
:1003E000E889F989808185FD23C0F62E0B8D10E008
:1003F0000F5F1F4F0F731127E02E8C8DE8120BC07B
:100400000FB607FCFACFE889F989808185FFF5CF1F
:10041000CE01B8DFF2CF8B8DFE01E80FF11DE35A5C
:10042000FF4FF0820B8FEA89FB898081806207C0D1
:10043000EE89FF896083E889F989808180648083FF
:1004400081E090E0DF91CF911F910F91FF90EF90AD
:100450000895CF93DF93EC01888D8823C1F0EA895A
:10046000FB89808185FD05C0A889B9898C9186FDAD
:100470000EC00FB607FCF5CF808185FFF2CFA889AB
:10048000B9898C9185FFEDCFCE017CDFE8CFDF917C
:10049000CF91089580E090E0892B19F06ADF8111F7
:1004A00016C080E090E0892B19F05ADF811112C04C
:1004B00080E090E0892B19F04ADF81110EC080E0C6
:1004C00090E0892B79F03ADF81110AC008950E94EB
:1004D0000000E7CF0E940000EBCF0E940000EFCFAA
:1004E0000C94000008953FB7F89480911E049091F9
:1004F0001F04A0912004B091210426B5A89B05C03B
:100500002F3F19F00196A11DB11D3FBFBA2FA92F92
:10051000982F8827820F911DA11DB11DBC01CD010F
:1005200042E0660F771F881F991F4A95D1F70895FB
:10053000FC0126813781620F731F848195818617A4
:10054000970738F08281938177836683820F931FA8
:10055000089580E090E008950E94E5150F931F93A1
:10056000CF93DF938B01FC01C281D381209759F097
:100570006A817B81C8010E94F215892B21F00990C4
:10058000D881C02DF3CFCE01DF91CF911F910F9174
:1005900008951F920F920FB60F9211240BB60F926F
:1005A0002F933F934F935F936F937F938F939F937B
:1005B000AF93BF93EF93FF9382E294E0E3DEFF916A
:1005C000EF91BF91AF919F918F917F916F915F91CB
:1005D0004F913F912F910F900BBE0F900FBE0F9038
:1005E0001F9018951F920F920FB60F9211240BB601
:1005F0000F922F933F934F935F936F937F938F93BC
:100600009F93AF93BF93EF93FF9382E294E03CDE1E
:10061000FF91EF91BF91AF919F918F917F916F91DA
:100620005F914F913F912F910F900BBE0F900FBE96
:100630000F901F9018951F920F920FB60F921124D2
:100640000BB60F922F933F934F935F936F937F93CC
:100650008F939F93AF93BF93EF93FF938FEB94E0B0
:1006600091DEFF91EF91BF91AF919F918F917F911B
:100670006F915F914F913F912F910F900BBE0F9013
:100680000FBE0F901F9018951F920F920FB60F92EA
:1006900011240BB60F922F933F934F935F936F9359
:1006A0007F938F939F93AF93BF93EF93FF938FEBC2
:1006B00094E0EADDFF91EF91BF91AF919F918F910F
:1006C0007F916F915F914F913F912F910F900BBE52
:1006D0000F900FBE0F901F9018951F920F920FB69C
:1006E0000F9211240BB60F922F933F934F935F936A
:1006F0006F937F938F939F93AF93BF93EF93FF93EA
:100700008CE595E03FDEFF91EF91BF91AF919F9116
:100710008F917F916F915F914F913F912F910F90AA
:100720000BBE0F900FBE0F901F9018951F920F9247
:100730000FB60F9211240BB60F922F933F934F9346
:100740005F936F937F938F939F93AF93BF93EF9339
:10075000FF938CE595E098DDFF91EF91BF91AF910C
:100760009F918F917F916F915F914F913F912F91C9
:100770000F900BBE0F900FBE0F901F9018951F92F9
:100780000F920FB60F9211240BB60F922F933F9337
:100790004F935F936F937F938F939F93AF93BF9389
:1007A000EF93FF9389EF95E0EDDDFF91EF91BF911E
:1007B000AF919F918F917F916F915F914F913F91F9
:1007C0002F910F900BBE0F900FBE0F901F9018959A
:1007D0001F920F920FB60F9211240BB60F922F9308
:1007E0003F934F935F936F937F938F939F93AF93B9
:1007F000BF93EF93FF9389EF95E046DDFF91EF9173
:10080000BF91AF919F918F917F916F915F914F9128
:100810003F912F910F900BBE0F900FBE0F901F9026
:100820001895362F90E0FC01E85EFE4F4491FC01E4
:10083000E852FE4F2491FC01EE56FE4F949199230D
:1008400009F46BC0442309F455C050E0FA01319714
:10085000E231F10508F04EC08827E658FF4F8F4F70
:100860000C94CC13809180008F7707C0809180001A
:100870008F7D03C080918000877F809380003AC085
:1008800084B58F7702C084B58F7D84BD33C08091DD
:10089000B0008F7703C08091B0008F7D8093B0004F
:1008A00029C0809190008F7707C0809190008F7D44
:1008B00003C080919000877F809390001BC080913F
:1008C000A0008F7707C08091A0008F7D03C080912A
:1008D000A000877F8093A0000DC0809120018F77BA
:1008E00007C0809120018F7D03C080912001877F08
:1008F00080932001E92FF0E0EE0FFF1FE25AFE4F38
:10090000A591B4918FB7F894EC91311103C0209563
:100910002E2301C02E2B2C938FBF08958F929F9270
:10092000AF92BF92CF92DF92EF92FF926B017C0168
:10093000DADD4B015C01C114D104E104F104E9F0FA
:10094000D2DDDC01CB0188199909AA09BB09883ECF
:100950009340A105B10578F321E0C21AD108E1085E
:10096000F10888EE880E83E0981EA11CB11CC1140A
:10097000D104E104F10421F7DECFFF90EF90DF9086
:10098000CF90BF90AF909F908F9008952FB7F8941D
:1009900060911A0470911B0480911C0490911D04B5
:1009A0002FBF08951F920F920FB60F9211242F930D
:1009B0003F938F939F93AF93BF9380911A0490912D
:1009C0001B04A0911C04B0911D043091190423E074
:1009D000230F2D3720F40196A11DB11D05C026E877
:1009E000230F0296A11DB11D2093190480931A04B0
:1009F00090931B04A0931C04B0931D0480911E04CB
:100A000090911F04A0912004B09121040196A11D92
:100A1000B11D80931E0490931F04A0932004B093F3
:100A20002104BF91AF919F918F913F912F910F9092
:100A30000FBE0F901F90189560E083E0F2DE61E03A
:100A400082E0EFCE0F931F93CF93DF9387DDEC010E
:100A5000892BC1F00C811D810130110559F46E8183
:100A60007F816115710531F08DEB93E00E94F215E5
:100A7000892B41F0015011090230110518F48E81C3
:100A80009F8102C080E090E0DF91CF911F910F9194
:100A90000895FC01A081B1818C918D3051F024F436
:100AA00089508230B8F505C0803219F08F3219F0C4
:100AB000089511962CC011968C9111978A3219F0D5
:100AC0008F32D1F008951196B183A083A081B181B6
:100AD000CD0101969183808311968C911197882383
:100AE000C9F08A3299F712968C9112978F3271F76A
:100AF00013960DC08A3071F2A081B181CD010196AB
:100B00009183808311968C918111F4CF03C0B183BE
:100B1000A083C0CF08950F931F93CF93DF931F92AD
:100B2000CDB7DEB78C016983B4DFD801ED91FC91BC
:100B3000119780816981861305C03196ED93FC93EE
:100B400081E001C080E00F90DF91CF911F910F9164
:100B50000895EF92FF920F931F93CF93DF938C0131
:100B6000DC011496CD91DC911597EA80FB808E8193
:100B70009F81E80EF91EC80102968BDFD8011296FC
:100B8000ED91FC9113979081973291F1923281F11E
:100B900080ED890F8A3060F0892F8F7D81548A31F2
:100BA00038F09B3229F083ED890F823008F060C065
:100BB000F801228133812F5F3F4F338322832E81BF
:100BC0003F81A9014F5F5F4F6C817D81641775077D
:100BD00040F06A817B81FB01E20FF31F5F834E834C
:100BE0009083D8011296ED91FC9113979081D0CF0C
:100BF0003196D8011396FC93EE931297D801129672
:100C0000ED91FC9113972081222391F1AF014F5F69
:100C10005F4F13965C934E931297291749F12C3529
:100C2000A9F42181A6ECB3E08C91882339F08213DA
:100C300003C011962C9102C01296F6CF2223C1F068
:100C40003296D8011396FC93EE9312974E815F81F2
:100C5000BA016F5F7F4FEC81FD81E617F70770F2F5
:100C6000EA81FB81E40FF51F7F836E832083C6CF6B
:100C70008E819F819C012F5F3F4F4C815D81421788
:100C8000530748F04A815B81FA01E80FF91F3F835F
:100C90002E83108202C0E12CF12CC701DF91CF918D
:100CA0001F910F91FF90EF9008950F931F93CF9393
:100CB000DF93EC018C01060F171FC017D10729F035
:100CC000699182E294E07FDBF8CF60ED77E080E02D
:100CD00090E024DE82E294E025DB892B21F082E2A1
:100CE00094E0FEDAF7CFDF91CF911F910F91089535
:100CF000CF92DF92FF920F931F93CF93DF93CDB7E5
:100D0000DEB72C970FB6F894DEBF0FBECDBF8B01B8
:100D10000A5F1D4F21E02427F801308132131CC0E7
:100D2000F42E6C0161ED73E0CE010196C0D4BE01DA
:100D30006F5F7F4FCE010796A1D4B601CE01079613
:100D4000EED379D1CE01079669D4CE01019666D44F
:100D5000C60186D1F801F0822C960FB6F894DEBF5A
:100D60000FBECDBFDF91CF911F910F91FF90DF900C
:100D7000CF9008950F931F93CF93DF93CDB7DEB736
:100D80002C970FB6F894DEBF0FBECDBF8C0161ED7E
:100D900073E0CE0101968BD4BE016F5F7F4FCE0111
:100DA00007966CD4B801CE010796B9D344D1CE01D1
:100DB000079634D4CE01019631D4C80151D12C9676
:100DC0000FB6F894DEBF0FBECDBFDF91CF911F915C
:100DD0000F910895AF92BF92CF92DF92EF92FF9260
:100DE0000F93CF93DF93EC015B0169017A0160ED12
:100DF00073E05DD4F50144815581608171818FEB91
:100E000094E011D4C3DDC60ED71EE81EF91EBEDD68
:100E10006C157D058E059F0560F48FEB94E082DAFA
:100E2000892BA9F38FEB94E05BDA682FCE0144D3D2
:100E3000F4CF011102C0CE01FED0CE01DF91CF91DF
:100E40000F91FF90EF90DF90CF90BF90AF900895FB
:100E5000DB01109749F0ED91FC9111970190F08121
:100E6000E02DBC01CD01199480E090E008959F929F
:100E7000AF92BF92CF92DF92EF92FF920F931F93A8
:100E8000CF93DF9300D000D0CDB7DEB76C01FC016B
:100E900000811181B80184E090E0DADF009739F039
:100EA000FC0111830083138212828C0111C0809196
:100EB000110481110BC010920E0410920D041092B7
:100EC000100410920F0481E0809311040DE014E0EF
:100ED0007601F2E0EF0EF11C6BE7C7011CDE882300
:100EE00009F45EC06DE7C70116DE81116AC086E0B5
:100EF000982EC6012EDE5C01892B09F451C06AE3ED
:100F0000C70109DE882309F44BC01A821982BE0189
:100F10006F5F7F4FC60103D1882309F441C0B5013B
:100F2000C8011CDBDC01892B49F5F8016081718166
:100F30008AE090E08DDFDC01892B39F011961C925C
:100F40001E9215961C921E921497F80122813381ED
:100F50002115310551F0F90180819181009711F03F
:100F60009C01F9CFB183A08303C0F801B383A283AE
:100F70001097B1F01396BC92AE921297FE01319683
:100F80001496892D01900D928A95E1F76DE7C701BE
:100F9000C2DD811116C06CE2C701BDDD8111A9CF90
:100FA0008091110481110BC010920E0410920D0457
:100FB0001092100410920F0481E0809311040DE050
:100FC00014E0C80126960FB6F894DEBF0FBECDBF61
:100FD000DF91CF911F910F91FF90EF90DF90CF9015
:100FE000BF90AF909F9008950F931F93CF93DF937F
:100FF000EC0188819981009729F02A813B8126178D
:10100000370788F48B016F5F7F4F0E9401150097AF
:1010100061F0998388831B830A832C813D81232B74
:1010200011F4FC01108281E001C080E0DF91CF91DA
:101030001F910F910895CF93DF93FC014481558157
:101040006081718189EF95E0EED2EC016EEA73E088
:1010500089EF95E0E2D38C0F9D1FDF91CF9108952A
:10106000CF92DF92EF92FF92CF93DF936C01990FB3
:10107000EE08FF08F7FE20C0E0915C05F0915D05E9
:101080000190F081E02D6DE28CE595E01995EC0181
:1010900044275527BA014C195D096E097F092AE0DA
:1010A0008CE595E0CFD38C0F9D1FDF91CF91FF9002
:1010B000EF90DF90CF9008952AE0B701A6018CE56C
:1010C00095E0DF91CF91FF90EF90DF90CF90BAC382
:1010D000FC01A089B18982E08C93A485B5851C921E
:1010E000A685B7858FEC8C93108EA489B58986E090
:1010F0008C93A289B3898C9180618C93A289B389E6
:101100008C9188608C93A289B3898C9180688C9330
:101110000288F389E02D80818F7D808308959F92DE
:10112000AF92BF92CF92DF92EF92FF920F931F93F5
:10113000CF93DF9300D000D0CDB7DEB7FC0196810E
:10114000992309F4D8C06B017F01915096835F0108
:1011500082E0A80EB11CC5019CDCD7011296ED916E
:10116000FC91139780818B3521F08B3709F492C065
:101170009BC0F70100811181B80184E090E068DE36
:10118000009751F0DC0111961C930E9313961C925C
:101190001E9212978C0111C08091A60681110BC07E
:1011A0001092A3061092A2061092A5061092A40611
:1011B00081E08093A60602EA16E06BE5C501ABDC90
:1011C000882309F447C06DE5C501A5DC811153C032
:1011D00086E0982E1A821982BE016F5F7F4FC70189
:1011E0009EDF8823B9F1F8016081718188E090E089
:1011F0002FDEDC01892B39F011961C921E9213967A
:101200001C921E921297F80122813381211531051B
:1012100051F0F90180819181009711F09C01F9CF83
:10122000B183A08303C0F801B383A283109791F028
:10123000FE0131961296892D01900D928A95E1F763
:101240006DE5C50168DC811116C06CE2C50163DC87
:101250008111C0CF8091A60681110BC01092A30608
:101260001092A2061092A5061092A40681E0809327
:10127000A60602EA16E0D8018D919C91892B11F403
:1012800010E031C086E090E0F60191838083138303
:10129000028328C0C701EBDDDC012D913C91232B9B
:1012A00079F327E030E019C011E0873219F082327B
:1012B00009F010E0C7014DDC009711F3112359F03C
:1012C00022E030E0D60111963C932E9313969C9326
:1012D0008E93129708C021E030E0F601318320831D
:1012E0009383828311E0D70116968C9116978F5FB6
:1012F00016968C9301C010E0812F26960FB6F894B5
:10130000DEBF0FBECDBFDF91CF911F910F91FF9038
:10131000EF90DF90CF90BF90AF909F90089590E0B6
:10132000FC01E852FE4F2491FC01EE56FE4F8491E1
:10133000882399F090E0880F991FFC01E858FE4F30
:10134000A591B491FC01E25AFE4F859194918FB71B
:10135000F894EC91E22BEC938FBF08950F931F93B9
:1013600015DB6093C7047093C8048093C9049093FD
:10137000CA04E091BF04F091C0040284F385E02D1B
:101380008FEB94E0199597FF1EC000DB0091C70416
:101390001091C8042091C9043091CA04DC01CB012A
:1013A000801B910BA20BB30B0091C3041091C404DA
:1013B0002091C5043091C60480179107A207B30796
:1013C000C0F28FEF9FEF1F910F910895CF93DF939E
:1013D000FC0124813581232B71F0FB01DC01CD91CF
:1013E000DC9160817181CE010E940216009719F094
:1013F0008C1B9D0B02C08FEF9FEFDF91CF91089563
:10140000EF92FF920F931F93CF93DF93FC01248100
:1014100035816115710511F480E018C04115510541
:10142000A1F07B01EC018A01020F131FB801DCDD82
:10143000882391F3288139818C819D81B701820FA6
:10144000931F0E94FB151D830C8381E0DF91CF91D8
:101450001F910F91FF90EF900895EF92FF920F93DD
:101460001F93CF93DF93CDB7DEB727970FB6F894CE
:10147000DEBF0FBECDBF7C01CB014AE08E010F5F06
:101480001F4FB8010E948113F80101900020E9F775
:101490003197AF01401B510BB801C701B1DF27964F
:1014A0000FB6F894DEBF0FBECDBFDF91CF911F9175
:1014B0000F91FF90EF900895CF93DF931F921F92AB
:1014C000CDB7DEB769831A8241E050E0BE016F5F9D
:1014D0007F4F96DF0F900F90DF91CF9108956115A8
:1014E000710549F0FB0101900020E9F73197AF0148
:1014F000461B570B85CF80E00895CF93DF93EC0117
:1015000088819981009711F00E94691419821882CC
:101510001D821C821B821A82DF91CF910895EF9267
:10152000FF920F931F93CF93DF93CDB7DEB728972A
:101530000FB6F894DEBF0FBECDBF7C01CB014AE0F1
:101540008E010F5F1F4FB8010E947713F8010190C1
:101550000020E9F73197AF01401B510BB801C701DB
:101560004FDF811102C0C701C8DFC70128960FB63F
:10157000F894DEBF0FBECDBFDF91CF911F910F91C9
:10158000FF90EF900895CF93DF93EC016115710503
:1015900059F0FB0101900020E9F73197AF01461B9C
:1015A000570B2EDF811102C0CE01A7DFCE01DF91E4
:1015B000CF910895EF92FF920F931F93CF93DF93F4
:1015C000EC017B018A01BA010FDD811103C0CE015C
:1015D00094DF07C01D830C83B701888199810E9425
:1015E000FB15CE01DF91CF911F910F91FF90EF90EE
:1015F0000895CF93DF93EC016115710551F0FB0164
:1016000001900020E9F73197AF01461B570BD2DF5D
:1016100001C073DFCE01DF91CF910895FC0180817D
:1016200091810C946914CF92DF92EF92FF920F9305
:101630001F93CF93DF936C017A018B01C0E0D0E060
:10164000CE15DF0589F0D8016D918D01D601ED91A0
:10165000FC910190F081E02DC6011995892B11F4C0
:101660007E0102C02196ECCFC701DF91CF911F917F
:101670000F91FF90EF90DF90CF900895FB01DC0178
:1016800011961C921E9213961C921E9212971596FA
:101690001C921E9214978617970741F06081718102
:1016A0006115710519F04481558184CF0895FC01BD
:1016B00011821082138212821582148261157105C3
:1016C00049F0FB0101900020E9F73197AF01461B7B
:1016D000570B70CF08959091090298133DC0EEE129
:1016E000F2E0E4919FEF90930902E230C9F050F4E8
:1016F000EE2399F0E13081F590916F009D7F9093FA
:101700006F002AC0E43019F1E0F0E53029F590913E
:1017100073009D7F909373001FC010926E001CC0D9
:10172000909170009D7F9093700091E09093B00035
:101730009091B100987F94609093B1001092B300A3
:101740000BC0909171009D7F9093710005C09091A6
:1017500072009D7F9093720060E063C81F920F92A9
:101760000FB60F9211240BB60F922F933F934F9306
:101770005F936F937F938F939F93AF93BF93EF93F9
:10178000FF938091B1069091B206A091B306B091FB
:10179000B406892B8A2B8B2B51F18091B006E091F6
:1017A000AE06F091AF069081892780838091B106C3
:1017B0009091B206A091B306B091B406181619061E
:1017C0001A061B06BCF48091B1069091B206A09156
:1017D000B306B091B4060197A109B1098093B1068F
:1017E0009093B206A093B306B093B40603C0809161
:1017F000090271DFFF91EF91BF91AF919F918F919E
:101800007F916F915F914F913F912F910F900BBE00
:101810000F900FBE0F901F9018956115710579F00C
:10182000FB0101900020E9F73197AF01461B570BF0
:10183000DC01ED91FC910280F381E02D199480E0B0
:1018400090E008954F925F926F927F92EF92FF9295
:101850000F931F93CF93DF93CDB7DEB7A1970FB64A
:10186000F894DEBF0FBECDBF7C01FA01CB0119A2F7
:10187000223008F42AE08E010F5D1F4F422E512CBA
:10188000612C712CBF01A301920164D7F901CA0137
:10189000015011096A3014F4605D01C0695CD8011F
:1018A0006C93232B242B252B69F7B801C701B5DFD7
:1018B000A1960FB6F894DEBF0FBECDBFDF91CF91DA
:1018C0001F910F91FF90EF907F906F905F904F90DE
:1018D0000895CF93DF93CDB7DEB7C259D1090FB6C4
:1018E000F894DEBF0FBECDBF789484B5826084BD0E
:1018F00084B5816084BD85B5826085BD85B5816014
:1019000085BD80916E00816080936E001092810091
:10191000809181008260809381008091810081604C
:10192000809381008091800081608093800080910D
:10193000B10084608093B1008091B0008160809399
:10194000B00080919100826080939100809191001D
:1019500081608093910080919000816080939000DD
:101960008091A10082608093A1008091A10081609C
:101970008093A1008091A00081608093A00080915D
:1019800021018260809321018091210181608093F7
:1019900021018091200181608093200180917A0053
:1019A000846080937A0080917A00826080937A00CC
:1019B00080917A00816080937A0080917A008068BB
:1019C00080937A001092C10083E0A9DC82E0A7DC5A
:1019D00060E083E00E94110460E082E00E94110454
:1019E00089EF95E075DB8CE595E072DB8FEB94E099
:1019F0006FDB68EE73E080E090E00E948E0468E2A6
:101A000072E0CE0183599F4F52DE00E028EB3BE0AD
:101A100040E050E0BE0163597F4FCE0101967C014A
:101A2000D9D9C701FBDDCE0183599F4FF7DD61E3B3
:101A300072E0CE0183599F4F3ADE20ED37E040E05F
:101A400050E0BE0163597F4FC701C4D9C701E6DD2D
:101A5000CE0183599F4FE2DD66E372E0CE018359E8
:101A60009F4F25DE20ED37E040E050E0BE01635996
:101A70007F4FC701AFD9C701D1DDCE0183599F4F39
:101A8000CDDD64E472E0CE0183599F4F10DE20ED7E
:101A900037E040E050E0BE0163597F4FC7019AD95B
:101AA000C701BCDDCE0183599F4FB8DD62E572E00E
:101AB000CE0183599F4FFBDD20ED37E040E050E041
:101AC000BE0163597F4FC70185D9C701A7DDCE018C
:101AD00083599F4FA3DD82E294E0FADA6CE070E074
:101AE00086E692E0E2D86AE070E083E792E0DDD833
:101AF0000E941C0582E294E00E949201892BD1F39E
:101B000060ED77E080E090E00E948E04E7EBCE2E5F
:101B1000EFE4DE2E44244A94542C320186E9882EC8
:101B200081E0982E9CED292E91E0392E82E294E0FE
:101B30000E949201892B09F44BC382E294E00E9437
:101B40007001CE56DF4F8883C259D0408B3721F4C5
:101B500081E080930904C9C280910904882309F4B3
:101B6000C4C2CE56DF4F9881C259D0409D3709F08C
:101B7000BCC2109209046DE78CE996E09DDCE9E0B7
:101B8000F0E0EC0FFD1FFC83EB8384E690E09E8386
:101B90008D8318861F82E4E1F2E0FA83E983809165
:101BA0009C0690919D06009711F480ED93E0AF960E
:101BB000FFAEEEAEAF97E1969FAF8EAFE197E396A3
:101BC000FFAEEEAEE397FAE0E496FFAFE497CE0106
:101BD00083599F4F4CD98C016EE772E00E94220519
:101BE000909301028093000267E872E0C8010E94AE
:101BF000220590930302809302026CE872E0C80110
:101C00000E94220590930502809304020E941C0505
:101C100060E972E0CE0183599F4F49DD00E020ED7D
:101C200037E040E050E0BE0163597F4FC701D2D892
:101C3000C701F4DCCE0183599F4FF0DC0091040210
:101C400010910502A0900202B09003026BE972E0CD
:101C5000CE0183599F4F2BDDBE0163597F4FC701D2
:101C60000DDDB501C7018FDC66EA72E08CDCB801DE
:101C70008ADC6AEA72E087DCBC01CE0186589F4F9D
:101C8000FDDCC701CBDCCE0183599F4FC7DCBE0111
:101C900066587F4FCE0183599F4FF0DC00E028E863
:101CA00033E140E050E0BE0163597F4FC70192D855
:101CB000C701B4DCCE0183599F4FB0DC6EEA72E0FD
:101CC000C701F5DC61EB72E0CE018C589F4FEFDC71
:101CD00028EB3BE040E050E0BE016C587F4FCE0166
:101CE00083599F4F77D8B701CE0183599F4F6EDB41
:101CF0008C01CE0183599F4F91DCCE018C589F4FB0
:101D00008DDCC7018BDC0F3F1F4F09F4E3C140910D
:101D1000A0065091A10660919C0670919D068CE5ED
:101D200095E081DC8CE595E00E949201892BD1F34E
:101D300068EE73E080E090E00E948E048CE595E010
:101D40000E949201892BC1F08CE595E00E94700100
:101D5000182FE091F905F091FA050190F081E02D3E
:101D6000682F89EF95E019956EEA73E089EF95E0A9
:101D700054DD113319F3B0C16DEB72E0CE0183591C
:101D80009F4F95DC00E020ED37E040E050E0BE01E1
:101D900063597F4FC7011ED8C70140DCCE0183596C
:101DA0009F4F3CDC61E083E00E94110460E082E030
:101DB0000E94110480910902843021F4EEE1F2E0E6
:101DC0001491E4C08F3F09F079C184E08093090247
:101DD000EEE1F2E014911F3F09F470C1123009F4F2
:101DE0006FC044F5112309F44FC0113009F0CEC083
:101DF0001092800010928100809181008860809311
:101E0000810080918100816080938100F401849140
:101E1000E82FF0E0EE0FFF1FE25AFE4F85919491FC
:101E20009093F1038093F003F10184918093EF0389
:101E300011E0AEC0143009F487C00CF463C0153053
:101E400009F0A4C01092200110922101809121017B
:101E5000886080932101809121018160809321011C
:101E6000F4018491E82FF0E0EE0FFF1FE25AFE4FDD
:101E7000859194919093E8038093E703F101849115
:101E80008093E60315E084C014BC15BC84B5826061
:101E900084BD85B5816085BDF4018491E82FF0E0B3
:101EA000EE0FFF1FE25AFE4F859194919093F40339
:101EB0008093F303F10184918093F20310E068C0F2
:101EC0001092B0001092B1008091B00082608093B7
:101ED000B0008091B10081608093B100F4018491E1
:101EE000E82FF0E0EE0FFF1FE25AFE4F859194912C
:101EF0009093AF068093AE06F10184918093B00673
:101F000012E046C0109290001092910080919100D2
:101F1000886080939100809191008160809391000E
:101F2000F4018491E82FF0E0EE0FFF1FE25AFE4F1C
:101F3000859194919093EE038093ED03F101849148
:101F40008093EC0313E024C01092A0001092A10033
:101F50008091A10088608093A1008091A1008160A0
:101F60008093A100F4018491E82FF0E0EE0FFF1FB1
:101F7000E25AFE4F859194919093EB038093EA038C
:101F8000F10184918093E90314E002C017FD96C02B
:101F900084E0C5D9112309F4E6C2123009F442C025
:101FA0001130C1F480918100887F8160809381002D
:101FB000D0928900C092880040920104509202049D
:101FC000609203047092040480916F008260809399
:101FD0006F0074C0133039F480919100887F816064
:101FE0008093910036C0143039F48091A100887F2D
:101FF00081608093A1003FC0153039F480912101A8
:10200000887F81608093210148C0133011F12CF446
:10201000123009F053C087EB0CC0143061F1153059
:10202000E1F14CC08091B100887F85608093B10060
:102030008EE98093B3004092B1065092B20660924E
:10204000B3067092B4068091700082608093700035
:1020500035C0D0929900C09298004092FD035092F2
:10206000FE036092FF037092000480917100826011
:102070008093710023C0D092A900C092A800409222
:10208000F9035092FA036092FB037092FC03809173
:10209000720082608093720011C0D0922901C092B8
:1020A00028014092F5035092F6036092F703709274
:1020B000F8038091730082608093730068EE73E090
:1020C00080E090E00E948E0484E005DB81E0809354
:1020D0000C0402C00E941C05CE0186589F4F9EDA58
:1020E00060ED73E08CE996E084DA8091090488233E
:1020F00009F41CCDCE56DF4F6881C259D0408CE91F
:1021000096E0DAD90BCD8FEB94E00E9429028FEB99
:1021100094E00E949201892B09F458C060ED73E0AD
:10212000CE0184579F4FC3DA19D997FF56C068EC88
:1021300072E0C701BCDAC057DF4F48815981C059EE
:10214000D040C457DF4F68817981CC58D040C70157
:1021500057D9811102C0C701D0D9C7010E941B08FD
:10216000C7015CDAC057DF4F48815981C059D04060
:10217000C457DF4F68817981CC58D04086E996E01A
:102180003FD9C057DF4F88819981C059D040892BF2
:1021900009F4E4C1C457DF4FE881F981CC58D0403D
:1021A000309709F4DBC180818D3009F0D7C180916F
:1021B0000A0490910B04019690930B0480930A04F7
:1021C0000297A9F0CE0184579F4F28DA0E944A0255
:1021D00080910C048823D1F396CF8A30910509F4BD
:1021E000A6CF682FCE0184579F4F66D99DCF1092FE
:1021F0000B0410920A0460ED72E0C70158DAB701CF
:1022000086E996E0E3D8059620919A0630919B06E0
:102210008217930760F42091960630919706211556
:10222000310529F0F901E80FF91FC08001C0C12C68
:102230000C2C000CDD08F0E3CF1AD108C701EED951
:10224000A60160E070E02AE089EF95E0FBDA6EEA33
:1022500073E089EF95E0E1DA66ED72E0C70127DA15
:10226000B70186E996E0B2D8049620919A0630919B
:102270009B068217930760F420919606309197068B
:102280002115310529F0F901E80FF91F008101C07E
:1022900000E0002E000C110B00531109C701BED93C
:1022A000AF961FAE1EAEAF97E1961FAE1EAEE19782
:1022B000E3961FAE1EAEE3974AE0B701C80117D2FE
:1022C000B701CE0183599F4F94D96BED72E0C701DE
:1022D000EED9E3964EAD5FADE397AF966EAD7FADB1
:1022E000AF97C7018DD8811102C0C70106D9B701C8
:1022F000CE018C589F4FC2D9CE018C589F4F0E945F
:102300001B08CE018C589F4F89D9C70187D9CE01B0
:1023100083599F4F83D960ED73E0CE018A579F4F59
:10232000C6D9F8013297E830F10508F05DC088277A
:10233000EE58FF4F8F4F30C265EE72E0CE018A57E4
:102340009F4F57D941E060E070E082E090E00BC021
:102350006EEE72E0CE018A579F4F4BD940E060E0AD
:1023600070E083E090E00E94780644C069EF72E07C
:10237000CE018A579F4F3DD984E090E032C060E0A3
:1023800073E0CE018A579F4F34D985E090E029C091
:1023900068E073E0CE018A579F4F2BD941E061E09E
:1023A00070E086E090E0DFCF62E173E0CE018A5713
:1023B0009F4F1FD940E061E070E087E090E0D3CF0D
:1023C0006EE173E0CE018A579F4F13D988E090E009
:1023D00008C066E273E0CE018A579F4F0AD989E0B0
:1023E00090E00E94BA0606C06FE273E0CE018A5701
:1023F0009F4FFFD860ED73E086E996E0FAD863E37B
:1024000073E0CE0180589F4F52D965E473E0CE014E
:1024100080589F4F64D86CE673E0CE0180589F4F80
:102420005ED8C657DF4F68817981CA58D040CE0147
:1024300080589F4F12D86EEA73E0CE0180589F4FAC
:102440004ED86CE773E0CE0180589F4F48D86CE9B6
:1024500073E0CE0180589F4F42D8C657DF4F488166
:102460005981CA58D040CA57DF4F68817981C65810
:10247000D040CE0180589F4F0E94000ACC57DF4FBA
:10248000A880B980C458D04061EB73E0C7010FD970
:10249000B701CE0183599F4FF1D8B601CE018359C0
:1024A0009F4F0E942D0A811104C0CE0183599F4F76
:1024B00024D864ED72E0CE0183599F4F64D88C011B
:1024C000B5010E942D0A811102C0C80116D86EEA1A
:1024D00073E0C80158D8BC01CE018C589F4FCED8AC
:1024E00000E028EB3BE040E050E0BE016C587F4F3D
:1024F000CE0186589F4F0E94EA06CE0186589F4F14
:102500008DD8CE018C589F4F89D8CE0183599F4FCB
:1025100085D8C70183D8BE0160587F4FC701AED8A8
:1025200001E028EE33E040E050E0B701CE018359EE
:102530009F4F0E94EA06CE0183599F4F6FD8C70173
:102540006DD88FEB94E00E942902CE0180589F4FF6
:1025500065D8CE018A579F4F61D834CE10920B04B4
:1025600010920A042FCE85B5887F846085BD8EE4E5
:1025700087BD409205045092060460920704709251
:10258000080480916E00826080936E0097CD86E98A
:1025900096E044D88CE996E041C8E2E2F4E0138288
:1025A000128248EE53E060E070E044835583668316
:1025B00077838AE192E09183808325E331E0358758
:1025C000248724E331E03787268720E331E0318B0D
:1025D000208B21E331E0338B228B22E331E0358BFA
:1025E000248B26E331E0378B268B118E128E138ECF
:1025F000148EEFEBF4E013821282448355836683DA
:1026000077839183808325ED30E03587248724ED1F
:1026100030E03787268720ED30E0318B208B21EDAD
:1026200030E0338B228B22ED30E0358B248B26ED8E
:1026300030E0378B268B118E128E138E148EECE5C4
:10264000F5E01382128244835583668377839183F6
:1026500080832DEC30E0358724872CEC30E0378701
:10266000268728EC30E0318B208B29EC30E0338B4F
:10267000228B2AEC30E0358B248B2EEC30E0378B2C
:10268000268B118E128E138E148EE9EFF5E01382D5
:10269000128244835583668377839183808385EC9C
:1026A00090E09587848784EC90E09787868780EC1C
:1026B00090E0918B808B81EC90E0938B828B82EC0D
:1026C00090E0958B848B86EC90E0978B868B118EB7
:1026D000128E138E148E60ED73E08CE996E00E94EA
:1026E000570B60ED73E086E996E00C94570BBB271F
:1026F0004A3031F4992322F4BDE2909581959F4FA1
:1027000001C0BB27FB015527AA27880F991FAA1FC5
:10271000A41710F0A41B83955051B9F7A05DAA33FC
:1027200008F0A95DA193009779F7B111B1931192C7
:10273000CB0100C0DC01FC01672F71917723E1F729
:10274000329704C07C916D9370836291AE17BF077E
:10275000C8F30895A1E21A2EAA1BBB1BFD010DC0F0
:10276000AA1FBB1FEE1FFF1FA217B307E407F50741
:1027700020F0A21BB30BE40BF50B661F771F881F1D
:10278000991F1A9469F760957095809590959B01B3
:10279000AC01BD01CF010895EE0FFF1F881F8BBF55
:1027A0000790F691E02D1994CF93DF938230910535
:1027B00010F482E090E0E091B706F091B80620E0D6
:1027C00030E0C0E0D0E0309711F1408151814817EE
:1027D0005907C0F04817590761F482819381209707
:1027E00019F09B838A832BC09093B8068093B70619
:1027F00026C02115310519F04217530718F49A0124
:10280000BE01DF01EF010280F381E02DDCCF211555
:10281000310509F1281B390B2430310590F412964B
:102820008D919C9113976115710521F0FB019383A4
:10283000828304C09093B8068093B706FD01329658
:1028400044C0FD01E20FF31F81939193225031099F
:102850002D933C933AC02091B5063091B606232BB8
:1028600041F420910C0230910D023093B606209372
:10287000B50620910A0230910B022115310541F471
:102880002DB73EB740910E0250910F02241B350B1D
:10289000E091B506F091B606E217F307A0F42E1BFF
:1028A0003F0B2817390778F0AC014E5F5F4F2417B4
:1028B000350748F04E0F5F1F5093B6064093B5069C
:1028C0008193919302C0E0E0F0E0CF01DF91CF91DE
:1028D00008950F931F93CF93DF93009709F48CC053
:1028E000FC013297138212820091B7061091B8064C
:1028F0000115110581F420813181820F931F2091F0
:10290000B5063091B6062817390779F5F093B60663
:10291000E093B50671C0D80140E050E0AE17BF07A4
:1029200050F412962D913C911397AD01211531056C
:1029300009F1D901F3CF9D01DA013383228360814C
:102940007181860F971F8217930769F4EC01288124
:102950003981260F371F2E5F3F4F318320838A81B5
:102960009B8193838283452B29F4F093B806E093EF
:10297000B70642C01396FC93EE931297ED0149916E
:1029800059919E01240F351FE217F30771F48081DE
:102990009181840F951F029611969C938E9382814C
:1029A000938113969C938E931297E0E0F0E0D80108
:1029B00012968D919C911397009719F0F8018C0154
:1029C000F6CF8D919C9198012E5F3F4F820F931F00
:1029D0002091B5063091B6062817390769F430976B
:1029E00029F41092B8061092B70602C01382128220
:1029F0001093B6060093B506DF91CF911F910F910A
:102A000008956F927F928F929F92AF92BF92CF92D2
:102A1000DF92EF92FF920F931F93CF93DF93EC011E
:102A2000009781F4CB01DF91CF911F910F91FF901F
:102A3000EF90DF90CF90BF90AF909F908F907F905E
:102A40006F90B2CEFC01E60FF71F9C0122503109B6
:102A5000E217F30708F4A8C0D9010D911C91119752
:102A600006171707A8F00530110508F49BC0C80128
:102A700004978617970708F495C002501109061BA2
:102A8000170B019311936D937C93CF0122DF8AC0C2
:102A90005B01A01AB10A4C01800E911EA091B706ED
:102AA000B091B80640E050E0E12CF12C109709F409
:102AB0004AC0A815B905D1F56D907C9011976301B6
:102AC00082E0C80ED11CCA14DB0480F1A3014A19AC
:102AD0005B096A0182E0C80ED11C1296BC90129765
:102AE0001396AC91B5E0CB16D10440F0B282A3832B
:102AF00051834083D9016D937C930AC00E5F1F4FB1
:102B0000C301800F911FF90191838083EB2DFA2F70
:102B1000E114F10431F0D7011396FC93EE93129770
:102B200041C0F093B806E093B7063CC08D919C91EC
:102B300011974817590708F4AC017D0112960D90C2
:102B4000BC91A02DB3CF8091B5069091B6068815A3
:102B50009905E1F446175707C8F480910A0290914D
:102B60000B02009741F48DB79EB740910E02509131
:102B70000F02841B950BE817F907B0F4F093B60623
:102B8000E093B506F901718360830CC0CB010CDEC4
:102B90007C01009749F0A801BE011BD0CE0199DE4F
:102BA000C70104C0CE0102C080E090E0DF91CF9168
:102BB0001F910F91FF90EF90DF90CF90BF90AF905B
:102BC0009F908F907F906F90089581E090E0F894AF
:102BD00033C0FB01DC0102C001900D924150504016
:102BE000D8F70895FB01DC018D9101908019011047
:102BF000D9F3990B0895FB01DC0101900D9200209F
:102C0000E1F70895FB0151915523A9F0BF01DC01C3
:102C10004D9145174111E1F759F4CD010190002084
:102C200049F04D9140154111C9F3FB014111EFCF1E
:102C300081E090E00197089511E0C1E1D1E000E06A
:102C400005C0802FFE01A8DD2196011DC231D107EC
:0A2C500080E00807B1F7F894FFCF09
:102C5A00D003D003D003010101FF0000B9068000B0
:102C6A0000000000980200000000E301130B61015C
:102C7A00290292017001840141542B5253540D0AC6
:102C8A000041540D0A0041542B43574D4F44453DD2
:102C9A00310D0A0041542B4349504D55583D310DD1
:102CAA000A0041542B4349505345525645523D312F
:102CBA002C38300D0A0041542B4E414D45706C6141
:102CCA006E740041542B50494E32303134007573C2
:102CDA0065724E616D650073736964007073770085
:102CEA0041542B43575141500D0A0041542B43572D
:102CFA004A41503D2200222C2200220D0A004F4B4D
:102D0A000041542B43574A41503F0D0A0041542B6E
:102D1A0043494653520D0A0044454255473A20005A
:102D2A002B4950442C00636D643D00636D64206937
:102D3A0073203A20006C65645F6175746F006C657E
:102D4A00645F6D616E75616C006C65645F6F6E00C7
:102D5A006C65645F6F66660070756D705F6175742F
:102D6A006F0070756D705F6D616E75616C00707566
:102D7A006D705F6F6E0070756D705F6F666600656F
:102D8A00727200485454502F312E31203230302084
:102D9A004F4B0D0A00436F6E74656E742D54797033
:102DAA00653A746578742F68746D6C3B63686172F8
:102DBA007365743D5554462D380D0A00436F6E7481
:102DCA00656E742D4C656E6774683A00416363657D
:102DDA0073732D436F6E74726F6C2D416C6C6F77C9
:102DEA002D4F726967696E3A2A0D0A00436F6E6E3B
:102DFA00656374696F6E3A636C6F73650D0A0D0AC9
:102E0A000041542B43495053454E443D006E756C66
:102E1A006C0022225C5C6208660C6E0A720D7409F0
:102E2A00007265717565737420746F20736C6176B6
:062E3A0065203A200000B3
:00000001FF
