:1000000024C1000053C1000051C100004FC10000D5
:100010004DC100004BC1000049C1000047C10000B4
:1000200045C10000FDC50000FBC50000F9C500008A
:100030003DC100000C94F90D39C1000037C100002A
:1000400035C1000033C1000031C100002FC10000E4
:100050002DC100002BC1000029C1000097C5000080
:1000600025C100006DC4000042C400001FC1000093
:100070001DC100001BC1000019C1000017C1000014
:1000800015C1000013C1000011C100000FC1000024
:1000900005C40000DAC3000009C1000007C1000068
:1000A00005C1000003C1000001C10000FFC0000045
:1000B000FDC00000FBC00000F9C00000F7C0000058
:1000C000F5C00000F3C00000F1C0000095C30000BF
:1000D0006AC30000EBC000003DC3000012C3000073
:1000E000E5C00000831690169F16B016BE16CB16FC
:1000F000D816EB16F9160717251725172517191700
:10010000F804FB04EA04EE04F2043205FF040305DC
:1001100009050D05110517051B051F0532052505E8
:1001200029052D0500002100240027002A002D00AC
:100130003000330001010000040107010A01000042
:100140000A0B02090C0D0E08070304010000000051
:10015000000000000000000000000000000000009F
:10016000000000000000000000001211100000005C
:10017000000000000000000000000000000000007F
:100180000000000000002200250028002B002E00A7
:100190003100340002010000050108010B010000DC
:1001A00020002300260029002C002F00320000012F
:1001B00000000301060109010505050507050808FA
:1001C0000808020202020A0A0808040404040101E1
:1001D00001010101010103030303030303030407F6
:1001E00007070C0C0C0C0C0C0C0C0202020206068D
:1001F0000606060606060B0B0B0B0B0B0B0B010280
:100200001020200808102040102040800201020128
:1002100008040201010204081020408080402010E0
:100220000804020180040201804020100804020139
:1002300008040201010204081020408001020408A1
:100240001020408002004018111811241FBECFEF6B
:10025000D1E2DEBFCDBF00E00CBF28E0A4E0B5E0F6
:1002600001C01D92AE34B207E1F715E0A0E0B2E0A4
:10027000E4EDF9E300E00BBF02C007900D92A4305B
:10028000B107D9F711E0C4E2D1E000E006C0219740
:100290000109802FFE010E946A1AC332D10780E053
:1002A0000807A9F70E94EB0E0C94D91CA9CEFC01FB
:1002B000A089B1898C91A689B78982FD0FC09C91D4
:1002C000818D8F5F8F73228D821749F0218DDF0121
:1002D000A20FB11D5D969C93818F08958C91089516
:1002E000FC01538D448D252F30E0842F90E0821B3C
:1002F000930B541710F0CF96089501970895FC01C1
:10030000918D828D981761F0828DDF01A80FB11D4C
:100310005D968C91928D9F5F9F73928F90E0089570
:100320008FEF9FEF0895FC01918D828D981731F02A
:10033000828DE80FF11D858D90E008958FEF9FEF7E
:100340000895FC01918D228D892F90E0805C9F4F54
:10035000821B91098F739927089586E895E0F1DF54
:1003600021E0892B09F420E0822F089583E296E0B2
:10037000E8DF21E0892B09F420E0822F089580EC4A
:1003800096E0DFDF21E0892B09F420E0822F089539
:100390008DE597E0D6DF21E0892B09F420E0822F5C
:1003A0000895FC01848DDF01A80FB11DA35ABF4F32
:1003B0002C91848D90E001968F739927848FA68964
:1003C000B7892C93A089B1898C9180648C93938D8B
:1003D000848D981306C00288F389E02D80818F7D7B
:1003E00080830895EF92FF920F931F93CF93DF9333
:1003F000EC0181E0888F9B8D8C8D981305C0E88976
:10040000F989808185FD23C0F62E0B8D10E00F5FEA
:100410001F4F0F731127E02E8C8DE8120BC00FB603
:1004200007FCFACFE889F989808185FFF5CFCE01F5
:10043000B8DFF2CF8B8DFE01E80FF11DE35AFF4FBD
:10044000F0820B8FEA89FB898081806207C0EE8988
:10045000FF896083E889F98980818064808381E0F5
:1004600090E0DF91CF911F910F91FF90EF90089551
:10047000CF93DF93EC01888D8823C1F0EA89FB8953
:10048000808185FD05C0A889B9898C9186FD0EC043
:100490000FB607FCF5CF808185FFF2CFA889B98917
:1004A0008C9185FFEDCFCE017CDFE8CFDF91CF913E
:1004B000089580E090E0892B19F06ADF811116C061
:1004C00080E090E0892B19F05ADF811112C080E0A2
:1004D00090E0892B19F04ADF81110EC080E090E096
:1004E000892B79F03ADF81110AC008950E9400003B
:1004F000E7CF0E940000EBCF0E940000EFCF0C94EA
:10050000000008953FB7F89480918205909183058B
:10051000A0918405B091850526B5A89B05C02F3F05
:1005200019F00196A11DB11D3FBFBA2FA92F982F19
:100530008827820F911DA11DB11DBC01CD0142E094
:10054000660F771F881F991F4A95D1F7089520914C
:100550000605309107052817390771F490910405B5
:1005600080910505981741F0E0910405F0E0E35C07
:10057000FA4F808190E008958FEF9FEF08950895DE
:100580001F93CF93DF93DC015C962D913C915D9797
:100590002115310539F481E090E013969C938E93F8
:1005A00012973DC05196ED91FC91529750969C91B7
:1005B0005097892F80951FB75E964C915E9741FBAF
:1005C000772770F941FD6095F8944081772311F009
:1005D000492B01C048234083E9012197F1F748E006
:1005E000508160FF02C0592B01C058235083E9019C
:1005F0002197F1F76695415099F7772321F0908183
:100600008923808303C08081982B90831FBF5C96D1
:100610008D919C915D970197F1F721E030E0C90140
:10062000DF91CF911F910895209106053091070524
:100630002817390769F4809105052091040590E099
:10064000805C9F4F821B910960E470E00C94351A26
:1006500080E090E008952091060530910705281765
:100660003907B9F49091040580910505981789F030
:10067000E0910405F0E0E35CFA4F808120910405ED
:1006800030E02F5F3F4F2F7333272093040590E016
:1006900008958FEF9FEF0895089580E090E008950A
:1006A000FC0126813781620F731F84819581861733
:1006B000970738F08281938177836683820F931F37
:1006C000089580E090E008950E94971C0F931F9377
:1006D000CF93DF938B01FC01C281D381209759F026
:1006E0006A817B81C8010E94AF1C892B21F009908F
:1006F000D881C02DF3CFCE01DF91CF911F910F9103
:1007000008951F920F920FB60F9211240BB60F92FD
:100710002F933F934F935F936F937F938F939F9309
:10072000AF93BF93EF93FF9386E895E03ADEFF9196
:10073000EF91BF91AF919F918F917F916F915F9159
:100740004F913F912F910F900BBE0F900FBE0F90C6
:100750001F9018951F920F920FB60F9211240BB68F
:100760000F922F933F934F935F936F937F938F934A
:100770009F93AF93BF93EF93FF9386E895E097DD48
:10078000FF91EF91BF91AF919F918F917F916F9169
:100790005F914F913F912F910F900BBE0F900FBE25
:1007A0000F901F9018951F920F920FB60F92112461
:1007B0000BB60F922F933F934F935F936F937F935B
:1007C0008F939F93AF93BF93EF93FF9383E296E052
:1007D000E8DDFF91EF91BF91AF919F918F917F9154
:1007E0006F915F914F913F912F910F900BBE0F90A2
:1007F0000FBE0F901F9018951F920F920FB60F9279
:1008000011240BB60F922F933F934F935F936F93E7
:100810007F938F939F93AF93BF93EF93FF9383E265
:1008200096E045DDFF91EF91BF91AF919F918F9140
:100830007F916F915F914F913F912F910F900BBEE0
:100840000F900FBE0F901F9018951F920F920FB62A
:100850000F9211240BB60F922F933F934F935F93F8
:100860006F937F938F939F93AF93BF93EF93FF9378
:1008700080EC96E096DDFF91EF91BF91AF919F9153
:100880008F917F916F915F914F913F912F910F9039
:100890000BBE0F900FBE0F901F9018951F920F92D6
:1008A0000FB60F9211240BB60F922F933F934F93D5
:1008B0005F936F937F938F939F93AF93BF93EF93C8
:1008C000FF9380EC96E0F3DCFF91EF91BF91AF9145
:1008D0009F918F917F916F915F914F913F912F9158
:1008E0000F900BBE0F900FBE0F901F9018951F9288
:1008F0000F920FB60F9211240BB60F922F933F93C6
:100900004F935F936F937F938F939F93AF93BF9317
:10091000EF93FF938DE597E044DDFF91EF91BF9159
:10092000AF919F918F917F916F915F914F913F9187
:100930002F910F900BBE0F900FBE0F901F90189528
:100940001F920F920FB60F9211240BB60F922F9396
:100950003F934F935F936F937F938F939F93AF9347
:10096000BF93EF93FF938DE597E0A1DCFF91EF91AB
:10097000BF91AF919F918F917F916F915F914F91B7
:100980003F912F910F900BBE0F900FBE0F901F90B5
:100990001895362F90E0FC01E25CFE4F4491FC017B
:1009A000E250FE4F2491FC01E854FE4F94919923AC
:1009B00009F46BC0442309F455C050E0FA013197A3
:1009C000E231F10508F04EC08827E058FF4F8F4F05
:1009D0000C946A1A809180008F7707C08091800004
:1009E0008F7D03C080918000877F809380003AC014
:1009F00084B58F7702C084B58F7D84BD33C080916C
:100A0000B0008F7703C08091B0008F7D8093B000DD
:100A100029C0809190008F7707C0809190008F7DD2
:100A200003C080919000877F809390001BC08091CD
:100A3000A0008F7707C08091A0008F7D03C08091B8
:100A4000A000877F8093A0000DC0809120018F7748
:100A500007C0809120018F7D03C080912001877F96
:100A600080932001E92FF0E0EE0FFF1FEC57FE4FBF
:100A7000A591B4918FB7F894EC91311103C02095F2
:100A80002E2301C02E2B2C938FBF0895CF93DF937D
:100A900090E0FC01E250FE4F2491FC01E854FE4F2F
:100AA0008491882361F190E0880F991FFC01EC5D2F
:100AB000FE4FC591D491FC01EC57FE4FA591B49126
:100AC000611109C09FB7F89488812095822388839B
:100AD000EC912E230BC0623061F49FB7F8943881FB
:100AE000822F809583238883EC912E2B2C939FBF9C
:100AF00006C08FB7F894E8812E2B28838FBFDF9133
:100B0000CF9108958F929F92AF92BF92CF92DF9232
:100B1000EF92FF926B017C01F5DC4B015C01C1148B
:100B2000D104E104F104E9F0EDDCDC01CB0188192A
:100B30009909AA09BB09883E9340A105B10578F33C
:100B400021E0C21AD108E108F10888EE880E83E09E
:100B5000981EA11CB11CC114D104E104F10421F7B9
:100B6000DECFFF90EF90DF90CF90BF90AF909F903F
:100B70008F9008952FB7F89460917E0570917F054E
:100B800080918005909181052FBF08951F920F924B
:100B90000FB60F9211242F933F938F939F93AF9390
:100BA000BF9380917E0590917F05A0918005B091C3
:100BB000810530917D0523E0230F2D3720F4019628
:100BC000A11DB11D05C026E8230F0296A11DB11D70
:100BD00020937D0580937E0590937F05A0938005EB
:100BE000B09381058091820590918305A091840541
:100BF000B09185050196A11DB11D8093820590934A
:100C00008305A0938405B0938505BF91AF919F9113
:100C10008F913F912F910F900FBE0F901F901895BD
:100C20001F920F920FB60F9211240BB60F922F93B3
:100C30003F934F935F936F937F938F939F93AF9364
:100C4000BF93EF93FF93E0910605F091070530976E
:100C500009F451C0968DA685B785858591FF04C09E
:100C60009C91892329F447C09C91892309F043C0B2
:100C7000A389B4899C918589809589238C938689E1
:100C800097890197F1F7608D718DA685B785558598
:100C900038E020E0CB010197F1F7822F90E09595A5
:100CA0008795282F4C91452309F02068315091F702
:100CB000868D81FD20958091050590E001968F73CA
:100CC000992730910405381749F0A0910505B0E047
:100CD000A35CBA4F2C938093050503C0868D816079
:100CE000868F828D938D0197F1F7A389B4899C91AA
:100CF0008589892B8C93FF91EF91BF91AF919F9143
:100D00008F917F916F915F914F913F912F910F90B4
:100D10000BBE0F900FBE0F901F90189560E081E3FF
:100D200038DE61E083E335CE0F931F93CF93DF93DB
:100D3000CDDCEC01892BC1F00C811D810130110546
:100D400059F46E817F816115710531F087E994E076
:100D50000E94AF1C892B41F001501109023011058E
:100D600018F48E819F8102C080E090E0DF91CF91E6
:100D70001F910F910895FC01A081B1818C918D305C
:100D800051F024F489508230B8F505C0803219F052
:100D90008F3219F0089511962CC011968C911197ED
:100DA0008A3219F08F32D1F008951196B183A08361
:100DB000A081B181CD0101969183808311968C91A0
:100DC00011978823C9F08A3299F712968C9112975D
:100DD0008F3271F713960DC08A3071F2A081B18104
:100DE000CD0101969183808311968C918111F4CF6E
:100DF00003C0B183A083C0CF08950F931F93CF93F7
:100E0000DF931F92CDB7DEB78C016983B4DFD801C1
:100E1000ED91FC91119780816981861305C031960F
:100E2000ED93FC9381E001C080E00F90DF91CF91C2
:100E30001F910F910895EF92FF920F931F93CF93FD
:100E4000DF938C01DC011496CD91DC911597EA803B
:100E5000FB808E819F81E80EF91EC80102968BDF10
:100E6000D8011296ED91FC9113979081973291F1F0
:100E7000923281F180ED890F8A3060F0892F8F7D69
:100E800081548A3138F09B3229F083ED890F82300A
:100E900008F060C0F801228133812F5F3F4F338318
:100EA00022832E813F81A9014F5F5F4F6C817D813D
:100EB0006417750740F06A817B81FB01E20FF31F25
:100EC0005F834E839083D8011296ED91FC91139726
:100ED0009081D0CF3196D8011396FC93EE93129760
:100EE000D8011296ED91FC9113972081222391F164
:100EF000AF014F5F5F4F13965C934E931297291784
:100F000049F12C35A9F42181A0EAB4E08C91882321
:100F100039F0821303C011962C9102C01296F6CFBD
:100F20002223C1F03296D8011396FC93EE931297C8
:100F30004E815F81BA016F5F7F4FEC81FD81E617C3
:100F4000F70770F2EA81FB81E40FF51F7F836E8360
:100F50002083C6CF8E819F819C012F5F3F4F4C81A4
:100F60005D814217530748F04A815B81FA01E80F1F
:100F7000F91F3F832E83108202C0E12CF12CC701A0
:100F8000DF91CF911F910F91FF90EF9008950F93F4
:100F90001F93CF93DF93EC018C01060F171FC0172F
:100FA000D10729F0699186E895E01CDAF8CF60ED69
:100FB00077E080E090E0A6DD86E895E0C2D9892B55
:100FC00021F086E895E09BD9F7CFDF91CF911F9173
:100FD0000F910895CF92DF92FF920F931F93CF93BB
:100FE000DF93CDB7DEB72C970FB6F894DEBF0FBEF8
:100FF000CDBF8B010A5F1D4F21E02427F80130810E
:1010000032131EC0F42E6C016BEA74E0CE0101961F
:1010100098D5BE016F5F7F4FCE01079679D5B60197
:10102000CE01079670D4DDD1CE01079640D5CE0112
:1010300001963DD5B60180EC96E0E4D1F801F0824E
:101040002C960FB6F894DEBF0FBECDBFDF91CF91C7
:101050001F910F91FF90DF90CF9008950F931F93F2
:10106000CF93DF93CDB7DEB72C970FB6F894DEBFE2
:101070000FBECDBF8C016FEB74E0CE01019661D540
:10108000BE016F5F7F4FCE01079642D5B801CE01FA
:10109000079639D4A6D1CE01079609D5CE0101967F
:1010A00006D5B8018AEF97E0ADD12C960FB6F8942B
:1010B000DEBF0FBECDBFDF91CF911F910F9108957D
:1010C0008F929F92AF92BF92CF92DF92EF92FF9258
:1010D0000F93CF93DF93CDB7DEB72A970FB6F8946F
:1010E000DEBF0FBECDBF7C016B016AEA74E02F83C7
:1010F000388749875A8725D5B60183E296E0D8D547
:1011000039DD2F81388549855A854B015C01820E76
:10111000931EA41EB51E2EDD681579058A059B0554
:1011200060F483E296E00DD9892BA9F383E296E07F
:10113000E6D8682FC7016FD3F4CFF601848195817B
:10114000892B09F444C06FEC72E0808191810E9488
:10115000AF1C892B09F03BC06BED74E0CE0101960A
:10116000F0D4BE016F5F7F4FC701DFD25C01CE01BB
:1011700001969DD460EC72E0CE010196E2D4BE01EE
:101180006F5F7F4FC701D1D26C01CE0101968FD422
:1011900060EE74E08DE597E099D5C50162D26AEE04
:1011A00074E08DE597E092D5C6015BD2960123509D
:1011B0003109A501B701CE01019635D4BE016F5F9B
:1011C0007F4F81E398E048D3CE01019670D401119E
:1011D00002C0C70106D1C7012A960FB6F894DEBF38
:1011E0000FBECDBFDF91CF910F91FF90EF90DF90B9
:1011F000CF90BF90AF909F908F900895DB01109794
:1012000049F0ED91FC9111970190F081E02DBC0126
:10121000CD01199480E090E008959F92AF92BF9223
:10122000CF92DF92EF92FF920F931F93CF93DF93B2
:1012300000D000D0CDB7DEB76C01FC010081118178
:10124000B80184E090E0DADF009739F0FC01118307
:101250000083138212828C0111C0809135058111A7
:101260000BC0109232051092310510923405109285
:10127000330581E08093350501E315E07601F2E066
:10128000EF0EF11C6BE7C701B8DD882309F45EC0DF
:101290006DE7C701B2DD81116AC086E0982EC601F4
:1012A000CADD5C01892B09F451C06AE3C701A5DDE1
:1012B000882309F44BC01A821982BE016F5F7F4FE9
:1012C000C601CFD0882309F441C0B501C801FED9B9
:1012D000DC01892B49F5F801608171818AE090E099
:1012E0008DDFDC01892B39F011961C921E92159628
:1012F0001C921E921497F801228133812115310529
:1013000051F0F90180819181009711F09C01F9CF92
:10131000B183A08303C0F801B383A2831097B1F017
:101320001396BC92AE921297FE0131961496892DB7
:1013300001900D928A95E1F76DE7C7015EDD81119D
:1013400016C06CE2C70159DD8111A9CF8091350526
:1013500081110BC0109232051092310510923405A4
:101360001092330581E08093350501E315E0C80153
:1013700026960FB6F894DEBF0FBECDBFDF91CF919A
:101380001F910F91FF90EF90DF90CF90BF90AF90A3
:101390009F9008950F931F93CF93DF93EC01888163
:1013A0009981009729F02A813B812617370788F415
:1013B0008B016F5F7F4F0E94B31B009761F0998391
:1013C00088831B830A832C813D81232B11F4FC012C
:1013D000108281E001C080E0DF91CF911F910F91D9
:1013E0000895CF93DF93BC018DE597E061D4EC01C4
:1013F00063E373E08DE597E069D48C0F9D1FDF9167
:10140000CF910895AB01770F660B770B77FDBBC4C7
:101410002AE071C4FC01A089B18982E08C93A48583
:10142000B5851C92A685B7858FEC8C93108EA48908
:10143000B58986E08C93A289B3898C9180618C9365
:10144000A289B3898C9188608C93A289B3898C918D
:1014500080688C930288F389E02D80818F7D808362
:1014600008959F92AF92BF92CF92DF92EF92FF9238
:101470000F931F93CF93DF9300D000D0CDB7DEB78B
:10148000FC019681992309F4D8C06B017F0191502A
:1014900096835F0182E0A80EB11CC5016CDCD70108
:1014A0001296ED91FC91139780818B3521F08B374B
:1014B00009F492C09BC0F70100811181B80184E05A
:1014C00090E09CDE009751F0DC0111961C930E9386
:1014D00013961C921E9212978C0111C080913B08AA
:1014E00081110BC0109238081092370810923A08F8
:1014F0001092390881E080933B0807E318E06BE520
:10150000C5017BDC882309F447C06DE5C50175DCA6
:10151000811153C086E0982E1A821982BE016F5F36
:101520007F4FC7019EDF8823B9F1F8016081718187
:1015300088E090E063DEDC01892B39F011961C9283
:101540001E9213961C921E921297F80122813381EB
:101550002115310551F0F90180819181009711F039
:101560009C01F9CFB183A08303C0F801B383A283A8
:10157000109791F0FE0131961296892D01900D92EF
:101580008A95E1F76DE5C50138DC811116C06CE282
:10159000C50133DC8111C0CF80913B0881110BC0A4
:1015A000109238081092370810923A0810923908B1
:1015B00081E080933B0807E318E0D8018D919C916E
:1015C000892B11F410E031C086E090E0F6019183A0
:1015D00080831383028328C0C7011FDEDC012D91A5
:1015E0003C91232B79F327E030E019C011E08732DA
:1015F00019F0823209F010E0C7011DDC009711F3E9
:10160000112359F022E030E0D60111963C932E933D
:1016100013969C938E93129708C021E030E0F60158
:10162000318320839383828311E0D70116968C91B6
:1016300016978F5F16968C9301C010E0812F269627
:101640000FB6F894DEBF0FBECDBFDF91CF911F91D3
:101650000F91FF90EF90DF90CF90BF90AF909F9051
:101660000895CF93DF93AC01990F660B770B77FF4B
:1016700004C08DE597E087D304C02AE08DE597E0AC
:101680003AD3EC0163E373E08DE597E01FD38C0F51
:101690009D1FDF91CF9108950F931F936BDA609395
:1016A0002B0670932C0680932D0690932E06E091C6
:1016B0002306F09124060284F385E02D83E296E070
:1016C000199597FF1EC056DA00912B0610912C0633
:1016D00020912D0630912E06DC01CB01801B910B51
:1016E000A20BB30B00912706109128062091290622
:1016F00030912A0680179107A207B307C0F28FEF37
:101700009FEF1F910F910895CF93DF93BC018DE55B
:1017100097E0DCD2EC0163E373E08DE597E0D6D28D
:101720008C0F9D1FDF91CF910895CF93DF93FC0124
:1017300024813581232B71F0FB01DC01CD91DC91FB
:1017400060817181CE010E94BF1C009719F08C1B33
:101750009D0B02C08FEF9FEFDF91CF910895EF9225
:10176000FF920F931F93CF93DF93FC012481358168
:101770006115710511F480E018C041155105A1F003
:101780007B01EC018A01020F131FB80103DE8823DD
:1017900091F3288139818C819D81B701820F931F3C
:1017A0000E94B81C1D830C8381E0DF91CF911F91B3
:1017B0000F91FF90EF900895EF92FF920F931F9378
:1017C000CF93DF93CDB7DEB727970FB6F894DEBF80
:1017D0000FBECDBF7C01CB014AE08E010F5F1F4FD2
:1017E000B8010E940C1AF80101900020E9F7319726
:1017F000AF01401B510BB801C701B1DF27960FB6EF
:10180000F894DEBF0FBECDBFDF91CF911F910F9136
:10181000FF90EF900895CF93DF931F921F92CDB763
:10182000DEB769831A8241E050E0BE016F5F7F4FEF
:1018300096DF0F900F90DF91CF910895611571059C
:1018400049F0FB0101900020E9F73197AF01461BF9
:10185000570B85CF80E008950F931F93CF93DF93AD
:101860008C01EB01FC01808191810097B1F06881CE
:1018700079816115710579F0428153812C813D8117
:101880004217530740F00E94B81C8C819D81F801DB
:101890009583848313C00E941B1B88819981F80162
:1018A000918380838A819B81938382838C819D81B4
:1018B00095838483198218821B821A821D821C825E
:1018C000DF91CF911F910F910895CF93DF93EC019A
:1018D00088819981009711F00E941B1B1982188240
:1018E0001D821C821B821A82DF91CF910895CF93B3
:1018F000DF93EC0161DF811102C0CE01E6DFCE0192
:10190000DF91CF910895EF92FF920F931F93CF93A2
:10191000DF93CDB7DEB728970FB6F894DEBF0FBEC2
:10192000CDBF7C01CB014AE08E010F5F1F4FB80194
:101930000E94ED19F80101900020E9F73197AF01FD
:10194000401B510BB801C7010ADF811102C0C7015A
:10195000BCDFC70128960FB6F894DEBF0FBECDBF1F
:10196000DF91CF911F910F91FF90EF900895CF934A
:10197000DF93EC016115710559F0FB010190002026
:10198000E9F73197AF01461B570BE9DE811102C021
:10199000CE019BDFCE01DF91CF910895CF93DF93EE
:1019A000EC01FB014481558160817181D8DE811198
:1019B00002C0CE018ADFCE01DF91CF910895EF9270
:1019C000FF920F931F93CF93DF93EC017B018A016A
:1019D000BA01E0DC811103C0CE0177DF07C01D83AF
:1019E0000C83B701888199810E94B81CCE01DF91D8
:1019F000CF911F910F91FF90EF900895CF93DF93B8
:101A0000EC016115710551F0FB0101900020E9F72F
:101A10003197AF01461B570BD2DF01C056DFCE0115
:101A2000DF91CF910895BF92CF92DF92EF92FF9214
:101A30000F931F93CF93DF937C016B018A01E90120
:101A40002417350720F4812F8901C42FD82F6AEA83
:101A500074E0C70176D0D60114968D919C911597AC
:101A600008171907C8F48C179D0708F4EC01D60174
:101A7000ED91FC911197EC0FFD1FB08010824D91FC
:101A80005C91BA01600F711FC701B8DFD601ED91FB
:101A9000FC91EC0FFD1FB082C701DF91CF911F9128
:101AA0000F91FF90EF90DF90CF90BF900895FC01D1
:101AB000808191810C941B1B0895CF92DF92EF924D
:101AC000FF920F931F93CF93DF936C017A018B01E9
:101AD000C0E0D0E0CE15DF0589F0D8016D918D0111
:101AE000D601ED91FC910190F081E02DC601199590
:101AF000892B11F47E0102C02196ECCFC701DF9142
:101B0000CF911F910F91FF90EF90DF90CF900895AC
:101B1000FB01DC0111961C921E9213961C921E92E0
:101B2000129715961C921E9214978617970741F0EC
:101B3000608171816115710519F0448155813FCF34
:101B40000895FC0111821082138212821582148280
:101B50006115710549F0FB0101900020E9F731970B
:101B6000AF01461B570B2BCF089590910902981394
:101B70003DC0E4E4F2E0E4919FEF90930902E2308B
:101B8000C9F050F4EE2399F0E13081F590916F00A7
:101B90009D7F90936F002AC0E43019F1E0F0E530AA
:101BA00029F5909173009D7F909373001FC0109250
:101BB0006E001CC0909170009D7F9093700091E02A
:101BC0009093B0009091B100987F94609093B10091
:101BD0001092B3000BC0909171009D7F90937100A3
:101BE00005C0909172009D7F9093720060E00C940C
:101BF000C9041F920F920FB60F9211240BB60F92C9
:101C00002F933F934F935F936F937F938F939F9304
:101C1000AF93BF93EF93FF9380914608909147084D
:101C2000A0914808B0914908892B8A2B8B2B51F140
:101C300080914508E0914308F091440890818927FC
:101C400080838091460890914708A0914808B09100
:101C50004908181619061A061B06BCF48091460896
:101C600090914708A0914808B09149080197A109AF
:101C7000B1098093460890934708A0934808B09311
:101C8000490803C08091090270DFFF91EF91BF9175
:101C9000AF919F918F917F916F915F914F913F9104
:101CA0002F910F900BBE0F900FBE0F901F901895A5
:101CB000DC01ED91FC91DB0114964D915C9115973F
:101CC0006D917C910280F381E02D1994611571056D
:101CD00079F0FB0101900020E9F73197AF01461B35
:101CE000570BDC01ED91FC910280F381E02D1994FA
:101CF00080E090E008954F925F926F927F92EF9212
:101D0000FF920F931F93CF93DF93CDB7DEB7A197C9
:101D10000FB6F894DEBF0FBECDBF7C01FA01CB0138
:101D200019A2223008F42AE08E010F5D1F4F422EC7
:101D3000512C612C712CBF01A30192010E94481A01
:101D4000F901CA01015011096A3014F4605D01C043
:101D5000695CD8016C93232B242B252B61F7B801E8
:101D6000C701B4DFA1960FB6F894DEBF0FBECDBF9A
:101D7000DF91CF911F910F91FF90EF907F906F9027
:101D80005F904F900895CF92DF92EF92FF920F9362
:101D90001F93CF93DF93EC016A017B01E881F98106
:101DA0000190F081E02D6DE219958C0144275527B3
:101DB000BA014C195D096E097F092AE0CE019BDF4B
:101DC000800F911FDF91CF911F910F91FF90EF90A6
:101DD000DF90CF900895CF93DF93CDB7DEB7C8598A
:101DE000D1090FB6F894DEBF0FBECDBF789484B58D
:101DF000826084BD84B5816084BD85B5826085BD07
:101E000085B5816085BD80916E00816080936E0094
:101E10001092810080918100826080938100809186
:101E20008100816080938100809180008160809337
:101E300080008091B10084608093B1008091B000F7
:101E400081608093B00080919100826080939100C6
:101E500080919100816080939100809190008160D9
:101E6000809390008091A10082608093A100809176
:101E7000A10081608093A1008091A0008160809387
:101E8000A000809121018260809321018091210135
:101E900081608093210180912001816080932001E5
:101EA00080917A00846080937A0080917A008260C9
:101EB00080937A0080917A00816080937A0080918B
:101EC0007A00806880937A001092C10061E081E31B
:101ED0000E94460561E08FE10E94460561E083E3D0
:101EE0000E94460560E08FE10E94C90460E081E342
:101EF0000E94C90460E083E30E94C9048DE597E075
:101F000089DA80EC96E086DA83E296E083DA109252
:101F100015081092140810921308109212081092CB
:101F20001108109210088DE991E0909317088093A2
:101F300016088091060896EF980F943048F02EEC22
:101F4000280F243028F022EC280F283008F070C029
:101F50002DEB30E030931108209310082BE931E08D
:101F600030931308209312082CE231E030931508C7
:101F700020931408943070F02EEC280F243050F089
:101F800022EC280F283010F40C940718A0E0B0E0E1
:101F90000C940918A8E6B0E0E8E6F0E0208194305F
:101FA00018F08E53883010F081E001C084E0822B5D
:101FB0008C938091060896EF980F943058F02EEC91
:101FC000280F243038F022EC280F283030F020E0A1
:101FD00030E005C02BE630E002C02DE630E0309363
:101FE0000E0820930D08943010F49AEF0BC0823342
:101FF00081F0833381F0843381F092EC980F983034
:1020000070F492EC980F81E001C0880F9A95EAF77E
:1020100007C088E005C084E003C082E001C081E021
:1020200080930F0880911608909117080197F1F797
:102030008091140890911508892B49F1E0910605CB
:10204000F091070587E0EA3FF80709F1309739F08A
:10205000A389B4899C918589809589238C938091EB
:1020600018088E7F809318081092050510920405B9
:102070008AEF97E09093070580930605E0910D089D
:10208000F0910E08908180910F08892B808368EE73
:1020900073E080E090E00E9482056AE372E0CE0186
:1020A00083599F4F4EDD00E028EB3BE040E050E0DD
:1020B000BE0163597F4FFE0131967F01CF0100D8E9
:1020C000C701F5DCCE0183599F4FF1DC63E472E078
:1020D000CE0183599F4F35DD20ED37E040E050E0E1
:1020E000BE0163597F4FC7010E946008C701DFDC52
:1020F000CE0183599F4FDBDC68E472E0CE01835947
:102100009F4F1FDD20ED37E040E050E0BE016359F6
:102110007F4FC7010E946008C701C9DCCE01835907
:102120009F4FC5DC66E572E0CE0183599F4F09DD04
:1021300020ED37E040E050E0BE0163597F4FC7011A
:102140000E946008C701B3DCCE0183599F4FAFDC0A
:1021500064E672E0CE0183599F4FF3DC20ED37E057
:1021600040E050E0BE0163597F4FC7010E94600804
:10217000C7019DDCCE0183599F4F99DC86E895E02D
:1021800049D96CE070E088E792E00E94C7076AE0F6
:1021900070E085E892E00E94C7070E948E0686E8FC
:1021A00095E00E94A101892BD1F360ED77E080E0FA
:1021B00090E00E948205E7EBCE2EEFE4DE2E442471
:1021C0004A94542C32018DEE882E81E0982E93E3B0
:1021D000292E92E0392E86E895E00E94A101892BF4
:1021E00009F4E7C286E895E00E947F01C856DF4FF8
:1021F0008883C859D0408B3721F481E080932B0528
:10220000CAC280912B05882309F4C5C2C856DF4F86
:10221000F881C859D040FD3709F0BDC210922B0596
:102220006DE78FE198E0F7DA89E090E08C0F9D1F71
:102230009C838B83E4E6F0E0FE83ED8318861F82A7
:1022400084E192E09A83898380911F08909120080D
:10225000009711F48AEA94E0AF96FFAEEEAEAF9726
:10226000E1969FAF8EAFE197E396FFAEEEAEE397B8
:102270009AE0E4969FAFE497CE0183599F4F0E9466
:102280000D098C0160E972E00E94940690930102AE
:102290008093000269E972E0C8010E94940690935D
:1022A0000302809302026EE972E0C8010E94940664
:1022B00090930502809304020E948E0662EA72E007
:1022C000CE0183599F4F3DDC00E020ED37E040E038
:1022D00050E0BE0163597F4FC7010E946008C701EB
:1022E000E6DBCE0183599F4FE2DB0091040210919F
:1022F0000502A0900202B09003026DEA72E0CE01E6
:1023000083599F4F1EDCBE0163597F4FC70100DC1C
:10231000B501C7012CDB68EB72E029DBB80127DBD4
:102320006CEB72E024DBBC01CE0186589F4FF0DBE2
:10233000C701BDDBCE0183599F4FB9DBBE01665893
:102340007F4FCE0183599F4FE3DB00E028E833E164
:1023500040E050E0BE0163597F4FC7010E94600812
:10236000C701A5DBCE0183599F4FA1DB60EC72E072
:10237000C701E7DB63EC72E0CE018C589F4FE1DBD5
:1023800028EB3BE040E050E0BE016C587F4FCE01AF
:1023900083599F4F0E946008B701CE0183599F4F18
:1023A000C4D98C01CE0183599F4F81DBCE018C585B
:1023B0009F4F7DDBC7017BDB0F3F1F4F09F4E0C15F
:1023C0006FE178E080EC96E073DC80EC96E00E94B0
:1023D000A101892BD1F368EE73E080E090E00E94C8
:1023E000820580EC96E00E94A101892BC1F080EC6F
:1023F00096E00E947F01182FE0915D07F0915E0743
:102400000190F081E02D682F8DE597E0199563E349
:1024100073E08DE597E05ADC113319F3B3C16FEC2B
:1024200072E0CE0183599F4F8CDB00E020ED37E056
:1024300040E050E0BE0163597F4FC7010E94600831
:10244000C70135DBCE0183599F4F31DB61E081E36A
:102450000E94C90460E083E30E94C90480910902DC
:10246000853321F4E4E4F2E01491E4C08F3F09F0F5
:102470007BC185E380930902E4E4F2E014911F3FFD
:1024800009F472C1123009F46FC044F5112309F444
:102490004FC0113009F0CEC0109280001092810020
:1024A00080918100886080938100809181008160AB
:1024B00080938100F4018491E82FF0E0EE0FFF1F7C
:1024C000EC57FE4F859194919093130580931205DC
:1024D000F10184918093110511E0AEC0143009F42C
:1024E00087C00CF463C0153009F0A4C0109220011D
:1024F00010922101809121018860809321018091B7
:102500002101816080932101F4018491E82FF0E0A2
:10251000EE0FFF1FEC57FE4F8591949190930A05A3
:1025200080930905F10184918093080515E084C02A
:1025300014BC15BC84B5826084BD85B5816085BD41
:10254000F4018491E82FF0E0EE0FFF1FEC57FE4FEF
:10255000859194919093160580931505F1018491CE
:102560008093140510E068C01092B0001092B10082
:102570008091B00082608093B0008091B100816052
:102580008093B100F4018491E82FF0E0EE0FFF1F7B
:10259000EC57FE4F859194919093440880934308A3
:1025A000F10184918093450812E046C0109290009A
:1025B00010929100809191008860809391008091A9
:1025C0009100816080939100F4018491E82FF0E004
:1025D000EE0FFF1FEC57FE4F8591949190931005DD
:1025E00080930F05F101849180930E0513E024C0C0
:1025F0001092A0001092A1008091A10088608093A9
:10260000A1008091A10081608093A100F4018491D8
:10261000E82FF0E0EE0FFF1FEC57FE4F85919491ED
:1026200090930D0580930C05F101849180930B0527
:1026300014E002C017FD98C061E085E30E944605E2
:10264000112309F4D0C4123009F442C01130C1F48E
:1026500080918100887F816080938100D092890081
:10266000C09288004092230550922405609225056F
:102670007092260580916F00826080936F0074C015
:10268000133039F480919100887F816080939100AC
:1026900036C0143039F48091A100887F8160809326
:1026A000A1003FC0153039F480912101887F8160FD
:1026B0008093210148C0133011F12CF4123009F03D
:1026C00053C087EB0CC0143061F11530E1F14CC000
:1026D0008091B100887F85608093B1008EE98093FE
:1026E000B3004092460850924708609248087092A2
:1026F00049088091700082608093700035C0D0924C
:102700009900C092980040921F0550922005609257
:102710002105709222058091710082608093710082
:1027200023C0D092A900C092A80040921B055092ED
:102730001C0560921D0570921E05809172008260DA
:102740008093720011C0D0922901C092280140925A
:102750001705509218056092190570921A0580911C
:10276000730082608093730068EE73E080E090E015
:102770000E94820585E3F9D981E08093300502C08B
:102780000E948E06CE0186589F4F91D96AEA74E066
:102790008FE198E033D980912B05882309F41BCD74
:1027A000C856DF4F6881C859D0408FE198E033D8D0
:1027B0000ACD6AED72E08DE597E088DA81E398E072
:1027C0000E94F1096091310870913208611571051C
:1027D00041F040913508509136088BE298E0EFD8EF
:1027E00003C08BE298E071D867EE72E0CE018359A6
:1027F0009F4FA7D9BE0163597F4FC70189D969EBA4
:1028000072E0C701B4D86BEF72E0B1D867E073E053
:10281000AED860E570E06BD863E373E0A8D8BC0184
:10282000CE0184579F4F74D9C70141D9CE01835936
:102830009F4F3DD960EC72E0C70183D9BE01645758
:102840007F4FCE018C589F4F63D900E028E833E1D9
:1028500040E050E0BE016C587F4FCE0183599F4F3E
:102860000E946008B701CE0183599F4F0E94950BCB
:102870008C01CE0183599F4F1AD9CE018C589F4F9E
:1028800016D9C70114D90F3F1F4F31F483E296E0E8
:102890000E94380210E0ACC06AE073E0CE018359B8
:1028A0009F4F4FD900E020ED37E040E050E0BE01FF
:1028B00063597F4FC7010E946008C701F8D8CE0155
:1028C00083599F4FF4D861E378E0C70121D967E1CC
:1028D00073E0CE0183599F4F34D9B701CE0183599C
:1028E0009F4F5CD8BC01CE018A579F4F11D9CE01B2
:1028F00083599F4FDCD8C701DAD86CE173E0C70178
:1029000020D965E278E0C70149D8BE016A577F4FF8
:1029100045D863E373E02BD8BC01CE0180589F4FAC
:10292000F7D8C701C4D861E273E0CE0180589F4F49
:102930000E941E0CCC57DF4F08811981C458D0402B
:1029400066E373E0CE0186589F4FFBD8BE01665800
:102950007F4FCE018C589F4FDBD8B801CE018C58E9
:102960009F4F0E94770C63E373E001D8BC01CE0156
:1029700083599F4FCDD800E028EE33E040E050E08F
:10298000BE0163597F4FC7010E946008C7018FD8FD
:10299000CE0183599F4F8BD8CE018C589F4F87D83B
:1029A000CE0186589F4F83D8BE0160587F4FCE011D
:1029B00083599F4FADD828EE33E040E050E0BE0190
:1029C00063597F4FC7010E946008C70170D8CE01CC
:1029D00083599F4F6CD883E296E00E943802CE0163
:1029E00080589F4F64D8CE018A579F4F60D811E01E
:1029F000CE0184579F4F5BD8112319F084E493E0F4
:102A000002C084E593E00E94840B00912C05109194
:102A10002D050330110509F452C06BE278E0CE01B8
:102A200083599F4F75D8E396CEACDFACE397C114C2
:102A3000D10491F0AF96AEACBFACAF976EE270E050
:102A4000C50182D7009741F0AC014A195B094133B7
:102A50008DE2580719F408C04FEF5FEF0F5F1F4F6B
:102A600010932D0500932C054F5F5F4F9601BE011B
:102A700063597F4FC7010E94130DB701CE018359DF
:102A80009F4F0E942C0CC70112D81A8219821C82F7
:102A90001B821E821D82BE0163597F4FC7010E94A7
:102AA0002C0CB7018BE298E00E942C0CC7010E940D
:102AB000570DCE0183599F4F0E94570DA6CF63E655
:102AC00073E08DE597E002D98BE298E00E94F1096E
:102AD0006BE278E080EC96E0EBD8809130058823BB
:102AE00009F47EC283E296E00E94380283E296E017
:102AF0000E94A101892B09F473C26AEA74E0CE0135
:102B00008E569F4F1ED80E944C0B97FD0AC08A30EC
:102B1000910539F0682FCE018E569F4F0E940B0C05
:102B2000F2CF6EE673E0C7010CD8BE016E567F4F40
:102B3000C7010E94CE0C0E94F109C7010E94570DE7
:102B4000CA56DF4F48815981C659D040CE56DF4F13
:102B500068817981C259D04089E198E00E94AF0B29
:102B6000CA56DF4F88819981C659D040892B09F414
:102B700032C2CE56DF4FE881F981C259D04030973A
:102B800009F429C280818D3009F025C280912E057B
:102B900090912F05019690932F0580932E05029713
:102BA00009F019C210922F0510922E0566E773E006
:102BB000C7010E94A10DB70189E198E00E94950B21
:102BC000059620911D0830911E088217930760F426
:102BD0002091190830911A082115310529F0F901C1
:102BE000E80FF91F008101C000E0002E000C110B5E
:102BF00000531109C7010E94570DA80160E070E061
:102C00002AE08DE597E077D863E373E08DE597E000
:102C10005DD86CE773E0C7010E94A10DB70189E19F
:102C200098E00E94950B6C01C7010E94570D2091FE
:102C30001D0830911E08A6014C5F5F4F69E178E0E6
:102C4000CE0184579F4F0E94130DC457DF4F8881D8
:102C50009981CC58D040009721F099D34B015C0169
:102C600003C0812C912C5401AF961FAE1EAEAF97BE
:102C7000E1961FAE1EAEE197E3961FAE1EAEE39740
:102C80004AE0B701C401A9D3B701CE0183599F4FD0
:102C90000E94FE0C61E873E0C7010E94A10DBE0115
:102CA00063597F4FC7010E94CE0CBC01CE018C58E6
:102CB0009F4F0E94880DCE018C589F4F0E94F109B2
:102CC000CE018C589F4F0E94570DC7010E94570D8F
:102CD000CE0183599F4F0E94570D6AEA74E0CE01DE
:102CE0008A579F4F0E94A10D092C000CAA08BB080F
:102CF000F4013297EE30F10508F0A7C08827EE58AE
:102D0000FF4F8F4FE7C36BE873E0CE018A579F4FA9
:102D10000E94FE0C41E060E070E082E090E00CC0B8
:102D200064E973E0CE018A579F4F0E94FE0C40E099
:102D300060E070E083E090E00E94EA078DC080913F
:102D4000060281110AC06FE973E0CE018A579F4FD6
:102D50000E94FE0C84E090E075C086EA93E038C0E3
:102D6000809106028111F9CF6EEB73E0CE018A5794
:102D70009F4F0E94FE0C85E090E064C066EC73E01B
:102D8000CE018A579F4F0E94FE0C41E061E070E047
:102D900086E090E0D1CF6FEC73E0CE018A579F4F71
:102DA0000E94FE0C40E061E070E087E090E0C4CF5C
:102DB0008091070281110AC06AED73E0CE018A5743
:102DC0009F4F0E94FE0C88E090E03CC081EE93E0B3
:102DD0000E94840B41C0809107028111F7CF69EFF7
:102DE00073E0CE018A579F4F0E94FE0C89E090E06D
:102DF00029C061E074E0CE018A579F4F0E94FE0C0B
:102E000061E08FE10E94C9046AE070E00DC069E0F2
:102E100074E0CE018A579F4F0E94FE0C60E08FE164
:102E20000E94C9046BE070E080EC96E00E94020A08
:102E300013C062E174E0CE018A579F4F0E94FE0CDE
:102E40008FE090E00E942E0807C06EE174E0CE0192
:102E50008A579F4F0E94FE0C6AEA74E089E198E06D
:102E60000E94FE0C62E274E0CE0180589F4F0E94E7
:102E7000A10D64E374E0CE0180589F4F0E941E0CA8
:102E80006BE574E0CE0180589F4F0E941E0CC65720
:102E9000DF4F68817981CA58D040CE0180589F4F5A
:102EA0000E94DC0B63E373E0CE0180589F4F0E94C9
:102EB0001E0C6BE674E0CE0180589F4F0E941E0CE2
:102EC00061E273E0CE0180589F4F0E941E0CC657EE
:102ED000DF4F48815981CA58D040CA57DF4F6881B7
:102EE0007981C658D040CE0180589F4F0E94AF0BC9
:102EF000CC57DF4FC880D980C458D0406BE874E00D
:102F0000C7010E94A10DB701CE0183599F4F0E94B6
:102F1000880DB801CE0183599F4F0E94770C68E05D
:102F200073E00E94B70CB6010E94770C63E373E074
:102F30000E94B70CBC01CE018C589F4F0E94880D97
:102F400000E028EB3BE040E050E0BE016C587F4FD2
:102F5000CE0186589F4F0E946008CE0186589F4F31
:102F60000E94570DCE018C589F4F0E94570DCE01E5
:102F700083599F4F0E94570DC7010E94570DBE01F4
:102F800060587F4FC7010E94880D01E028EE33E0B2
:102F900040E050E0B701CE0183599F4F0E94600886
:102FA000CE0183599F4F0E94570DC7010E94570DB4
:102FB00083E296E00E943802CE0180589F4F0E9423
:102FC000570DCE018A579F4F0E94570DCE0184574F
:102FD0009F4F0E94570DCE018E569F4F0E94570D56
:102FE0000E9459027ACD85B5887F846085BD9EE4B4
:102FF00097BD40922705509228056092290570924E
:103000002A0580916E00826080936E00ADCBA8E6A9
:10301000B0E0283010F40C94CC0FE0E0F0E00C9419
:10302000CE0F8CE292E09093FB078093FA07809199
:103030000605909107058A5F974071F4E0910D08AD
:10304000F0910E08908180910F08809589238083EC
:10305000109207051092060589E198E00E94570D2D
:103060008FE198E00E94570D85E298E00E94570D8D
:103070008BE298E00E94570D81E398E00C94570D85
:10308000CF92DF92EF92FF921092890510928805FD
:1030900098EEC92E93E0D92EE12CF12CC0928A052E
:1030A000D0928B05E0928C05F0928D058AE192E03A
:1030B000909387058093860525E331E0309393054F
:1030C0002093920524E331E03093950520939405F5
:1030D00020E331E0309397052093960521E331E01A
:1030E000309399052093980522E331E030939B05B6
:1030F00020939A0526E331E030939D0520939C05AB
:1031000010929F051092A0051092A1051092A205A1
:103110001092260610922506C0922706D092280605
:10312000E0922906F0922A069093240680932306C3
:1031300025ED30E03093300620932F0624ED30E06B
:10314000309332062093310620ED30E03093340680
:103150002093330621ED30E0309336062093350678
:1031600022ED30E0309338062093370626ED30E02C
:1031700030933A062093390610923C0610923D0691
:1031800010923E0610923F061092C3061092C2069D
:10319000C092C406D092C506E092C606F092C70659
:1031A0009093C1068093C0062DEC30E03093CD069D
:1031B0002093CC062CEC30E03093CF062093CE0643
:1031C00028EC30E03093D1062093D00629EC30E093
:1031D0003093D3062093D2062AEC30E03093D50604
:1031E0002093D4062EEC30E03093D7062093D606F9
:1031F0001092D9061092DA061092DB061092DC06C5
:103200001092600710925F07C0926107D092620728
:10321000E0926307F092640790935E0780935D07E6
:1032200085EC90E090936A078093690784EC90E0C6
:1032300090936C0780936B0780EC90E090936E07FF
:1032400080936D0781EC90E09093700780936F07F7
:1032500082EC90E0909372078093710786EC90E087
:1032600090937407809373071092760710927707F4
:1032700010927807109279076AEA74E081E398E087
:103280000E94A10D64EF74E08BE298E00E94A10D12
:1032900069EF74E085E298E00E94A10D6AEA74E0AB
:1032A0008FE198E00E94A10D6AEA74E089E198E05C
:1032B0000E94A10D1092FD071092FC07C092FE071C
:1032C000D092FF07E0920008F09201088CE292E0B1
:1032D0009093FB078093FA07109211081092100840
:1032E00010921308109212081092150810921408E8
:1032F0001092170810921608609118086E7F6D7F63
:10330000609318086695617081E068278AE00E94E2
:10331000C90461E08AE00E944605E8E0F2E0E49139
:10332000E0930A08E2ECF1E0E491F0E0EE0FFF1F19
:10333000EC57FE4F8591949190930C0880930B0865
:1033400060E08BE00E9446058091180881FD04C072
:1033500061E08BE00E94C9048BE080930608E9E0FD
:10336000F2E0E491E0930708E3ECF1E0E491F0E0AF
:10337000EE0FFF1FE256FE4F85919491909309083E
:1033800080930808FF90EF90DF90CF9008951F93EF
:10339000FC0199278827BC01E89411911032E9F3C8
:1033A000193010F01E30C8F31B3249F01D3241F4C1
:1033B000689405C01CD0610F711D811D911D119174
:1033C00010531A30B8F33EF490958095709561953E
:1033D0007F4F8F4F9F4F1F910895BB274A3031F485
:1033E000992322F4BDE2909581959F4F16C0592FE5
:1033F000482F372F262F660F771F881F991F660FBC
:10340000771F881F991F620F731F841F951F660FF8
:10341000771F881F991F0895BB27FB015527AA27EF
:10342000880F991FAA1FA41710F0A41B8395505151
:10343000B9F7A05DAA3308F0A95DA193009779F7C9
:10344000B111B1931192CB0100C0DC01FC01672FD7
:1034500071917723E1F7329704C07C916D9370836B
:103460006291AE17BF07C8F3089597FB072E16F4B5
:10347000009406D077FD08D035D007FC05D03EF487
:10348000909581959F4F0895709561957F4F089510
:10349000A1E21A2EAA1BBB1BFD010DC0AA1FBB1F58
:1034A000EE1FFF1FA217B307E407F50720F0A21BCA
:1034B000B30BE40BF50B661F771F881F991F1A9437
:1034C00069F760957095809590959B01AC01BD0161
:1034D000CF010895EE0FFF1F881F8BBF0790F69155
:1034E000E02D1994AA1BBB1B51E107C0AA1FBB1FEB
:1034F000A617B70710F0A61BB70B881F991F5A9580
:10350000A9F780959095BC01CD010895CF93DF93E5
:103510008230910510F482E090E0E0914C08F09147
:103520004D0820E030E0C0E0D0E0309711F140815C
:10353000518148175907C0F04817590761F4828133
:103540009381209719F09B838A832BC090934D0819
:1035500080934C0826C02115310519F042175307F6
:1035600018F49A01BE01DF01EF010280F381E02D22
:10357000DCCF2115310509F1281B390B2430310529
:1035800090F412968D919C9113976115710521F01D
:10359000FB019383828304C090934D0880934C0871
:1035A000FD01329644C0FD01E20FF31F8193919318
:1035B000225031092D933C933AC020914A08309112
:1035C0004B08232B41F420910C0230910D023093D3
:1035D0004B0820934A0820910A0230910B022115D2
:1035E000310541F42DB73EB740910E0250910F02C4
:1035F000241B350BE0914A08F0914B08E217F307C2
:10360000A0F42E1B3F0B2817390778F0AC014E5F52
:103610005F4F2417350748F04E0F5F1F50934B083C
:1036200040934A088193919302C0E0E0F0E0CF011B
:10363000DF91CF9108950F931F93CF93DF9300975E
:1036400009F48CC0FC0132971382128200914C085D
:1036500010914D080115110581F420813181820FEF
:10366000931F20914A0830914B082817390779F5A4
:10367000F0934B08E0934A0871C0D80140E050E055
:10368000AE17BF0750F412962D913C911397AD01E0
:103690002115310509F1D901F3CF9D01DA013383F9
:1036A000228360817181860F971F8217930769F4C7
:1036B000EC0128813981260F371F2E5F3F4F318360
:1036C00020838A819B8193838283452B29F4F09305
:1036D0004D08E0934C0842C01396FC93EE9312976A
:1036E000ED01499159919E01240F351FE217F3070F
:1036F00071F480819181840F951F029611969C939D
:103700008E938281938113969C938E931297E0E01F
:10371000F0E0D80112968D919C911397009719F0C3
:10372000F8018C01F6CF8D919C9198012E5F3F4F4F
:10373000820F931F20914A0830914B0828173907B0
:1037400069F4309729F410924D0810924C0802C089
:103750001382128210934B0800934A08DF91CF9195
:103760001F910F9108956F927F928F929F92AF92C7
:10377000BF92CF92DF92EF92FF920F931F93CF935E
:10378000DF93EC01009781F4CB01DF91CF911F9182
:103790000F91FF90EF90DF90CF90BF90AF909F90F0
:1037A0008F907F906F90B2CEFC01E60FF71F9C01C7
:1037B00022503109E217F30708F4A8C0D9010D918E
:1037C0001C91119706171707A8F00530110508F48A
:1037D0009BC0C80104978617970708F495C002504C
:1037E0001109061B170B019311936D937C93CF0165
:1037F00022DF8AC05B01A01AB10A4C01800E911E23
:10380000A0914C08B0914D0840E050E0E12CF12C23
:10381000109709F44AC0A815B905D1F56D907C90B0
:103820001197630182E0C80ED11CCA14DB0480F139
:10383000A3014A195B096A0182E0C80ED11C1296E5
:10384000BC9012971396AC91B5E0CB16D10440F022
:10385000B282A38351834083D9016D937C930AC0C4
:103860000E5F1F4FC301800F911FF9019183808369
:10387000EB2DFA2FE114F10431F0D7011396FC93EC
:10388000EE93129741C0F0934D08E0934C083CC072
:103890008D919C9111974817590708F4AC017D014F
:1038A00012960D90BC91A02DB3CF80914A089091B3
:1038B0004B0888159905E1F446175707C8F480911D
:1038C0000A0290910B02009741F48DB79EB7409188
:1038D0000E0250910F02841B950BE817F907B0F404
:1038E000F0934B08E0934A08F901718360830CC0A0
:1038F000CB010CDE7C01009749F0A801BE011BD072
:10390000CE0199DEC70104C0CE0102C080E090E084
:10391000DF91CF911F910F91FF90EF90DF90CF90AB
:10392000BF90AF909F908F907F906F90089581E0AF
:1039300090E0F8943EC0FB01DC0102C001900D92C2
:1039400041505040D8F70895FC018191861721F02D
:103950008823D9F7992708953197CF010895FB015E
:10396000DC018D91019080190110D9F3990B089514
:10397000FB01DC0101900D920020E1F70895FB01AD
:1039800051915523A9F0BF01DC014D91451741111B
:10399000E1F759F4CD010190002049F04D91401517
:1039A0004111C9F3FB014111EFCF81E090E0019794
:1039B000089511E0C4E2D1E000E005C0802FFE01CF
:1039C00089DD2196011DC532D10780E00807B1F7D6
:0439D000F894FFCF99
:1039D400AA04AA04AA04010101FF00004E08800001
:1039E40000000000500300000000F2015D0D7001B2
:1039F4003802A1017F01930100000000C0025D0DA7
:103A04004D03BF0214032B03A70241542B525354FA
:103A14000D0A0041540D0A0041542B43574D4F44A5
:103A2400453D310D0A0041542B4349504D55583DF5
:103A3400310D0A0041542B434950534552564552C7
:103A44003D312C38300D0A0041542B4E414D457008
:103A54006C616E740041542B50494E323031340045
:103A6400757365724E616D6500737369640070737C
:103A7400770041542B43575141500D0A0041542BB8
:103A840043574A41503D2200222C2200220D0A00B5
:103A94004F4B0041542B43574A41503F0D0A0041BC
:103AA400542B43494653520D0A0064657669636595
:103AB400204950203A200041542B4349505354414B
:103AC40052543D332C2254435022003139322E318A
:103AD40036382E342E3100222C0041542B434950C9
:103AE400535441545553003F69703D004745542099
:103AF40000436F6E6E656374696F6E3A636C6F73C7
:103B0400650D0A0D0A0041542B43495053454E4458
:103B14003D332C00495020ECA084EC86A1EC998420
:103B2400EBA38C004950ECA084EC86A1EC8BA4EDB3
:103B34008CA800534620436F6465203A2000444516
:103B44004255473A20002B4950442C00636D643D94
:103B540000636D64206973203A20006C65645F61C2
:103B640075746F006C65645F6D616E75616C006C7B
:103B740065645F6F6E004C6564206D6F64652069D9
:103B840073206E6F74206D616E75616C2E006C65B0
:103B9400645F6F66660066616E5F6175746F006670
:103BA400616E5F6D616E75616C0066616E5F6F6EF4
:103BB4000066616E206D6F6465206973206E6F749A
:103BC400206D616E75616C2E0066616E5F6F666656
:103BD4000070756D705F6F6E0070756D705F6F66ED
:103BE4006600746573745F627574746F6E006572D9
:103BF4007200485454502F312E3120323030204F2F
:103C04004B0D0A00436F6E74656E742D54797065A4
:103C14003A746578742F68746D6C3B636861727371
:103C240065743D5554462D380D0A00436F6E746516
:103C34006E742D4C656E6774683A004163636573F6
:103C4400732D436F6E74726F6C2D416C6C6F772D96
:103C54004F726967696E3A2A0D0A0041542B434931
:103C64005053454E443D006E756C6C0022225C5CE2
:103C74006208660C6E0A720D7409007265717565CE
:103C8400737420746F20736C617665203A2000721F
:103C940065717565737420746F20636F6E74726FD1
:103CA4006C20626F617264203A20003139322E0038
:103CB400697020696478203A20006F6B5F696478CA
:103CC400203A20006E6F6E65002F696E6465782E51
:043CD40070687000A4
:020000023000CC
:10E000000D9489F10D94B2F10D94B2F10D94B2F129
:10E010000D94B2F10D94B2F10D94B2F10D94B2F1F0
:10E020000D94B2F10D94B2F10D94B2F10D94B2F1E0
:10E030000D94B2F10D94B2F10D94B2F10D94B2F1D0
:10E040000D94B2F10D94B2F10D94B2F10D94B2F1C0
:10E050000D94B2F10D94B2F10D94B2F10D94B2F1B0
:10E060000D94B2F10D94B2F10D94B2F10D94B2F1A0
:10E070000D94B2F10D94B2F10D94B2F10D94B2F190
:10E080000D94B2F10D94B2F10D94B2F10D94B2F180
:10E090000D94B2F10D94B2F10D94B2F10D94B2F170
:10E0A0000D94B2F10D94B2F10D94B2F10D94B2F160
:10E0B0000D94B2F10D94B2F10D94B2F10D94B2F150
:10E0C0000D94B2F10D94B2F10D94B2F10D94B2F140
:10E0D0000D94B2F10D94B2F10D94B2F10D94B2F130
:10E0E0000D94B2F141546D656761323536300041AF
:10E0F000726475696E6F206578706C6F72657220DE
:10E1000073746B3530305632206279204D4C530099
:10E11000426F6F746C6F616465723E004875683F52
:10E1200000436F6D70696C6564206F6E203D200048
:10E130004350552054797065202020203D20005FF9
:10E140005F4156525F415243485F5F3D2000415658
:10E1500052204C696243205665723D20004743437C
:10E160002056657273696F6E203D20004350552024
:10E1700049442020202020203D20004C6F7720663D
:10E18000757365202020203D20004869676820665F
:10E190007573652020203D200045787420667573D6
:10E1A00065202020203D20004C6F636B2066757336
:10E1B000652020203D20004D617220203720323024
:10E1C000313300312E362E3800342E332E350056A2
:10E1D00023202020414444522020206F7020636F70
:10E1E00064652020202020696E73747275637469E1
:10E1F0006F6E2061646472202020496E74657272B3
:10E20000757074006E6F20766563746F7200726A49
:10E210006D702020006A6D70200057686174207056
:10E220006F72743A00506F7274206E6F7420737541
:10E2300070706F72746564004D7573742062652030
:10E2400061206C6574746572002000577269747483
:10E25000696E672045450052656164696E672045B7
:10E26000450045452065727220636E743D00504F35
:10E27000525400303D5A65726F2061646472003FF1
:10E280003D43505520737461747300403D454550C3
:10E29000524F4D207465737400423D426C696E6B41
:10E2A000204C454400453D44756D70204545505215
:10E2B0004F4D00463D44756D7020464C415348001B
:10E2C000483D48656C70004C3D4C69737420492F83
:10E2D0004F20506F72747300513D51756974005234
:10E2E0003D44756D702052414D00563D73686F7707
:10E2F00020696E7465727275707420566563746FF0
:10E30000727300593D506F727420626C696E6B00BD
:10E310002A0011241FBECFEFD1E2DEBFCDBF01E046
:10E320000CBF12E0A0E0B2E0EEE1FDEF03E00BBFB6
:10E3300002C007900D92A030B107D9F712E0A0E01B
:10E34000B2E001C01D92AE30B107E1F70F9460F367
:10E350000D948DFE01E20EBF0FEF0DBF11241FBE05
:10E360000D9460F30D9400F020E030E040ED57E0B4
:10E3700005C0FA013197F1F72F5F3F4F2817390792
:10E38000C0F308959C01260F311DC901A0E0B0E043
:10E390002F5F3F4FABBFFC018791882361F08093D3
:10E3A000C6008091C00086FFFCCF8091C0008064D1
:10E3B0008093C000EACF08958DE08093C6008091DD
:10E3C000C00086FFFCCF8091C00080648093C000B5
:10E3D0008AE08093C6008091C00086FFFCCF8091C8
:10E3E000C00080648093C00008950F94C2F10F9420
:10E3F000DCF10895FC019081992359F09093C600B7
:10E400008091C00086FFFCCF8091C0008064809323
:10E41000C0003196992379F70895282F982F929567
:10E420009F70892F805D8A3308F0895F8093C600D2
:10E430008091C00086FFFCCF8091C00080648093F3
:10E44000C000822F8F70982F905D9A3308F0995FEB
:10E450009093C6008091C00086FFFCCF8091C000E1
:10E4600080648093C00008959C01FB01853691056E
:10E470001CF46330710594F0C90164E670E00F94F8
:10E480002EFE605D7F4F6093C6008091C00086FFC6
:10E49000FCCF8091C00080648093C0002B30310598
:10E4A00014F43297B4F0C90164E670E00F942EFEC4
:10E4B0006AE070E00F942EFE605D7F4F6093C600AF
:10E4C0008091C00086FFFCCF8091C0008064809363
:10E4D000C000C9016AE070E00F942EFEC0968093E0
:10E4E000C6008091C00086FFFCCF8091C000806490
:10E4F0008093C00008951F93182F8EE692EE60E07F
:10E500000F94C2F11093C6008091C00086FFFCCF2B
:10E510008091C00080648093C0000F94DCF11F9153
:10E5200008952F923F924F925F926F927F928F92B7
:10E530009F92AF92BF92CF92DF92EF92FF920F9392
:10E540001F93DF93CF93CDB7DEB762970FB6F894E2
:10E55000DEBF0FBECDBF382E622ECA01DB015C01CB
:10E560006D01772420E2222E2E010894411C511CBB
:10E570008BC081E0A81680E0B80681E0C80680E084
:10E58000D80628F0C601AA27BB270F940DF2BB2797
:10E59000AD2D9C2D8B2D0F940DF28A2D0F940DF225
:10E5A0002092C6008091C00086FFFCCF8091C00001
:10E5B00080648093C0009DE29093C6008091C0006B
:10E5C00086FFFCCF8091C00080648093C0002092C1
:10E5D000C6008091C00086FFFCCF8091C00080649F
:10E5E0008093C00019828601750188249924A1E0D6
:10E5F0003A1651F03A1620F0B2E03B1661F409C029
:10E600000BBFF701779007C0C7010F9477FE782EF4
:10E6100002C0F7017080872D0F940DF22092C60082
:10E620008091C00086FFFCCF8091C0008064809301
:10E63000C000872D8052F401EF70F0708F3520F408
:10E64000E40DF51D708204C0E40DF51D8EE280839B
:10E650000894E11CF11C011D111D0894811C911CE2
:10E6600090E18916910409F0C2CF80E190E0A0E02A
:10E67000B0E0A80EB91ECA1EDB1E198AC2010F9493
:10E68000FAF10F94DCF16A94662009F072CF629679
:10E690000FB6F894DEBF0FBECDBFCF91DF911F91B3
:10E6A0000F91FF90EF90DF90CF90BF90AF909F9031
:10E6B0008F907F906F905F904F903F902F90089534
:10E6C0002F923F924F925F926F927F928F929F9282
:10E6D000AF92BF92CF92DF92EF92FF920F931F9370
:10E6E000DF93CF93CDB7DEB7CD53D1400FB6F894BB
:10E6F000DEBF0FBECDBF01E20EBF0FEF0DBF94B75F
:10E70000F894A89514BE80916000886180936000A1
:10E7100010926000789493FF05C0E0910002F091A0
:10E7200001021995279A2F9A8091C00082608093E8
:10E73000C00080E18093C40088E18093C1000000A4
:10E74000EE24FF24870144E0A42EB12CCC24DD2448
:10E7500024C0C5010197F1F70894E11CF11C011DCB
:10E76000111D21E2E2162EE4F20620E0020720E06D
:10E77000120718F031E0C32ED12CC801B70127ECE5
:10E780003BE140E050E00F9441FE611571058105C9
:10E79000910519F485B1805885B98091C00087FD35
:10E7A00003C0C114D104A9F2A6014F5F5F4FC25E3E
:10E7B000DE4F59834883CE51D140C25EDE4F8881FF
:10E7C0009981CE51D140019711F00D9410FEC05D9A
:10E7D000DE4F19821882C053D14060E0C15DDE4F28
:10E7E0001882CF52D14088249924C35DDE4F19820C
:10E7F0001882CD52D140C05EDE4F188219821A8233
:10E800001B82C052D140CE5CDE4F188219821A8220
:10E810001B82C253D140EE24FF2487010BBFF701B6
:10E8200007911691C45CDE4F19830883CC53D14005
:10E830000D940BFEC25EDE4F28813981CE51D1404E
:10E840002130310509F52091C600C25EDE4F1982E4
:10E850001882CE51D14022C02F5F3F4F4F4F5F4FA4
:10E86000213082E138078AE7480780E0580780F0C6
:10E87000C45CDE4FE881F981CC53D140EF5FFF4F9C
:10E8800019F0EE27FF27099420E030E040E050E047
:10E890008091C00087FFE0CF2091C600C35DDE4FAE
:10E8A00048815981CD52D1404F5F5F4FC35DDE4FEC
:10E8B00059834883CD52D140213209F063C64A3092
:10E8C000510508F05FC60894811C911C53E0851621
:10E8D000910409F059C600E010E018C081E280936D
:10E8E000C6008091C00086FFFCCF8091C00080648C
:10E8F0008093C0002F5F3F4F2931310579F70F9486
:10E90000DCF10F5F1F4F0530110519F020E030E0FA
:10E91000E5CF10920A0210920B0210920C02109294
:10E920000D02109206021092070210920802109235
:10E930000902109202021092030210920402109235
:10E9400005028FEE90EE60E00F94F5F180E191EE1C
:10E9500060E00F94C2F18091C00087FFFCCF9091DE
:10E96000C600903608F09F759032B8F09093C600BC
:10E970008091C00086FFFCCF8091C00080648093AE
:10E98000C000A0E2A093C6008091C00086FFFCCF2B
:10E990008091C00080648093C000983409F4D7C18E
:10E9A0009934B8F4923409F459C1933458F490333B
:10E9B00019F1903308F4E3C59F33A1F1903409F0C5
:10E9C000DEC5BDC0953409F470C1963409F0D7C5D1
:10E9D00098C1923509F42BC2933538F49C3409F46C
:10E9E000F5C1913509F0CBC518C2963509F445C279
:10E9F000993509F0C4C567C483E792EE62E00F94CD
:10EA0000F5F110920602109207021092080210927D
:10EA1000090210920A0210920B0210920C0210923C
:10EA20000D0213C18FE792EE62E00F94F5F18FEEC5
:10EA300090EE60E00F94F5F181E291EE60E00F94CA
:10EA4000C2F187EB91EE60E00F94F5F180E391EE77
:10EA500060E00F94C2F184EE90EE60E00F94F5F167
:10EA60008FE391EE60E00F94C2F186E090E061E008
:10EA700070E00F9434F20F94DCF18DE591EE60E0DC
:10EA80000F94C2F189EC91EE60E00F94F5F18EE401
:10EA900091EE60E00F94C2F183EC91EE60E00F9490
:10EAA000F5F18CE691EE60E00F94C2F18EE10F94E7
:10EAB0000DF288E90F940DF281E00F940DF20F949E
:10EAC000DCF18BE791EE60E00F94C2F119E0E0E039
:10EAD000F0E010935700E4918E2F0F940DF20F94F5
:10EAE000DCF18AE891EE60E00F94C2F1E3E0F0E03F
:10EAF00010935700E4918E2F0F940DF20F94DCF1D8
:10EB000089E991EE60E00F94C2F1E2E0F0E0109349
:10EB10005700E4918E2F0F940DF20F94DCF188EAE8
:10EB200091EE60E00F94C2F1E1E0F0E01093570045
:10EB30001491812F0F940DF20F94DCF107CF8BE825
:10EB400092EE62E00F94F5F18BE492EE60E00F94A8
:10EB5000F5F10F94DCF100E010E019C0C8016F2D51
:10EB60000F947FFEFF2031F489E492EE60E00F9471
:10EB7000C2F10BC0F092C6008091C00086FFFCCFAE
:10EB80008091C00080648093C0000F5F1F4FC80158
:10EB900081519F41A0E0B0E0ABBFFC01F790BAE229
:10EBA000FB1621F0E2E000301E07C1F60F94DCF105
:10EBB0000F94DCF187E592EE60E00F94F5F10F948D
:10EBC000DCF1CC24DD2400E010E01EC0C8010F946D
:10EBD00077FEF82E882331F489E492EE60E00F94FA
:10EBE000C2F10BC08093C6008091C00086FFFCCFAD
:10EBF0008091C00080648093C000FE1419F00894D6
:10EC0000C11CD11C0F5F1F4FC80181519F41A0E063
:10EC1000B0E0ABBFFC01E790FAE2EF1621F022E092
:10EC20000030120799F60F94DCF10F94DCF182E6C4
:10EC300092EE60E00F94C2F1C60161E070E00F94C3
:10EC400034F20F94DCF10F94DCF110920202109276
:10EC50000302109204021092050278CE89E992EE26
:10EC600062E00F94F5F1279A2F9A16C02F9880E052
:10EC700090E0E0EDF7E03197F1F7019684369105E9
:10EC8000C1F72F9A80E090E0E0EDF7E03197F1F7DF
:10EC9000019684369105C1F78091C00087FFE6CFC9
:10ECA0008091C00087FFFCCF64C485EA92EE62E0E9
:10ECB0000F94F5F140910202509103026091040219
:10ECC0007091050281E020E10F9491F2809102029F
:10ECD00090910302A0910402B091050280509F4FD1
:10ECE000AF4FBF4F8093020290930302A0930402A0
:10ECF000B093050280509041A040B04008F426CE69
:10ED0000A4CF83EB92EE62E00F94F5F140910602FE
:10ED100050910702609108027091090280E020E1A1
:10ED20000F9491F28091060290910702A09108023F
:10ED3000B091090280509F4FAF4FBF4F80930602A2
:10ED400090930702A0930802B0930902FFCD80ECD4
:10ED500092EE62E00F94F5F183E792EE60E00F949B
:10ED6000F5F18FE792EE60E00F94F5F18BE892EE0B
:10ED700060E00F94F5F189E992EE60E00F94F5F10F
:10ED800085EA92EE60E00F94F5F183EB92EE60E09D
:10ED90000F94F5F180EC92EE60E00F94F5F187ECC2
:10EDA00092EE60E00F94F5F188ED92EE60E00F9442
:10EDB000F5F18FED92EE60E00F94F5F18AEE92EEB0
:10EDC00060E00F94F5F183E093EEBDCD87EC92EE19
:10EDD00062E00F94F5F181E40F947BF282E40F94EA
:10EDE0007BF283E40F947BF284E40F947BF285E45E
:10EDF0000F947BF286E40F947BF287E40F947BF20E
:10EE000088E40F947BF28AE40F947BF28BE40F94F6
:10EE10007BF28CE40F947BF299CD88ED92EE62E068
:10EE20000F94F5F1772473948824992409C48FED05
:10EE300092EE62E00F94F5F140910A0250910B02BC
:10EE400060910C0270910D0282E020E10F9491F22A
:10EE500080910A0290910B02A0910C02B0910D02D8
:10EE600080509F4FAF4FBF4F80930A0290930B0289
:10EE7000A0930C02B0930D0269CD8AEE92EE62E08F
:10EE80000F94F5F184EE90EE60E00F94F5F18FECC5
:10EE900091EE60E00F94F5F1662477244301CC5D98
:10EEA000DE4F19821882C452D140D401C301B695F5
:10EEB000A79597958795CA5DDE4F88839983AA8326
:10EEC000BB83C652D140CC5DDE4FA881B981C4520C
:10EED000D1401196CC5DDE4FB983A883C452D14096
:10EEE000CD0162E070E00F9434F2B0E2B093C6005E
:10EEF0008091C00086FFFCCF8091C0008064809329
:10EF0000C000EDE2E093C6008091C00086FFFCCF18
:10EF10008091C00080648093C000F0E2F093C6004E
:10EF20008091C00086FFFCCF8091C00080648093F8
:10EF3000C000CA5DDE4FE880F9800A811B81C6529D
:10EF4000D140BB27A12F902F8F2D0F940DF2CA5DBA
:10EF5000DE4F8881C652D1400F940DF2B0E2FB2EF5
:10EF6000F092C6008091C00086FFFCCF8091C00067
:10EF700080648093C0000DE30093C6008091C000C0
:10EF800086FFFCCF8091C00080648093C00010E2B7
:10EF90001093C6008091C00086FFFCCF8091C00016
:10EFA00080648093C0008BBEF3012791C65DDE4F65
:10EFB0002883CA52D140A22EBB24CC24DD2408943D
:10EFC000611C711C811C911C8BBEF3018791282E42
:10EFD0003324442455240894611C711C811C911C09
:10EFE0008BBEF3013791C55DDE4F3883CB52D140E4
:10EFF0000894611C711C811C911C8BBEF30147910C
:10F00000C45DDE4F4883CC52D140ADEFEA2EAFEF66
:10F01000FA2EAFEF0A2FAFEF1A2F6E0C7F1C801E57
:10F02000911E142D032DF22CEE24EA0CFB1C0C1D5A
:10F030001D1D0F940DF220E22093C6008091C000A8
:10F0400086FFFCCF8091C00080648093C000C65DC5
:10F05000DE4F8881CA52D1400F940DF230E23093D6
:10F06000C6008091C00086FFFCCF8091C000806404
:10F070008093C000C45DDE4F8881CC52D1400F9494
:10F080000DF240E24093C6008091C00086FFFCCFA5
:10F090008091C00080648093C000C55DDE4F888190
:10F0A000CB52D1400F940DF250E25093C6008091A4
:10F0B000C00086FFFCCF8091C00080648093C000B8
:10F0C0008FEFE8168FEFF80680E0080780E018075A
:10F0D00031F484E092EE60E00F94C2F1DFC0D80119
:10F0E000C7018070907CA070B0708050904CA040A0
:10F0F000B040D1F52FEF3FE340E050E0E222F322B1
:10F1000004231523CA5DDE4FA880B980CA80DB8046
:10F11000C652D140AE0CBF1CC01ED11EAA0CBB1CD7
:10F12000CC1CDD1C8EE092EE60E00F94C2F1BB2798
:10F13000A12F902F8F2D0F940DF28E2D0F940DF285
:10F1400030E23093C6008091C00086FFFCCF8091F2
:10F15000C00080648093C0004EE34093C60080915D
:10F16000C00086FFFCCF87C08EE09EEFA0E0B0E03D
:10F17000E822F9220A231B239CE0E91694E9F90608
:10F1800090E0090790E0190709F088C0C45DDE4FE0
:10F19000A881CC52D140EA2EFF2400E010E0102FCD
:10F1A0000F2DFE2CEE24C55DDE4FB881CB52D14031
:10F1B000EB0EF11C011D111DD601C501817090706F
:10F1C000A070B070DC0199278827E80EF91E0A1F8D
:10F1D0001B1F20EF30E040E050E0A222B322C42207
:10F1E000D52241E1AA0CBB1CCC1CDD1C4A95D1F7F1
:10F1F000EA0CFB1C0C1D1D1D81E090E0A0E0B0E0BE
:10F20000282239224A225B2235E1220C331C441C7D
:10F21000551C3A95D1F7E20CF31C041D151D57013E
:10F220006801AA0CBB1CCC1CDD1C85E192EE60E0E1
:10F230000F94C2F1C801AA27BB270F940DF2BB2778
:10F24000A12F902F8F2D0F940DF28E2D0F940DF274
:10F2500090E29093C6008091C00086FFFCCF809121
:10F26000C00080648093C000AEE3A093C60080918C
:10F27000C00086FFFCCF8091C00080648093C000F6
:10F28000C601AA27BB270F940DF2BB27AD2D9C2DDD
:10F290008B2D0F940DF28A2D0F940DF20F94DCF14B
:10F2A000CC5DDE4FE881F981C452D140F99709F471
:10F2B0004DCBF4E0EF2EF12C012D112D6E0C7F1CA7
:10F2C000801E911EF2CD83E093EE62E00F94F5F183
:10F2D0008AE192EE60E00F94C2F18091C00087FF56
:10F2E000FCCF1091C6001F751093C6008091C0001E
:10F2F00086FFFCCF8091C00080648093C0000F9493
:10F30000DCF1812F81548A3108F036C1163409F4BA
:10F3100095C0173490F4133409F44EC0143430F40B
:10F320001134F1F0123409F01DC130C0143409F465
:10F3300059C0153409F016C16BC01A3409F4C4C0A1
:10F340001B3438F4173409F48FC0183409F00AC19B
:10F35000A1C01B3409F4D2C01C3409F003C1E8C0B9
:10F360008FEF81B90DC082B1809582B980E090E0C5
:10F37000E0EDF7E03197F1F70196883C9105C1F790
:10F380008091C00087FFEFCF12B8EFC08FEF84B934
:10F390000DC085B1809585B980E090E0E0EDF7E0A3
:10F3A0003197F1F70196883C9105C1F78091C00033
:10F3B00087FFEFCF15B8D9C08FEF87B90DC088B1DF
:10F3C000809588B980E090E0E0EDF7E03197F1F7C3
:10F3D0000196883C9105C1F78091C00087FFEFCF6F
:10F3E00018B8C3C08FEF8AB90DC08BB180958BB9A7
:10F3F00080E090E0E0EDF7E03197F1F70196883C8E
:10F400009105C1F78091C00087FFEFCF1BB8ADC059
:10F410008FEF8DB90DC08EB180958EB980E090E0F0
:10F42000E0EDF7E03197F1F70196883C9105C1F7DF
:10F430008091C00087FFEFCF1EB897C08FEF80BBD1
:10F440000DC081B3809581BB80E090E0E0EDF7E0F6
:10F450003197F1F70196883C9105C1F78091C00082
:10F4600087FFEFCF11BA81C08FEF83BB0DC084B38C
:10F47000809584BB80E090E0E0EDF7E03197F1F714
:10F480000196883C9105C1F78091C00087FFEFCFBE
:10F4900014BA6BC08FEF809301010FC080910201FD
:10F4A00080958093020180E090E0E0EDF7E03197F5
:10F4B000F1F70196883C9105C1F78091C00087FF64
:10F4C000EDCF1092020151C08FEF809304010FC065
:10F4D0008091050180958093050180E090E0E0ED4A
:10F4E000F7E03197F1F70196883C9105C1F78091DB
:10F4F000C00087FFEDCF1092050137C08FEF8093DA
:10F5000007010FC08091080180958093080180E079
:10F5100090E0E0EDF7E03197F1F70196883C910536
:10F52000C1F78091C00087FFEDCF109208011DC088
:10F530008FEF80930A010FC080910B01809580931B
:10F540000B0180E090E0E0EDF7E03197F1F70196F4
:10F55000883C9105C1F78091C00087FFEDCF1092E4
:10F560000B0103C085E292EEEEC98091C00087FFD7
:10F57000FCCF8091C600EAC988E392EEE4C98CE131
:10F5800091EEE1C988249924933011F1943028F444
:10F59000913089F09230B8F408C0953061F195301F
:10F5A000F0F0963009F048C043C02B3109F042C951
:10F5B00091E06BE13FC96227C15DDE4F2883CF52E6
:10F5C000D14092E037C9B22FA0E0622793E032C960
:10F5D000822F90E0A82BB92B622794E02BC92E3004
:10F5E00009F039C3622795E0C05DDE4F19821882A9
:10F5F000C053D1401FC9E1E0F0E0EC0FFD1FC05D3A
:10F60000DE4F08811981C053D140E00FF11F2083E4
:10F610000F5F1F4FC05DDE4F19830883C053D14079
:10F6200062270A171B0709F005C9D80196E002C92D
:10F63000261709F010C303C0973009F0FBC87724E0
:10F640009981933109F412C19431C8F4963009F4C8
:10F65000D8C0973050F4923009F406C1933009F4C1
:10F660006DC0913009F059C253C0913109F477C08F
:10F67000923108F0BBC0903109F04FC2F5C098310B
:10F6800009F487C0993150F4953109F4EFC09531F0
:10F6900008F4C6C1963109F040C2C2C19A3109F4DA
:10F6A0006CC09A3108F491C09B3109F45BC09D3164
:10F6B00009F033C29D81903359F48F81882311F46E
:10F6C0009EE11CC0813011F091E018C098E916C08D
:10F6D000892F807591F0903539F4E0E0F0E089E011
:10F6E0008093570094910AC0983539F4E3E0F0E034
:10F6F00089E080935700949101C090E01A821B82A8
:10F700008D818C831D829E831F8227E030E009C299
:10F710001A8288E08B8381E48C8386E58D8382E581
:10F720008E8389E48F8383E5888780E589878FE5E9
:10F730008A8782E38B872BE030E0F3C18A818139AD
:10F7400041F0823941F0803911F48FE005C080E04A
:10F7500003C082E001C08AE01A828B8344C0772410
:10F76000739482C08D81882311F48EE12CC0813086
:10F7700011F081E028C088E926C01A82E1E0F0E0BB
:10F7800089E08093570084918B831C8224E030E0D1
:10F79000C8C18B81803589F48C81883039F4E2E0EE
:10F7A000F0E089E08093570084910DC0E0E0F0E044
:10F7B00089E080935700849106C0E3E0F0E089E09F
:10F7C0008093570084911A82DFCF8D81836C99E0FA
:10F7D000E1E0F0E0082E90935700E89507B600FCB2
:10F7E000FDCF1A821B8223E030E09BC180EC8A832C
:10F7F000CE5CDE4F188219821A821B82C253D1401E
:10F800008EC18A8190E0A0E0B0E0582F44273327D2
:10F8100022278B8190E0A0E0B0E0DC0199278827C7
:10F82000282B392B4A2B5B2B8D8190E0A0E0B0E098
:10F83000282B392B4A2B5B2B8C8190E0A0E0B0E089
:10F84000BA2FA92F982F8827282B392B4A2B5B2BCF
:10F85000220F331F441F551FC05EDE4F288339839C
:10F860004A835B83C052D1401A8259C13A81C95C34
:10F87000DE4F3883C753D140CA5CDE4F1882C6536F
:10F88000D1408B81C82EDD24CA5CDE4F488159816E
:10F89000C653D140C42AD52A933109F082C0CE5C28
:10F8A000DE4F88819981AA81BB81C253D1408050AB
:10F8B000904CA340B04030F583E0CE5CDE4FE88052
:10F8C000F9800A811B81C253D140F70100935B008C
:10F8D00080935700E89507B600FCFDCFCE5CDE4F65
:10F8E000088119812A813B81C253D14000501F4FAA
:10F8F0002F4F3F4FCE5CDE4F088319832A833B8313
:10F90000C253D140C05EDE4F488159816A817B81FC
:10F91000C052D140DE011B9631E08C9111962C91A2
:10F9200011971296C75CDE4F2883C953D140C85C3B
:10F93000DE4F1882C853D14090E0C85CDE4FE881AA
:10F94000F981C853D1408E2B9F2B0C01FA01609393
:10F950005B0030935700E89511244E5F5F4F6F4F67
:10F960007F4F0EEFE02E0FEFF02ECE0CDF1CC114F8
:10F97000D10499F685E0C05EDE4F088119812A81A5
:10F980003B81C052D140F80120935B008093570027
:10F99000E89507B600FCFDCF81E180935700E8951C
:10F9A00035C0C05EDE4F88819981AA81BB81C0527B
:10F9B000D140B695A795979587957C018601ABE0D8
:10F9C000AA2EB12CAC0EBD1E0BC0D5016D915D01F0
:10F9D000C7010F947FFE0894E11CF11C01501040F8
:10F9E0000115110591F7A60160E070E0440F551F65
:10F9F000661F771FC05EDE4FE880F9800A811B8199
:10FA0000C052D1404E0D5F1D601F711F1A82C05E33
:10FA1000DE4F488359836A837B83C052D1407FC0C5
:10FA2000FA80C55CDE4FF882CB53D140C65CDE4F16
:10FA30001882CA53D1408B81C82EDD24C65CDE4FAC
:10FA400008811981CA53D140C02AD12A1A828981DA
:10FA5000BE016D5F7F4F843121F59601C05EDE4FA0
:10FA6000E880F9800A811B81C052D1400BBFF701A9
:10FA700087919691DB018C9311969C936E5F7F4FDB
:10FA8000D801C7010296A11DB11DC05EDE4F88835B
:10FA90009983AA83BB83C052D14022503040F1F6F3
:10FAA00036C0C05EDE4F288139814A815B81C052F9
:10FAB000D1400894C108D108760100E010E0089414
:10FAC000C11CD11C0894E11CF11C011D111DE20E8A
:10FAD000F31E041F151F21BDBB27A52F942F832FB5
:10FAE00082BD2F5F3F4F4F4F5F4FF89A80B5DB01CC
:10FAF0008D93BD012E153F054007510761F7C05E8C
:10FB0000DE4F288339834A835B83C052D1409601FC
:10FB10002D5F3F4FFB01108204C080EC8A8322E0FE
:10FB200030E08BE18093C6008091C00086FFFCCF5F
:10FB30008091C00080648093C000C15DDE4FF88179
:10FB4000CF52D140F093C6008091C00086FFFCCF19
:10FB50008091C00080648093C000432F3093C60022
:10FB60008091C00086FFFCCF8091C00080648093AC
:10FB7000C000922F2093C6008091C00086FFFCCF6A
:10FB80008091C00080648093C0008EE08093C600A6
:10FB90008091C00086FFFCCF8091C000806480937C
:10FBA000C00065E1C15DDE4FE880CF52D1406E25D7
:10FBB00069276427FE01319610C090819093C6009A
:10FBC0008091C00086FFFCCF31968091C000806498
:10FBD0008093C0006927215030402115310569F715
:10FBE0006093C6008091C00086FFFCCF8091C0006A
:10FBF00080648093C00085B1805885B9772081F4F6
:10FC0000C15DDE4F0881CF52D1400F5FC15DDE4F35
:10FC10000883CF52D14090E0A0E0B0E00D941AF4F8
:10FC200027982F9880E090E020ED37E0F901319798
:10FC3000F1F7019684369105C9F700008091C00064
:10FC40008D7F8093C00081E180935700E895EE2777
:10FC5000FF270994FFCF90E00D941AF497FB092E2B
:10FC600007260AD077FD04D02ED006D000201AF443
:10FC7000709561957F4F0895F6F7909581959F4F08
:10FC80000895A1E21A2EAA1BBB1BFD010DC0AA1FDD
:10FC9000BB1FEE1FFF1FA217B307E407F50720F0F5
:10FCA000A21BB30BE40BF50B661F771F881F991F70
:10FCB0001A9469F760957095809590959B01AC01B9
:10FCC000BD01CF010895AA1BBB1B51E107C0AA1FAC
:10FCD000BB1FA617B70710F0A61BB70B881F991FED
:10FCE0005A95A9F780959095BC01CD010895F99991
:10FCF000FECF92BD81BDF89A992780B50895262F31
:10FD0000F999FECF1FBA92BD81BD20BD0FB6F89400
:0EFD1000FA9AF99A0FBE01960895F894FFCF63
:040000033000E000E9
:00000001FF