:1000000024C1000053C1000051C100004FC10000D5
:100010004DC100004BC1000049C1000047C10000B4
:1000200045C10000FDC50000FBC50000F9C500008A
:100030003DC100000C94170D39C1000037C100000C
:1000400035C1000033C1000031C100002FC10000E4
:100050002DC100002BC1000029C1000097C5000080
:1000600025C100006DC4000042C400001FC1000093
:100070001DC100001BC1000019C1000017C1000014
:1000800015C1000013C1000011C100000FC1000024
:1000900005C40000DAC3000009C1000007C1000068
:1000A00005C1000003C1000001C10000FFC0000045
:1000B000FDC00000FBC00000F9C00000F7C0000058
:1000C000F5C00000F3C00000F1C0000095C30000BF
:1000D0006AC30000EBC000003DC3000012C3000073
:1000E000E5C00000FD13091417142714341440143C
:1000F0004C145E14781478147814781478146C14F2
:10010000F804FB04EA04EE04F2043205FF040305DC
:1001100009050D05110517051B051F0532052505E8
:1001200029052D0500002100240027002A002D00AC
:100130003000330001010000040107010A01000042
:100140000A0B02090C0D0E08070304010000000051
:10015000000000000000000000000000000000009F
:10016000000000000000000000001211100000005C
:10017000000000000000000000000000000000007F
:100180000000000000002200250028002B002E00A7
:100190003100340002010000050108010B010000DC
:1001A00020002300260029002C002F00320000012F
:1001B00000000301060109010505050507050808FA
:1001C0000808020202020A0A0808040404040101E1
:1001D00001010101010103030303030303030407F6
:1001E00007070C0C0C0C0C0C0C0C0202020206068D
:1001F0000606060606060B0B0B0B0B0B0B0B010280
:100200001020200808102040102040800201020128
:1002100008040201010204081020408080402010E0
:100220000804020180040201804020100804020139
:1002300008040201010204081020408001020408A1
:100240001020408002008E156B1511241FBECFEFC9
:10025000D1E2DEBFCDBF00E00CBF27E0ACE4B4E0EC
:1002600001C01D92A238B207E1F714E0A0E0B2E0AD
:10027000E6E3F4E300E00BBF02C007900D92AC345C
:10028000B107D9F711E0C4E2D1E000E006C0219740
:100290000109802FFE010E94A617C332D10780E01A
:1002A0000807A9F70E94D30D0C940A1AA9CEFC01E5
:1002B000A089B1898C91A689B78982FD0FC09C91D4
:1002C000818D8F5F8F73228D821749F0218DDF0121
:1002D000A20FB11D5D969C93818F08958C91089516
:1002E000FC01538D448D252F30E0842F90E0821B3C
:1002F000930B541710F0CF96089501970895FC01C1
:10030000918D828D981761F0828DDF01A80FB11D4C
:100310005D968C91928D9F5F9F73928F90E0089570
:100320008FEF9FEF0895FC01918D828D981731F02A
:10033000828DE80FF11D858D90E008958FEF9FEF7E
:100340000895FC01918D228D892F90E0805C9F4F54
:10035000821B91098F73992708958CEC94E0F1DF4B
:1003600021E0892B09F420E0822F089589E695E0A9
:10037000E8DF21E0892B09F420E0822F089586E050
:1003800096E0DFDF21E0892B09F420E0822F089539
:1003900083EA96E0D6DF21E0892B09F420E0822F62
:1003A0000895FC01848DDF01A80FB11DA35ABF4F32
:1003B0002C91848D90E001968F739927848FA68964
:1003C000B7892C93A089B1898C9180648C93938D8B
:1003D000848D981306C00288F389E02D80818F7D7B
:1003E00080830895EF92FF920F931F93CF93DF9333
:1003F000EC0181E0888F9B8D8C8D981305C0E88976
:10040000F989808185FD23C0F62E0B8D10E00F5FEA
:100410001F4F0F731127E02E8C8DE8120BC00FB603
:1004200007FCFACFE889F989808185FFF5CFCE01F5
:10043000B8DFF2CF8B8DFE01E80FF11DE35AFF4FBD
:10044000F0820B8FEA89FB898081806207C0EE8988
:10045000FF896083E889F98980818064808381E0F5
:1004600090E0DF91CF911F910F91FF90EF90089551
:10047000CF93DF93EC01888D8823C1F0EA89FB8953
:10048000808185FD05C0A889B9898C9186FD0EC043
:100490000FB607FCF5CF808185FFF2CFA889B98917
:1004A0008C9185FFEDCFCE017CDFE8CFDF91CF913E
:1004B000089580E090E0892B19F06ADF811116C061
:1004C00080E090E0892B19F05ADF811112C080E0A2
:1004D00090E0892B19F04ADF81110EC080E090E096
:1004E000892B79F03ADF81110AC008950E9400003B
:1004F000E7CF0E940000EBCF0E940000EFCF0C94EA
:10050000000008953FB7F8948091C8049091C90401
:10051000A091CA04B091CB0426B5A89B05C02F3F7B
:1005200019F00196A11DB11D3FBFBA2FA92F982F19
:100530008827820F911DA11DB11DBC01CD0142E094
:10054000660F771F881F991F4A95D1F7089520914C
:100550004E0430914F042817390771F490914C04E0
:1005600080914D04981741F0E0914C04F0E0ED5774
:10057000FB4F808190E008958FEF9FEF08950895DD
:100580001F93CF93DF93DC015C962D913C915D9797
:100590002115310539F481E090E013969C938E93F8
:1005A00012973DC05196ED91FC91529750969C91B7
:1005B0005097892F80951FB75E964C915E9741FBAF
:1005C000772770F941FD6095F8944081772311F009
:1005D000492B01C048234083E9012197F1F748E006
:1005E000508160FF02C0592B01C058235083E9019C
:1005F0002197F1F76695415099F7772321F0908183
:100600008923808303C08081982B90831FBF5C96D1
:100610008D919C915D970197F1F721E030E0C90140
:10062000DF91CF911F91089520914E0430914F0496
:100630002817390769F480914D0420914C0490E00B
:10064000805C9F4F821B910960E470E00C947117ED
:1006500080E090E0089520914E0430914F042817D7
:100660003907B9F490914C0480914D04981789F0A2
:10067000E0914C04F0E0ED57FB4F808120914C0459
:1006800030E02F5F3F4F2F73332720934C0490E0CF
:1006900008958FEF9FEF0895089580E090E008950A
:1006A000FC0126813781620F731F84819581861733
:1006B000970738F08281938177836683820F931F37
:1006C000089580E090E008950E94D3190F931F933E
:1006D000CF93DF938B01FC01C281D381209759F026
:1006E0006A817B81C8010E94E019892B21F0099061
:1006F000D881C02DF3CFCE01DF91CF911F910F9103
:1007000008951F920F920FB60F9211240BB60F92FD
:100710002F933F934F935F936F937F938F939F9309
:10072000AF93BF93EF93FF938CEC94E03ADEFF918D
:10073000EF91BF91AF919F918F917F916F915F9159
:100740004F913F912F910F900BBE0F900FBE0F90C6
:100750001F9018951F920F920FB60F9211240BB68F
:100760000F922F933F934F935F936F937F938F934A
:100770009F93AF93BF93EF93FF938CEC94E097DD3F
:10078000FF91EF91BF91AF919F918F917F916F9169
:100790005F914F913F912F910F900BBE0F900FBE25
:1007A0000F901F9018951F920F920FB60F92112461
:1007B0000BB60F922F933F934F935F936F937F935B
:1007C0008F939F93AF93BF93EF93FF9389E695E049
:1007D000E8DDFF91EF91BF91AF919F918F917F9154
:1007E0006F915F914F913F912F910F900BBE0F90A2
:1007F0000FBE0F901F9018951F920F920FB60F9279
:1008000011240BB60F922F933F934F935F936F93E7
:100810007F938F939F93AF93BF93EF93FF9389E65B
:1008200095E045DDFF91EF91BF91AF919F918F9141
:100830007F916F915F914F913F912F910F900BBEE0
:100840000F900FBE0F901F9018951F920F920FB62A
:100850000F9211240BB60F922F933F934F935F93F8
:100860006F937F938F939F93AF93BF93EF93FF9378
:1008700086E096E096DDFF91EF91BF91AF919F9159
:100880008F917F916F915F914F913F912F910F9039
:100890000BBE0F900FBE0F901F9018951F920F92D6
:1008A0000FB60F9211240BB60F922F933F934F93D5
:1008B0005F936F937F938F939F93AF93BF93EF93C8
:1008C000FF9386E096E0F3DCFF91EF91BF91AF914B
:1008D0009F918F917F916F915F914F913F912F9158
:1008E0000F900BBE0F900FBE0F901F9018951F9288
:1008F0000F920FB60F9211240BB60F922F933F93C6
:100900004F935F936F937F938F939F93AF93BF9317
:10091000EF93FF9383EA96E044DDFF91EF91BF915F
:10092000AF919F918F917F916F915F914F913F9187
:100930002F910F900BBE0F900FBE0F901F90189528
:100940001F920F920FB60F9211240BB60F922F9396
:100950003F934F935F936F937F938F939F93AF9347
:10096000BF93EF93FF9383EA96E0A1DCFF91EF91B1
:10097000BF91AF919F918F917F916F915F914F91B7
:100980003F912F910F900BBE0F900FBE0F901F90B5
:100990001895362F90E0FC01E25CFE4F4491FC017B
:1009A000E250FE4F2491FC01E854FE4F94919923AC
:1009B00009F46BC0442309F455C050E0FA013197A3
:1009C000E231F10508F04EC08827E058FF4F8F4F05
:1009D0000C94A617809180008F7707C080918000CB
:1009E0008F7D03C080918000877F809380003AC014
:1009F00084B58F7702C084B58F7D84BD33C080916C
:100A0000B0008F7703C08091B0008F7D8093B000DD
:100A100029C0809190008F7707C0809190008F7DD2
:100A200003C080919000877F809390001BC08091CD
:100A3000A0008F7707C08091A0008F7D03C08091B8
:100A4000A000877F8093A0000DC0809120018F7748
:100A500007C0809120018F7D03C080912001877F96
:100A600080932001E92FF0E0EE0FFF1FEC57FE4FBF
:100A7000A591B4918FB7F894EC91311103C02095F2
:100A80002E2301C02E2B2C938FBF0895CF93DF937D
:100A900090E0FC01E250FE4F2491FC01E854FE4F2F
:100AA0008491882361F190E0880F991FFC01EC5D2F
:100AB000FE4FC591D491FC01EC57FE4FA591B49126
:100AC000611109C09FB7F89488812095822388839B
:100AD000EC912E230BC0623061F49FB7F8943881FB
:100AE000822F809583238883EC912E2B2C939FBF9C
:100AF00006C08FB7F894E8812E2B28838FBFDF9133
:100B0000CF9108958F929F92AF92BF92CF92DF9232
:100B1000EF92FF926B017C01F5DC4B015C01C1148B
:100B2000D104E104F104E9F0EDDCDC01CB0188192A
:100B30009909AA09BB09883E9340A105B10578F33C
:100B400021E0C21AD108E108F10888EE880E83E09E
:100B5000981EA11CB11CC114D104E104F10421F7B9
:100B6000DECFFF90EF90DF90CF90BF90AF909F903F
:100B70008F9008952FB7F8946091C4047091C504C4
:100B80008091C6049091C7042FBF08951F920F92C1
:100B90000FB60F9211242F933F938F939F93AF9390
:100BA000BF938091C4049091C504A091C604B091F4
:100BB000C7043091C30423E0230F2D3720F401969E
:100BC000A11DB11D05C026E8230F0296A11DB11D70
:100BD0002093C3048093C4049093C504A093C604D7
:100BE000B093C7048091C8049091C904A091CA042D
:100BF000B091CB040196A11DB11D8093C8049093C0
:100C0000C904A093CA04B093CB04BF91AF919F9144
:100C10008F913F912F910F900FBE0F901F901895BD
:100C20001F920F920FB60F9211240BB60F922F93B3
:100C30003F934F935F936F937F938F939F93AF9364
:100C4000BF93EF93FF93E0914E04F0914F043097E0
:100C500009F451C0968DA685B785858591FF04C09E
:100C60009C91892329F447C09C91892309F043C0B2
:100C7000A389B4899C918589809589238C938689E1
:100C800097890197F1F7608D718DA685B785558598
:100C900038E020E0CB010197F1F7822F90E09595A5
:100CA0008795282F4C91452309F02068315091F702
:100CB000868D81FD209580914D0490E001968F7383
:100CC000992730914C04381749F0A0914D04B0E0B9
:100CD000AD57BB4F2C9380934D0403C0868D81602C
:100CE000868F828D938D0197F1F7A389B4899C91AA
:100CF0008589892B8C93FF91EF91BF91AF919F9143
:100D00008F917F916F915F914F913F912F910F90B4
:100D10000BBE0F900FBE0F901F90189560E083E000
:100D200038DE61E082E035CE0F931F93CF93DF93DF
:100D3000CDDCEC01892BC1F00C811D810130110546
:100D400059F46E817F816115710531F087E094E07F
:100D50000E94E019892B41F0015011090230110560
:100D600018F48E819F8102C080E090E0DF91CF91E6
:100D70001F910F910895FC01A081B1818C918D305C
:100D800051F024F489508230B8F505C0803219F052
:100D90008F3219F0089511962CC011968C911197ED
:100DA0008A3219F08F32D1F008951196B183A08361
:100DB000A081B181CD0101969183808311968C91A0
:100DC00011978823C9F08A3299F712968C9112975D
:100DD0008F3271F713960DC08A3071F2A081B18104
:100DE000CD0101969183808311968C918111F4CF6E
:100DF00003C0B183A083C0CF08950F931F93CF93F7
:100E0000DF931F92CDB7DEB78C016983B4DFD801C1
:100E1000ED91FC91119780816981861305C031960F
:100E2000ED93FC9381E001C080E00F90DF91CF91C2
:100E30001F910F910895EF92FF920F931F93CF93FD
:100E4000DF938C01DC011496CD91DC911597EA803B
:100E5000FB808E819F81E80EF91EC80102968BDF10
:100E6000D8011296ED91FC9113979081973291F1F0
:100E7000923281F180ED890F8A3060F0892F8F7D69
:100E800081548A3138F09B3229F083ED890F82300A
:100E900008F060C0F801228133812F5F3F4F338318
:100EA00022832E813F81A9014F5F5F4F6C817D813D
:100EB0006417750740F06A817B81FB01E20FF31F25
:100EC0005F834E839083D8011296ED91FC91139726
:100ED0009081D0CF3196D8011396FC93EE93129760
:100EE000D8011296ED91FC9113972081222391F164
:100EF000AF014F5F5F4F13965C934E931297291784
:100F000049F12C35A9F42181A0E1B4E08C9188232A
:100F100039F0821303C011962C9102C01296F6CFBD
:100F20002223C1F03296D8011396FC93EE931297C8
:100F30004E815F81BA016F5F7F4FEC81FD81E617C3
:100F4000F70770F2EA81FB81E40FF51F7F836E8360
:100F50002083C6CF8E819F819C012F5F3F4F4C81A4
:100F60005D814217530748F04A815B81FA01E80F1F
:100F7000F91F3F832E83108202C0E12CF12CC701A0
:100F8000DF91CF911F910F91FF90EF9008950F93F4
:100F90001F93CF93DF93EC018C01060F171FC0172F
:100FA000D10729F069918CEC94E01CDAF8CF60ED60
:100FB00077E080E090E0A6DD8CEC94E0C2D9892B4C
:100FC00021F08CEC94E09BD9F7CFDF91CF911F916A
:100FD0000F910895CF92DF92FF920F931F93CF93BB
:100FE000DF93CDB7DEB72C970FB6F894DEBF0FBEF8
:100FF000CDBF8B010A5F1D4F21E02427F80130810E
:1010000032131EC0F42E6C016BE174E0CE01019628
:10101000B6D4BE016F5F7F4FCE01079697D4B6015D
:10102000CE010796E4D37DD1CE0107965FD4CE01E1
:1010300001965CD4B60186E096E088D1F801F08292
:101040002C960FB6F894DEBF0FBECDBFDF91CF91C7
:101050001F910F91FF90DF90CF9008950F931F93F2
:10106000CF93DF93CDB7DEB72C970FB6F894DEBFE2
:101070000FBECDBF8C016FE274E0CE0101967FD42C
:10108000BE016F5F7F4FCE01079660D4B801CE01DD
:101090000796ADD346D1CE01079628D4CE0101964E
:1010A00025D4B80180E497E051D12C960FB6F8947E
:1010B000DEBF0FBECDBFDF91CF911F910F9108957D
:1010C000AF92BF92CF92DF92EF92FF920F93CF93A6
:1010D000DF93EC015B0169017A016AE174E04FD4AE
:1010E000F501448155816081718189E695E003D4E1
:1010F00041DDC60ED71EE81EF91E3CDD6C157D05D0
:101100008E059F0560F489E695E01BD9892BA9F32C
:1011100089E695E0F4D8682FCE0136D3F4CF0111DB
:1011200002C0CE01FED0CE01DF91CF910F91FF9092
:10113000EF90DF90CF90BF90AF900895DB011097B4
:1011400049F0ED91FC9111970190F081E02DBC01E7
:10115000CD01199480E090E008959F92AF92BF92E4
:10116000CF92DF92EF92FF920F931F93CF93DF9373
:1011700000D000D0CDB7DEB76C01FC010081118139
:10118000B80184E090E0DADF009739F0FC011183C8
:101190000083138212828C0111C080917B04811123
:1011A0000BC0109278041092770410927A04109277
:1011B000790481E080937B0407E714E07601F2E094
:1011C000EF0EF11C6BE7C70118DE882309F45EC03F
:1011D0006DE7C70112DE81116AC086E0982EC60154
:1011E0002ADE5C01892B09F451C06AE3C70105DEE0
:1011F000882309F44BC01A821982BE016F5F7F4FAA
:10120000C60103D1882309F441C0B501C8015EDAE3
:10121000DC01892B49F5F801608171818AE090E059
:101220008DDFDC01892B39F011961C921E921596E8
:101230001C921E921497F8012281338121153105E9
:1012400051F0F90180819181009711F09C01F9CF53
:10125000B183A08303C0F801B383A2831097B1F0D8
:101260001396BC92AE921297FE0131961496892D78
:1012700001900D928A95E1F76DE7C701BEDD8111FE
:1012800016C06CE2C701B9DD8111A9CF80917B0442
:1012900081110BC0109278041092770410927A0496
:1012A0001092790481E080937B0407E714E0C80181
:1012B00026960FB6F894DEBF0FBECDBFDF91CF915B
:1012C0001F910F91FF90EF90DF90CF90BF90AF9064
:1012D0009F9008950F931F93CF93DF93EC01888124
:1012E0009981009729F02A813B812617370788F4D6
:1012F0008B016F5F7F4F0E94EF18009761F0998319
:1013000088831B830A832C813D81232B11F4FC01EC
:10131000108281E001C080E0DF91CF911F910F9199
:101320000895CF93DF93FC014481558160817181E1
:1013300083EA96E0E0D2EC0168EF73E083EA96E09E
:10134000D5D38C0F9D1FDF91CF910895CF92DF925F
:10135000EF92FF920F931F93CF93DF936B01770F61
:10136000EE08FF08F7FE1EC0EC01E881F98101904C
:10137000F081E02D6DE219958C0144275527BA01C3
:101380004C195D096E097F092AE0CE01C4D3800F94
:10139000911FDF91CF911F910F91FF90EF90DF9000
:1013A000CF9008952AE0B701A601DF91CF911F9158
:1013B0000F91FF90EF90DF90CF90ADC3FC01A0891B
:1013C000B18982E08C93A485B5851C92A685B785EA
:1013D0008FEC8C93108EA489B58986E08C93A289BA
:1013E000B3898C9180618C93A289B3898C91886038
:1013F0008C93A289B3898C9180688C930288F3893D
:10140000E02D80818F7D808308959F92AF92BF925F
:10141000CF92DF92EF92FF920F931F93CF93DF93C0
:1014200000D000D0CDB7DEB7FC019681992309F436
:10143000D8C06B017F01915096835F0182E0A80EB6
:10144000B11CC50198DCD7011296ED91FC91139760
:1014500080818B3521F08B3709F492C09BC0F70156
:1014600000811181B80184E090E068DE009751F0BE
:10147000DC0111961C930E9313961C921E921297E8
:101480008C0111C080916F0781110BC010926C0705
:1014900010926B0710926E0710926D0781E0809397
:1014A0006F070BE617E06BE5C501A7DC882309F49D
:1014B00047C06DE5C501A1DC811153C086E0982EBF
:1014C0001A821982BE016F5F7F4FC7019EDF88239A
:1014D000B9F1F8016081718188E090E02FDEDC01D4
:1014E000892B39F011961C921E9213961C921E9213
:1014F0001297F801228133812115310551F0F9014C
:1015000080819181009711F09C01F9CFB183A08374
:1015100003C0F801B383A283109791F0FE013196C6
:101520001296892D01900D928A95E1F76DE5C5011E
:1015300064DC811116C06CE2C5015FDC8111C0CF93
:1015400080916F0781110BC010926C0710926B078E
:1015500010926E0710926D0781E080936F070BE683
:1015600017E0D8018D919C91892B11F410E031C0C6
:1015700086E090E0F601918380831383028328C084
:10158000C701EBDDDC012D913C91232B79F327E0A2
:1015900030E019C011E0873219F0823209F010E012
:1015A000C70149DC009711F3112359F022E030E024
:1015B000D60111963C932E9313969C938E9312977B
:1015C00008C021E030E0F6013183208393838283D9
:1015D00011E0D70116968C9116978F5F16968C9313
:1015E00001C010E0812F26960FB6F894DEBF0FBE23
:1015F000CDBFDF91CF911F910F91FF90EF90DF90C2
:10160000CF90BF90AF909F9008950F931F93B2DA41
:1016100060937105709372058093730590937405C0
:10162000E0916905F0916A050284F385E02D89E671
:1016300095E0199597FF1EC09DDA009171051091F4
:1016400072052091730530917405DC01CB01801B7C
:10165000910BA20BB30B00916D0510916E052091BB
:101660006F053091700580179107A207B307C0F28C
:101670008FEF9FEF1F910F910895CF93DF93BC01E0
:1016800083EA96E033D2EC0168EF73E083EA96E0F8
:101690002DD28C0F9D1FDF91CF910895CF93DF93B3
:1016A000FC0124813581232B71F0FB01DC01CD91FC
:1016B000DC9160817181CE010E94F019009719F0D0
:1016C0008C1B9D0B02C08FEF9FEFDF91CF91089590
:1016D000EF92FF920F931F93CF93DF93FC0124812E
:1016E00035816115710511F480E018C0411551056F
:1016F000A1F07B01EC018A01020F131FB801EADDA2
:10170000882391F3288139818C819D81B701820FD3
:10171000931F0E94E9191D830C8381E0DF91CF9113
:101720001F910F91FF90EF900895EF92FF920F930A
:101730001F93CF93DF93CDB7DEB727970FB6F894FB
:10174000DEBF0FBECDBF7C01CB014AE08E010F5F33
:101750001F4FB8010E944817F80101900020E9F7D7
:101760003197AF01401B510BB801C701B1DF27967C
:101770000FB6F894DEBF0FBECDBFDF91CF911F91A2
:101780000F91FF90EF900895CF93DF931F921F92D8
:10179000CDB7DEB769831A8241E050E0BE016F5FCA
:1017A0007F4F96DF0F900F90DF91CF9108956115D5
:1017B000710549F0FB0101900020E9F73197AF0175
:1017C000461B570B85CF80E00895CF93DF93EC0144
:1017D00088819981009711F00E9457181982188208
:1017E0001D821C821B821A82DF91CF910895EF9295
:1017F000FF920F931F93CF93DF93CDB7DEB7289758
:101800000FB6F894DEBF0FBECDBF7C01CB014AE01E
:101810008E010F5F1F4FB8010E942917F801019038
:101820000020E9F73197AF01401B510BB801C70108
:101830004FDF811102C0C701C8DFC70128960FB66C
:10184000F894DEBF0FBECDBFDF91CF911F910F91F6
:10185000FF90EF900895CF93DF93EC016115710530
:1018600059F0FB0101900020E9F73197AF01461BC9
:10187000570B2EDF811102C0CE01A7DFCE01DF9111
:10188000CF910895EF92FF920F931F93CF93DF9321
:10189000EC017B018A01BA011DDD811103C0CE017B
:1018A00094DF07C01D830C83B701888199810E9452
:1018B000E919CE01DF91CF911F910F91FF90EF9029
:1018C0000895CF93DF93EC016115710551F0FB0191
:1018D00001900020E9F73197AF01461B570BD2DF8B
:1018E00001C073DFCE01DF91CF910895FC018081AB
:1018F00091810C945718CF92DF92EF92FF920F9341
:101900001F93CF93DF936C017A018B01C0E0D0E08D
:10191000CE15DF0589F0D8016D918D01D601ED91CD
:10192000FC910190F081E02DC6011995892B11F4ED
:101930007E0102C02196ECCFC701DF91CF911F91AC
:101940000F91FF90EF90DF90CF900895FB01DC01A5
:1019500011961C921E9213961C921E921297159627
:101960001C921E9214978617970741F0608171812F
:101970006115710519F04481558184CF0895FC01EA
:1019800011821082138212821582148261157105F0
:1019900049F0FB0101900020E9F73197AF01461BA8
:1019A000570B70CF08959091090298133DC0E4E45D
:1019B000F2E0E4919FEF90930902E230C9F050F415
:1019C000EE2399F0E13081F590916F009D7F909327
:1019D0006F002AC0E43019F1E0F0E53029F590916C
:1019E00073009D7F909373001FC010926E001CC007
:1019F000909170009D7F9093700091E09093B00063
:101A00009091B100987F94609093B1001092B300D0
:101A10000BC0909171009D7F9093710005C09091D3
:101A200072009D7F9093720060E00C94C9041F9235
:101A30000F920FB60F9211240BB60F922F933F9374
:101A40004F935F936F937F938F939F93AF93BF93C6
:101A5000EF93FF9380917A0790917B07A0917C0789
:101A6000B0917D07892B8A2B8B2B51F180917907BF
:101A7000E0917707F09178079081892780838091A2
:101A80007A0790917B07A0917C07B0917D0718168B
:101A900019061A061B06BCF480917A0790917B0701
:101AA000A0917C07B0917D070197A109B1098093AE
:101AB0007A0790937B07A0937C07B0937D0703C0C0
:101AC0008091090270DFFF91EF91BF91AF919F91DB
:101AD0008F917F916F915F914F913F912F910F90D7
:101AE0000BBE0F900FBE0F901F90189561157105DA
:101AF00079F0FB0101900020E9F73197AF01461B17
:101B0000570BDC01ED91FC910280F381E02D1994DB
:101B100080E090E008954F925F926F927F92EF92F3
:101B2000FF920F931F93CF93DF93CDB7DEB7A197AB
:101B30000FB6F894DEBF0FBECDBF7C01FA01CB011A
:101B400019A2223008F42AE08E010F5D1F4F422EA9
:101B5000512C612C712CBF01A30192010E948417AA
:101B6000F901CA01015011096A3014F4605D01C025
:101B7000695CD8016C93232B242B252B61F7B801CA
:101B8000C701B4DFA1960FB6F894DEBF0FBECDBF7C
:101B9000DF91CF911F910F91FF90EF907F906F9009
:101BA0005F904F900895CF93DF93CDB7DEB7C859BC
:101BB000D1090FB6F894DEBF0FBECDBF789484B5BF
:101BC000826084BD84B5816084BD85B5826085BD39
:101BD00085B5816085BD80916E00816080936E00C7
:101BE00010928100809181008260809381008091B9
:101BF000810081608093810080918000816080936A
:101C000080008091B10084608093B1008091B00029
:101C100081608093B00080919100826080939100F8
:101C2000809191008160809391008091900081600B
:101C3000809390008091A10082608093A1008091A8
:101C4000A10081608093A1008091A00081608093B9
:101C5000A000809121018260809321018091210167
:101C60008160809321018091200181608093200117
:101C700080917A00846080937A0080917A008260FB
:101C800080937A0080917A00816080937A008091BD
:101C90007A00806880937A001092C10061E083E04E
:101CA0000E94460561E082E00E94460560E083E014
:101CB0000E94C90460E082E00E94C90483EA96E0C1
:101CC0007DDB86E096E07ADB89E695E077DB1092B3
:101CD0005B0710925A0710925907109258071092FA
:101CE0005707109256078DE991E090935D07809316
:101CF0005C0780914C0796EF980F943048F02EECDB
:101D0000280F243028F022EC280F283008F06EC06D
:101D10002DEB30E030935707209356072BE931E045
:101D200030935907209358072CE231E030935B073A
:101D300020935A07943060F02EEC280F243040F0A6
:101D400022EC280F283008F4BEC6A0E0B0E0BDC6E3
:101D5000A8E6B0E0E8E6F0E02081943018F08E5379
:101D6000883010F081E001C084E0822B8C93809158
:101D70004C0796EF980F943058F02EEC280F243033
:101D800038F022EC280F283030F020E030E005C099
:101D90002BE630E002C02DE630E03093540720936C
:101DA0005307943010F49AEF0BC0823381F08333E1
:101DB00081F0843381F092EC980F983070F492ECBB
:101DC000980F81E001C0880F9A95EAF707C088E074
:101DD00005C084E003C082E001C081E08093550724
:101DE00080915C0790915D070197F1F780915A0708
:101DF00090915B07892B49F1E0914E04F0914F04DB
:101E000087E0E034F80709F1309739F0A389B48905
:101E10009C918589809589238C9380915E078E7F24
:101E200080935E0710924D0410924C0480E497E07A
:101E300090934F0480934E04E0915307F091540720
:101E4000908180915507892B808368EE73E080E054
:101E500090E00E9482056AE372E0CE0183599F4FB1
:101E60008EDD00E028EB3BE040E050E0BE0163592E
:101E70007F4FFE0131967F01CF0122D9C70136DDA8
:101E8000CE0183599F4F32DD63E472E0CE01835966
:101E90009F4F75DD20ED37E040E050E0BE01635913
:101EA0007F4FC7010DD9C70121DDCE0183599F4F57
:101EB0001DDD68E472E0CE0183599F4F60DD20EDA7
:101EC00037E040E050E0BE0163597F4FC701F8D8CA
:101ED000C7010CDDCE0183599F4F08DD66E572E036
:101EE000CE0183599F4F4BDD20ED37E040E050E0BD
:101EF000BE0163597F4FC701E3D8C701F7DCCE01AC
:101F000083599F4FF3DC64E672E0CE0183599F4F03
:101F100036DD20ED37E040E050E0BE0163597F4FF1
:101F2000C701CED8C701E2DCCE0183599F4FDEDC6A
:101F30008CEC94E043DA6CE070E088E792E027D81C
:101F40006AE070E085E892E022D80E948E068CEC70
:101F500094E00E94A101892BD1F360ED77E080E04D
:101F600090E00E948205E7EBCE2EEFE4DE2E4424C3
:101F70004A94542C32018CEB882E81E0982E92E00A
:101F8000292E92E0392E8CEC94E00E94A101892B3D
:101F900009F437C38CEC94E00E947F01C856DF4FF0
:101FA0008883C859D0408B3721F481E08093730433
:101FB000CEC280917304882309F4C9C2C856DF4F8A
:101FC000F881C859D040FD3709F0C1C2109273049E
:101FD0006DE785E697E0D8DB89E090E08C0F9D1FE8
:101FE0009C838B83E4E6F0E0FE83ED8318861F82FA
:101FF00084E192E09A8389838091650790916607D6
:10200000009711F48AE194E0AF96FFAEEEAEAF9781
:10201000E1969FAF8EAFE197E396FFAEEEAEE3970A
:102020009AE0E4969FAFE497CE0183599F4F95D8ED
:102030008C0160E972E00E94940690930102809303
:10204000000269E972E0C8010E94940690930302BD
:10205000809302026EE972E0C8010E949406909398
:102060000502809304020E948E0662EA72E0CE01AD
:1020700083599F4F84DC00E020ED37E040E050E0E2
:10208000BE0163597F4FC7011BD8C7012FDCCE01AA
:1020900083599F4F2BDC0091040210910502A09000
:1020A0000202B09003026DEA72E0CE0183599F4FA5
:1020B00066DCBE0163597F4FC70148DCB501C7012B
:1020C000CADB68EB72E0C7DBB801C5DB6CEB72E022
:1020D000C2DBBC01CE0186589F4F38DCC70106DC4D
:1020E000CE0183599F4F02DCBE0166587F4FCE015F
:1020F00083599F4F2BDC00E028E833E140E050E0BB
:10210000BE0163597F4FC7010E946008C701EEDB23
:10211000CE0183599F4FEADB60EC72E0C7012FDCF0
:1021200063EC72E0CE018C589F4F29DC28EB3BE03A
:1021300040E050E0BE016C587F4FCE0183599F4F65
:102140000E946008B701CE0183599F4FA7DA8C0126
:10215000CE0183599F4FCADBCE018C589F4FC6DBFF
:10216000C701C4DB0F3F1F4F09F4E6C14091690767
:1021700050916A07609165077091660786E096E066
:10218000BADB86E096E00E94A101892BD1F368EECC
:1021900073E080E090E00E94820586E096E00E9475
:1021A000A101892BC1F086E096E00E947F01182FE3
:1021B000E091A306F091A4060190F081E02D682F34
:1021C00083EA96E0199568EF73E083EA96E08EDC87
:1021D000113319F3B3C16FEC72E0CE0183599F4FF5
:1021E000CEDB00E020ED37E040E050E0BE01635977
:1021F0007F4FC7010E946008C70178DBCE01835979
:102200009F4F74DB61E083E00E94C90460E082E0DC
:102210000E94C90480910902843021F4E4E4F2E0D0
:102220001491E4C08F3F09F07BC184E080930902E0
:10223000E4E4F2E014911F3F09F472C1123009F492
:102240006FC044F5112309F44FC0113009F0CEC01E
:1022500010928000109281008091810088608093AC
:10226000810080918100816080938100F4018491DC
:10227000E82FF0E0EE0FFF1FEC57FE4F8591949191
:1022800090935B0480935A04F101849180935904E4
:1022900011E0AEC0143009F487C00CF463C01530EF
:1022A00009F0A4C010922001109221018091210117
:1022B00088608093210180912101816080932101B8
:1022C000F4018491E82FF0E0EE0FFF1FEC57FE4F72
:1022D000859194919093520480935104F1018491DB
:1022E0008093500415E084C014BC15BC84B5826092
:1022F00084BD85B5816085BDF4018491E82FF0E04F
:10230000EE0FFF1FEC57FE4F8591949190935E0462
:1023100080935D04F101849180935C0410E068C0B7
:102320001092B0001092B1008091B0008260809352
:10233000B0008091B10081608093B100F40184917C
:10234000E82FF0E0EE0FFF1FEC57FE4F85919491C0
:102350009093780780937707F101849180937907B0
:1023600012E046C01092900010929100809191006E
:1023700088608093910080919100816080939100AA
:10238000F4018491E82FF0E0EE0FFF1FEC57FE4FB1
:10239000859194919093580480935704F10184910E
:1023A0008093560413E024C01092A0001092A10064
:1023B0008091A10088608093A1008091A10081603C
:1023C0008093A100F4018491E82FF0E0EE0FFF1F4D
:1023D000EC57FE4F8591949190935504809354044B
:1023E000F10184918093530414E002C017FD98C05A
:1023F00061E084E00E944605112309F450C31230C5
:1024000009F442C01130C1F480918100887F81605D
:1024100080938100D0928900C092880040926B0422
:1024200050926C0460926D0470926E0480916F0003
:10243000826080936F0074C0133039F480919100F2
:10244000887F81608093910036C0143039F4809188
:10245000A100887F81608093A1003FC0153039F4CE
:1024600080912101887F81608093210148C01330D1
:1024700011F12CF4123009F053C087EB0CC014306A
:1024800061F11530E1F14CC08091B100887F856029
:102490008093B1008EE98093B30040927A07509206
:1024A0007B0760927C0770927D078091700082604C
:1024B0008093700035C0D0929900C09298004092ED
:1024C0006704509268046092690470926A04809173
:1024D000710082608093710023C0D092A900C092E5
:1024E000A800409263045092640460926504709264
:1024F00066048091720082608093720011C0D09255
:102500002901C092280140925F04509260046092B9
:102510006104709262048091730082608093730002
:1025200068EE73E080E090E00E94820584E03BDA90
:1025300081E08093760402C00E948E06CE01865808
:102540009F4FD4D96AE174E085E697E0BAD98091CB
:102550007304882309F417CDC856DF4F6881C85922
:10256000D04085E697E010D906CD89E695E00E9437
:10257000380289E695E00E94A101892B09F43FC049
:102580006AE174E0CE018E569F4FF9D93ED897FF8D
:102590003DC06AED72E0C701F2D9CA56DF4F4881EB
:1025A0005981C659D040CE56DF4F68817981C259D2
:1025B000D040C7018DD8811102C0C70106D9C7011B
:1025C0000E949109C70192D9CA56DF4F48815981AB
:1025D000C659D040CE56DF4F68817981C259D0406C
:1025E0008FE597E075D8CA56DF4F88819981C65923
:1025F000D040892BA9F4CE018E569F4F77D90E94E7
:102600005902809176048823D1F3AFCF8A309105A7
:1026100009F4BFCF682FCE018E569F4FB5D8B6CFE5
:10262000CE56DF4FE881F981C259D040309719F377
:1026300080818D3001F7809174049091750401962A
:1026400090937504809374040297A9F61092750410
:102650001092740462EE72E0C70191D9B7018FE560
:1026600097E01CD805962091630730916407821784
:10267000930760F420915F073091600721153105C1
:1026800029F0F901E80FF91FC08001C0C12C0C2C02
:10269000000CDD08F0E3CF1AD108C70127D9A60145
:1026A00060E070E02AE083EA96E035DA68EF73E0F4
:1026B00083EA96E01BDA68EE72E0C70160D9B701E1
:1026C0008FE597E00E944E0B5C01C7010FD984E0B3
:1026D000A80EB11C00916307109164070A151B0531
:1026E00028F49A2D8B2D5801092F182F6AE174E0D8
:1026F000CE0184579F4F43D980916307909164071F
:10270000A816B906F0F48017910708F48C01E0913F
:102710005F07F0916007E00FF11F908010828091B9
:102720005F0790916007BC016A0D7B1DCE01845745
:102730009F4FC7D8E0915F07F0916007E00FF11F4E
:102740009082C457DF4F88819981CC58D040009740
:1027500021F059D3DC01CB0103C080E090E0DC0123
:102760008C01AF961FAE1EAEAF97E1961FAE1EAEA8
:10277000E197E3961FAE1EAEE3974AE0B70169D337
:10278000B701CE0183599F4F9CD86DEE72E0C7010F
:10279000F6D8E3964EAD5FADE397AF966EAD7FADE5
:1027A000AF97C7010E94680B811102C0C7010DD805
:1027B000B701CE018C589F4FC9D8CE018C589F4F7E
:1027C0000E949109CE018C589F4F90D8C7018ED896
:1027D000CE0183599F4F8AD86AE174E0CE018A57AF
:1027E0009F4FCDD8F8013297EE30F10508F080C048
:1027F0008827EE58FF4F8F4FA9C367EF72E0CE01D5
:102800008A579F4F5ED841E060E070E082E090E040
:102810000BC060E073E0CE018A579F4F52D840E072
:1028200060E070E083E090E00E94EA0768C0809179
:102830000602811109C06BE073E0CE018A579F4FF9
:1028400040D884E090E051C082E193E034C08091B0
:1028500006028111F9CF6AE273E0CE018A579F4FD9
:1028600030D885E090E041C062E373E0CE018A5742
:102870009F4F27D841E061E070E086E090E0D4CF40
:102880006BE373E0CE018A579F4F1BD840E061E0B5
:1028900070E087E090E0C8CF80910702811109C005
:1028A00066E473E0CE018A579F4F0BD888E090E032
:1028B0001CC08DE493E00E943D0B21C08091070273
:1028C0008111F7CF65E673E0CE018A579F4F0E94D2
:1028D000610C89E090E009C06DE673E0CE018A5793
:1028E0009F4F0E94610C8FE090E00E942E0807C06D
:1028F00069E773E0CE018A579F4F0E94610C6AE13D
:1029000074E08FE597E00E94610C6DE773E0CE0103
:1029100080589F4F34D86FE873E0CE0180589F4FA6
:102920000E94D70B66EB73E0CE0180589F4F0E9448
:10293000D70BC657DF4F68817981CA58D040CE0186
:1029400080589F4F0E94950B68EF73E0CE0180582E
:102950009F4F0E94D70B66EC73E0CE0180589F4FCB
:102960000E94D70B66EE73E0CE0180589F4F0E9405
:10297000D70BC657DF4F48815981CA58D040CA5734
:10298000DF4F68817981C658D040CE0180589F4F73
:102990000E94680BCC57DF4FA880B980C458D04044
:1029A0006BEF73E0C7010E94BF0CB701CE018359E2
:1029B0009F4F0E94A60CB601CE0183599F4F0E94E3
:1029C000950B811105C0CE0183599F4F0E94E50BE5
:1029D00066EE72E0CE0183599F4F0E942B0C8C0152
:1029E000B5010E94950B811103C0C8010E94E50B3F
:1029F00068EF73E0C8010E942B0CBC01CE018C581B
:102A00009F4F0E94A60C00E028EB3BE040E050E026
:102A1000BE016C587F4FCE0186589F4F0E946008C0
:102A2000CE0186589F4F0E94760CCE018C589F4F46
:102A30000E94760CCE0183599F4F0E94760CC701ED
:102A40000E94760CBE0160587F4FC7010E94A60C01
:102A500001E028EE33E040E050E0B701CE018359B9
:102A60009F4F0E946008CE0183599F4F0E94760CB1
:102A7000C7010E94760C89E695E00E943802CE01DB
:102A800080589F4F0E94760CCE018A579F4F0E941C
:102A9000760CCE0184579F4F0E94760CACCD85B545
:102AA000887F846085BD9EE497BD40926F045092FC
:102AB0007004609271047092720480916E00826062
:102AC00080936E002DCDA8E6B0E0283008F442C90E
:102AD000E0E0F0E041C98CE292E0909341078093FE
:102AE000400780914E0490914F048054974071F4B8
:102AF000E0915307F091540790818091550780959C
:102B00008923808310924F0410924E048FE597E042
:102B10000E94760C85E697E00C94760CCF92DF92BB
:102B2000EF92FF921092CF041092CE0498EEC92E2D
:102B300093E0D92EE12CF12CC092D004D092D10494
:102B4000E092D204F092D3048AE192E09093CD0413
:102B50008093CC0425E331E03093D9042093D8044A
:102B600024E331E03093DB042093DA0420E331E006
:102B70003093DD042093DC0421E331E03093DF0463
:102B80002093DE0422E331E03093E1042093E0045B
:102B900026E331E03093E3042093E2041092E5044D
:102BA0001092E6041092E7041092E80410926C056B
:102BB00010926B05C0926D05D0926E05E0926F0584
:102BC000F092700590936A058093690525ED30E0D9
:102BD000309376052093750524ED30E03093780529
:102BE0002093770520ED30E030937A052093790526
:102BF00021ED30E030937C0520937B0522ED30E021
:102C000030937E0520937D0526ED30E030938005DE
:102C100020937F05109282051092830510928405FF
:102C2000109285051092090610920806C0920A06B5
:102C3000D0920B06E0920C06F0920D0690930706D8
:102C4000809306062DEC30E0309313062093120695
:102C50002CEC30E0309315062093140628EC30E07D
:102C6000309317062093160629EC30E030931906AE
:102C7000209318062AEC30E030931B0620931A06A6
:102C80002EEC30E030931D0620931C0610921F0698
:102C90001092200610922106109222061092A6068B
:102CA0001092A506C092A706D092A806E092A906A7
:102CB000F092AA069093A4068093A30685EC90E078
:102CC0009093B0068093AF0684EC90E09093B206A8
:102CD0008093B10680EC90E09093B4068093B306A5
:102CE00081EC90E09093B6068093B50682EC90E07C
:102CF0009093B8068093B70686EC90E09093BA065E
:102D00008093B9061092BC061092BD061092BE06C2
:102D10001092BF066AE174E085E697E00E94BF0C5E
:102D20006AE174E08FE597E00E94BF0C10924307C0
:102D300010924207C0924407D0924507E09246079E
:102D4000F09247078CE292E090934107809340070E
:102D50001092570710925607109259071092580771
:102D600010925B0710925A0710925D0710925C0751
:102D700060915E076E7F6D7F60935E076695617000
:102D800081E068278AE00E94C90461E08AE00E942D
:102D90004605E8E0F2E0E491E0935007E2ECF1E070
:102DA000E491F0E0EE0FFF1FEC57FE4F85919491F8
:102DB000909352078093510760E08BE00E94460594
:102DC00080915E0781FD04C061E08BE00E94C90430
:102DD0008BE080934C07E9E0F2E0E491E0934D074B
:102DE000E3ECF1E0E491F0E0EE0FFF1FE256FE4F5E
:102DF0008591949190934F0780934E07FF90EF90A9
:102E0000DF90CF9008951F93FC0199278827BC017C
:102E1000E89411911032E9F3193010F01E30C8F324
:102E20001B3249F01D3241F4689405C01CD0610F7B
:102E3000711D811D911D119110531A30B8F33EF48C
:102E400090958095709561957F4F8F4F9F4F1F9103
:102E50000895BB274A3031F4992322F4BDE29095BE
:102E600081959F4F16C0592F482F372F262F660F59
:102E7000771F881F991F660F771F881F991F620F82
:102E8000731F841F951F660F771F881F991F089552
:102E9000BB27FB015527AA27880F991FAA1FA41734
:102EA00010F0A41B83955051B9F7A05DAA3308F028
:102EB000A95DA193009779F7B111B1931192CB015C
:102EC00000C0DC01FC01672F71917723E1F7329795
:102ED00004C07C916D9370836291AE17BF07C8F3F5
:102EE000089597FB072E16F4009406D077FD08D0BE
:102EF00035D007FC05D03EF4909581959F4F0895FD
:102F0000709561957F4F0895A1E21A2EAA1BBB1BF5
:102F1000FD010DC0AA1FBB1FEE1FFF1FA217B307A5
:102F2000E407F50720F0A21BB30BE40BF50B661FBB
:102F3000771F881F991F1A9469F76095709580957F
:102F400090959B01AC01BD01CF010895EE0FFF1FCD
:102F5000881F8BBF0790F691E02D1994AA1BBB1B0D
:102F600051E107C0AA1FBB1FA617B70710F0A61B89
:102F7000B70B881F991F5A95A9F780959095BC01AA
:102F8000CD010895CF93DF938230910510F482E054
:102F900090E0E0918007F091810720E030E0C0E010
:102FA000D0E0309711F14081518148175907C0F0A6
:102FB0004817590761F482819381209719F09B8308
:102FC0008A832BC0909381078093800726C02115A8
:102FD000310519F04217530718F49A01BE01DF01B9
:102FE000EF010280F381E02DDCCF2115310509F1DD
:102FF000281B390B2430310590F412968D919C9149
:1030000013976115710521F0FB019383828304C03E
:103010009093810780938007FD01329644C0FD01A3
:10302000E20FF31F81939193225031092D933C932A
:103030003AC020917E0730917F07232B41F42091E5
:103040000C0230910D0230937F0720937E07209170
:103050000A0230910B022115310541F42DB73EB71C
:1030600040910E0250910F02241B350BE0917E0718
:10307000F0917F07E217F307A0F42E1B3F0B2817F0
:10308000390778F0AC014E5F5F4F2417350748F0E1
:103090004E0F5F1F50937F0740937E07819391935C
:1030A00002C0E0E0F0E0CF01DF91CF9108950F93EF
:1030B0001F93CF93DF93009709F48CC0FC013297E4
:1030C000138212820091800710918107011511056A
:1030D00081F420813181820F931F20917E073091EE
:1030E0007F072817390779F5F0937F07E0937E076C
:1030F00071C0D80140E050E0AE17BF0750F41296FF
:103100002D913C911397AD012115310509F1D9019C
:10311000F3CF9D01DA013383228360817181860FB1
:10312000971F8217930769F4EC0128813981260FD4
:10313000371F2E5F3F4F318320838A819B8193838A
:103140008283452B29F4F0938107E093800742C0E6
:103150001396FC93EE931297ED01499159919E01BC
:10316000240F351FE217F30771F480819181840FDA
:10317000951F029611969C938E938281938113964C
:103180009C938E931297E0E0F0E0D80112968D9117
:103190009C911397009719F0F8018C01F6CF8D914F
:1031A0009C9198012E5F3F4F820F931F20917E07C5
:1031B00030917F072817390769F4309729F4109266
:1031C00081071092800702C01382128210937F073A
:1031D00000937E07DF91CF911F910F9108956F9219
:1031E0007F928F929F92AF92BF92CF92DF92EF9297
:1031F000FF920F931F93CF93DF93EC01009781F41D
:10320000CB01DF91CF911F910F91FF90EF90DF9055
:10321000CF90BF90AF909F908F907F906F90B2CEE5
:10322000FC01E60FF71F9C0122503109E217F3075A
:1032300008F4A8C0D9010D911C9111970617170722
:10324000A8F00530110508F49BC0C8010497861743
:10325000970708F495C002501109061B170B01933C
:1032600011936D937C93CF0122DF8AC05B01A01A7A
:10327000B10A4C01800E911EA0918007B091810788
:1032800040E050E0E12CF12C109709F44AC0A81559
:10329000B905D1F56D907C901197630182E0C80E5D
:1032A000D11CCA14DB0480F1A3014A195B096A012D
:1032B00082E0C80ED11C1296BC9012971396AC9166
:1032C000B5E0CB16D10440F0B282A3835183408392
:1032D000D9016D937C930AC00E5F1F4FC301800F0D
:1032E000911FF90191838083EB2DFA2FE114F104F2
:1032F00031F0D7011396FC93EE93129741C0F093EF
:103300008107E09380073CC08D919C9111974817ED
:10331000590708F4AC017D0112960D90BC91A02DC7
:10332000B3CF80917E0790917F0788159905E1F4CE
:1033300046175707C8F480910A0290910B02009734
:1033400041F48DB79EB740910E0250910F02841B3D
:10335000950BE817F907B0F4F0937F07E0937E0729
:10336000F901718360830CC0CB010CDE7C010097F6
:1033700049F0A801BE011BD0CE0199DEC70104C0EF
:10338000CE0102C080E090E0DF91CF911F910F91BC
:10339000FF90EF90DF90CF90BF90AF909F908F9075
:1033A0007F906F90089581E090E0F89433C0FB0126
:1033B000DC0102C001900D9241505040D8F70895B1
:1033C000FB01DC018D91019080190110D9F3990B5B
:1033D0000895FB01DC0101900D920020E1F70895B2
:1033E000FB0151915523A9F0BF01DC014D91451717
:1033F0004111E1F759F4CD010190002049F04D91C0
:1034000040154111C9F3FB014111EFCF81E090E07C
:103410000197089511E0C4E2D1E000E005C0802FDB
:10342000FE0194DD2196011DC532D10780E0080719
:06343000B1F7F894FFCF94
:103436001A041A041A04010101FF00008207800021
:1034460000000000500300000000F2017B0C700138
:103456003802A1017F01930100000000C0027B0C2D
:103466004D03BF0214032B03A70241542B5253549E
:103476000D0A0041540D0A0041542B43574D4F4449
:10348600453D310D0A0041542B4349504D55583D99
:10349600310D0A0041542B4349505345525645526B
:1034A6003D312C38300D0A0041542B4E414D4570AC
:1034B6006C616E740041542B50494E3230313400E9
:1034C600757365724E616D65007373696400707320
:1034D600770041542B43575141500D0A0041542B5C
:1034E60043574A41503D2200222C2200220D0A0059
:1034F6004F4B0041542B43574A41503F0D0A004160
:10350600542B43494653520D0A0044454255473A07
:1035160020002B4950442C00636D643D00636D64AC
:10352600206973203A20006C65645F6175746F00D2
:103536006C65645F6D616E75616C006C65645F6F70
:103546006E004C6564206D6F6465206973206E6F34
:1035560074206D616E75616C2E006C65645F6F66BC
:10356600660066616E5F6175746F0066616E5F6DA1
:10357600616E75616C0066616E5F6F6E0066616E8E
:10358600206D6F6465206973206E6F74206D616EA7
:1035960075616C2E0066616E5F6F6666007465739A
:1035A600745F627574746F6E00657272004854546D
:1035B600502F312E3120323030204F4B0D0A004330
:1035C6006F6E74656E742D547970653A746578748F
:1035D6002F68746D6C3B636861727365743D5554F6
:1035E600462D380D0A00436F6E74656E742D4C655A
:1035F6006E6774683A004163636573732D436F6E3B
:1036060074726F6C2D416C6C6F772D4F72696769A0
:103616006E3A2A0D0A00436F6E6E656374696F6EAB
:103626003A636C6F73650D0A0D0A0041542B4349CA
:103636005053454E443D006E756C6C0022225C5C16
:103646006208660C6E0A720D740900726571756502
:10365600737420746F20736C617665203A20007253
:1036660065717565737420746F20636F6E74726F05
:0C3676006C20626F617264203A2000003A
:00000001FF
