:1000000024C1000053C1000051C100004FC10000D5
:100010004DC100004BC1000049C1000047C10000B4
:1000200045C10000EBC50000E9C50000E7C50000C0
:100030003DC100000C943B1039C1000037C10000E5
:1000400035C1000033C1000031C100002FC10000E4
:100050002DC100002BC1000029C1000085C5000092
:1000600025C1000059C400002EC400001FC10000BB
:100070001DC100001BC1000019C1000017C1000014
:1000800015C1000013C1000011C100000FC1000024
:10009000F0C30000C5C3000009C1000007C1000093
:1000A00005C1000003C1000001C10000FFC0000045
:1000B000FDC00000FBC00000F9C00000F7C0000058
:1000C000F5C00000F3C00000F1C000007FC30000D5
:1000D00054C30000EBC0000026C30000FBC20000B8
:1000E000E5C000004A1A5C1A6D1A7E1AD91AD91A8C
:1000F0008C1A9F1AAD1ABB1AD91AD91AD91ACD1A45
:10010000E504E804D704DB04DF041F05EC04F00475
:10011000F604FA04FE04040508050C051F05120583
:1001200016051A0500002100240027002A002D00D2
:100130003000330001010000040107010A01000042
:100140000A0B02090C0D0E08070304010000000051
:10015000000000000000000000000000000000009F
:10016000000000000000000000001211100000005C
:10017000000000000000000000000000000000007F
:1001800000000000000020002300260029002C00B1
:100190002F003200000100000301060109010000E8
:1001A0002200250028002B002E003100340002011F
:1001B0000000050108010B010505050507050808F4
:1001C0000808020202020A0A0808040404040101E1
:1001D00001010101010103030303030303030407F6
:1001E00007070C0C0C0C0C0C0C0C0202020206068D
:1001F0000606060606060B0B0B0B0B0B0B0B010280
:100200001020200808102040102040800201020128
:1002100008040201010204081020408080402010E0
:100220000804020180040201804020100804020139
:1002300008040201010204081020408001020408A1
:100240001020408002001B1CEC1B11241FBECFEFAE
:10025000D1E2DEBFCDBF00E00CBF29E0A6EFB5E0E4
:1002600001C01D92A038B207E1F715E0A0E0B2E0AE
:10027000ECEDF1E400E00BBF02C007900D92A63F49
:10028000B107D9F711E0C4E2D1E000E006C0219740
:100290000109802FFE010E947E1EC332D10780E03B
:1002A0000807A9F70E941A110C94DD20A9CEFC01C1
:1002B000538D448D252F30E0842F90E0821B930BCB
:1002C000541710F0CF96089501970895FC01918D71
:1002D000828D981761F0828DDF01A80FB11D5D96A8
:1002E0008C91928D9F5F9F73928F90E008958FEF16
:1002F0009FEF0895FC01918D828D981731F0828DCA
:10030000E80FF11D858D90E008958FEF9FEF089520
:10031000FC01918D228D892F90E0805C9F4F821B84
:1003200091098F739927089587E596E0F1DF21E021
:10033000892B09F420E0822F089584EF96E0E8DF0E
:1003400021E0892B09F420E0822F089581E997E0CC
:10035000DFDF21E0892B09F420E0822F08958EE26F
:1003600098E0D6DF21E0892B09F420E0822F089560
:10037000FC01848DDF01A80FB11DA35ABF4F2C9142
:10038000848D90E001968F739927848FA689B78911
:100390002C93A089B1898C91837080648C93938D08
:1003A000848D981306C00288F389E02D80818F7DAB
:1003B00080830895EF92FF920F931F93CF93DF9363
:1003C000EC0181E0888F9B8D8C8D981305C0E889A6
:1003D000F989808185FD25C0F62E0B8D10E00F5F19
:1003E0001F4F0F731127E02E8C8DE8120BC00FB634
:1003F00007FCFACFE889F989808185FFF5CFCE0126
:10040000B7DFF2CF8B8DFE01E80FF11DE35AFF4FEE
:10041000F0829FB7F8940B8FEA89FB898081806214
:100420000AC09FB7F894EE89FF896083E889F9894B
:1004300080818370806480839FBF81E090E0DF9142
:10044000CF911F910F91FF90EF900895CF93DF937D
:10045000EC01888D8823C1F0EA89FB89808185FDC4
:1004600005C0A889B9898C9186FD0EC00FB607FC1E
:10047000F5CF808185FFF2CFA889B9898C9185FF5E
:10048000EDCFCE0175DFE8CFDF91CF91089580E009
:1004900090E0892B19F063DF811116C080E090E0B5
:1004A000892B19F053DF811112C080E090E0892B75
:1004B00019F043DF81110EC080E090E0892B79F0C4
:1004C00033DF81110AC008950E940000E7CF0E9427
:1004D0000000EBCF0E940000EFCF0C9400000895C5
:1004E0003FB7F8948091510690915206A09153061F
:1004F000B091540626B5A89B05C02F3F19F0019670
:10050000A11DB11D3FBFBA2FA92F982F8827820F99
:10051000911DA11DB11DBC01CD0142E0660F771FE9
:10052000881F991F4A95D1F708952091F8053091B9
:10053000F9052817390771F49091F6058091F705B0
:10054000981741F0E091F605F0E0E45FF94F808103
:1005500090E008958FEF9FEF089508951F93CF9334
:10056000DF93DC015C968D919C915D97009739F447
:1005700021E030E013963C932E9312973BC05196A6
:10058000ED91FC91529750962C915097322F3095C7
:100590001FB75E964C915E97742F727041FD609507
:1005A000F8944081772311F0422B01C0432340830C
:1005B000EC012197F1F748E0508160FF02C0522B17
:1005C00001C053235083EC012197F1F76695415008
:1005D00099F78081772319F08323808302C0282B29
:1005E00020831FBF5C968D919C915D970197F1F7D9
:1005F00081E090E0DF91CF911F9108952091F8055F
:100600003091F9052817390769F48091F705209191
:10061000F60590E0805C9F4F821B910960E470E0DA
:100620000C946B1E80E090E008952091F8053091C5
:10063000F90528173907B9F49091F6058091F70567
:10064000981789F0E091F605F0E0E45FF94F8081BA
:100650002091F60530E02F5F3F4F2F733327209313
:10066000F60590E008958FEF9FEF089580E090E009
:100670000895FC0126813781620F731F8481958163
:100680008617970738F08281938177836683820F7C
:10069000931F089580E090E008950E949B200F939F
:1006A0001F93CF93DF938B01FC01C281D3812097ED
:1006B00059F06A817B81C8010E94B320892B21F007
:1006C0000990D881C02DF3CFCE01DF91CF911F913A
:1006D0000F9108951F920F920FB60F9211240BB62F
:1006E0000F922F933F934F935F936F937F938F93CB
:1006F0009F93AF93BF93EF93FF9387E596E038DE28
:10070000FF91EF91BF91AF919F918F917F916F91E9
:100710005F914F913F912F910F900BBE0F900FBEA5
:100720000F901F9018951F920F920FB60F921124E1
:100730000BB60F922F933F934F935F936F937F93DB
:100740008F939F93AF93BF93EF93FF9387E596E0CB
:100750000E941E0EFF91EF91BF91AF919F918F91DB
:100760007F916F915F914F913F912F910F900BBEB1
:100770000F900FBE0F901F9018951F920F920FB6FB
:100780000F9211240BB60F922F933F934F935F93C9
:100790006F937F938F939F93AF93BF93EF93FF9349
:1007A00084EF96E0E5DDFF91EF91BF91AF919F91CE
:1007B0008F917F916F915F914F913F912F910F900A
:1007C0000BBE0F900FBE0F901F9018951F920F92A7
:1007D0000FB60F9211240BB60F922F933F934F93A6
:1007E0005F936F937F938F939F93AF93BF93EF9399
:1007F000FF9384EF96E00E941E0EFF91EF91BF9150
:10080000AF919F918F917F916F915F914F913F91A8
:100810002F910F900BBE0F900FBE0F901F90189549
:100820001F920F920FB60F9211240BB60F922F93B7
:100830003F934F935F936F937F938F939F93AF9368
:10084000BF93EF93FF9381E997E092DDFF91EF91E2
:10085000BF91AF919F918F917F916F915F914F91D8
:100860003F912F910F900BBE0F900FBE0F901F90D6
:1008700018951F920F920FB60F9211240BB60F927C
:100880002F933F934F935F936F937F938F939F9398
:10089000AF93BF93EF93FF9381E997E00E941E0E01
:1008A000FF91EF91BF91AF919F918F917F916F9148
:1008B0005F914F913F912F910F900BBE0F900FBE04
:1008C0000F901F9018951F920F920FB60F92112440
:1008D0000BB60F922F933F934F935F936F937F933A
:1008E0008F939F93AF93BF93EF93FF938EE298E024
:1008F0003FDDFF91EF91BF91AF919F918F917F91DC
:100900006F915F914F913F912F910F900BBE0F9080
:100910000FBE0F901F9018951F920F920FB60F9257
:1009200011240BB60F922F933F934F935F936F93C6
:100930007F938F939F93AF93BF93EF93FF938EE239
:1009400098E00E941E0EFF91EF91BF91AF919F9191
:100950008F917F916F915F914F913F912F910F9068
:100960000BBE0F900FBE0F901F901895362F90E082
:10097000FC01E25CFE4F4491FC01E250FE4F2491E9
:10098000FC01E854FE4F9491992309F46CC0442370
:1009900009F455C050E0FA013197E231F10508F051
:1009A0004EC08827E058FF4F8F4F0C947E1E8091D9
:1009B00080008F7707C0809180008F7D03C0809179
:1009C0008000877F809380003AC084B58F7702C013
:1009D00084B58F7D84BD33C08091B0008F7703C014
:1009E0008091B0008F7D8093B00029C080919000ED
:1009F0008F7707C0809190008F7D03C08091900019
:100A0000877F809390001BC08091A0008F7707C0E4
:100A10008091A0008F7D03C08091A000877F80938C
:100A2000A0000DC0809120018F7707C08091200128
:100A30008F7D03C080912001877F80932001E92F63
:100A4000F0E0EE0FFF1FE256FE4FA591B4919FB765
:100A5000F894311104C08C912095282302C0EC91A8
:100A60002E2B2C939FBF0895CF93DF9390E0FC0132
:100A7000E250FE4F2491FC01E854FE4F84918823FC
:100A800061F190E0880F991FFC01EC5DFE4FC5916C
:100A9000D491FC01E256FE4FA591B491611109C0B9
:100AA0009FB7F8948881209582238883EC912E2328
:100AB0000BC0623061F49FB7F8948881322F309573
:100AC00083238883EC912E2B2C939FBF06C08FB776
:100AD000F894E8812E2B28838FBFDF91CF91089562
:100AE0008F929F92AF92BF92CF92DF92EF92FF923E
:100AF0006B017C01F5DC4B015C01C114D104E10404
:100B0000F104E9F0EDDCDC01CB0188199909AA09AF
:100B1000BB09883E9340A105B10578F321E0C21AD4
:100B2000D108E108F10888EE880E83E0981EA11C28
:100B3000B11CC114D104E104F10421F7DECFFF9010
:100B4000EF90DF90CF90BF90AF909F908F900895DF
:100B50002FB7F89460914D0670914E0680914F0624
:100B6000909150062FBF08951F920F920FB60F92CB
:100B700011242F933F938F939F93AF93BF938091B3
:100B80004D0690914E06A0914F06B09150063091BF
:100B90004C0623E0230F2D3720F40196A11DB11D33
:100BA00005C026E8230F0296A11DB11D20934C0617
:100BB00080934D0690934E06A0934F06B093500637
:100BC0008091510690915206A0915306B09154061F
:100BD0000196A11DB11D8093510690935206A093DA
:100BE0005306B0935406BF91AF919F918F913F915F
:100BF0002F910F900FBE0F901F9018951F920F927C
:100C00000FB60F9211240BB60F922F933F934F9371
:100C10005F936F937F938F939F93AF93BF93EF9364
:100C2000FF93E091F805F091F905309709F451C070
:100C3000968DA685B785858591FF04C09C918923F3
:100C400029F447C09C91892309F043C0A389B48942
:100C50009C918589809589238C93868997890197B2
:100C6000F1F7608D718DA685B785558538E020E058
:100C7000CB010197F1F7822F90E095958795282F6A
:100C80004C91452309F02068315091F7868D81FD04
:100C900020958091F70590E001968F739927309108
:100CA000F605381749F0A091F705B0E0A45FB94FF9
:100CB0002C938093F70503C0868D8160868F828D8B
:100CC000938D0197F1F7A389B4899C918589892B2C
:100CD0008C93FF91EF91BF91AF919F918F917F91F5
:100CE0006F915F914F913F912F910F900BBE0F909D
:100CF0000FBE0F901F90189560E081E337DE61E032
:100D000083E334CE0F931F93CF93DF93C8DCEC01C2
:100D1000892BC1F00C811D810130110559F46E81C0
:100D20007F816115710531F089E895E00E94B3205B
:100D3000892B41F0015011090230110518F48E8100
:100D40009F8102C080E090E0DF91CF911F910F91D1
:100D50000895FC01A081B1818C918D3051F024F473
:100D600089508230B8F505C0803219F08F3219F001
:100D7000089511962CC011968C9111978A3219F012
:100D80008F32D1F008951196B183A083A081B181F3
:100D9000CD0101969183808311968C9111978823C0
:100DA000C9F08A3299F712968C9112978F3271F7A7
:100DB00013960DC08A3071F2A081B181CD010196E8
:100DC0009183808311968C918111F4CF03C0B183FC
:100DD000A083C0CF08951F93CF93DF93EC01162F0C
:100DE000B8DFE881F9818081181305C03196F98355
:100DF000E88381E001C080E0DF91CF911F910895E9
:100E0000EF92FF920F931F93CF93DF938C01DC013E
:100E10001496CD91DC911597EA80FB808E819F819D
:100E2000E80EF91EC801029694DFD8011296ED91E2
:100E3000FC9113978081873291F1823281F190ED9C
:100E4000980F9A3060F0982F9F7D91549A3138F026
:100E50008B3229F093ED980F923008F061C0F801C1
:100E6000228133812F5F3F4F338322832E813F8145
:100E7000A9014F5F5F4F6C817D816417750740F05A
:100E80006A817B81FB01E20FF31F5F834E838083C6
:100E9000D8011296ED91FC9113978081D0CF3196B5
:100EA000D8011396FC93EE931297D8011296ED9108
:100EB000FC9113979081992399F19F012F5F3F4FE8
:100EC00013963C932E931297981751F19C35A9F4E1
:100ED0009181A2E9B5E02C91222339F0921303C04D
:100EE00011969C9102C01296F6CF9923C9F03296C2
:100EF000D8011396FC93EE9312972E813F81A9019E
:100F00004F5F5F4F6C817D816417750770F26A8156
:100F10007B81FB01E20FF31F5F834E839083C5CF7C
:100F20008E819F819C012F5F3F4F4C815D814217D5
:100F3000530750F04A815B81FA01E80FF91F3F83A4
:100F40002E831082C70102C080E090E0DF91CF9134
:100F50001F910F91FF90EF9008950F931F93CF93E0
:100F6000DF93EC018C01060F171FC017D10729F082
:100F7000699187E596E01EDAF8CF60ED77E080E0D2
:100F800090E0AEDD87E596E0C3D9892B21F087E5B7
:100F900096E09CD9F7CFDF91CF911F910F910895E3
:100FA000DB01109749F0ED91FC9111970190F081D0
:100FB000E02DBC01CD01199480E090E00895AF923E
:100FC000BF92CF92DF92EF92FF920F931F93CF9336
:100FD000DF9300D000D0CDB7DEB76C01DC010D91FE
:100FE0001C91B80184E090E0DBDF009739F0FC0150
:100FF00011830083138212828C0111C08091040638
:1010000081110BC010920106109200061092030687
:101010001092020681E08093040600E016E076015B
:10102000F2E0EF0EF11C6BE7C701D5DE882309F46F
:101030005BC06DE7C701CFDE811166C0C601E0DE8F
:101040005C01892B09F450C06AE3C701C4DE882320
:1010500009F44AC01A821982BE016F5F7F4FC60130
:1010600044D1882309F440C0B501C80118DB0097BA
:1010700041F5D8016D917C918AE090E091DF009775
:1010800029F0FC011182108215821482D801129677
:10109000ED91FC911397309751F02081318121150A
:1010A000310511F0F901F9CF9183808303C0F80174
:1010B000938382830097C1F0DC011396BC92AE92B9
:1010C000129726E0FE013196DC01149601900D92F4
:1010D0002A95E1F76DE7C7017EDE811115C06CE24C
:1010E000C70179DE8111AACF8091040681110EC05B
:1010F000109201061092000610920306109202064A
:1011000081E08093040602C0C80102C080E096E03E
:1011100026960FB6F894DEBF0FBECDBFDF91CF91FC
:101120001F910F91FF90EF90DF90CF90BF90AF9005
:1011300008950F931F93CF93DF93CDB7DEB72C970E
:101140000FB6F894DEBF0FBECDBF8C016DE975E020
:10115000CE010196F5D6BE016F5F7F4FCE01079697
:10116000D6D6B801CE01079616D04FD0CE0107963D
:10117000C9D6CE010196C6D6B80183E199E056D012
:101180002C960FB6F894DEBF0FBECDBFDF91CF9186
:101190001F910F910895EF92FF920F931F93CF939A
:1011A000DF93CDB7DEB728970FB6F894DEBF0FBE3A
:1011B000CDBF7C01CB014AE08E010F5F1F4FB8010C
:1011C0000E94E81DF80101900020E9F73197AF0176
:1011D000401B510BB801C70164D5811102C0C70182
:1011E00017D6C70128960FB6F894DEBF0FBECDBF45
:1011F000DF91CF911F910F91FF90EF900895FB0128
:101200004481558160817181A9C2CF93DF93BC0174
:101210008EE298E0F4DFEC016AE775E08EE298E098
:1012200089D78C0F9D1FDF91CF910895CF92DF92C8
:10123000EF92FF920F931F93CF93DF936B01770F82
:10124000EE08FF08F7FE1EC0EC01E881F98101906D
:10125000F081E02D6DE219958C0144275527BA01E4
:101260004C195D096E097F092AE0CE019BD7800FDA
:10127000911FDF91CF911F910F91FF90EF90DF9021
:10128000CF9008952AE0B701A601DF91CF911F9179
:101290000F91FF90EF90DF90CF9084C7FC01A08961
:1012A000B18982E08C93A485B5851C92A685B7850B
:1012B0008FEC8C93108EA489B58986E08C93A289DB
:1012C000B3898C9180618C93A289B3898C91886059
:1012D0008C93A289B3898C9180688C930288F3895E
:1012E000E02D80818F7D80830895AF92BF92CF9251
:1012F000DF92EF92FF920F931F93CF93DF9300D073
:1013000000D0CDB7DEB7FC019681992309F4D6C091
:101310006B017F01915096835F0182E0A80EB11CA2
:10132000C50117DDD7011296ED91FC9113978081CD
:101330008B3521F08B3709F490C099C0F7010081FB
:101340001181B80184E090E02BDE009751F0DC01C0
:1013500011961C930E9313961C921E9212978C0159
:1013600011C08091540981110BC010925109109243
:101370005009109253091092520981E08093540948
:1013800000E519E06BE5C50126DD882309F445C0B9
:101390006DE5C50120DD811151C01A821982BE019F
:1013A0006F5F7F4FC701A1DF8823B9F1F80160812A
:1013B000718188E090E0F4DDDC01892B39F0119631
:1013C0001C921E9213961C921E921297F801228173
:1013D00033812115310551F0F90180819181009708
:1013E00011F09C01F9CFB183A08303C0F801B3834E
:1013F000A283109791F086E0FE013196129601903B
:101400000D928A95E1F76DE5C501E5DC811116C005
:101410006CE2C501E0DC8111C0CF809154098111DB
:101420000BC010925109109250091092530910925A
:10143000520981E08093540900E519E0D8018D91AB
:101440009C91892B11F410E031C086E090E0F60108
:10145000918380831383028328C0C701B0DDDC0140
:101460002D913C91232B79F327E030E019C011E056
:10147000873219F0823209F010E0C701C1DC009711
:1014800011F3112359F022E030E0D60111963C937C
:101490002E9313969C938E93129708C021E030E010
:1014A000F601318320839383828311E0D70116965E
:1014B0008C9116978F5F16968C9301C010E0812F48
:1014C00026960FB6F894DEBF0FBECDBFDF91CF9149
:1014D0001F910F91FF90EF90DF90CF90BF90AF9052
:1014E0000895AF92BF92CF92DF92EF92FF920F9347
:1014F0001F93CF93DF9300D000D0CDB7DEB78C0120
:101500007B01FB01C480D580C114D10489F0A08087
:10151000B1806EE270E0C5010E94A820009741F002
:10152000AC014A195B094133FDE25F0719F40BC0B6
:101530004FEF5FEF8091550690915606019690937C
:101540005606809355064F5F5F4F9601B701CE0157
:1015500001960AD5BE016F5F7F4FC7011FD4CE0130
:101560000196D0D4F8011182108213821282158262
:101570001482B701C80112D4C80126960FB6F89498
:10158000DEBF0FBECDBFDF91CF911F910F91FF90B6
:10159000EF90DF90CF90BF90AF900895EF92FF92C1
:1015A0001F93CF93DF93CDB7DEB72C970FB6F89488
:1015B000DEBF0FBECDBF21E02627309104023213DB
:1015C0001EC0162F7C0169EC75E0CE010796B8D4D9
:1015D000BE01695F7F4FCE01019699D4B701CE015C
:1015E0000196D9DD12DECE0101968CD4CE0107968C
:1015F00089D4B70181E997E019DE109304022C9693
:101600000FB6F894DEBF0FBECDBFDF91CF911F9113
:10161000FF90EF9008958F929F92AF92BF92CF92DA
:10162000DF92EF92FF920F93CF93DF9300D000D021
:10163000CDB7DEB77C016B0149015A016CE975E059
:101640007FD4B60184EF96E0DADD82DA860E971E4B
:10165000A81EB91E7DDA681579058A059B0570F408
:1016600084EF96E00E948801892BA1F384EF96E035
:101670000E946601682FC70170D3F2CFF601848102
:101680009581892B09F452C065E073E080819181D6
:101690000E94B320892B09F049C06DED75E0CE01A1
:1016A00001964ED4BE016F5F7F4FC701E0D25C014F
:1016B000CE01019627D460ED72E0CE01019640D4B0
:1016C000BE016F5F7F4FC701D2D26C01CE01019680
:1016D00019D462EE75E08EE298E02CD5B5018EE269
:1016E00098E0A4DD6AE775E08EE298E023D56CEE21
:1016F00075E08EE298E01ED5B6018EE298E096DDA8
:101700006AE775E08EE298E015D59601245031091C
:10171000A501B701CE01019627D4BE016F5F7F4FAF
:101720008AE499E03BD3CE010196ECD3011102C0CB
:10173000C7016BDDC70126960FB6F894DEBF0FBE5A
:10174000CDBFDF91CF910F91FF90EF90DF90CF90C1
:10175000BF90AF909F908F9008950895CF92DF92A1
:10176000EF92FF920F931F93CF93DF936C017A0157
:101770008B01C0E0D0E0CE15DF0581F0D8016D917E
:101780008D01D601ED91FC910190F081E02DC60113
:101790001995892B11F02196EECF7E01C701DF91BB
:1017A000CF911F910F91FF90EF90DF90CF90089510
:1017B0000F931F93CF93DF93EC018881998100975A
:1017C00029F02A813B812617370788F48B016F5F48
:1017D0007F4F0E94BB1F009761F0998388831B8312
:1017E0000A832C813D81232B11F4FC01108281E0BE
:1017F00001C080E0DF91CF911F910F910895CF93A9
:1018000080910702853321F08F3F09F0ADC104C0FC
:10181000E4E4F2E0C491E0C085E380930702E4E4ED
:10182000F2E0E491EF3F09F49FC1E23009F46CC0AB
:1018300038F5EE2309F44DC0E13009F0CCC0109228
:1018400080001092810080918100886080938100E7
:1018500080918100816080938100EDEEF1E0E49160
:10186000F0E0EE0FFF1FE256FE4F85919491E3E307
:10187000F2E0E491E093620961E085E3F5D8D7C036
:10188000E43009F487C008F464C0E53009F0A3C06F
:101890001092200110922101809121018860809393
:1018A000210180912101816080932101EDEEF1E021
:1018B000E491F0E0EE0FFF1FE256FE4F8591949108
:1018C000E3E3F2E0E491E0935C0961E085E3CCD8E6
:1018D000DFC014BC15BC84B5826084BD85B5816051
:1018E00085BDEDEEF1E0E491F0E0EE0FFF1FE25672
:1018F000FE4F85919491E3E3F2E0E491E093630974
:1019000061E085E3B1D872C01092B0001092B100CE
:101910008091B00082608093B0008091B1008160BE
:101920008093B100EDEEF1E0E491F0E0EE0FFF1FE7
:10193000E256FE4F859194919093610980936009DE
:10194000E3E3F2E0E491E0935F0961E085E38CD8A2
:1019500064C0109290001092910080919100886074
:101960008093910080919100816080939100EDEED1
:10197000F1E0E491F0E0EE0FFF1FE256FE4F85919B
:101980009491E3E3F2E0E491E0935E0961E085E3A2
:101990006BD86CC01092A0001092A1008091A100A1
:1019A00088608093A1008091A10081608093A10054
:1019B000EDEEF1E0E491F0E0EE0FFF1FE256FE4F96
:1019C00085919491E3E3F2E0E491E0935D0961E0B5
:1019D00085E34AD854C0CE2FC7FDC6C061E085E379
:1019E00043D8CC2319F0C23001F517C085B5887FE4
:1019F000846085BD8EE487BD8FEF9FEFDC0180930F
:101A0000780990937909A0937A09B0937B09809122
:101A10006E00826080936E00A7C08091B100887FC5
:101A200085608093B1008EE948C0C130E9F48091AF
:101A30008100887F81608093810087EB9FE4909391
:101A40008900809388008FEF9FEFDC0180937409F9
:101A500090937509A0937609B093770980916F00F0
:101A6000826080936F0080C0C33039F48091910010
:101A7000887F81608093910033C0C43039F48091B5
:101A8000A100887F81608093A10041C0C53039F4F6
:101A900080912101887F8160809321014FC0C330F4
:101AA000F9F02CF4C23009F05FC087EB06C0C430F7
:101AB00071F1C53009F442C057C08093B3008FEF75
:101AC0009FEFDC018093700990937109A0937209D4
:101AD000B09373098091700082608093700044C05D
:101AE00087EB9FE490939900809398008FEF9FEF8E
:101AF000DC0180936C0990936D09A0936E09B093FB
:101B00006F09809171008260809371002DC087EB16
:101B10009FE49093A9008093A8008FEF9FEFDC01D2
:101B20008093680990936909A0936A09B0936B093F
:101B30008091720082608093720016C087EB9FE4F0
:101B400090932901809328018FEF9FEFDC01809310
:101B5000640990936509A0936609B0936709809121
:101B60007300826080937300CF9108950F931F9349
:101B70000E94A8056093FC067093FD068093FE0604
:101B80009093FF0684EF96E00E94660197FF1FC0C6
:101B90000E94A8050091FC061091FD062091FE060A
:101BA0003091FF06DC01CB01801B910BA20BB30B24
:101BB0000091F8061091F9062091FA063091FB0683
:101BC00080179107A207B307E8F28FEF9FEF1F91ED
:101BD0000F9108950F931F930E94A8056093990792
:101BE00070939A0780939B0790939C0781E997E0F5
:101BF0000E947A0197FF1FC00E94A80500919907D3
:101C000010919A0720919B0730919C07DC01CB0132
:101C1000801B910BA20BB30B0091950710919607B7
:101C2000209197073091980780179107A207B30773
:101C3000E8F28FEF9FEF1F910F910895FC01A089AB
:101C4000B1898C91A689B78982FD0FC09C91818D45
:101C50008F5F8F73228D821749F0218DDF01A20FD4
:101C6000B11D5D969C93818F08958C910895CF93BB
:101C7000DF93FC0124813581232B71F0FB01DC0112
:101C8000CD91DC9160817181CE010E94C3200097CB
:101C900019F08C1B9D0B02C08FEF9FEFDF91CF914E
:101CA0000895EF92FF920F931F93CF93DF936115E7
:101CB000710511F480E01BC041155105B9F07B019D
:101CC000EC018C819D818A01080F191FB801CE019A
:101CD0006FDD882379F3288139818C819D81B7015B
:101CE000820F931F0E94BC201D830C8381E0DF9133
:101CF000CF911F910F91FF90EF900895EF92FF9277
:101D00000F931F93CF93DF93CDB7DEB727970FB60F
:101D1000F894DEBF0FBECDBF7C01CB014AE08E013F
:101D20000F5F1F4FB8010E94071EF80101900020AD
:101D3000E9F73197AF01401B510BB801C701B1DF83
:101D400027960FB6F894DEBF0FBECDBFDF91CF91BF
:101D50001F910F91FF90EF900895CF93DF931F9203
:101D60001F92CDB7DEB769831A8241E050E0BE0111
:101D70006F5F7F4F96DF0F900F90DF91CF910895A7
:101D80006115710549F0FB0101900020E9F73197D9
:101D9000AF01461B570B85CF80E008950F931F932B
:101DA000CF93DF938C01EB01FC018081918100973F
:101DB00039F06881798161157105A1F40E94321FA3
:101DC00088819981F801918380838A819B819383A3
:101DD00082838C819D8195838483198218821B82E2
:101DE0001A820FC0F801428153812C813D81421734
:101DF000530720F30E94BC208C819D81F8019583BC
:101E000084831D821C82DF91CF911F910F910895D1
:101E1000CF93DF93EC0188819981009711F00E94A4
:101E2000321F198218821D821C821B821A82DF9146
:101E3000CF910895CF93DF93EC0160DF811102C051
:101E4000CE01E6DFCE01DF91CF910895CF93DF93EE
:101E5000EC016115710559F0FB0101900020E9F7D3
:101E60003197AF01461B570B1CDF811102C0CE0119
:101E7000CFDFCE01DF91CF910895CF93DF93EC01B7
:101E8000FB0144815581608171810BDF811102C0AA
:101E9000CE01BEDFCE01DF91CF910895EF92FF9288
:101EA0000F931F93CF93DF93EC017B018A01BA015B
:101EB0007FDC811103C0CE01ABDF07C01D830C8323
:101EC000B701888199810E94BC20CE01DF91CF911A
:101ED0001F910F91FF90EF900895CF93DF93EC0146
:101EE0006115710551F0FB0101900020E9F7319770
:101EF000AF01461B570BD2DF01C08ADFCE01DF9155
:101F0000CF910895FC01808191810C94321FFB01D7
:101F1000DC0111961C921E9213961C921E9212972F
:101F200015961C921E9214978617970741F06081B0
:101F300071816115710519F044815581AFCF089504
:101F4000FC011182108213821282158214826115A3
:101F5000710549F0FB0101900020E9F73197AF01CD
:101F6000461B570B9BCF0895BF92CF92DF92EF9203
:101F7000FF920F931F93CF93DF937C016B018A0134
:101F8000E9012417350720F4812F8901C42FD82FA8
:101F90006CE975E0C701D4DFD60114968D919C9150
:101FA000159708171907C0F48C179D0708F4EC0162
:101FB000D601ED91FC911197EC0FFD1FB0801082BE
:101FC0006D917C91600F711FC70187DFD601ED9184
:101FD000FC91EC0FFD1FB082C701DF91CF911F91E3
:101FE0000F91FF90EF90DF90CF90BF900895909168
:101FF000070289133DC0E4E4F2E0E4919FEF90937F
:102000000702E230C9F050F4EE2399F0E13081F597
:1020100090916F009D7F90936F002AC0E43019F17A
:10202000E0F0E53029F5909173009D7F9093730067
:102030001FC010926E001CC0909170009D7F909305
:10204000700091E09093B0009091B100987F9460FF
:102050009093B1001092B3000BC0909171009D7FDE
:102060009093710005C0909172009D7F90937200D3
:1020700060E00C94B6041F920F920FB60F921124D9
:102080000BB60F922F933F934F935F936F937F9372
:102090008F939F93AF93BF93EF93FF9380917009BA
:1020A00090917109A0917209B0917309892B8A2BC3
:1020B0008B2B51F190915F09E0916009F0916109DA
:1020C0008081892780838091700990917109A09106
:1020D0007209B0917309181619061A061B06BCF48A
:1020E0008091700990917109A0917209B091730962
:1020F0000197A109B1098093700990937109A09388
:102100007209B093730903C08091070270DFFF91D9
:10211000EF91BF91AF919F918F917F916F915F915F
:102120004F913F912F910F900BBE0F900FBE0F90CC
:102130001F9018956115710579F0FB010190002041
:10214000E9F73197AF01461B570BDC01ED91FC918C
:102150000280F381E02D199480E090E00895CF9300
:10216000DF93BC018EE298E0E5DFEC016AE775E001
:102170008EE298E0DFDF8C0F9D1FDF91CF910895F5
:10218000CF93DF93682F8EE298E00E94DA01EC0192
:102190006AE775E08EE298E0CDDF8C0F9D1FDF913E
:1021A000CF9108958F929F92AF92BF92EF92FF923C
:1021B0000F931F93CF93DF93CDB7DEB7A1970FB6E1
:1021C000F894DEBF0FBECDBF7C01FA01CB0119A28E
:1021D000223008F42AE08E010F5D1F4F822E912CD1
:1021E000A12CB12CBF01A50194010E94301EF90160
:1021F000CA01015011096A3014F4605D01C0695CC4
:10220000D8016C93232B242B252B61F7B801C70130
:1022100091DFA1960FB6F894DEBF0FBECDBFDF9160
:10222000CF911F910F91FF90EF90BF90AF909F9033
:102230008F900895CF93DF93CDB7DEB7CF5AD109F2
:102240000FB6F894DEBF0FBECDBF789484B5826020
:1022500084BD84B5816084BD85B5826085BD85B54A
:10226000816085BD80916E00816080936E001092C8
:102270008100809181008260809381008091810043
:1022800081608093810080918000816080938000D4
:102290008091B10084608093B1008091B000816032
:1022A0008093B00080919100826080939100809132
:1022B0009100816080939100809190008160809373
:1022C00090008091A10082608093A1008091A10084
:1022D00081608093A1008091A00081608093A00024
:1022E0008091210182608093210180912101816090
:1022F0008093210180912001816080932001809151
:102300007A00846080937A0080917A008260809362
:102310007A0080917A00816080937A0080917A00BF
:10232000806880937A001092C10010920F09109279
:10233000100910921109109212091092CD081092F2
:10234000CE081092CF081092D0080E94A8056B0109
:102350007C014B015C0188EB880E8BE0981EA11C70
:10236000B11C0E94A8056C157D058E059F0528F0FF
:1023700086169706A806B906A0F78EE298E0909315
:102380000E0980930D090E944E090E94A8056093D2
:10239000CD087093CE088093CF089093D00868E35F
:1023A00072E080910D0990910E09C4DE0E94A8058B
:1023B0006B017C014B015C019AE0890E911CA11C10
:1023C000B11C0E94A8056C157D058E059F0528F09F
:1023D00086169706A806B906A0F781E08093E10863
:1023E00061E081E30E94340561E08FE10E943405E1
:1023F00061E083E30E94340560E08FE10E94B6044F
:1024000060E081E30E94B60460E083E30E94B604CA
:102410008EE298E00E944E0981E997E00E944E0901
:1024200084EF96E00E944E0910922E0910922D0919
:1024300010922C0910922B0910922A091092290946
:102440008DE991E09093300980932F0980911F09C5
:1024500096EF980F943048F02EEC280F243028F097
:1024600022EC280F283008F074C02DEB30E03093B8
:102470002A09209329092BE931E030932C09209374
:102480002B092CE231E030932E0920932D09943052
:1024900070F02EEC280F243050F022EC280F28305A
:1024A00010F00C94E21BA8E6B0E00C94E41BA8E644
:1024B000B0E0E8E6F0E02081943048F09EEC980F20
:1024C000943028F08E53883010F484E001C081E00D
:1024D000822B8C9380911F0996EF980F943058F0BF
:1024E0002EEC280F243038F022EC280F283030F062
:1024F00020E030E005C02BE630E002C02DE630E001
:102500003093270920932609943010F49AEF0BC0DA
:10251000823381F0833381F0843381F092EC980F21
:10252000983070F492EC980F81E001C0880F9A9572
:10253000EAF707C088E005C084E003C082E001C07C
:1025400081E08093280980912F09909130090197AB
:10255000F1F780912D0990912E09892B49F1E09195
:10256000F805F091F90589E0E331F80709F13097B2
:1025700039F0A389B4899C918589809589238C93AE
:10258000809131098E7F809331091092F705109266
:10259000F60583E199E09093F9058093F805E091C1
:1025A0002609F0912709908180912809892B808341
:1025B00068EE73E080E090E00E9470056AE472E0EB
:1025C000CE0183599F4FBCDC00E028EB3BE040E0AC
:1025D00050E0BE0163597F4FFE0131967F01CF016C
:1025E0001AD8C7018FDCCE0183599F4F8BDC63E57E
:1025F00072E0CE0183599F4FA3DC20ED37E040E02D
:1026000050E0BE0163597F4FC70105D8C7017ADC8E
:10261000CE0183599F4F76DC68E572E0CE01835985
:102620009F4F8EDC20ED37E040E050E0BE01635963
:102630007F4FC7010E940B0BC70164DCCE01835999
:102640009F4F60DC66E672E0CE0183599F4F78DCD5
:1026500020ED37E040E050E0BE0163597F4FC701F5
:102660000E940B0BC7014EDCCE0183599F4F4ADC01
:1026700064E772E0CE0183599F4F62DC20ED37E0C2
:1026800040E050E0BE0163597F4FC7010E940B0B31
:10269000C70138DCCE0183599F4F34DC87E596E0D3
:1026A0000E944E096CE070E088E892E00E94AD075D
:1026B0006AE070E085E992E00E94AD070E947C0626
:1026C00087E596E00E948801892BD1F360ED77E0E1
:1026D00080E090E00E9470056E01F9E0CF0ED11C01
:1026E0008AE0682E94E6492E512C22E1A22E22E0A7
:1026F000B22E87E596E00E948801892B09F456C125
:1027000087E596E00E946601782E8BE7781204C078
:1027100081E08093FA0540C18091FA05882309F48D
:102720003BC19DE7791238C11092FA056DE788E345
:1027300099E013DBDC82CB825E824D8218861F8299
:10274000BA82A9828091380990913909009711F4D1
:102750008CE995E0AF96FFAEEEAEAF97E1969FAFF6
:102760008EAFE197E396FFAEEEAEE397E4966FAEE1
:10277000E497CE0183599F4F0E94DF078C0160EAE6
:1027800072E00E94820669EA72E0C8010E94820635
:1027900090930102809300026EEA72E0C8010E94E9
:1027A000820690930302809302020E947C0662EBF1
:1027B00072E0CE0183599F4FC3DB00E020ED37E08C
:1027C00040E050E0BE0163597F4FC7010E940B0BF0
:1027D000C70198DBCE0183599F4F94DB0091020221
:1027E0001091030280900002909001026DEB72E064
:1027F000CE0183599F4FA4DBBE0163597F4FC701B0
:1028000086DBB401C70122DB68EC72E01FDBB80194
:102810001DDB6CEC72E01ADBBC01CE0186589F4FC9
:1028200076DBC7016FDBCE0183599F4F6BDBBE01A7
:1028300066587F4FCE0183599F4F69DB00E028E83F
:1028400033E140E050E0BE0163597F4FC7010E9471
:102850000B0BC70157DBCE0183599F4F53DB60ED54
:1028600072E0C7016DDB63ED72E0CE018C589F4FC3
:1028700067DB28EB3BE040E050E0BE016C587F4F47
:10288000CE0183599F4F0E940B0BB701CE01835994
:102890009F4FEDD98C01CE0183599F4F33DBCE0181
:1028A0008C589F4F2FDBC7012DDB0F3F1F4F09F4C3
:1028B00068C068E379E081E997E00E94FF0881E958
:1028C00097E00E948801892BD1F368EE73E080E0E5
:1028D00090E00E94700581E997E00E948801892BB1
:1028E00019F181E997E00E946601182F49DC113344
:1028F00091F38FED92E033DC65E073E0CE01835914
:102900009F4F1EDB00E020ED37E040E050E0BE01CD
:1029100063597F4FC7010E940B0BC701F3DACE0149
:1029200083599F4FEFDA2FC065E073E0CE018359E2
:102930009F4F06DB00E020ED37E040E050E0BE01B5
:1029400063597F4FC7010E940B0BC701DBDACE0131
:1029500083599F4FD7DA61E081E30E94B60460E0BB
:1029600083E30E94B6040E94FF0B68EE73E080E0F0
:1029700090E00E94700585E33ADB81E08093FF05DB
:1029800002C00E947C06CE0186589F4FBBDA6CE9DC
:1029900075E088E399E0A1DA8091FA05882309F4CB
:1029A000A8CE672D88E399E0D8D9A3CE60E173E083
:1029B0008EE298E0BFDB8AE499E00E9405096DE1B0
:1029C00073E0CE0183599F4FBBDABE0163597F4F3D
:1029D000C7019DDA69EC72E0C70138DA61E373E0A0
:1029E00035DA6DE373E032DA60E570E023DA6AE746
:1029F00075E02CDABC01CE0184579F4F88DAC701FD
:102A000081DACE0183599F4F7DDA60ED72E0C70114
:102A100097DABE0164577F4FCE018C589F4F77DA0B
:102A200000E028E833E140E050E0BE016C587F4F01
:102A3000CE0183599F4F0E940B0BB701CE018359E2
:102A40009F4F15D98C01CE0183599F4F5BDACE0180
:102A50008C589F4F57DAC70155DA0F3F1F4F31F49B
:102A600084EF96E00E94260210E093C06AE479E0C9
:102A7000C7014DDA60E473E0CE0183599F4F60DAFD
:102A8000B701CE0183599F4FF8D9BC01CE018A57B7
:102A90009F4F3DDACE0183599F4F34DAC70132DAB6
:102AA00065E473E0C7014CDA6EE379E0C701E5D96C
:102AB000BE016A577F4FE1D96AE775E0C7D9BC010B
:102AC000CE0180589F4F23DAC7011CDA6AE473E015
:102AD000CE0180589F4F54D9CC57DF4F08811981C0
:102AE000C458D0406FE573E0CE0186589F4F28DA76
:102AF000BE0166587F4FCE018C589F4F08DAB8014F
:102B0000CE018C589F4F96D96AE775E09FD9BC01DA
:102B1000CE0183599F4FFBD900E028EE33E040E01F
:102B200050E0BE0163597F4FC7010E940B0BC701E4
:102B3000E9D9CE0183599F4FE5D9CE018C589F4FDB
:102B4000E1D9CE0186589F4FDDD9BE0160587F4F35
:102B5000CE0183599F4FDBD928EE33E040E050E0AF
:102B6000BE0163597F4FC7010E940B0BC701CAD931
:102B7000CE0183599F4FC6D984EF96E00E9426026A
:102B8000CE0180589F4FBED9CE018A579F4FBAD9E8
:102B900011E0CE0184579F4FB5D9112319F08DE66E
:102BA00093E002C08DE793E0DADA109256061092B5
:102BB000550680915506909156060397B9F06AE440
:102BC00079E0CE0183599F4FA2D9BE0163597F4F4F
:102BD000C7010E94710AB70184E499E0DFD8C701F8
:102BE00091D9CE0183599F4F8DD9E3CF6CE873E023
:102BF0008EE298E09FDA84E499E00E94050964E49B
:102C000079E081E997E00E94FF088091FF05882321
:102C100009F49AC50E94A8052091FD053091FE0592
:102C2000621B730B6133754708F41FC367E973E0D8
:102C3000CE0186559F4F84D96CE975E0CE018C5545
:102C40009F4F7ED989E993E08ADA60ED72E0C7018F
:102C500077D963ED72E0CE018C589F4F71D900E0B7
:102C600028EB3BE040E050E0BE016C587F4FCE01C6
:102C700083599F4F0E940B0BB701CE0183599F4F81
:102C80000E94370E8C01CE0183599F4F3BD9CE0154
:102C90008C589F4F37D9C70135D90F3F1F4F21F0AF
:102CA00085EB93E05CDAD1C285EC93E058DA1092C0
:102CB000FF0560914A0970914B096115710549F052
:102CC00040914E0950914F09CE0186559F4FE6D84D
:102CD00004C0CE0186559F4F9BD862EB72E0CE01B7
:102CE00083599F4F2DD900E020ED37E040E050E0C0
:102CF000BE0163597F4FC7010E940B0BC70102D968
:102D0000CE0183599F4FFED8009102021091030219
:102D1000C0900002D09001026DEB72E0CE018359A9
:102D20009F4F0ED9BE0163597F4FC701F0D8B6013E
:102D3000C7018CD868EC72E089D8B80187D86CECF0
:102D400072E084D8BC01CE0182569F4FE0D8C70103
:102D5000D9D8CE0183599F4FD5D8BE0162567F4F37
:102D6000CE0183599F4FD3D800E028E833E140E0FB
:102D700050E0BE0163597F4FC7010E940B0BC70192
:102D8000C1D8CE0183599F4FBDD860ED72E0C70115
:102D9000D7D863ED72E0CE018C589F4FD1D828EB85
:102DA0003BE040E050E0BE016C587F4FCE018359BC
:102DB0009F4F0E940B0BB701CE0183599F4F0E947A
:102DC000370E8C01CE0183599F4F9CD8CE018C5871
:102DD0009F4F98D8C70196D80F3F1F4F09F42CC2B8
:102DE00085EB93E0BCD96FE070E081E997E00E9449
:102DF000160981E997E00E948801892BD1F368EEDA
:102E000073E080E090E00E94700581E997E00E9405
:102E10008801892B09F452C00E94EA0DFC0197FD3C
:102E20000DC08D32910509F492C4C0970A9708F439
:102E30008EC481E997E00E946601EECF812C912C2F
:102E400054018A948928D1F568E379E081E997E013
:102E50000E94FF0881E997E00E948801892BD1F345
:102E600068EE73E080E090E00E94700510E381E975
:102E700097E00E948801892B39F081E997E00E9450
:102E80006601182F7DD9F3CF1133A9F461E081E3F6
:102E90000E94B60460E083E30E94B6040E94FF0B28
:102EA00068EE73E080E090E00E94700585E39FD8B3
:102EB00083EE93E002C08FED92E051D965E073E0BC
:102EC000CE0183599F4F3CD800E020ED37E040E031
:102ED00050E0BE0163597F4FC7010E940B0BC70131
:102EE00011D8CE0183599F4F0DD8C255DF4F28818D
:102EF0003981CE5AD04080914E0990914F092817C0
:102F0000390759F5C655DF4F88819981CA5AD04093
:102F100060914A0970914B09009719F0611571058C
:102F2000B9F46115710551F0232B09F471C1FB014E
:102F3000808190E09195819591090CC0009709F4EA
:102F400067C1232B09F464C1FC01808190E002C0B9
:102F50000E94B320892B09F45BC16AE479E0CE01B9
:102F60008E569F4F0E94870FBE0166557F4FCE0140
:102F700088569F4F0E94870F61E074E0C7010E944E
:102F8000A00FB701CE0183599F4F0E94870F69ECB4
:102F900072E0CE0183599F4F0E94260F61E373E0D8
:102FA0000E94260F6DE373E00E94260F60E570E03B
:102FB0000E941A0F6AE775E00E94260FBC01CE013D
:102FC00084579F4F0E94870FCE0183599F4F0E94C5
:102FD000820FC7010E94820F60ED72E0CE018C5813
:102FE0009F4F0E94A00FBE0164577F4FC7010E94F0
:102FF000870F00E028E833E140E050E0B701CE0160
:1030000083599F4F0E940B0BBE016C587F4FCE011E
:1030100083599F4F0E94370E8C01CE0183599F4FD9
:103020000E94820FC7010E94820FCE018C589F4FD1
:103030000E94820F0F3F1F4F29F484EF96E00E94F9
:103040002602B5C0BE016E567F4FCE018C589F4FF1
:103050000E94870FBE0168567F4FCE0183599F4F54
:103060000E94870F63E174E0C7010E94A00FBE01B8
:1030700063597F4FC7010E943D0F67E174E00E94D2
:10308000260FBE016C587F4F0E943D0FBC01CE0140
:103090008A579F4F0E94870FC7010E94820FCE015F
:1030A00083599F4F0E94820FCE018C589F4F0E94E0
:1030B000820F6BE174E0C7010E94A00FBE016A5746
:1030C0007F4FC7010E943D0F6AE775E00E94260FFF
:1030D000BC01CE0180589F4F0E94870FC7010E94FC
:1030E000820FCC57DF4F08811981C458D0406FE55B
:1030F00073E0C7010E94A00FB701CE0183599F4F13
:103100000E94870FB801CE0183599F4F0E941A0F6A
:103110006AE775E00E94260FBC01CE018C589F4FD4
:103120000E94870F00E028EE33E040E050E0BE014F
:103130006C587F4FCE0186589F4F0E940B0BCE01DB
:1031400086589F4F0E94820FCE018C589F4F0E943D
:10315000820FCE0183599F4F0E94820FC7010E94A8
:10316000820FBE0160587F4FC7010E94870F28EE73
:1031700033E040E050E0B701CE0183599F4F0E94F9
:103180000B0BCE0183599F4F0E94820FC7010E94F3
:10319000820F84EF96E00E942602CE0180589F4F56
:1031A0000E94820FCE018A579F4F0E94820FCE014C
:1031B00084579F4F0E94820FCE0188569F4F0E94D6
:1031C000820FCE018E569F4F0E94820F8BE294E0B9
:1031D0000E94AF1010925606109255066AE479E0EC
:1031E000CE0183599F4F0E94870FBE0163597F4FC5
:1031F000C7010E94710AB70184E499E00E94CE0ED3
:10320000C7010E94820FCE0183599F4F0E94820FF7
:1032100081E08093FF056CE873E08EE298E00E9405
:103220009A1084E499E00E94050964E479E081E958
:1032300097E00E94FF0804C086E494E00E94AF106B
:10324000CE0182569F4F0E94820FCE018C559F4F18
:103250000E94820FCE0186559F4F0E94820F0E94CE
:10326000A8057093FE056093FD0584EF96E00E942B
:10327000260284EF96E00E948801892B09F464C23B
:103280006CE975E0CE018E569F4F0E94A00F0E9400
:10329000B60D97FD0AC08A30910539F0682FCE012E
:1032A0008E569F4F0E94AD0EF2CF66E574E0C701C7
:1032B0000E94A00FBE016E567F4FC7010E943D0FB6
:1032C0000E940509C7010E94820FCA56DF4F48813C
:1032D0005981C659D040CE56DF4F68817981C25995
:1032E000D04082E399E00E94510ECA56DF4F888198
:1032F0009981C659D040892B09F421C2CE56DF4F9F
:10330000E881F981C259D040309709F418C2808110
:103310008D3009F014C28091FB059091FC05019657
:103320009093FC058093FB05029709F008C2109268
:10333000FC051092FB056EE574E0C7010E94A00F2A
:10334000B70182E399E00E94370E05962091360975
:10335000309137098217930760F420913209309138
:1033600033092115310529F0F901E80FF91F008112
:1033700001C000E0002E000C110B00531109C70121
:103380000E94820FA80160E070E02AE08EE298E0DF
:103390000E94D2106AE775E08EE298E00E949A10CF
:1033A00064E674E0C7010E94A00FB70182E399E0D0
:1033B0000E94370E6C01C7010E94820F20913609CE
:1033C00030913709A6014C5F5F4F62E379E0CE018F
:1033D00084579F4F0E94B40FC457DF4F8881998153
:1033E000CC58D040009721F0CDD34B015C0103C0F5
:1033F000812C912C5401AF961FAE1EAEAF97E19673
:103400001FAE1EAEE197E3961FAE1EAEE3974AE0F5
:10341000B701C401DDD3B701CE0183599F4F0E948C
:103420006D0F69E674E0C7010E94A00FBE016359E9
:103430007F4FC7010E943D0FBC01CE018C589F4FAA
:103440000E94870FCE018C589F4F0E940509CE0124
:103450008C589F4F0E94820FC7010E94820FCE019D
:1034600083599F4F0E94820F6CE975E0CE018A5705
:103470009F4F0E94A00F092C000CAA08BB08F40162
:103480003297EE30F10508F094C08827EE58FF4FD0
:103490008F4F34C463E774E0CE018A579F4F0E9478
:1034A0006D0F61E082E090E00E94CE0A81E080939F
:1034B00004028093050284C060E874E0CE018A575C
:1034C0009F4F0E946D0F60E083E090E00E94CE0A63
:1034D000109204021092050273C0809104028111BF
:1034E0000AC06FE874E0CE018A579F4F0E946D0FAB
:1034F00084E090E05BC086E994E01EC08091040205
:103500008111F9CF6EEA74E0CE018A579F4F0E9475
:103510006D0F85E090E04AC08091050281110AC0DC
:1035200066EB74E0CE018A579F4F0E946D0F88E0D2
:1035300090E03CC08DEB94E00E94AF1041C08091C0
:1035400005028111F7CF65ED74E0CE018A579F4FD8
:103550000E946D0F89E090E029C06DED74E0CE010E
:103560008A579F4F0E946D0F61E08FE10E94B60461
:103570006AE070E00DC065EE74E0CE018A579F4F9F
:103580000E946D0F60E08FE10E94B6046BE070E076
:1035900081E997E00E94160913C06EEE74E0CE0137
:1035A0008A579F4F0E946D0F8FE090E00E9499080C
:1035B00007C06AEF74E0CE018A579F4F0E946D0FDB
:1035C0006CE975E082E399E00E946D0F6EEF74E0A4
:1035D000CE0180589F4F0E94A00F60E175E0CE01A0
:1035E00080589F4F0E94C00E67E375E0CE0180585F
:1035F0009F4F0E94C00EC657DF4F68817981CA581D
:10360000D040CE0180589F4F0E947E0E6AE775E041
:10361000CE0180589F4F0E94C00E67E475E0CE0136
:1036200080589F4F0E94C00E67E675E0CE0180581B
:103630009F4F0E94C00EC657DF4F48815981CA581C
:10364000D040CA57DF4F68817981C658D040CE013B
:1036500080589F4F0E94510ECC57DF4FC880D980B1
:10366000C458D0406DE775E0C7010E94A00FB701B4
:10367000CE0183599F4F0E94870FB801CE01835915
:103680009F4F0E941A0F6EE373E00E94260FB6014F
:103690000E941A0F6AE775E00E94260FBC01CE0156
:1036A0008C589F4F0E94870F00E028EB3BE040E0E2
:1036B00050E0BE016C587F4FCE0186589F4F0E944C
:1036C0000B0BCE0186589F4F0E94820FCE018C5863
:1036D0009F4F0E94820FCE0183599F4F0E94820FFD
:1036E000C7010E94820FBE0160587F4FC7010E9430
:1036F000870F01E028EE33E040E050E0B701CE0153
:1037000083599F4F0E940B0BCE0183599F4F0E94FC
:10371000820FC7010E94820F84EF96E00E9426026A
:10372000CE0180589F4F0E94820FCE018A579F4F33
:103730000E94820FCE0184579F4F0E94820FCE01BC
:103740008E569F4F0E94820F0E9447025ECA812CB4
:10375000912C540110E0E130F105D9F0ED32F10582
:10376000B9F0CF01C0970A97A0F4AAE0B0E0A50194
:10377000940198D24F01FF0FAA08BB08860E971E2E
:10378000A81EB91EF0E38F1A9108A108B10801C064
:1037900011E081E997E00E9466010E94EA0DFC01B8
:1037A000C0970A97C0F2E130F105A9F2112309F49C
:1037B00048CBB094A09490948094811C911CA11C3F
:1037C000B11C3FCBA0E0B0E0283010F40C945912AB
:1037D000E0E0F0E00C945B128AE292E0909314092E
:1037E000809313098091F8059091F90583519940D0
:1037F00071F4E0912609F0912709908180912809C0
:103800008095892380831092F9051092F80582E350
:1038100099E00E94820F88E399E00E94820F8EE374
:1038200099E00E94820F84E499E00E94820F8AE46A
:1038300099E00C94820FCF92DF92EF92FF92109258
:103840005A061092590698EEC92E93E0D92EE12C13
:10385000F12CC0925B06D0925C06E0925D06F0927D
:103860005E0688E192E0909358068093570625E320
:1038700031E0309364062093630624E331E0309313
:1038800066062093650620E331E0309368062093B6
:10389000670621E331E030936A062093690622E34C
:1038A00031E030936C0620936B0626E331E03093D1
:1038B0006E0620936D06109270061092710610929B
:1038C0007206109273061092F7061092F606C092D6
:1038D000F806D092F906E092FA06F092FB06909371
:1038E000F5068093F40625ED30E030930107209330
:1038F000000724ED30E0309303072093020720ED0A
:1039000030E0309305072093040721ED30E0309339
:1039100007072093060722ED30E030930907209334
:10392000080726ED30E030930B0720930A0710922A
:103930000D0710920E0710920F07109210071092A9
:10394000940710929307C0929507D0929607E09241
:103950009707F092980790939207809391072DEC28
:1039600030E030939E0720939D072CEC30E030939D
:10397000A00720939F0728EC30E03093A207209304
:10398000A10729EC30E03093A4072093A3072AEC89
:1039900030E03093A6072093A5072EEC30E030935B
:1039A000A8072093A7071092AA071092AB071092BE
:1039B000AC071092AD071092310810923008C092F7
:1039C0003208D0923308E0923408F0923508909390
:1039D0002F0880932E0885EC90E090933B0880930D
:1039E0003A0884EC90E090933D0880933C0880EC8A
:1039F00090E090933F0880933E0881EC90E0909394
:103A000041088093400882EC90E0909343088093B3
:103A1000420886EC90E09093450880934408109209
:103A20004708109248081092490810924A081092CC
:103A3000D1081092D2081092D3081092D408109294
:103A4000D5081092D6081092D7081092D808109274
:103A5000D9081092DA081092DB081092DC08109254
:103A6000DD081092DE081092DF081092E0086CE981
:103A700075E08AE499E00E94A00F69EB75E084E4A8
:103A800099E00E94A00F6EEB75E08EE399E00E9432
:103A9000A00F6CE975E088E399E00E94A00F6CE943
:103AA00075E082E399E00E94A00F1092160910922F
:103AB0001509C0921709D0921809E0921909F092DD
:103AC0001A098AE292E090931409809313091092E4
:103AD0002A091092290910922C0910922B09109290
:103AE0002E0910922D091092300910922F09609121
:103AF00031096E7F6D7F609331096695617081E059
:103B000068278AE00E94B60461E08AE00E943405DA
:103B1000E8E0F2E0E491E0932309E2ECF1E0E491E3
:103B2000F0E0EE0FFF1FE256FE4F859194919093C7
:103B300025098093240960E08BE00E943405809180
:103B4000310981FD04C061E08BE00E94B6048BE086
:103B500080931F09E9E0F2E0E491E0932009E3ECAF
:103B6000F1E0E491F0E0EE0FFF1FEC57FE4F85917E
:103B700094919093220980932109FF90EF90DF9018
:103B8000CF9008951F93FC0199278827BC01E894E2
:103B900011911032E9F3193010F01E30C8F31B32C6
:103BA00049F01D3241F4689405C01CD0610F711DAD
:103BB000811D911D119110531A30B8F33EF4909568
:103BC0008095709561957F4F8F4F9F4F1F910895FE
:103BD000BB274A3031F4992322F4BDE290958195B8
:103BE0009F4F16C0592F482F372F262F660F771F4C
:103BF000881F991F660F771F881F991F620F731FF9
:103C0000841F951F660F771F881F991F0895BB2774
:103C1000FB015527AA27880F991FAA1FA41710F088
:103C2000A41B83955051B9F7A05DAA3308F0A95D94
:103C3000A193009779F7B111B1931192CB0100C014
:103C4000DC01FC01672F71917723E1F7329704C003
:103C50007C916D9370836291AE17BF07C8F308958E
:103C6000A1E21A2EAA1BBB1BFD010DC0AA1FBB1F80
:103C7000EE1FFF1FA217B307E407F50720F0A21BF2
:103C8000B30BE40BF50B661F771F881F991F1A945F
:103C900069F760957095809590959B01AC01BD0189
:103CA000CF01089509D0A59F900DB49F900DA49FBA
:103CB000800D911D11240895A29FB001B39FC001F2
:103CC000A39F700D811D1124911DB29F700D811D48
:103CD0001124911D089597FB072E16F4009406D029
:103CE00077FD08D013D007FC05D03EF49095819560
:103CF0009F4F0895709561957F4F0895EE0FFF1FB8
:103D0000881F8BBF0790F691E02D1994AA1BBB1B4F
:103D100051E107C0AA1FBB1FA617B70710F0A61BCB
:103D2000B70B881F991F5A95A9F780959095BC01EC
:103D3000CD0108950F931F93CF93DF9382309105A8
:103D400010F482E090E0E0917E09F0917F0920E09C
:103D500030E0A0E0B0E0309719F14081518102815C
:103D6000138148175907C8F08417950769F410970D
:103D700031F012960C93129713961C9327C0009360
:103D80007E0910937F0922C02115310519F04217D1
:103D9000530718F49A01BD01EF01DF01F801DBCFF1
:103DA00021153105F9F0281B390B2430310580F439
:103DB0008A819B816115710521F0FB0193838283C8
:103DC00004C090937F0980937E09FE01329644C01F
:103DD000FE01E20FF31F8193919322503109398341
:103DE00028833AC020917C0930917D09232B41F42E
:103DF00020910A0230910B0230937D0920937C09B7
:103E000020910802309109022115310541F42DB7A6
:103E10003EB740910C0250910D02241B350BE091EE
:103E20007C09F0917D09E217F307A0F42E1B3F0BEC
:103E30002817390778F0AC014E5F5F4F241735071C
:103E400048F04E0F5F1F50937D0940937C0981938A
:103E5000919302C0E0E0F0E0CF01DF91CF911F919C
:103E60000F910895CF93DF93009709F481C0FC016F
:103E7000329713821282A0917E09B0917F09109728
:103E800081F420813181820F931F20917C09309130
:103E90007D092817390751F5F0937D09E0937C09D6
:103EA00067C0ED0120E030E0CE17DF0740F44A8123
:103EB0005B819E0141155105F1F0EA01F5CFD383F5
:103EC000C28340815181840F951FC817D90759F4C7
:103ED00088819981840F951F0296918380838A81BE
:103EE0009B81938382832115310529F4F0937F0907
:103EF000E0937E093DC0E901FB83EA834991599132
:103F0000C40FD51FEC17FD0761F480819181840FE8
:103F1000951F0296E90199838883828193819B830F
:103F20008A83E0E0F0E012968D919C9113970097C0
:103F300019F0FD01DC01F7CF8D919C9111979D0146
:103F40002E5F3F4F820F931F20917C0930917D0996
:103F50002817390769F4309729F410927F091092D5
:103F60007E0902C013821282B0937D09A0937C095E
:103F7000DF91CF9108956F927F928F929F92AF922F
:103F8000BF92CF92DF92EF92FF920F931F93CF9346
:103F9000DF93009781F4CB01DF91CF911F910F91B7
:103FA000FF90EF90DF90CF90BF90AF909F908F9059
:103FB0007F906F90BFCEFC01E60FF71F9C0122504F
:103FC0003109E217F30708F4A5C0EC01D9010D91FE
:103FD0001C91119706171707A8F00530110508F472
:103FE00097C0C80104978617970708F491C002503C
:103FF0001109061B170B019311936D937C93CF014D
:1040000031DF86C05B01A01AB10A4C01800E911EFF
:10401000A0917E09B0917F09612C712CE12CF12CCB
:10402000109709F446C08D919C911197A815B90578
:10403000B1F56C0142E0C40ED11CCA14DB0478F166
:104040004C018A189B08640142E0C40ED11C1296F0
:10405000BC9012971396AC91B5E0CB16D10440F00A
:10406000B282A38391828082D9016D937C9309C02F
:104070000E5F1F4F800F911FF90191838083EB2DFD
:10408000FA2FE114F10431F0D7011396FC93EE936B
:1040900012973EC0F0937F09E0937E0939C06816FD
:1040A000790608F43C017D0112960D90BC91A02D7B
:1040B000B7CF80917C0990917D0988169906E1F42B
:1040C00066167706C8F4809108029091090200975D
:1040D00041F48DB79EB740910C0250910D02841BA4
:1040E000950BE817F907B0F4F0937D09E0937C098C
:1040F000F901718360830CC0CB011CDE7C01009749
:1041000049F0A801BE011BD0CE01ACDEC70104C03E
:10411000CE0102C080E090E0DF91CF911F910F911E
:10412000FF90EF90DF90CF90BF90AF909F908F90D7
:104130007F906F90089581E090E0F8943EC0FB017D
:10414000DC0102C001900D9241505040D8F7089513
:10415000FC018191861721F08823D9F799270895CA
:104160003197CF010895FB01DC018D9101908019F9
:104170000110D9F3990B0895FB01DC0101900D9218
:104180000020E1F70895FB0151915523A9F0BF01EB
:10419000DC014D9145174111E1F759F4CD01019032
:1041A000002049F04D9140154111C9F3FB01411127
:1041B000EFCF81E090E00197089511E0C4E2D1E0F3
:1041C00000E005C0802FFE0199DD2196011DC5325A
:0C41D000D10780E00807B1F7F894FFCF9A
:1041DC009C059C05010101FF000080098000000086
:1041EC000000390300000000DA01AE0B5701260273
:1041FC00880166017A0100000000AE02AE0B3603A6
:10420C00AD02FE0215039502564D4450565F317CAB
:10421C00315F564D4450560D0A0041542B525354A5
:10422C000D0A0041540D0A0041542B43574D4F4485
:10423C00453D310D0A0041542B4349504D55583DD5
:10424C00310D0A0041542B434950534552564552A7
:10425C003D312C38300D0A0041542B4E414D4570E8
:10426C006C616E740041542B50494E323031340025
:10427C00757365724E616D6500737369640070735C
:10428C00770041542B43575141500D0A0041542B98
:10429C0043574A41503D2200222C2200220D0A0095
:1042AC004F4B0041542B43574A41503F0D0A00736A
:1042BC006C61766520626F617264206E6F7420632E
:1042CC006F6E6E656374656420746F206E657477B1
:1042DC006F726B2E0041542B43494653520D0A000A
:1042EC00646576696365204950203A200041542B5F
:1042FC0043495053544152543D302C225443502284
:10430C00003139322E3136382E342E3100222C0029
:10431C003F69703D004745542000436F6E6E6563E6
:10432C0074696F6E3A636C6F73650D0A0D0A004108
:10433C00542B43495053454E443D302C004950209A
:10434C00ECA084EC86A1EC9984EBA38C004950EC96
:10435C00A084EC86A1EC8BA4ED8CA80053462043E2
:10436C006F6465203A20003000436865636B696EAA
:10437C0067207769666920636F6E6E656374696F19
:10438C00696E2E2E007769666920636F6E6E6563A9
:10439C007465642E007769666920646973636F6E57
:1043AC006E65637465642E207265636F6E6E6563F3
:1043BC00742E00536C61766520626F6172642063A9
:1043CC006F6E6E65637420636F6D706C6574652EB3
:1043DC000041542B43495053544152543D225443B1
:1043EC005022003F623D0026613D00474554202F7E
:1043FC006368616E67652E70687000EC8388EBA152
:10440C009CEC9AB420495020ECA084EC86A120ECC2
:10441C008BA4ED8CA800436F6E6E656374696F6E30
:10442C00206661696C0044454255473A20002B498F
:10443C0050442C00636D643D00636D6420697320EF
:10444C003A20006C65645F66616E5F6175746F0025
:10445C006C65645F66616E5F6D616E75616C006C3E
:10446C0065645F6F6E004C6564206D6F64652069D8
:10447C0073206E6F74206D616E75616C2E006C65AF
:10448C00645F6F66660066616E5F6F6E0066616E7C
:10449C00206D6F6465206973206E6F74206D616E82
:1044AC0075616C2E0066616E5F6F66660070756D6F
:1044BC00705F6F6E0070756D705F6F66660074650F
:1044CC0073745F627574746F6E0065727200485419
:1044DC0054502F312E3120323030204F4B0D0A00EA
:1044EC00436F6E74656E742D547970653A7465788B
:1044FC00742F68746D6C3B636861727365743D55A1
:10450C0054462D380D0A00436F6E74656E742D4C35
:10451C00656E6774683A004163636573732D436F0E
:10452C006E74726F6C2D416C6C6F772D4F72696766
:10453C00696E3A2A0D0A00436F6E6E656374696F7B
:10454C006E3A20636C6F73650D0A0D0A0041542B93
:10455C0043495053454E443D006E756C6C0022220D
:10456C005C5C6208660C6E0A720D740900726571EF
:10457C007565737420746F20636F6E74726F6C202A
:10458C00626F617264203A20006E6F6E65002F6955
:10459C006E6465782E7068700072657175657374E1
:1045AC0020746F20736C617665203A2000313932AB
:1045BC002E00697020696478203A20006F6B5F6967
:0645CC006478203A200093
:00000001FF
