:1000000012C2000041C200003FC200003DC2000019
:100010003BC2000039C2000037C2000035C20000F8
:1000200033C200008DC300008BC3000089C30000F1
:100030002BC2000029C2000027C2000025C2000018
:1000400023C2000021C200001FC200001DC2000028
:100050001BC2000019C2000017C2000027C3000025
:1000600013C200000C9461100C9438100DC20000F3
:100070000BC2000009C2000007C2000005C2000058
:1000800003C2000001C20000FFC10000FDC100006A
:100090000C940F100C94E60FF7C10000F5C100009E
:1000A000F3C10000F1C10000EFC10000EDC100008C
:1000B000EBC10000E9C10000E7C10000E5C100009C
:1000C000E3C10000E1C10000DFC100000C94BD0FDE
:1000D0000C94940FD9C100000C946B0F0C94420F38
:1000E000D3C10000B910BC10AB10AF10B310F310A7
:1000F000C010C410CA10CE10D210D810DC10E010FE
:10010000F310E610EA10EE1000407A10F35A00A047
:10011000724E18090010A5D4E80000E876481700D0
:1001200000E40B54020000CA9A3B000000E1F50510
:10013000000080969800000040420F000000A0865A
:1001400001000000102700000000E803000000008C
:100150006400000000000A00000000000100000030
:1001600000002C76D888DC674F0823DFC1DFAE594A
:10017000E1B1B796E5E3E453C63AE651997696E8DD
:10018000E6C28426EB898C9B62ED407C6FFCEFBC61
:100190009C9F40F2BAA56FA5F490055A2AF75C938C
:1001A0006B6CF9676DC11BFCE0E40D47FEF520E6C2
:1001B000B500D0ED902E0300943577050080841EA5
:1001C000080000204E0A000000C80C333333330F00
:1001D000986E12831141EF8D2114893BE65516CF9D
:1001E000FEE6DB18D1844B381BF77C1D901DA4BBA9
:1001F000E424203284725E228100C9F124ECA1E55E
:100200003D27005EBCE2613FDD83C29C7E20A3FDF2
:100210001F419DC3217FFCA2401E5F01E3BD3E60E4
:1002200082DC237D9FC1421CFEA0E1BF5D0380DE16
:100230003C62BEE0025CDF81633D7C22C09E1D43C8
:10024000A1FF4618FAA427799BC584DA3866E5BB76
:100250005907DB856739BAE406581947A5FB7826A4
:10026000C49A653BD987045AB8E6A7F91B45C698D6
:100270007A24F8A6441A99C7257B3A6486D85B0588
:10028000E7B98CD2306EEDB3510F4E10F2AC2F7136
:1002900093CD114FADF3702ECC92D38D6F31B2EC64
:1002A0000E50AFF1134DCE90722C6D33D18F0C5296
:1002B000B0EE326C8ED0530DEFB1F0AE4C1291CF48
:1002C0002D73CA947628ABF517490856B4EA6937F6
:1002D000D58B5709EBB536688AD495CB2977F4AA24
:1002E0004816E9B7550B88D6346A2B7597C94A1456
:1002F000F6A8742AC896154BA9F7B6E80A54D78908
:100300006B3500002100240027002A002D0030005A
:10031000330001010000040107010A01000022006E
:10032000250028002B002E003100340002010000BF
:10033000050108010B0100000A0B02090C0D0E0853
:10034000070304010000000000000000000000009E
:10035000000000000000000000000000000000009D
:10036000000012111000000000000000000000005A
:10037000000000000000000000000000000020005D
:100380002300260029002C002F003200000100006D
:100390000301060109010505050507050808080808
:1003A000020202020A0A080804040404010101010D
:1003B0000101010103030303030303030407070708
:1003C0000C0C0C0C0C0C0C0C0202020206060606AD
:1003D000060606060B0B0B0B0B0B0B0B010210207A
:1003E000200808102040102040800201020108046B
:1003F00002010102040810204080804020100804FF
:100400000201800402018040201008040201080457
:10041000020101020408102040800102040810209B
:1004200040803E1C8C1911241FBECFEFD1E2DEBFED
:10043000CDBF00E00CBF29E0AEE1B6E001C01D92E7
:10044000A735B207E1F716E0A0E0B2E0E6E2FAE491
:1004500000E00BBF02C007900D92AE31B107D9F793
:1004600012E0C2E1D2E000E006C021970109802F2E
:10047000FE010E949E22C131D10780E00807A9F742
:100480000E9495190C940225BBCD089580E090E060
:100490000895FC0126813781620F731F8481958145
:1004A0008617970738F08281938177836683820F5E
:1004B000931F089580E090E008950F931F93CF93CA
:1004C000DF938B01FC01C281D381209759F06A81AF
:1004D0007B81C8010E94D824892B21F00990D88102
:1004E000C02DF3CFCE01DF91CF911F910F910895D1
:1004F000CF92DF92EF92FF920F931F93CF93DF93F0
:100500008C0181EA96E00E943A0E892BE1F181EAA2
:1005100096E00E948B126B017C01EB0186E292E077
:100520000E94A611C6010E9408130130110521F096
:100530000230110581F01BC0C130D10521F481E0EA
:1005400080935F0620C0CD2B19F410925F061BC06C
:100550008DE492E00EC0C130D10521F481E080939A
:100560005E0611C0CD2BA1F710925E060CC082E78B
:1005700092E0DF91CF911F910F91FF90EF90DF906C
:10058000CF900C94B711DF91CF911F910F91FF90F5
:10059000EF90DF90CF9008958F929F92AF92BF928D
:1005A000CF92DF92EF92FF920F931F93CF93DF933F
:1005B00000D000D0CDB7DEB77C018B010E949A112C
:1005C0006B0168E872E0CE0101960E94F617B70150
:1005D000CE0101960E9484170E948013CE010196DD
:1005E0000E94AA17B70181EA96E00E943F180D2CDD
:1005F000000CEE08FF0888E8C80E83E1D81EE11C55
:10060000F11C81EA96E00E943A0E892B51F40E9477
:100610009A116C157D058E059F0598F78DEA92E07D
:1006200023C081EA96E00E948B124B015C0186E2B6
:1006300092E00E94A611C4010E9408130130110526
:1006400021F00230110599F01EC081E08816910456
:1006500021F481E080935F0616C0892819F4109276
:100660005F0611C08DE492E00E94B7110CC081E0DA
:100670008816910421F481E080935E0604C08928E5
:1006800089F710925E0626960FB6F894DEBF0FBE6D
:10069000CDBFDF91CF911F910F91FF90EF90DF9031
:1006A000CF90BF90AF909F908F9008951F920F9220
:1006B0000FB60F9211242F933F938F939F93AF9375
:1006C000BF9380918D0690918E06A0918F06B09178
:1006D000900630918C0623E0230F2D3720F40196ED
:1006E000A11DB11D05C026E8230F0296A11DB11D55
:1006F00020938C0680938D0690938E06A0938F0690
:10070000B09390068091910690919206A0919306E5
:10071000B09194060196A11DB11D8093910690930E
:100720009206A0939306B0939406BF91AF919F91C8
:100730008F913F912F910F900FBE0F901F901895A2
:100740001F920F920FB60F9211240F900FBE0F90B1
:100750001F9018950F931F93CF93DF93AEDEEC019C
:10076000892BC1F00C811D810130110559F46E8176
:100770007F816115710531F083ED92E00E94D824EC
:10078000892B41F0015011090230110518F48E81B6
:100790009F8102C080E090E0DF91CF911F910F9187
:1007A0000895FC01A081B1818C918D3051F024F429
:1007B00089508230B8F505C0803219F08F3219F0B7
:1007C000089511962CC011968C9111978A3219F0C8
:1007D0008F32D1F008951196B183A083A081B181A9
:1007E000CD0101969183808311968C911197882376
:1007F000C9F08A3299F712968C9112978F3271F75D
:1008000013960DC08A3071F2A081B181CD0101969D
:100810009183808311968C918111F4CF03C0B183B1
:10082000A083C0CF08950F931F93CF93DF931F92A0
:10083000CDB7DEB78C016983B4DFD801ED91FC91AF
:10084000119780816981861305C03196ED93FC93E1
:1008500081E001C080E00F90DF91CF911F910F9157
:100860000895EF92FF920F931F93CF93DF938C0124
:10087000DC011496CD91DC911597EA80FB808E8186
:100880009F81E80EF91EC80102968BDFD8011296EF
:10089000ED91FC9113979081973291F1923281F111
:1008A00080ED890F8A3060F0892F8F7D81548A31E5
:1008B00038F09B3229F083ED890F823008F060C058
:1008C000F801228133812F5F3F4F338322832E81B2
:1008D0003F81A9014F5F5F4F6C817D816417750770
:1008E00040F06A817B81FB01E20FF31F5F834E833F
:1008F0009083D8011296ED91FC9113979081D0CFFF
:100900003196D8011396FC93EE931297D801129664
:10091000ED91FC9113972081222391F1AF014F5F5C
:100920005F4F13965C934E931297291749F12C351C
:10093000A9F42181ACEDB2E08C91882339F08213C7
:1009400003C011962C9102C01296F6CF2223C1F05B
:100950003296D8011396FC93EE9312974E815F81E5
:10096000BA016F5F7F4FEC81FD81E617F70770F2E8
:10097000EA81FB81E40FF51F7F836E832083C6CF5E
:100980008E819F819C012F5F3F4F4C815D8142177B
:10099000530748F04A815B81FA01E80FF91F3F8352
:1009A0002E83108202C0E12CF12CC701DF91CF9180
:1009B0001F910F91FF90EF9008952F923F924F92C9
:1009C0005F926F927F928F929F92AF92BF92CF92DF
:1009D000DF92EF92FF920F931F93CF93DF93CDB7E8
:1009E000DEB7C956D1090FB6F894DEBF0FBECDBF32
:1009F0008BED97E00E943A0E9E012F5F3F4F390129
:100A0000892B09F466C08BED97E00E948B126B0175
:100A10007C018B0167EE72E0C3010E94F617B301FF
:100A2000CE0145960E94DD17B601CE0145960E9483
:100A30003A17BC0188E798E00E943F18CE0145961E
:100A40000E94AA17C3010E94AA170630110531F1AE
:100A50006CF402301105D1F003301105B1F583E1DA
:100A600093E00E94B7111092000233C00A301105C2
:100A7000E9F00B30110511F10730110531F58EE366
:100A800093E00E94B7111092010223C08EEF92E012
:100A90000E94B71181E0809300021BC089E293E0BD
:100AA0000E94B71181E08093010213C084E593E0B6
:100AB0000E94B71181E080934F060BC081E693E05E
:100AC0000E94B71110924F0604C08BE693E00E947B
:100AD000B7118BED97E00E94D10E0E949A11A59656
:100AE0006CAF7DAF8EAF9FAFA5970E94A1158823F5
:100AF00009F448C080913B098B3031F008F44DC0B7
:100B00008551823078F049C06091370970E080E00B
:100B100090E00E943E206B966CAF7DAF8EAF9FAF92
:100B20006B9745C010913709612F6F7770E080E0B7
:100B300090E00E94402020E030E040E853E40E9432
:100B40009F206B017C016091380970E080E090E0AB
:100B50000E9440209B01AC01C701B6010E946D219B
:100B60002DEC3CEC4CEC5DE30E949F206B966CAF4F
:100B70007DAF8EAF9FAF6B9717FF19C0DC01CB0124
:100B8000B0580FC020E030E040EC5FE76B962CAF30
:100B90003DAF4EAF5FAF6B970AC080E090E0A0EC36
:100BA000BFE76B968CAF9DAFAEAFBFAF6B970E94A8
:100BB000A1158823D1F180913B098B3041F108F4D4
:100BC0003FC085518230E0F56091350970E080E0EA
:100BD00090E00E943E2020E030E040E853E40E9494
:100BE0009F206B017C016091360970E080E090E00D
:100BF0000E9440209B01AC01C701B6010E946D21FB
:100C00002DEC3CEC4CEC5DE30E949F2007C0609112
:100C1000350970E080E090E00E943E206F966CAF56
:100C20007DAF8EAF9FAF6F9715C020E030E040ECF6
:100C30005FE76F962CAF3DAF4EAF5FAF6F970AC0C7
:100C400080E090E0A0ECBFE76F968CAF9DAFAEAFB9
:100C5000BFAF6F9789E0D3011D928A95E9F7809124
:100C60009806882309F467C0A9E9B6E0E0E087E0C8
:100C70008A0F8A1739F09D91E927F0E0EE5FFD4F6A
:100C8000E491F7CF8091A006E81729F087E893E078
:100C90000E94B71153C00E9454120E94B61361E023
:100CA00084E40E941A120E94541268EE73E080E0FD
:100CB00090E00E9462110E94B61360E08EEB0E94E9
:100CC0001A1263017E01BAE0EB0EF11C08E010E09D
:100CD000AA24A394B12C0E94F5118111BA28AA0C60
:100CE00001501109C1F7F601B1926F01EE15FF0530
:100CF00069F7109232091092340910923309E2E335
:100D0000F9E0129229E0EA32F207D9F76A8170E03D
:100D1000762F66278981682B072E000C880B990B8C
:100D20000E94402020E030E040E85DE30E949F20E8
:100D30004B015C0103C0812C912C54015AE6E52E35
:100D400056E0F52E63E2C62ED12C76EC472E5524C4
:100D50005A94EFE02E2E312C61E087E10E948A1038
:100D6000C6010197F1F760E087E10E948A10E2EF87
:100D7000F3E06491ECEAF3E08491E82FF0E0EE0F09
:100D8000FF1FE458FC4F8591949100E412E42FE09A
:100D900030E0462F0E9447196115710581059105C4
:100DA00039F0DC01CB010196A11DB11DBF7003C05C
:100DB00080E090E0DC01B2010E946922CB01449600
:100DC000B1010E946922F4E6F69F9001F79F300D71
:100DD0001124D7012D933D937D0180916806909158
:100DE0006906820F931F9093690680936806BEE799
:100DF000EB16B6E0FB0609F0AFCF6AE070E00E94A8
:100E00006922709369066093680634E5E32E36E044
:100E1000F32ED12C00E010E08D2D0E944311F7013C
:100E2000819391937F01080F191FD394F4E0DF128F
:100E3000F3CFC80117FD03969595879595958795EE
:100E400090935D0680935C0680910102882369F18E
:100E500080915E06811110C020E030E040EB51E44B
:100E6000C501B4010E946522181614F581E0809333
:100E70005E0669E973E00EC020E030E040EA51E42C
:100E8000C501B4010E943A20181694F010925E0633
:100E90006BE973E0C3010E94F61762E070E0C301E2
:100EA0007BDBC3010E94AA1703C082E090E020DB35
:100EB00080910002882369F180915C0690915D0623
:100EC00089379105E4F480915F0681110CC06DE9CA
:100ED00073E0C3010E94F61761E070E0C3015CDBC0
:100EE000C3010E94AA172AE030E0A1963FAF2EAFBF
:100EF000A19794E1C92ED12CE12CF12C0EC08D3894
:100F000091058CF380915F06882369F36FE973E0A4
:100F1000E0CF81E090E0ECDAE6CF30914606A6968D
:100F20003FAFA697232F30E0220F331F8901025EC7
:100F3000194FD8018D919C914091470650914806D8
:100F40006091490670914A061A012B01281A390A44
:100F5000410851088AE30E944311F801918380837C
:100F6000A2019101280F391F411D511DCA01B9016C
:100F700020934706309348064093490650934A060B
:100F8000A6961FADA6971F5F143118F4109346065E
:100F900002C010924606A70196010E947C22890198
:100FA000309363062093620669E170E080E090E090
:100FB0000E946211A1964EAD5FADA19741505109BB
:100FC000A1965FAF4EAFA197452B09F0A6CF6E015A
:100FD00055E1C50ED11C73018BE30E944311D7016B
:100FE0008D939D937D016AE070E080E090E00E9427
:100FF0006211EC14FD0481F780E090E00196F301AA
:101000009C01D3014D915C911197628173816417AA
:10101000750724F46D937C93538342832F5F3F4F76
:1010200032962A30310569F7B2E06B0E711C8930B7
:10103000910521F7FE0135969E012F5E3F4F40E05E
:1010400050E0BA0181919191092E000CAA0BBB0BC3
:10105000480F591F6A1F7B1FE217F30799F7409348
:101060004B0650934C0660934D0670934E0630909D
:101070009506332009F4B9C4809164069091650601
:10108000A0916606B0916706A5962CAD3DAD4EAD1C
:101090005FADA597281B390B4A0B5B0BDA01C90121
:1010A00081319742A105B10508F47DC2B80180E005
:1010B00090E00E943E2020E030E44CE955E40E949C
:1010C0009F2020E030E040E85AE30E949F200E94E9
:1010D0003922709361066093600680E090E00E9480
:1010E0003E206B017C0120E030E048EC51E4C5017A
:1010F000B4010E946C2120E53DE847E95CE30E94D1
:101100009F2020E030E040E85FE30E946D219B01DA
:10111000AC01C701B6010E94D1216B017C0120E026
:1011200030E046E153E40E943A2087FF03C081EAA1
:1011300093E00CC020E030E44EE455E4C701B60172
:101140000E946522181644F48EEA93E00E94B711BB
:10115000C12CD12C760140C020E030E040EE53E4B9
:10116000C701B6010E943A2018166CF028E431EE4F
:101170004AED50E4C701B6010E949F2027ED33EAF3
:1011800040E852E416C020E030E246EB54E4C701E8
:10119000B6010E943A2018167CF029E23CE54FED9A
:1011A00050E4C701B6010E949F2020E030E04EEFDE
:1011B00052E40E946C210EC02AE939E949EA50E460
:1011C000C701B6010E949F2020E030E64EE055E4C2
:1011D0000E946D216B017C0160EC73E0CE010196F1
:1011E0000E94F617BE016F5F7F4FCE0145960E94A9
:1011F000DD176BE179E0CE0145960E9484170E94CD
:101200008013CE0145960E94AA17CE0101960E9436
:10121000AA170091000210E06DEC73E0CE01019678
:101220000E94F617BE016F5F7F4FCE0145960E9468
:10123000DD17B801CE0145960E943A170E9480132F
:10124000CE0145960E94AA17CE0101960E94AA17C8
:1012500000915F0610E069ED73E0CE0101960E94F7
:10126000F617BE016F5F7F4FCE0145960E94DD17D6
:10127000B801CE0145960E943A1766EE74E00E94CE
:101280006D17BC0188E798E00E943F18CE01459693
:101290000E94AA17CE0101960E94AA1700915E062D
:1012A00010E066EE73E0CE0101960E94F617BE01D3
:1012B0006F5F7F4FCE0145960E94DD17B801CE01CA
:1012C00045960E943A1766EE74E00E946D17BC01C5
:1012D00088E798E00E943F18CE0145960E94AA1721
:1012E000CE0101960E94AA1763EF73E0CE0101962A
:1012F0000E94F617BE016F5F7F4FCE0145960E9498
:10130000DD17B501A401CE0145960E94D31666EE05
:1013100074E00E946D17BC0188E798E00E943F18B6
:10132000CE0145960E94AA17CE0101960E94AA17E7
:1013300068E074E0CE0101960E94F617BE016F5F6F
:101340007F4FCE0145960E94DD176B964CAD5DAD8B
:101350006EAD7FAD6B97CE0145960E94D31666EEBB
:1013600074E00E946D17BC0188E798E00E943F1866
:10137000CE0145960E94AA17CE0101960E94AA1797
:101380006BE174E0CE0101960E94F617BE016F5F1B
:101390007F4FCE0145960E94DD176F964CAD5DAD37
:1013A0006EAD7FAD6F97CE0145960E94D31666EE67
:1013B00074E00E946D17BC0188E798E00E943F1816
:1013C000CE0145960E94AA17CE0101960E94AA1747
:1013D00040915C0650915D0620915A0630915B0663
:1013E00040905806509059066090560670905706E7
:1013F00000915406109155066BE274E0CE010196FF
:10140000A9962FAFA997AA963FAFAA97A7964FAFD5
:10141000A797A8965FAFA8970E94F617BE016F5FC7
:101420007F4FCE0145960E94DD17B801CE0145964B
:101430000E943A176BEA72E00E946D17B3010E9496
:101440003A176BEA72E00E946D17B2010E943A17D8
:101450006BEA72E00E946D17A9962FADA997AA9624
:101460003FADAA97B9010E943A176BEA72E00E9459
:101470006D17A7964FADA797A8965FADA897BA012D
:101480000E943A1766EE74E00E946D17BC0188E76F
:1014900098E00E943F18CE0145960E94AA17CE01FF
:1014A00001960E94AA17009168061091690668E3E8
:1014B00074E0CE0101960E94F617BE016F5F7F4F68
:1014C000CE0145960E94DD17B801CE0145960E94D7
:1014D0003A1767E474E00E946D17BC0188E798E052
:1014E0000E943F18CE0145960E94AA17CE01019690
:1014F0000E94AA176AE474E0CE0101960E94F617D2
:10150000BE016F5F7F4FCE0145960E94DD17B70188
:10151000A601CE0145960E94D31666E574E00E94AE
:101520006D17BC0188E798E00E943F18CE014596F0
:101530000E94AA17CE0101960E94AA176DE574E0D9
:10154000CE0101960E94F617BE016F5F7F4FCE015C
:1015500045960E94DD1740E050E0BA01CE01459665
:101560000E94D31666EE74E00E946D17BC0188E7F6
:1015700098E00E943F18CE0145960E94AA17CE011E
:1015800001960E94AA1785EE94E0E0D685EE94E0DD
:10159000DDD6D0D6609364067093650680936606A8
:1015A0009093670603C0C12CD12C76018091500620
:1015B00090915106A0915206B0915306A5962CAD7C
:1015C0003DAD4EAD5FADA597281B390B4A0B5B0BAC
:1015D000DA01C90181369A4EA105B10508F413C29A
:1015E00089E694E0C4D66BE179E0CE018F5A9F4F33
:1015F0000E94DD1700915C0610915D0660916806FF
:1016000070916906072E000C880B990B0E944020F0
:101610002B013C0165E874E0CE0101960E94F617AB
:10162000BE016F5F7F4FCE0145960E94DD1766E9D0
:1016300075E0CE0145960E946D1767E974E00E943F
:101640006D1763EA74E00E946D1760E570E00E9418
:10165000071765EE74E00E946D17BC01CE01855B33
:101660009F4F0E94DD17CE0145960E94AA17CE011A
:1016700001960E94AA1766EA74E0CE014B960E947A
:10168000F617BE01655B7F4FCE0101960E94DD1704
:1016900028E833E140E050E0BE016F5F7F4FCE01AC
:1016A00045960E944D18BE01655E7F4FCE0145965E
:1016B0000E948C169C01CE014596A9962FAFA99742
:1016C000AA963FAFAA970E94AA17CE0101960E9440
:1016D000AA17CE014B960E94AA17A9962FADA997DB
:1016E000AA963FADAA972F3F3F4F29F48EE397E08C
:1016F00058D3312C5EC18091960690919706219621
:101700001FAE1EAE219723961FAE1EAE23972596C1
:101710001FAE1EAE25974AE0BE016F5F7F4F0E944D
:10172000A21DBE016F5F7F4FCE01CF960E9495171D
:1017300022E040E050E0BA01CE01C9960E94AF1706
:1017400022E0B701A601CE01C3960E94AF171EA6E4
:101750001DA618AA1FA61AAA19AA4AE0BE016F5F01
:101760007F4FC8010E94A21DBE016F5F7F4FCE0157
:101770008D960E94951722E0B301A201CE018796B3
:101780000E94AF1722E0B501A401CE0181960E940C
:10179000AF1722E06F964CAD5DAD6EAD7FAD6F972C
:1017A000CE014B960E94AF1722E06B964CAD5DAD1B
:1017B0006EAD7FAD6B97CE0145960E94AF1769EA7B
:1017C00074E0CE0101960E94F617BE016B5E7F4F5A
:1017D000CE0101960E9484176DEA74E00E946D1795
:1017E000BE01655E7F4F0E94841761EB74E00E942A
:1017F0006D17BE016F5D7F4F0E94841766EB74E02A
:101800000E946D17BE01695D7F4F0E9484176BEBCC
:1018100074E00E946D17BE01635D7F4F0E948417C4
:101820006FEB74E00E946D17BE016D5C7F4F0E94EC
:10183000841764EC74E00E946D17BE01675C7F4FF3
:101840000E94841769EC74E00E946D17BE01615C10
:101850007F4F0E948417BC01CE018B5B9F4F0E947B
:10186000DD17CE0101960E94AA17CE0145960E946F
:10187000AA17CE014B960E94AA17CE0181960E940C
:10188000AA17CE0187960E94AA17CE018D960E94B4
:10189000AA17CE01C3960E94AA17CE01C9960E942C
:1018A000AA17CE01CF960E94AA176EEC74E0CE0163
:1018B00001960E94F61761E279E0CE0101960E943E
:1018C0008417BE016B5B7F4F0E94841765EE74E046
:1018D0000E946D17BC01CE0187960E94DD17CE01D4
:1018E00001960E94AA1744E150E063ED74E0CE0136
:1018F00087960E94A6160BA51CA568EE74E0CE0183
:1019000001960E94F617BE016F5F7F4FCE0145968C
:101910000E94DD17B801CE0145960E94071765EEBB
:1019200074E00E946D17BC01CE014B960E94DD173A
:1019300028EE33E040E050E0BE01655E7F4FCE010F
:1019400081960E944D18CE0181960E94AA17CE0161
:101950004B960E94AA17CE0145960E94AA17CE0167
:1019600001960E94AA17BE01695D7F4FCE010196C4
:101970000E94DD1728EE33E040E050E0BE016F5FCB
:101980007F4FCE0145960E944D18CE0145960E948C
:10199000AA17CE0101960E94AA178EE397E001D202
:1019A000CE0187960E94AA17CE018B5B9F4F0E94A3
:1019B000AA17CE01855B9F4F0E94AA17CE018F5AAE
:1019C0009F4F0E94AA17332019F084EF94E002C0C1
:1019D00081E195E0CCD4AED460935006709351066B
:1019E00080935206909353060EC080914F0681114A
:1019F00003C08DE295E0BBD480919506811103C0B0
:101A00008EE395E0B4D4C759DF4F0FB6F894DEBF2C
:101A10000FBECDBFDF91CF911F910F91FF90EF903F
:101A2000DF90CF90BF90AF909F908F907F906F90FE
:101A30005F904F903F902F900895DB01109749F0F1
:101A4000ED91FC9111970190F081E02DBC01CD0149
:101A5000199480E090E008959F92AF92BF92CF9248
:101A6000DF92EF92FF920F931F93CF93DF9300D0FB
:101A700000D0CDB7DEB76C01FC0100811181B80147
:101A800084E090E0DADF009739F0FC0111830083F5
:101A9000138212828C0111C08091820681110BC0C9
:101AA00010927F0610927E06109281061092800698
:101AB00081E0809382060EE716E07601F2E0EF0EF9
:101AC000F11C6BE7C7010E941304882309F464C06A
:101AD0006DE7C7010E94130481116FC086E0982E44
:101AE000C6010E9431045C01892B09F455C06AE3E8
:101AF000C7010E941304882309F44EC01A82198278
:101B0000BE016F5F7F4FC60144D6882309F444C0ED
:101B1000B501C8010E945D02DC01892B49F5F8017D
:101B2000608171818AE090E088DFDC01892B39F0E7
:101B300011961C921E9215961C921E921497F801F3
:101B4000228133812115310551F0F9018081918184
:101B5000009711F09C01F9CFB183A08303C0F80175
:101B6000B383A2831097C1F01396BC92AE921297E2
:101B7000FE0131961496892D01900D928A95E1F718
:101B80006DE7C7010E941304811117C06CE2C70101
:101B90000E9413048111A4CF8091820681110BC091
:101BA00010927F0610927E06109281061092800697
:101BB00081E0809382060EE716E0C80126960FB6F4
:101BC000F894DEBF0FBECDBFDF91CF911F910F9173
:101BD000FF90EF90DF90CF90BF90AF909F900895CF
:101BE000FC01A089B1898C91A689B78982FD0FC0BB
:101BF0009C91818D8F5F8F73228D821749F0218D8B
:101C0000DF01A20FB11D5D969C93818F08958C9189
:101C10000895FC01538D448D252F30E0842F90E0F2
:101C2000821B930B541710F0CF96089501970895D7
:101C3000FC01918D828D981761F0828DDF01A80FD4
:101C4000B11D5D968C91928D9F5F9F73928F90E0F6
:101C500008958FEF9FEF0895FC01918D828D981765
:101C600031F0828DE80FF11D858D90E008958FEFA2
:101C70009FEF0895FC01918D228D892F90E0805C6B
:101C80009F4F821B91098F739927089581EA96E0EF
:101C9000F1DF21E0892B09F420E0822F08958EE303
:101CA00097E0E8DF21E0892B09F420E0822F0895F6
:101CB0008BED97E0DFDF21E0892B09F420E0822F14
:101CC000089588E798E0D6DF21E0892B09F420E029
:101CD000822F0895FC01848DDF01A80FB11DA35A46
:101CE000BF4F2C91848D90E001968F739927848F3C
:101CF000A689B7892C93A089B1898C9180648C9333
:101D0000938D848D981306C00288F389E02D80811D
:101D10008F7D80830895EF92FF920F931F93CF934F
:101D2000DF93EC0181E0888F9B8D8C8D981305C02B
:101D3000E889F989808185FD23C0F62E0B8D10E09E
:101D40000F5F1F4F0F731127E02E8C8DE8120BC011
:101D50000FB607FCFACFE889F989808185FFF5CFB6
:101D6000CE01B8DFF2CF8B8DFE01E80FF11DE35AF3
:101D7000FF4FF0820B8FEA89FB898081806207C068
:101D8000EE89FF896083E889F98980818064808396
:101D900081E090E0DF91CF911F910F91FF90EF9044
:101DA0000895CF93DF93EC01888D8823C1F0EA89F1
:101DB000FB89808185FD05C0A889B9898C9186FD44
:101DC0000EC00FB607FCF5CF808185FFF2CFA88942
:101DD000B9898C9185FFEDCFCE017CDFE8CFDF9113
:101DE000CF91089580E090E0892B19F06ADF81118E
:101DF00016C080E090E0892B19F05ADF811112C0E3
:101E000080E090E0892B19F04ADF81110EC080E05C
:101E100090E0892B79F03ADF81110AC008950E9481
:101E20000000E7CF0E940000EBCF0E940000EFCF40
:101E30000C94000008953FB7F8948091910690911A
:101E40009206A0919306B091940626B5A89B05C072
:101E50002F3F19F00196A11DB11D3FBFBA2FA92F29
:101E6000982F8827820F911DA11DB11DBC01CD01A6
:101E700042E0660F771F881F991F4A95D1F7089592
:101E80000E94CB241F920F920FB60F9211240BB613
:101E90000F922F933F934F935F936F937F938F9303
:101EA0009F93AF93BF93EF93FF9381EA96E012DF86
:101EB000FF91EF91BF91AF919F918F917F916F9122
:101EC0005F914F913F912F910F900BBE0F900FBEDE
:101ED0000F901F9018951F920F920FB60F9211241A
:101EE0000BB60F922F933F934F935F936F937F9314
:101EF0008F939F93AF93BF93EF93FF9381EA96E005
:101F00006FDEFF91EF91BF91AF919F918F917F9184
:101F10006F915F914F913F912F910F900BBE0F905A
:101F20000FBE0F901F9018951F920F920FB60F9231
:101F300011240BB60F922F933F934F935F936F93A0
:101F40007F938F939F93AF93BF93EF93FF938EE312
:101F500097E0C0DEFF91EF91BF91AF919F918F917C
:101F60007F916F915F914F913F912F910F900BBE99
:101F70000F900FBE0F901F9018951F920F920FB6E3
:101F80000F9211240BB60F922F933F934F935F93B1
:101F90006F937F938F939F93AF93BF93EF93FF9331
:101FA0008EE397E01DDEFF91EF91BF91AF919F917E
:101FB0008F917F916F915F914F913F912F910F90F2
:101FC0000BBE0F900FBE0F901F9018951F920F928F
:101FD0000FB60F9211240BB60F922F933F934F938E
:101FE0005F936F937F938F939F93AF93BF93EF9381
:101FF000FF938BED97E06EDEFF91EF91BF91AF9174
:102000009F918F917F916F915F914F913F912F9110
:102010000F900BBE0F900FBE0F901F9018951F9240
:102020000F920FB60F9211240BB60F922F933F937E
:102030004F935F936F937F938F939F93AF93BF93D0
:10204000EF93FF938BED97E0CBDDFF91EF91BF9185
:10205000AF919F918F917F916F915F914F913F9140
:102060002F910F900BBE0F900FBE0F901F901895E1
:102070001F920F920FB60F9211240BB60F922F934F
:102080003F934F935F936F937F938F939F93AF9300
:10209000BF93EF93FF9388E798E01CDEFF91EF91E9
:1020A000BF91AF919F918F917F916F915F914F9170
:1020B0003F912F910F900BBE0F900FBE0F901F906E
:1020C00018951F920F920FB60F9211240BB60F9214
:1020D0002F933F934F935F936F937F938F939F9330
:1020E000AF93BF93EF93FF9388E798E079DDFF917B
:1020F000EF91BF91AF919F918F917F916F915F9180
:102100004F913F912F910F900BBE0F900FBE0F90EC
:102110001F901895362F90E0FC01EA5CFC4F44912B
:10212000FC01E452FC4F2491FC01EA56FC4F9491CF
:10213000992309F46BC0442309F455C050E0FA0117
:102140003197E231F10508F04EC08827EE58FF4F75
:102150008F4F0C949E22809180008F7707C08091D2
:1021600080008F7D03C080918000877F80938000F6
:102170003AC084B58F7702C084B58F7D84BD33C0EB
:102180008091B0008F7703C08091B0008F7D8093E5
:10219000B00029C0809190008F7707C08091900097
:1021A0008F7D03C080919000877F809390001BC03B
:1021B0008091A0008F7707C08091A0008F7D03C021
:1021C0008091A000877F8093A0000DC080912001A6
:1021D0008F7707C0809120018F7D03C080912001FF
:1021E000877F80932001E92FF0E0EE0FFF1FE45E70
:1021F000FC4FA591B4918FB7F894EC91311103C0C5
:1022000020952E2301C02E2B2C938FBF0895CF93A2
:10221000DF9390E0FC01E452FC4F2491FC01EA566C
:10222000FC4F8491882361F190E0880F991FFC0195
:10223000EE5FFC4FC591D491FC01E45EFC4FA5918B
:10224000B491611109C09FB7F894888120958223C9
:102250008883EC912E230BC0623061F49FB7F89411
:102260003881822F809583238883EC912E2B2C93A9
:102270009FBF06C08FB7F894E8812E2B28838FBFAD
:10228000DF91CF910895863308F0865390917B00BB
:10229000282F2870977F922B90937B008770806403
:1022A00080937C0080917A00806480937A00809192
:1022B0007A0086FDFCCF809178002091790090E033
:1022C000922B08958F929F92AF92BF92CF92DF92FE
:1022D000EF92FF926B017C01AEDD4B015C01C114FA
:1022E000D104E104F104E9F0A6DDDC01CB01881999
:1022F0009909AA09BB09883E9340A105B10578F365
:1023000021E0C21AD108E108F10888EE880E83E0C6
:10231000981EA11CB11CC114D104E104F10421F7E1
:10232000DECFFF90EF90DF90CF90BF90AF909F9067
:102330008F9008952FB7F89460918D0670918E0656
:1023400080918F06909190062FBF0895009761F0BD
:10235000FC0101900020E9F73197AF01481B590BB0
:10236000BC0188E798E06AC380E090E00895CF93CD
:10237000DF93ECDFEC0185EE94E0E8DF8C0F9D1F2E
:10238000DF91CF91089590912709E0912809F0916C
:102390002909392F309580FF13C0F8942281832FAB
:1023A000822382838181892B8183A3E2B0E011970C
:1023B000F1F78281982B9283789487ED90E012C098
:1023C000F8942281832F822382838181892B8183C8
:1023D000AFEFB0E01197F1F78281982B9283789458
:1023E0008FE090E00197F1F7089580912709E0913F
:1023F0002809F0912909F8949181982B91832281E1
:10240000982F909529232283A7E0B0E01197F1F748
:10241000218192239183A3E2B0E01197F1F790819B
:102420007894EFECF0E03197F1F7982381E009F42C
:1024300080E00895EF92FF920F931F93CF93DF9365
:102440001F92CDB7DEB7082F88E0E82EF12C11E0FF
:1024500081E0912F902309F480E0698394DF110FCC
:1024600081E0E81AF1086981E114F10489F761114A
:1024700013C0F894E0912809F09129099181809185
:102480002709809598239183E0912809F0912909E3
:1024900092818923828378940F90DF91CF911F914D
:1024A0000F91FF90EF90089590912709E0912809EE
:1024B000F0912909F8948181292F20958223818325
:1024C00078948DE743E050E0815021F1DA011197D3
:1024D000F1F730813923C1F3F8948281822382831A
:1024E0008181892B81837894ABE7B7E01197F1F76D
:1024F000F894818128232183A3E1B1E01197F1F7BA
:102500008081982381E009F080E07894E3E6F6E0AA
:102510003197F1F70895AF92BF92CF92DF92EF9289
:10252000FF921F93CF93DF9300D01F92CDB7DEB7FA
:102530005C01C5016FD5FC0197FD0FC08D3291057F
:1025400081F0C0970A9768F0D501ED91FC91028463
:10255000F385E02DC5011995ECCF60E070E0CB016B
:1025600049C020E030E0A90110E0E130F105E9F0D8
:10257000ED32F105C9F0CF01C0970A97B0F4AAE097
:10258000B0E00E9453216F01FF0FEE08FF08DC014D
:10259000CB018C0D9D1DAE1DBF1D9C01AD012053B7
:1025A00031094109510901C011E0D501ED91FC91BA
:1025B0000284F385E02DC50129833A834B835C8334
:1025C0001995C50127D5FC01C09729813A814B8116
:1025D0005C810A9750F2E130F10539F2112341F0A4
:1025E00066277727CB01621B730B840B950B02C008
:1025F000CA01B9010F900F900F900F90DF91CF910A
:102600001F91FF90EF90DF90CF90BF90AF90089513
:102610008F929F92AF92BF92CF92DF92EF92FF92F2
:102620000F931F93CF93DF93CDB7DEB7A1970FB66C
:10263000F894DEBF0FBECDBF6C01990FEE08FF0806
:10264000F7FE29C06DE288E798E012D58C012227B9
:102650003327A9012C193D094E095F0919A2CE01A2
:1026600081967C019AE0892E912CA12CB12CCA0173
:10267000B901A50194010E947C22605DF70162937B
:102680007F01211531054105510589F7CF015EDE36
:10269000080F191F1DC0A701960119A28E010F5D19
:1026A0001F4F8AE0C82ED12CE12CF12CCA01B901B0
:1026B000A70196010E947C22605DF80162938F0160
:1026C000211531054105510589F7CF013FDE8C0108
:1026D00085EE94E03BDE800F911FA1960FB6F89433
:1026E000DEBF0FBECDBFDF91CF911F910F91FF9045
:1026F000EF90DF90CF90BF90AF909F908F90089514
:10270000CF93DF93BC0188E798E0B9D4EC0185EE64
:1027100094E01CDE8C0F9D1FDF91CF910895FC018A
:10272000A089B18982E08C93A485B5851C92A68589
:10273000B7858FEC8C93108EA489B58986E08C9335
:10274000A289B3898C9180618C93A289B3898C9181
:1027500088608C93A289B3898C9180688C9302885D
:10276000F389E02D80818F7D808308951F93CF931F
:10277000DF9360E085E55EDEC9E9D6E01C2F185FD7
:1027800060E0899157DE1C13FBCFDF91CF911F9141
:1027900008959F92AF92BF92CF92DF92EF92FF92F5
:1027A0000F931F93CF93DF9300D000D0CDB7DEB748
:1027B000FC019681992309F4DEC06B017F019150E1
:1027C00096835F0182E0A80EB11CC5010E94D1036F
:1027D000D7011296ED91FC91139780818B3521F0F2
:1027E0008B3709F496C09FC0F70100811181B801B1
:1027F00084E090E022D9009751F0DC0111961C93FF
:102800000E9313961C921E9212978C0111C0809108
:102810004B0981110BC01092480910924709109280
:102820004A091092490981E080934B0907E419E0B5
:102830006BE5C5010E941304882309F44AC06DE5C5
:10284000C5010E941304811155C086E0982E1A829A
:102850001982BE016F5F7F4FC7019BDF8823C9F1DB
:10286000F8016081718188E090E0E7D8DC01892B74
:1028700039F011961C921E9213961C921E9212977A
:10288000F801228133812115310551F0F901808150
:102890009181009711F09C01F9CFB183A08303C00F
:1028A000F801B383A2831097A1F0FE01319612962E
:1028B000892D01900D928A95E1F76DE5C5010E9481
:1028C0001304811117C06CE2C5010E941304811129
:1028D000BECF80914B0981110BC010924809109214
:1028E000470910924A091092490981E080934B09E7
:1028F00007E419E0D8018D919C91892B11F410E027
:1029000032C086E090E0F6019183808313830283D6
:1029100029C0C701A1D8DC012D913C91232B79F36B
:1029200027E030E01AC011E0873219F0823209F056
:1029300010E0C7010E943104009709F3112359F0F8
:1029400022E030E0D60111963C932E9313969C938F
:102950008E93129708C021E030E0F6013183208386
:102960009383828311E0D70116968C9116978F5F1F
:1029700016968C9301C010E0812F26960FB6F8941E
:10298000DEBF0FBECDBFDF91CF911F910F91FF90A2
:10299000EF90DF90CF90BF90AF909F9008950895F3
:1029A0008F929F92AF92BF92CF92DF92EF92FF925F
:1029B000CF93DF93A0913C09882311F03A2F01C0F7
:1029C00030E080913D0990E0880F991F84589C4F1A
:1029D000C0904209D0904309E0904409F090450925
:1029E00040E050E0BA01FC01C591D49128812A232E
:1029F00023130FC04A015B012FEF821A920AA20A29
:102A0000B20A4C155D056E057F0538F4B501A401C9
:102A1000EACF342F252FCB0104C030E020E080E046
:102A200090E0632F722FDF91CF91FF90EF90DF90B6
:102A3000CF90BF90AF909F908F900895CF92DF92EC
:102A4000EF92FF920F931F93CF93DF936C017A0164
:102A50008B01C0E0D0E0CE15DF0589F0D8016D9183
:102A60008D01D601ED91FC910190F081E02DC60120
:102A70001995892B11F47E0102C02196ECCFC70174
:102A8000DF91CF911F910F91FF90EF90DF90CF904A
:102A90000895CF93DF93EC0188819981009711F01D
:102AA0000E944F23198218821D821C821B821A8267
:102AB000DF91CF9108950F931F93CF93DF93EC0194
:102AC00088819981009729F02A813B812617370751
:102AD00088F48B016F5F7F4F0E94E723009761F0BE
:102AE000998388831B830A832C813D81232B11F4D6
:102AF000FC01108281E001C080E0DF91CF911F9145
:102B00000F910895EF92FF920F931F93CF93DF934E
:102B1000EC017B018A01BA01CEDF811103C0CE0135
:102B2000B8DF07C01D830C83B701888199810E949B
:102B3000E124CE01DF91CF911F910F91FF90EF9093
:102B40000895CF92DF92EF92FF920F931F93CF934E
:102B5000DF93CDB7DEB7C054D1400FB6F894DEBFD7
:102B60000FBECDBFE7DB00913E0910913F092091D8
:102B70004009309141096B017C01C01AD10AE20A77
:102B8000F30A40EDC41647E0D406E104F10418F45A
:102B900080914609B1C060933E0970933F098093CC
:102BA0004009909341091092390910923809109206
:102BB0003709109236091092350961E080913A097F
:102BC000A9DA6AEF70E080E090E07CDB61E0809160
:102BD0003A091DDB60E080913A099CDA64E170E01B
:102BE00080E090E06FDBF89461E080913A0992DA3E
:102BF0008BE990E00197F1F762E080913A0907DBF9
:102C000083E290E00197F1F780E0CADE672B682B42
:102C1000692B21F41092460978943BC081E0C0DE14
:102C2000672B682B692BB1F38E010F5F1F4F6E016D
:102C30008FEBC81A8EEFD80A780180E0B1DEF70179
:102C4000608371838283938381E0AADEF7016483CA
:102C5000758386839783F8E0EF0EF11CEC14FD0476
:102C600061F7789420E030E0F80140815181628181
:102C70007381C480D580E680F780411551056105D8
:102C8000710529F0C114D104E104F10421F410927A
:102C9000460980E031C0F90183E0F595E7958A9512
:102CA000E1F7EB5CF64F8081880F4C155D056E05F2
:102CB0007F0508F4816080832F5F3F4F085F1F4FBF
:102CC0002832310589F62091390930E040913509E3
:102CD0008091360990E0840F911D40913709840F4F
:102CE000911D40913809840F911D992728173907A4
:102CF00071F681E080934609C05CDE4F0FB6F89410
:102D0000DEBF0FBECDBFDF91CF911F910F91FF901E
:102D1000EF90DF90CF900895CF93DF93FC01248153
:102D20003581232B71F0FB01DC01CD91DC916081B9
:102D30007181CE010E94E824009719F08C1B9D0B35
:102D400002C08FEF9FEFDF91CF910895EF92FF9236
:102D50000F931F93CF93DF93FC012481358161157D
:102D6000710511F480E018C041155105A1F07B01F7
:102D7000EC018A01020F131FB8019DDE882391F335
:102D8000288139818C819D81B701820F931F0E9418
:102D9000E1241D830C8381E0DF91CF911F910F917E
:102DA000FF90EF900895EF92FF920F931F93CF93B0
:102DB000DF93CDB7DEB764970FB6F894DEBF0FBED2
:102DC000CDBF7C01CB01BA018E010F5F1F4F22E006
:102DD00044E099D6FC0101900020E9F73197AF015A
:102DE000481B590BBC01C701B1DF811102C0C701EB
:102DF00050DEC70164960FB6F894DEBF0FBECDBF9C
:102E0000DF91CF911F910F91FF90EF900895EF9276
:102E1000FF920F931F93CF93DF93CDB7DEB7279722
:102E20000FB6F894DEBF0FBECDBF7C01CB014AE0E8
:102E30008E010F5F1F4FB8018FD6F801019000205F
:102E4000E9F73197AF01401B510BB801C7017EDF95
:102E5000811102C0C7011DDEC70127960FB6F89485
:102E6000DEBF0FBECDBFDF91CF911F910F91FF90BD
:102E7000EF900895EF92FF920F931F93CF93DF93FC
:102E8000CDB7DEB728970FB6F894DEBF0FBECDBF23
:102E90007C01CB014AE08E010F5F1F4FB80152D673
:102EA000F80101900020E9F73197AF01401B510B69
:102EB000B801C7014BDF811102C0C701EADDC701BC
:102EC00028960FB6F894DEBF0FBECDBFDF91CF912D
:102ED0001F910F91FF90EF900895CF93DF93EC0136
:102EE0006115710559F0FB0101900020E9F7319758
:102EF000AF01461B570B2ADF811102C0CE01C9DD8D
:102F0000CE01DF91CF910895CF93DF93EC01FB01C8
:102F1000448155816081718119DF811102C0CE0128
:102F2000B8DDCE01DF91CF910895CF93DF93EC010F
:102F30006115710551F0FB0101900020E9F731970F
:102F4000AF01461B570BDEDD01C0A3DDCE01DF91D3
:102F5000CF910895FC01808191810C944F23EF92D1
:102F6000FF920F931F93CF93DF93CDB7DEB7A19757
:102F70000FB6F894DEBF0FBECDBF7C01CB01BA0106
:102F8000F70111821082138212821582148242E0AC
:102F9000420F8E010F5F1F4FB6D5BC01C701C5DFC1
:102FA000A1960FB6F894DEBF0FBECDBFDF91CF91D3
:102FB0001F910F91FF90EF900895FB01DC01119696
:102FC0001C921E9213961C921E92129715961C929A
:102FD0001E9214978617970741F0608171816115E1
:102FE000710519F0448155818DCD0895FC01118240
:102FF000108213821282158214826115710549F0C4
:10300000FB0101900020E9F73197AF01461B570BF8
:1030100079CD08950F931F93CF93DF93EC018AD955
:10302000688779878A879B87E881F9810484F58599
:10303000E02DCE01199597FF16C07CD9088519851A
:103040002A853B85DC01CB01801B910BA20BB30BC6
:103050000C811D812E813F8180179107A207B30744
:1030600018F38FEF9FEFDF91CF911F910F9108958C
:10307000DC01ED91FC910190F081E02D1994DC01CF
:10308000ED91FC91DB0114964D915C9115976D913A
:103090007C910280F381E02D19948F929F92AF92E0
:1030A000BF92CF92DF92EF92FF920F931F93CF9335
:1030B000DF93CDB7DEB72A970FB6F894DEBF0FBE09
:1030C000CDBF7C018B0166EE72E02F833887498784
:1030D0005A878CDFB8018EE397E0D1DF2BD92F819F
:1030E000388549855A854B015C01820E931EA41ECA
:1030F000B51E20D9681579058A059B05A0F48EE3D5
:1031000097E00E943A0E892BA1F38EE397E00E948C
:10311000180E89831A8241E050E0BE016F5F7F4F35
:10312000C70114DEECCFD80114968D919C911597B0
:10313000892B09F496C067EB75E08D919C910E94F4
:10314000D824892B09F08DC064E076E0CE01019689
:103150004DDFBE016F5F7F4FC701DEDD5C01CE0139
:103160000196F8DE66EA74E0CE0101963FDFBE010B
:103170006F5F7F4FC701D0DD8C01CE010196EADE83
:1031800089E096E0E3D8C50143DA83E196E0DED832
:10319000C8013EDA0350110965010A151B0510F438
:1031A0006801850166EE72E0CE0101961FDFF7012E
:1031B00084819581C816D906D0F48017910708F448
:1031C0008C01D701ED91FC911197E00FF11FB080B8
:1031D00010826D917C916C0D7D1DCE010196A5DE56
:1031E000F70180819181FC01E00FF11FB082809195
:1031F0001B0990911C090097C9F069817A816115BA
:10320000710591F040911D0950911E092D813E815B
:103210004217530748F00E94E1248D819E819093CC
:10322000200980931F0918C00E944F2389819A8129
:1032300090931C0980931B098B819C8190931E099C
:1032400080931D098D819E819093200980931F0991
:103250001A8219821C821B821E821D82CE01019657
:1032600079DEC7014DDAC7012A960FB6F894DEBFA2
:103270000FBECDBFDF91CF911F910F91FF90EF90C7
:10328000DF90CF90BF90AF909F908F900895CF9296
:10329000DF92EF92FF920F931F93E82FF92F05C053
:1032A000015011092109310961F190819623941788
:1032B000B9F305C0015011092109310911F19081BB
:1032C00096239413F7CFC12CD12CE12CF12C0AC0FA
:1032D0008FEFC81AD80AE80AF80A0C151D052E0542
:1032E0003F0579F080818623841791F36C2D7D2D25
:1032F0008E2D9F2D1F910F91FF90EF90DF90CF901B
:10330000089560E070E080E090E01F910F91FF90E1
:10331000EF90DF90CF90089585E199E01BDE8BE17F
:1033200099E018DE81E299E015CECF93DF93CDB717
:10333000DEB7C058D1090FB6F894DEBF0FBECDBFBF
:10334000789484B5826084BD84B5816084BD85B580
:10335000826085BD85B5816085BD80916E0081608C
:1033600080936E0010928100809181008260809332
:103370008100809181008160809381008091800034
:103380008160809380008091B10084608093B1005F
:103390008091B00081608093B00080919100826044
:1033A0008093910080919100816080939100809141
:1033B00090008160809390008091A1008260809352
:1033C000A1008091A10081608093A1008091A00064
:1033D00081608093A000809121018260809321010F
:1033E0008091210181608093210180912001816081
:1033F0008093200180917A00846080937A0080918C
:103400007A00826080937A0080917A008160809354
:103410007A0080917A00806880937A001092C100CF
:1034200088E798E07CD98BED97E079D98EE397E037
:1034300076D981EA96E073D968EE73E080E090E097
:103440000E94621161E575E0CE0183599F4FCEDD88
:1034500028EB3BE040E050E0BE0163597F4F8E0116
:103460000F5F1F4FC80119DEC80174DDCE018359FB
:103470009F4F70DD6AE575E0CE0183599F4FB6DD41
:1034800020ED37E040E050E0BE0163597F4FC801B6
:1034900004DEC8015FDDCE0183599F4F5BDD6FE520
:1034A00075E0CE0183599F4FA1DD20ED37E040E06C
:1034B00050E0BE0163597F4FC801EFDDC8014ADD0E
:1034C000CE0183599F4F46DD8BED97E00E943A0E67
:1034D000892BD1F360ED77E080E090E00E946211EB
:1034E0008BED97E00E943A0E892B69F08BED97E007
:1034F0000E94180E89831A8241E050E0B80185E1EC
:1035000099E024DCEDCF85E199E0FAD8CE01099667
:103510009C838B8384E690E09E838D8318861F8234
:1035200082E192E09A83898380911509909116092E
:10353000009711F486EE92E0AF961FAF0EAFAF97F3
:10354000E1969FAF8EAFE197E3961FAF0EAFE39783
:103550008AE0E4968FAFE497CE0183599F4F0E9493
:103560002C0D7C016DE675E00E94AA039093030286
:103570008093020266E775E0C7010E94AA03909358
:103580000502809304026BE775E0C7010E94AA035D
:1035900090930702809306026FE775E0CE0183598E
:1035A0009F4F24DD20ED37E040E050E0BE0163593D
:1035B0007F4FC80172DDC801CDDCCE0183599F4F1A
:1035C000C9DCE0900602F0900702C0900402D0909F
:1035D00005026AE875E0CE0183599F4F07DDBE0101
:1035E00063597F4FC801E9DCB601C80176DC65E9A3
:1035F00075E073DCB70171DC69E975E06EDCBC0174
:10360000CE0186589F4FD9DCC801A4DCCE01835976
:103610009F4FA0DCBE0166587F4FCE0183599F4F5C
:10362000CCDC28E833E140E050E0BE0163597F4F35
:10363000C80133DDC8018EDCCE0183599F4F8ADC7F
:1036400066EA74E0C801D2DC6DE975E0CE018C5801
:103650009F4FCCDC28EB3BE040E050E0BE016C58D3
:103660007F4FCE0183599F4F18DDB801CE0183599A
:103670009F4F52DB7C01CE0183599F4F6BDCCE0103
:103680008C589F4F67DCC80165DCEF20E09409F19E
:1036900089EA95E00E94B71161E38BED97E0E8DCE1
:1036A00067EB75E0CE0183599F4FA0DC20ED37E03A
:1036B00040E050E0BE0163597F4FC801EEDCC80115
:1036C00049DCCE0183599F4F45DC81E0809395060C
:1036D00008C082EC95E00E94B71160E38BED97E0A3
:1036E000C7DCCE0186589F4F35DC66EE72E0C8011C
:1036F0007DDC8BED97E00E943A0E892BD1F38BEDA8
:1037000097E00E948B1270939706609396068DEC5B
:1037100095E00E94A61180919606909197060E94CE
:1037200008138BED97E00E94D10EC80113DC61E015
:1037300087E10E94071160E086E10E94071160E0C6
:103740008BE30E94071162E080913A090E94071101
:1037500080E398EFAFEFBFEF80933E0990933F096E
:10376000A0934009B093410980913409811104C0AC
:103770000E94541281110DC0109232091092340926
:103780001092330987ED95E00E94B71110929806C8
:1037900070C060E080EF0E941A1201E0F12CE12C71
:1037A00011E00E94F511C058DF4F8883C058D04007
:1037B0000E94F511C058DF4F9881C058D040913019
:1037C00019F48130C1F435C02F2D30E098131DC09D
:1037D00080913209181738F4F901E95DF64F8381B9
:1037E000802349F402C0181731F090E0193060F4DA
:1037F0001093330909C0EF2DF0E0E95DF64F8381A6
:10380000802B838391E009C0E12EF901E95DF64F39
:103810002381802F809582238383892F0E94C31167
:103820001F5F000F11F4F39401E087E08F1508F09B
:10383000B8CF113408F4A0CFE0923209E11003C0F0
:1038400081E08093340980912A09882309F494CF78
:10385000AAE2B9E0E9E9F6E08D91819386E0E13AE8
:10386000F807D1F78AEE95E00E94B71181E08093C6
:1038700098060E94DD040E94F20EFBCF1092A4066F
:103880001092A30648EE53E060E070E04093A50676
:103890005093A6066093A7067093A80688E192E06D
:1038A0009093A2068093A10625E331E03093AE0603
:1038B0002093AD0624E331E03093B0062093AF06A9
:1038C00020E331E03093B2062093B10621E331E0EA
:1038D0003093B4062093B30622E331E03093B6066A
:1038E0002093B50626E331E03093B8062093B7065F
:1038F0001092BA061092BB061092BC061092BD063A
:10390000109241071092400740934207509343079B
:10391000609344077093450790933F0780933E0759
:1039200025ED30E030934B0720934A0724ED30E03B
:1039300030934D0720934C0720ED30E030934F0734
:1039400020934E0721ED30E030935107209350072C
:1039500022ED30E0309353072093520726ED30E0FC
:103960003093550720935407109257071092580729
:103970001092590710925A071092DE071092DD0735
:103980004093DF075093E0076093E1077093E207ED
:103990009093DC078093DB072DEC30E03093E80751
:1039A0002093E7072CEC30E03093EA072093E907F7
:1039B00028EC30E03093EC072093EB0729EC30E063
:1039C0003093EE072093ED072AEC30E03093F007B8
:1039D0002093EF072EEC30E03093F2072093F107AD
:1039E0001092F4071092F5071092F6071092F7075D
:1039F00010927B0810927A0840937C0850937D08BF
:103A000060937E0870937F0890937908809378087C
:103A100085EC90E0909385088093840884EC90E096
:103A2000909387088093860880EC90E090938908B3
:103A30008093880881EC90E090938B0880938A08AB
:103A400082EC90E090938D0880938C0886EC90E057
:103A500090938F0880938E0810929108109292088C
:103A6000109293081092940887E280933A0986E1B5
:103A700080933B09E3E0F4E0E491E0933C09EDEB53
:103A8000F3E0E491E0933D0980E89EE3A0E0B0E03C
:103A90008093420990934309A0934409B093450948
:103AA00060E08AE10E940711E6EFF3E0E491E09321
:103AB0002709E0EBF3E0E491F0E0EE0FFF1FE4589C
:103AC000FC4F859194919093290980932809109235
:103AD00032091092340910923309E2E3F9E01292AC
:103AE00089E0EA32F807D9F76AEF75E081E299E0F8
:103AF0007DDA66EE72E08BE199E078DA66EE72E0EC
:103B000085E199E073CAEF920F931F93CF93DF93F0
:103B1000E80147FD02C034E001C034E1E42F440F66
:103B2000FF0BF7FF03C0F195E195F109E32E022F9A
:103B30002E2FAE012AD0CE01DF91CF911F910F9190
:103B4000EF900895BB274A3031F4992322F4BDE267
:103B5000909581959F4F01C0BB27FB015527AA2750
:103B6000880F991FAA1FA41710F0A41B839550510A
:103B7000B9F7A05DAA3308F0A95DA193009779F782
:103B8000B111B1931192CB0165C24F925F926F92C6
:103B90007F929F92AF92BF92CF92DF92EF92FF926D
:103BA0000F931F93CF93DF93CDB7DEB729970FB64F
:103BB000F894DEBF0FBECDBF6A01122FB02E2BE3EB
:103BC000201720F0FF24F394F00E02C0BCE3FB2E7C
:103BD0000F2D27E0AE014F5F5F4F64D1AC018981AB
:103BE000982F9970913031F0E1FC06C0E0FE06C0DC
:103BF00090E205C09DE203C09BE201C090E0EE2D83
:103C0000E07183FF3CC0911102C083E001C084E0F9
:103C1000811718F4212F281B01C020E0E1110BC0EF
:103C2000F601822F30E2882319F031938150FBCFC7
:103C3000C20ED11C20E0992329F0D6019C93F601F5
:103C400031966F01C6010396E2FE0AC03EE4D6013A
:103C50003C9341E411964C93119712963C9306C005
:103C60003EE6F601308341E641833283FC01322F88
:103C700040E2332309F442C041933150FACF82FF2E
:103C800044C0911102C083E001C084E0811718F4A0
:103C9000212F281B01C020E0E1110BC0F601822F6B
:103CA00030E2882319F031938150FBCFC20ED11C32
:103CB00020E0992329F0D6019C93F60131966F01FB
:103CC000C6010396E2FE0BC039E4D6013C933EE404
:103CD00011963C93119736E412963C9307C039E64F
:103CE000F60130833EE6318336E63283FC01322F23
:103CF00040E2332319F041933150FBCFFC01E20F36
:103D0000F11D10828EEF9FEFB7C0F1E0911101C05D
:103D1000F0E06F2F70E01416150624F49A012F5F5F
:103D20003F4F02C021E030E0260F371FBB2029F0B3
:103D30006B2D70E06F5F7F4F02C060E070E0260F78
:103D4000371F612F70E0261737071CF4121B212F35
:103D500001C020E03E2D387159F4D601322F60E2C7
:103D6000332319F06D933150FBCFC20ED11C20E0EC
:103D7000FF2331F0D6019C93B6016F5F7F4F6B013B
:103D8000E1110BC0F601922F30E3992319F0319322
:103D90009150FBCFC20ED11C20E09F2D940F3A8191
:103DA000782F7071A72E84FF03C0313309F491502E
:103DB000191624F4993018F098E001C091E0E42F2E
:103DC000852F57FF02C0E0E080E06E2F782FE0E003
:103DD000F0E0AEE29A2E3A01691A71082A01461AF9
:103DE000570A0B2D10E01195019511096F3F8FEFC8
:103DF000780729F4D6019C92C60101966C014617FA
:103E0000570784F0661677066CF47F01E40CF51C06
:103E1000A1E0B0E0AC0FBD1FEA0EFB1ED70111966A
:103E2000BC9002C090E3B92E615071093196C60171
:103E300001967C016017710724F0D601BC926C01D9
:103E4000D5CF6417750741F4363320F4353321F4A8
:103E5000A11002C081E3B82EF601B082F701822FD3
:103E600090E2882319F091938150FBCFF701E20F84
:103E7000F11D108280E090E029960FB6F894DEBF25
:103E80000FBECDBFDF91CF911F910F91FF90EF90AB
:103E9000DF90CF90BF90AF909F907F906F905F909A
:103EA0004F900895283008F027E03327DA01990F62
:103EB000311D87FD916000966105710539F432600E
:103EC0002E5F3D9330E32A95E1F708959F3F30F050
:103ED00080387105610509F03C5F3C5F3D9391308E
:103EE00008F08068911DDF93CF931F930F93FF928B
:103EF000EF92192F987F9695E92F96959695E90F51
:103F0000FF27EE59FE4F99273327EE24FF24A70100
:103F1000E70105900894079428F4360FE71EF81E71
:103F2000491F511D660F771F881F991F0694A1F71F
:103F30000590079428F4E70EF81E491F561FC11D6F
:103F4000770F881F991F661F0694A1F705900794A5
:103F500028F4F80E491F561FC71FD11D880F991F3F
:103F6000661F771F0694A1F70590079420F4490F68
:103F7000561FC71FD81F990F661F771F881F0694EB
:103F8000A9F784911095177041F0D695C79557956C
:103F90004795F794E7941A95C1F7E8E0F1E0689443
:103FA0001590159135916591959105907FE27395E6
:103FB000E118F10A430B560BC90BD009C0F7E10C0D
:103FC000F11E431F561FC91FD01D7EF4703311F41C
:103FD0008A95E6CFE894015030F0080F0AF40027E4
:103FE000021708F4202F2395022F7A3328F079E363
:103FF0007D932A95E9F710C07D932A9589F606945A
:1040000097956795379517951794E118F10A430B23
:10401000560BC90BD00998F023957E9173957A338E
:1040200008F070E37C932013B8F77E9170617D9364
:1040300030F0839571E37D9370E32A95E1F71124C5
:10404000EF90FF900F911F91CF91DF91992787FDFE
:1040500090950895DC01FC01672F71917723E1F7BA
:10406000329704C07C916D9370836291AE17BF0745
:10407000C8F3089540D008F481E00895E89409C099
:1040800097FB3EF490958095709561957F4F8F4F8B
:104090009F4F9923A9F0F92F96E9BB279395F695A1
:1040A000879577956795B795F111F8CFFAF4BB0F1F
:1040B00011F460FF1BC06F5F7F4F8F4F9F4F16C083
:1040C000882311F096E911C0772321F09EE8872F0D
:1040D000762F05C0662371F096E8862F70E060E0C9
:1040E0002AF09A95660F771F881FDAF7880F969542
:1040F000879597F90895990F0008550FAA0BE0E8E6
:10410000FEEF16161706E807F907C0F01216130699
:10411000E407F50798F0621B730B840B950B39F4D9
:104120000A2661F0232B242B252B21F408950A263F
:1041300009F4A140A6958FEF811D811D08950BD034
:1041400078C069D028F06ED018F0952309F05AC0D5
:104150005FC01124A2C07ED0A0F3959FD1F3950F2C
:1041600050E0551F629FF001729FBB27F00DB11DFB
:10417000639FAA27F00DB11DAA1F649F6627B00D8B
:10418000A11D661F829F2227B00DA11D621F739F74
:10419000B00DA11D621F839FA00D611D221F749F82
:1041A0003327A00D611D231F849F600D211D822FC9
:1041B000762F6A2F11249F5750408AF0E1F0882310
:1041C0004AF0EE0FFF1FBB1F661F771F881F91501D
:1041D0005040A9F79E3F510570F014C05EC05F3F8C
:1041E000ECF3983EDCF3869577956795B795F79550
:1041F000E7959F5FC1F7FE2B880F911D96958795D8
:1042000097F9089597F99F6780E870E060E0089556
:104210009FEF80EC089500240A94161617061806DE
:104220000906089500240A941216130614060506BA
:104230000895092E0394000C11F4882352F0BB0F4B
:1042400040F4BF2B11F460FF04C06F5F7F4F8F4FAE
:104250009F4F089557FD9058440F551F59F05F3FE9
:1042600071F04795880F97FB991F61F09F3F79F098
:1042700087950895121613061406551FF2CF46951A
:10428000F1DF08C0161617061806991FF1CF86959C
:104290007105610508940895E894BB276627772780
:1042A000CB0197F9089509D0A59F900DB49F900D6B
:1042B000A49F800D911D11240895A29FB001B39F6A
:1042C000C001A39F700D811D1124911DB29F700D1F
:1042D000811D1124911D08955058BB27AA270ED087
:1042E000A8CF99DF30F09EDF20F031F49F3F11F42A
:1042F0001EF48ECF0EF4E095E7FB84CFE92FAADF02
:1043000080F3BA17620773078407950718F071F4F2
:104310009EF5C2CF0EF4E0950B2EBA2FA02D0B0107
:10432000B90190010C01CA01A0011124FF27591BFA
:1043300099F0593F50F4503E68F11A16F040A22F00
:10434000232F342F4427585FF3CF46953795279571
:10435000A795F0405395C9F77EF41F16BA0B620B70
:10436000730B840BBAF09150A1F0FF0FBB1F661FB7
:10437000771F881FC2F70EC0BA0F621F731F841FFA
:1043800048F4879577956795B795F7959E3F08F020
:10439000B3CF9395880F08F09927EE0F97958795DF
:1043A00008950CD046CF3EDF40F035DF30F021F4E9
:1043B0005F3F19F027CF511170CF2ACF4BDF98F311
:1043C0009923C9F35523B1F3951B550BBB27AA2796
:1043D00062177307840738F09F5F5F4F220F331F08
:1043E000441FAA1FA9F333D00E2E3AF0E0E830D0D4
:1043F00091505040E695001CCAF729D0FE2F27D0D7
:10440000660F771F881FBB1F261737074807AB07A4
:10441000B0E809F0BB0B802DBF01FF2793585F4F19
:104420002AF09E3F510568F0EDCE37CF5F3FECF3A9
:10443000983EDCF3869577956795B795F7959F5FDE
:10444000C9F7880F911D9695879597F90895E1E032
:10445000660F771F881FBB1F621773078407BA0791
:1044600020F0621B730B840BBA0BEE1F88F7E095EC
:104470000895F8DE88F09F5790F0B92F9927B7512B
:10448000A0F0D1F0660F771F881F991F1AF0BA9518
:10449000C9F712C0B13081F0FFDEB1E00895FCCE63
:1044A000672F782F8827B85F39F0B93FCCF386950E
:1044B00077956795B395D9F73EF49095809570956B
:1044C00061957F4F8F4F9F4F089515DE08F48FEF52
:1044D000089597FB072E16F4009406D077FD08D0B8
:1044E00035D007FC05D03EF4909581959F4F0895F7
:1044F000709561957F4F0895A1E21A2EAA1BBB1BF0
:10450000FD010DC0AA1FBB1FEE1FFF1FA217B3079F
:10451000E407F50720F0A21BB30BE40BF50B661FB5
:10452000771F881F991F1A9469F760957095809579
:1045300090959B01AC01BD01CF010895EE0FFF1FC7
:10454000881F8BBF0790F691E02D1994AA1BBB1B07
:1045500051E107C0AA1FBB1FA617B70710F0A61B83
:10456000B70B881F991F5A95A9F780959095BC01A4
:10457000CD010895CF93DF938230910510F482E04E
:1045800090E0E0915509F091560920E030E0C0E05C
:10459000D0E0309711F14081518148175907C0F0A0
:1045A0004817590761F482819381209719F09B8302
:1045B0008A832BC0909356098093550926C02115F4
:1045C000310519F04217530718F49A01BE01DF01B3
:1045D000EF010280F381E02DDCCF2115310509F1D7
:1045E000281B390B2430310590F412968D919C9143
:1045F00013976115710521F0FB019383828304C039
:104600009093560980935509FD01329644C0FD01EF
:10461000E20FF31F81939193225031092D933C9324
:104620003AC02091530930915409232B41F4209131
:104630000A0230910B0230935409209353092091C0
:104640000802309109022115310541F42DB73EB71A
:1046500040910C0250910D02241B350BE09153093F
:10466000F0915409E217F307A0F42E1B3F0B281713
:10467000390778F0AC014E5F5F4F2417350748F0DB
:104680004E0F5F1F509354094093530981939193A8
:1046900002C0E0E0F0E0CF01DF91CF9108950F93E9
:1046A0001F93CF93DF93009709F48CC0FC013297DE
:1046B00013821282009155091091560901151105B6
:1046C00081F420813181820F931F20915309309111
:1046D00054092817390779F5F0935409E0935309E1
:1046E00071C0D80140E050E0AE17BF0750F41296F9
:1046F0002D913C911397AD012115310509F1D90197
:10470000F3CF9D01DA013383228360817181860FAB
:10471000971F8217930769F4EC0128813981260FCE
:10472000371F2E5F3F4F318320838A819B81938384
:104730008283452B29F4F0935609E093550942C032
:104740001396FC93EE931297ED01499159919E01B6
:10475000240F351FE217F30771F480819181840FD4
:10476000951F029611969C938E9382819381139646
:104770009C938E931297E0E0F0E0D80112968D9111
:104780009C911397009719F0F8018C01F6CF8D9149
:104790009C9198012E5F3F4F820F931F20915309E8
:1047A000309154092817390769F4309729F4109289
:1047B00056091092550902C01382128210935409AF
:1047C00000935309DF91CF911F910F9108956F923C
:1047D0007F928F929F92AF92BF92CF92DF92EF9291
:1047E000FF920F931F93CF93DF93EC01009781F417
:1047F000CB01DF91CF911F910F91FF90EF90DF9050
:10480000CF90BF90AF909F908F907F906F90B2CEDF
:10481000FC01E60FF71F9C0122503109E217F30754
:1048200008F4A8C0D9010D911C911197061717071C
:10483000A8F00530110508F49BC0C801049786173D
:10484000970708F495C002501109061B170B019336
:1048500011936D937C93CF0122DF8AC05B01A01A74
:10486000B10A4C01800E911EA0915509B0915609D4
:1048700040E050E0E12CF12C109709F44AC0A81553
:10488000B905D1F56D907C901197630182E0C80E57
:10489000D11CCA14DB0480F1A3014A195B096A0127
:1048A00082E0C80ED11C1296BC9012971396AC9160
:1048B000B5E0CB16D10440F0B282A383518340838C
:1048C000D9016D937C930AC00E5F1F4FC301800F07
:1048D000911FF90191838083EB2DFA2FE114F104EC
:1048E00031F0D7011396FC93EE93129741C0F093E9
:1048F0005609E09355093CC08D919C91119748173A
:10490000590708F4AC017D0112960D90BC91A02DC1
:10491000B3CF809153099091540988159905E1F41A
:1049200046175707C8F48091080290910902009732
:1049300041F48DB79EB740910C0250910D02841B3B
:10494000950BE817F907B0F4F0935409E093530975
:10495000F901718360830CC0CB010CDE7C010097F0
:1049600049F0A801BE011BD0CE0199DEC70104C0E9
:10497000CE0102C080E090E0DF91CF911F910F91B6
:10498000FF90EF90DF90CF90BF90AF909F908F906F
:104990007F906F90089581E090E0F89433C0FB0120
:1049A000DC0102C001900D9241505040D8F70895AB
:1049B000FB01DC018D91019080190110D9F3990B55
:1049C0000895FB01DC0101900D920020E1F70895AC
:1049D000FB0151915523A9F0BF01DC014D91451711
:1049E0004111E1F759F4CD010190002049F04D91BA
:1049F00040154111C9F3FB014111EFCF81E090E077
:104A00000197089512E0C2E1D2E000E005C0802FD6
:104A1000FE0194DD2196011DC331D10780E0080716
:064A2000B1F7F894FFCF8E
:104A26000101E602E602E6020000570980000000E6
:104A360000004902000000008B0E1E15090ED10E63
:104A46003A0E180E2C0E67657420726573756C74B9
:104A56002076616C75652066726F6D20636F6E746B
:104A6600726F6C20626F617264203A200065727208
:104A76006F72206765742076616C75652066726F4B
:104A86006D20636F6E74726F6C20626F6172642E3C
:104A96002E00756E646566696E656420747970654E
:104AA6002076616C75652E00636F6E74726F6C2074
:104AB600646174612073656E6420746F20436F6E49
:104AC60074726F6C426F617264203A200074696D73
:104AD600656F7574206765742076616C75652066F0
:104AE600726F6D20636F6E74726F6C20626F61728D
:104AF600642E006E756C6C0022225C5C6208660C8B
:104B06006E0A720D7409007265717565737420669C
:104B1600726F6D206D6173746572203A2000617545
:104B2600746F6D617469635F6C6564203D20747297
:104B36007565006175746F6D617469635F6C65643A
:104B4600203D2066616C7365006175746F6D6174DC
:104B560069635F66616E203D2074727565006175DC
:104B6600746F6D617469635F66616E203D20666176
:104B76006C73650070756D705F72756E6E696E67C9
:104B86000070756D705F73746F7000726571756516
:104B960073742066726F6D206D6173746572203A4E
:104BA600206572726F7200435243206973206E6FE4
:104BB600742076616C696421003800390034003550
:104BC600004E6F20736F6C7574696F6E21004F75A0
:104BD60074206F66207468652072616E67652100B7
:104BE600446576696365206970203A20004C454427
:104BF600206D6F6465203A20004C45442073746133
:104C06007465203A200046616E20537461746520F5
:104C16003A200057617465722054656D7065726143
:104C260074757265203A20004448542054656D70AE
:104C360065726174757265203A20004448542048B4
:104C4600756D6964697479203A2000504F54205676
:104C5600616C7565203A20005761746572204C6559
:104C660076656C203A2000250A0045432076616C63
:104C76007565203A200075732F636D0A0050482031
:104C860076616C7565203A20003D3D3D3D4461747A
:104C9600612053656E64696E672073746172743D3A
:104CA6003D3D3D3D0041542B4349505354415254E0
:104CB6003D2254435022003139322E3136382E34BB
:104CC6002E3100222C004F4B003F743D0026683DDC
:104CD600002677743D0026776C3D0026653D00264C
:104CE60065633D002670683D002673663D004745B6
:104CF600542000436F6E6E656374696F6E3A636C21
:104D06006F73650D0A0D0A0041542B4349505345F4
:104D16004E443D003D3D3D3D3D446174612073651B
:104D26006E64696E6720656E642E2E3D3D3D3D3D89
:104D3600003D3D3D3D446174612073656E64696E5E
:104D460067206661696C2E2E3D3D3D3D0070756D98
:104D560070206E6F742072756E6E696E670077696B
:104D66006669206E6F7420636F6E6E65637465642A
:104D76000041542B5253540D0A0041540D0A004170
:104D8600542B43574D4F44453D310D0A007573650D
:104D9600724E616D650073736964007073770041CC
:104DA600542B43575141500D0A0041542B43574A47
:104DB60041503D2200222C2200220D0A0041542B94
:104DC60043574A41503F0D0A00736C617665207364
:104DD6007563636573730041542B43494653520D03
:104DE6000A00736C617665206661696C00736663A0
:104DF6006F6465203D2000445331382043616E20A6
:104E06006E6F742066696E64210044533138204306
:104E16006F6E6E65637465642E002F73656E642E07
:104E2600706870003139322E00697020696478200C
:0E4E36003A20006F6B5F696478203A2000001C
:020000023000CC
:10E000000D9489F10D94B2F10D94B2F10D94B2F129
:10E010000D94B2F10D94B2F10D94B2F10D94B2F1F0
:10E020000D94B2F10D94B2F10D94B2F10D94B2F1E0
:10E030000D94B2F10D94B2F10D94B2F10D94B2F1D0
:10E040000D94B2F10D94B2F10D94B2F10D94B2F1C0
:10E050000D94B2F10D94B2F10D94B2F10D94B2F1B0
:10E060000D94B2F10D94B2F10D94B2F10D94B2F1A0
:10E070000D94B2F10D94B2F10D94B2F10D94B2F190
:10E080000D94B2F10D94B2F10D94B2F10D94B2F180
:10E090000D94B2F10D94B2F10D94B2F10D94B2F170
:10E0A0000D94B2F10D94B2F10D94B2F10D94B2F160
:10E0B0000D94B2F10D94B2F10D94B2F10D94B2F150
:10E0C0000D94B2F10D94B2F10D94B2F10D94B2F140
:10E0D0000D94B2F10D94B2F10D94B2F10D94B2F130
:10E0E0000D94B2F141546D656761323536300041AF
:10E0F000726475696E6F206578706C6F72657220DE
:10E1000073746B3530305632206279204D4C530099
:10E11000426F6F746C6F616465723E004875683F52
:10E1200000436F6D70696C6564206F6E203D200048
:10E130004350552054797065202020203D20005FF9
:10E140005F4156525F415243485F5F3D2000415658
:10E1500052204C696243205665723D20004743437C
:10E160002056657273696F6E203D20004350552024
:10E1700049442020202020203D20004C6F7720663D
:10E18000757365202020203D20004869676820665F
:10E190007573652020203D200045787420667573D6
:10E1A00065202020203D20004C6F636B2066757336
:10E1B000652020203D20004D617220203720323024
:10E1C000313300312E362E3800342E332E350056A2
:10E1D00023202020414444522020206F7020636F70
:10E1E00064652020202020696E73747275637469E1
:10E1F0006F6E2061646472202020496E74657272B3
:10E20000757074006E6F20766563746F7200726A49
:10E210006D702020006A6D70200057686174207056
:10E220006F72743A00506F7274206E6F7420737541
:10E2300070706F72746564004D7573742062652030
:10E2400061206C6574746572002000577269747483
:10E25000696E672045450052656164696E672045B7
:10E26000450045452065727220636E743D00504F35
:10E27000525400303D5A65726F2061646472003FF1
:10E280003D43505520737461747300403D454550C3
:10E29000524F4D207465737400423D426C696E6B41
:10E2A000204C454400453D44756D70204545505215
:10E2B0004F4D00463D44756D7020464C415348001B
:10E2C000483D48656C70004C3D4C69737420492F83
:10E2D0004F20506F72747300513D51756974005234
:10E2E0003D44756D702052414D00563D73686F7707
:10E2F00020696E7465727275707420566563746FF0
:10E30000727300593D506F727420626C696E6B00BD
:10E310002A0011241FBECFEFD1E2DEBFCDBF01E046
:10E320000CBF12E0A0E0B2E0EEE1FDEF03E00BBFB6
:10E3300002C007900D92A030B107D9F712E0A0E01B
:10E34000B2E001C01D92AE30B107E1F70F9460F367
:10E350000D948DFE01E20EBF0FEF0DBF11241FBE05
:10E360000D9460F30D9400F020E030E040ED57E0B4
:10E3700005C0FA013197F1F72F5F3F4F2817390792
:10E38000C0F308959C01260F311DC901A0E0B0E043
:10E390002F5F3F4FABBFFC018791882361F08093D3
:10E3A000C6008091C00086FFFCCF8091C0008064D1
:10E3B0008093C000EACF08958DE08093C6008091DD
:10E3C000C00086FFFCCF8091C00080648093C000B5
:10E3D0008AE08093C6008091C00086FFFCCF8091C8
:10E3E000C00080648093C00008950F94C2F10F9420
:10E3F000DCF10895FC019081992359F09093C600B7
:10E400008091C00086FFFCCF8091C0008064809323
:10E41000C0003196992379F70895282F982F929567
:10E420009F70892F805D8A3308F0895F8093C600D2
:10E430008091C00086FFFCCF8091C00080648093F3
:10E44000C000822F8F70982F905D9A3308F0995FEB
:10E450009093C6008091C00086FFFCCF8091C000E1
:10E4600080648093C00008959C01FB01853691056E
:10E470001CF46330710594F0C90164E670E00F94F8
:10E480002EFE605D7F4F6093C6008091C00086FFC6
:10E49000FCCF8091C00080648093C0002B30310598
:10E4A00014F43297B4F0C90164E670E00F942EFEC4
:10E4B0006AE070E00F942EFE605D7F4F6093C600AF
:10E4C0008091C00086FFFCCF8091C0008064809363
:10E4D000C000C9016AE070E00F942EFEC0968093E0
:10E4E000C6008091C00086FFFCCF8091C000806490
:10E4F0008093C00008951F93182F8EE692EE60E07F
:10E500000F94C2F11093C6008091C00086FFFCCF2B
:10E510008091C00080648093C0000F94DCF11F9153
:10E5200008952F923F924F925F926F927F928F92B7
:10E530009F92AF92BF92CF92DF92EF92FF920F9392
:10E540001F93DF93CF93CDB7DEB762970FB6F894E2
:10E55000DEBF0FBECDBF382E622ECA01DB015C01CB
:10E560006D01772420E2222E2E010894411C511CBB
:10E570008BC081E0A81680E0B80681E0C80680E084
:10E58000D80628F0C601AA27BB270F940DF2BB2797
:10E59000AD2D9C2D8B2D0F940DF28A2D0F940DF225
:10E5A0002092C6008091C00086FFFCCF8091C00001
:10E5B00080648093C0009DE29093C6008091C0006B
:10E5C00086FFFCCF8091C00080648093C0002092C1
:10E5D000C6008091C00086FFFCCF8091C00080649F
:10E5E0008093C00019828601750188249924A1E0D6
:10E5F0003A1651F03A1620F0B2E03B1661F409C029
:10E600000BBFF701779007C0C7010F9477FE782EF4
:10E6100002C0F7017080872D0F940DF22092C60082
:10E620008091C00086FFFCCF8091C0008064809301
:10E63000C000872D8052F401EF70F0708F3520F408
:10E64000E40DF51D708204C0E40DF51D8EE280839B
:10E650000894E11CF11C011D111D0894811C911CE2
:10E6600090E18916910409F0C2CF80E190E0A0E02A
:10E67000B0E0A80EB91ECA1EDB1E198AC2010F9493
:10E68000FAF10F94DCF16A94662009F072CF629679
:10E690000FB6F894DEBF0FBECDBFCF91DF911F91B3
:10E6A0000F91FF90EF90DF90CF90BF90AF909F9031
:10E6B0008F907F906F905F904F903F902F90089534
:10E6C0002F923F924F925F926F927F928F929F9282
:10E6D000AF92BF92CF92DF92EF92FF920F931F9370
:10E6E000DF93CF93CDB7DEB7CD53D1400FB6F894BB
:10E6F000DEBF0FBECDBF01E20EBF0FEF0DBF94B75F
:10E70000F894A89514BE80916000886180936000A1
:10E7100010926000789493FF05C0E0910002F091A0
:10E7200001021995279A2F9A8091C00082608093E8
:10E73000C00080E18093C40088E18093C1000000A4
:10E74000EE24FF24870144E0A42EB12CCC24DD2448
:10E7500024C0C5010197F1F70894E11CF11C011DCB
:10E76000111D21E2E2162EE4F20620E0020720E06D
:10E77000120718F031E0C32ED12CC801B70127ECE5
:10E780003BE140E050E00F9441FE611571058105C9
:10E79000910519F485B1805885B98091C00087FD35
:10E7A00003C0C114D104A9F2A6014F5F5F4FC25E3E
:10E7B000DE4F59834883CE51D140C25EDE4F8881FF
:10E7C0009981CE51D140019711F00D9410FEC05D9A
:10E7D000DE4F19821882C053D14060E0C15DDE4F28
:10E7E0001882CF52D14088249924C35DDE4F19820C
:10E7F0001882CD52D140C05EDE4F188219821A8233
:10E800001B82C052D140CE5CDE4F188219821A8220
:10E810001B82C253D140EE24FF2487010BBFF701B6
:10E8200007911691C45CDE4F19830883CC53D14005
:10E830000D940BFEC25EDE4F28813981CE51D1404E
:10E840002130310509F52091C600C25EDE4F1982E4
:10E850001882CE51D14022C02F5F3F4F4F4F5F4FA4
:10E86000213082E138078AE7480780E0580780F0C6
:10E87000C45CDE4FE881F981CC53D140EF5FFF4F9C
:10E8800019F0EE27FF27099420E030E040E050E047
:10E890008091C00087FFE0CF2091C600C35DDE4FAE
:10E8A00048815981CD52D1404F5F5F4FC35DDE4FEC
:10E8B00059834883CD52D140213209F063C64A3092
:10E8C000510508F05FC60894811C911C53E0851621
:10E8D000910409F059C600E010E018C081E280936D
:10E8E000C6008091C00086FFFCCF8091C00080648C
:10E8F0008093C0002F5F3F4F2931310579F70F9486
:10E90000DCF10F5F1F4F0530110519F020E030E0FA
:10E91000E5CF10920A0210920B0210920C02109294
:10E920000D02109206021092070210920802109235
:10E930000902109202021092030210920402109235
:10E9400005028FEE90EE60E00F94F5F180E191EE1C
:10E9500060E00F94C2F18091C00087FFFCCF9091DE
:10E96000C600903608F09F759032B8F09093C600BC
:10E970008091C00086FFFCCF8091C00080648093AE
:10E98000C000A0E2A093C6008091C00086FFFCCF2B
:10E990008091C00080648093C000983409F4D7C18E
:10E9A0009934B8F4923409F459C1933458F490333B
:10E9B00019F1903308F4E3C59F33A1F1903409F0C5
:10E9C000DEC5BDC0953409F470C1963409F0D7C5D1
:10E9D00098C1923509F42BC2933538F49C3409F46C
:10E9E000F5C1913509F0CBC518C2963509F445C279
:10E9F000993509F0C4C567C483E792EE62E00F94CD
:10EA0000F5F110920602109207021092080210927D
:10EA1000090210920A0210920B0210920C0210923C
:10EA20000D0213C18FE792EE62E00F94F5F18FEEC5
:10EA300090EE60E00F94F5F181E291EE60E00F94CA
:10EA4000C2F187EB91EE60E00F94F5F180E391EE77
:10EA500060E00F94C2F184EE90EE60E00F94F5F167
:10EA60008FE391EE60E00F94C2F186E090E061E008
:10EA700070E00F9434F20F94DCF18DE591EE60E0DC
:10EA80000F94C2F189EC91EE60E00F94F5F18EE401
:10EA900091EE60E00F94C2F183EC91EE60E00F9490
:10EAA000F5F18CE691EE60E00F94C2F18EE10F94E7
:10EAB0000DF288E90F940DF281E00F940DF20F949E
:10EAC000DCF18BE791EE60E00F94C2F119E0E0E039
:10EAD000F0E010935700E4918E2F0F940DF20F94F5
:10EAE000DCF18AE891EE60E00F94C2F1E3E0F0E03F
:10EAF00010935700E4918E2F0F940DF20F94DCF1D8
:10EB000089E991EE60E00F94C2F1E2E0F0E0109349
:10EB10005700E4918E2F0F940DF20F94DCF188EAE8
:10EB200091EE60E00F94C2F1E1E0F0E01093570045
:10EB30001491812F0F940DF20F94DCF107CF8BE825
:10EB400092EE62E00F94F5F18BE492EE60E00F94A8
:10EB5000F5F10F94DCF100E010E019C0C8016F2D51
:10EB60000F947FFEFF2031F489E492EE60E00F9471
:10EB7000C2F10BC0F092C6008091C00086FFFCCFAE
:10EB80008091C00080648093C0000F5F1F4FC80158
:10EB900081519F41A0E0B0E0ABBFFC01F790BAE229
:10EBA000FB1621F0E2E000301E07C1F60F94DCF105
:10EBB0000F94DCF187E592EE60E00F94F5F10F948D
:10EBC000DCF1CC24DD2400E010E01EC0C8010F946D
:10EBD00077FEF82E882331F489E492EE60E00F94FA
:10EBE000C2F10BC08093C6008091C00086FFFCCFAD
:10EBF0008091C00080648093C000FE1419F00894D6
:10EC0000C11CD11C0F5F1F4FC80181519F41A0E063
:10EC1000B0E0ABBFFC01E790FAE2EF1621F022E092
:10EC20000030120799F60F94DCF10F94DCF182E6C4
:10EC300092EE60E00F94C2F1C60161E070E00F94C3
:10EC400034F20F94DCF10F94DCF110920202109276
:10EC50000302109204021092050278CE89E992EE26
:10EC600062E00F94F5F1279A2F9A16C02F9880E052
:10EC700090E0E0EDF7E03197F1F7019684369105E9
:10EC8000C1F72F9A80E090E0E0EDF7E03197F1F7DF
