:1000000012C2000041C200003FC200003DC2000019
:100010003BC2000039C2000037C2000035C20000F8
:1000200033C200000C94D80A0C94D80A0C94D80A55
:100030002BC2000029C2000027C2000025C2000018
:1000400023C2000021C200001FC200001DC2000028
:100050001BC2000019C2000017C200000C948E0AD7
:1000600013C200000C9468090C943F090DC20000F3
:100070000BC2000009C2000007C2000005C2000058
:1000800003C2000001C20000FFC10000FDC100006A
:100090000C9416090C94ED08F7C10000F5C100009E
:1000A000F3C10000F1C10000EFC10000EDC100008C
:1000B000EBC10000E9C10000E7C10000E5C100009C
:1000C000E3C10000E1C10000DFC100000C94C408DE
:1000D0000C949B08D9C10000D7C10000D5C1000015
:1000E000D3C10000C009C309B209B609BA09FA09A7
:1000F000C709CB09D109D509D909DF09E309E709FE
:10010000FA09ED09F109F50900407A10F35A00A047
:10011000724E18090010A5D4E80000E876481700D0
:1001200000E40B54020000CA9A3B000000E1F50510
:10013000000080969800000040420F000000A0865A
:1001400001000000102700000000E803000000008C
:100150006400000000000A00000000000100000030
:1001600000002C76D888DC674F0823DFC1DFAE594A
:10017000E1B1B796E5E3E453C63AE651997696E8DD
:10018000E6C28426EB898C9B62ED407C6FFCEFBC61
:100190009C9F40F2BAA56FA5F490055A2AF75C938C
:1001A0006B6CF9676DC11BFCE0E40D47FEF520E6C2
:1001B000B500D0ED902E0300943577050080841EA5
:1001C000080000204E0A000000C80C333333330F00
:1001D000986E12831141EF8D2114893BE65516CF9D
:1001E000FEE6DB18D1844B381BF77C1D901DA4BBA9
:1001F000E424203284725E228100C9F124ECA1E55E
:100200003D27005EBCE2613FDD83C29C7E20A3FDF2
:100210001F419DC3217FFCA2401E5F01E3BD3E60E4
:1002200082DC237D9FC1421CFEA0E1BF5D0380DE16
:100230003C62BEE0025CDF81633D7C22C09E1D43C8
:10024000A1FF4618FAA427799BC584DA3866E5BB76
:100250005907DB856739BAE406581947A5FB7826A4
:10026000C49A653BD987045AB8E6A7F91B45C698D6
:100270007A24F8A6441A99C7257B3A6486D85B0588
:10028000E7B98CD2306EEDB3510F4E10F2AC2F7136
:1002900093CD114FADF3702ECC92D38D6F31B2EC64
:1002A0000E50AFF1134DCE90722C6D33D18F0C5296
:1002B000B0EE326C8ED0530DEFB1F0AE4C1291CF48
:1002C0002D73CA947628ABF517490856B4EA6937F6
:1002D000D58B5709EBB536688AD495CB2977F4AA24
:1002E0004816E9B7550B88D6346A2B7597C94A1456
:1002F000F6A8742AC896154BA9F7B6E80A54D78908
:100300006B35000020002300260029002C002F0060
:100310003200000100000301060109010505050581
:10032000070508080808020202020A0A080804046D
:10033000040401010101010101010303030303039B
:100340000303040707070C0C0C0C0C0C0C0C02022A
:10035000020206060606060606060B0B0B0B0B0B27
:100360000B0B0102102020080810204010204080B4
:100370000201020108040201010204081020408069
:1003800080402010080402018004020180402010F7
:100390000804020108040201010204081020408040
:1003A00001020408102040800000210024002700E2
:1003B0002A002D0030003300010100000401070174
:1003C0000A0100002200250028002B002E00310029
:1003D000340002010000050108010B0100000A0BB6
:1003E00002090C0D0E0807030401000000000000C4
:1003F00000000000000000000000000000000000FD
:1004000000000000000000001211100000000000B9
:1004100000000000000000000000000000000000DC
:10042000000046164C1711241FBECFEFD1E2DEBFED
:10043000CDBF00E00CBF26E0ACE4B4E001C01D92EB
:10044000A739B207E1F714E0A0E0B2E0ECEAFCE380
:1004500000E00BBF02C007900D92AC34B107D9F792
:1004600012E0C2E1D2E000E006C021970109802F2E
:10047000FE010E94F51BC131D10780E00807A9F7F2
:100480000E94260E0C94451EBBCD8F929F92AF9278
:10049000BF92CF92DF92EF92FF92CF93DF93A09122
:1004A0006506882311F03A2F01C030E0809166067E
:1004B00090E0880F991F8E5F9C4FC0906B06D09084
:1004C0006C06E0906D06F0906E0640E050E0BA01D8
:1004D000FC01C591D49128812A2323130FC04A011E
:1004E0005B012FEF821A920AA20AB20A4C155D052F
:1004F0006E057F0538F4B501A401EACF342F252F0E
:10050000CB0104C030E020E080E090E0632F722F48
:10051000DF91CF91FF90EF90DF90CF90BF90AF90A1
:100520009F908F90089542E050E065ED73E087EA78
:1005300095E00C94E20CCF93DF93009779F0FC01E7
:1005400001900020E9F73197AF01481B590BBC011E
:1005500087EA95E00E94E20CEC0102C0C0E0D0E026
:1005600042E050E065ED73E087EA95E00E94E20C1E
:100570008C0F9D1FDF91CF91089590915006E091CF
:100580005106F0915206392F309580FF13C0F89430
:100590002281832F822382838181892B8183A3E21D
:1005A000B0E01197F1F78281982B9283789487EDD0
:1005B00090E012C0F8942281832F8223828381816C
:1005C000892B8183AFEFB0E01197F1F78281982BEF
:1005D000928378948FE090E00197F1F708958091ED
:1005E0005006E0915106F0915206F8949181982BB3
:1005F00091832281982F909529232283A7E0B0E050
:100600001197F1F7218192239183A3E2B0E0119732
:10061000F1F790817894EFECF0E03197F1F79823BF
:1006200081E009F480E00895EF92FF920F931F9309
:10063000CF93DF931F92CDB7DEB7082F88E0E82E67
:10064000F12C11E081E0912F902309F480E069837F
:1006500094DF110F81E0E81AF1086981E114F104D7
:1006600089F7611113C0F894E0915106F091520698
:10067000918180915006809598239183E091510655
:10068000F091520692818923828378940F90DF91B2
:10069000CF911F910F91FF90EF9008959091500688
:1006A000E0915106F0915206F8948181292F20950E
:1006B0008223818378948DE743E050E0815021F1DB
:1006C000DA011197F1F730813923C1F3F89482816F
:1006D000822382838181892B81837894ABE7B7E081
:1006E0001197F1F7F894818128232183A3E1B1E0E8
:1006F0001197F1F78081982381E009F080E07894E8
:10070000E3E6F6E03197F1F70895FC01A089B1899D
:1007100082E08C93A485B5851C92A685B7858FEC65
:100720008C93108EA489B58986E08C93A289B389B5
:100730008C9180618C93A289B3898C9188608C9311
:10074000A289B3898C9180688C930288F389E02D0B
:1007500080818F7D808308951F93CF93DF9360E026
:1007600085E562DFC5E6D4E01C2F185F60E0899163
:100770005BDF1C13FBCFDF91CF911F9108959F92F8
:10078000AF92BF92CF92DF92EF92FF920F931F939F
:10079000CF93DF9300D000D0CDB7DEB7FC019681B8
:1007A000992309F4D9C06B017F01915096835F01B1
:1007B00082E0A80EB11CC5012CD7D7011296ED918D
:1007C000FC91139780818B3521F08B3709F493C00E
:1007D0009CC0F70100811181B80184E090E00E9483
:1007E000150C009751F0DC0111961C930E93139693
:1007F0001C921E9212978C0111C080917406811177
:100800000BC010927106109270061092730610922F
:10081000720681E08093740600E716E06BE5C5017F
:100820003AD7882309F447C06DE5C50134D7811153
:1008300053C086E0982E1A821982BE016F5F7F4FE7
:10084000C7019DDF8823B9F1F8016081718188E0DB
:1008500090E0EBD7DC01892B39F011961C921E92A7
:1008600013961C921E921297F80122813381211552
:10087000310551F0F90180819181009711F09C01BF
:10088000F9CFB183A08303C0F801B383A28310978B
:1008900091F0FE0131961296892D01900D928A9564
:1008A000E1F76DE5C501F7D6811116C06CE2C5010F
:1008B000F2D68111C0CF8091740681110BC01092C5
:1008C000710610927006109273061092720681E003
:1008D0008093740600E716E0D8018D919C91892BD6
:1008E00011F410E031C086E090E0F601918380833E
:1008F0001383028328C0C701A7D7DC012D913C9147
:10090000232B79F327E030E019C011E0873219F08A
:10091000823209F010E0C701DCD6009711F31123F1
:1009200059F022E030E0D60111963C932E931396B5
:100930009C938E93129708C021E030E0F60131833A
:1009400020839383828311E0D70116968C911697AA
:100950008F5F16968C9301C010E0812F26960FB6FC
:10096000F894DEBF0FBECDBFDF91CF911F910F91E5
:10097000FF90EF90DF90CF90BF90AF909F90089541
:10098000CF93DF93BC0187EA95E00E94D30DEC0181
:1009900042E050E065ED73E087EA95E00E94E20CEA
:1009A0008C0F9D1FDF91CF910895CF92DF92EF9230
:1009B000FF920F931F93CF93DF93CDB7DEB7C05451
:1009C000D1400FB6F894DEBF0FBECDBF9BD50091CE
:1009D0006706109168062091690630916A066B01DE
:1009E0007C01C01AD10AE20AF30A40EDC41647E0BE
:1009F000D406E104F10418F480916F06B1C060934D
:100A00006706709368068093690690936A06109251
:100A10006206109261061092600610925F061092B4
:100A20005E0661E0809163067CD46AEF70E080E04E
:100A300090E030D561E080916306F0D460E0809171
:100A400063066FD464E170E080E090E023D5F89411
:100A500061E08091630665D48BE990E00197F1F73E
:100A600062E080916306DAD483E290E00197F1F7C7
:100A700080E00BDD672B682B692B21F410926F0649
:100A800078943BC081E001DD672B682B692BB1F3C3
:100A90008E010F5F1F4F6E018FEBC81A8EEFD80AC1
:100AA000780180E0F2DCF7016083718382839383B5
:100AB00081E0EBDCF7016483758386839783F8E03C
:100AC000EF0EF11CEC14FD0461F7789420E030E0A7
:100AD000F8014081518162817381C480D580E680B4
:100AE000F780411551056105710529F0C114D10444
:100AF000E104F10421F410926F0680E031C0F901A5
:100B000083E0F595E7958A95E1F7E25AF94F808100
:100B1000880F4C155D056E057F0508F481608083A4
:100B20002F5F3F4F085F1F4F2832310589F6209114
:100B3000620630E040915E0680915F0690E0840F8F
:100B4000911D40916006840F911D40916106840FB4
:100B5000911D99272817390771F681E080936F0658
:100B6000C05CDE4F0FB6F894DEBF0FBECDBFDF9185
:100B7000CF911F910F91FF90EF90DF90CF9008954C
:100B8000CF93DF93FC0124813581232B71F0FB018E
:100B9000DC01CD91DC9160817181CE010E942B1E20
:100BA000009719F08C1B9D0B02C08FEF9FEFDF9118
:100BB000CF910895EF92FF920F931F93CF93DF93FE
:100BC000FC01248135816115710511F480E018C0A4
:100BD00041155105A1F07B01EC018A01020F131FA1
:100BE000B8011BD7882391F3288139818C819D819D
:100BF000B701820F931F0E94241E1D830C8381E086
:100C0000DF91CF911F910F91FF90EF900895CF92B8
:100C1000DF92EF92FF920F931F93CF93DF9300D059
:100C200000D0CDB7DEB78C017B016AE474E02B8382
:100C30003C834D835E83A3D7B7018DE694E0B3D7A1
:100C400061D42B813C814D815E816B017C01C20EA0
:100C5000D31EE41EF51E56D46C157D058E059F052A
:100C600090F48DE694E030D1892BA9F38DE694E0E1
:100C700009D189831A8241E050E0BE016F5F7F4F46
:100C8000C80198DFEECFC8017BDEC80126960FB6FB
:100C9000F894DEBF0FBECDBFDF91CF911F910F91B2
:100CA000FF90EF90DF90CF900895EF92FF920F9317
:100CB0001F93CF93DF93CDB7DEB764970FB6F89449
:100CC000DEBF0FBECDBF7C01CB01BA018E010F5F2D
:100CD0001F4F22E044E00E945417FC0101900020C5
:100CE000E9F73197AF01481B590BBC01C70162DF1F
:100CF000811102C0C701B8D6C70164960FB6F89437
:100D0000DEBF0FBECDBFDF91CF911F910F91FF903E
:100D1000EF900895EF92FF920F931F93CF93DF937D
:100D2000CDB7DEB727970FB6F894DEBF0FBECDBFA5
:100D30007C01CB014AE08E010F5F1F4FB8010E947A
:100D40007D17F80101900020E9F73197AF01401BB2
:100D5000510BB801C7012EDF811102C0C70184D633
:100D6000C70127960FB6F894DEBF0FBECDBFDF9147
:100D7000CF911F910F91FF90EF900895EF92FF9206
:100D80000F931F93CF93DF93CDB7DEB728970FB69E
:100D9000F894DEBF0FBECDBF7C01CB014AE08E01CF
:100DA0000F5F1F4FB8010E947317F80101900020D8
:100DB000E9F73197AF01401B510BB801C701FADECB
:100DC000811102C0C70150D6C70128960FB6F8940A
:100DD000DEBF0FBECDBFDF91CF911F910F91FF906E
:100DE000EF900895CF93DF93EC016115710559F0F1
:100DF000FB0101900020E9F73197AF01461B570B2B
:100E0000D9DE811102C0CE012FD6CE01DF91CF9164
:100E10000895CF93DF93EC01FB01448155816081FC
:100E20007181C8DE811102C0CE011ED6CE01DF91D4
:100E3000CF910895FC01A089B1898C91A689B789C9
:100E400082FD0FC09C91818D8F5F8F73228D8217E1
:100E500049F0218DDF01A20FB11D5D969C93818F1A
:100E600008958C910895FC01538D448D252F30E019
:100E7000842F90E0821B930B541710F0CF960895A7
:100E800001970895FC01918D828D981761F0828DF4
:100E9000DF01A80FB11D5D968C91928D9F5F9F73AE
:100EA000928F90E008958FEF9FEF0895FC01918D50
:100EB000828D981731F0828DE80FF11D858D90E0BD
:100EC00008958FEF9FEF0895FC01918D228D892F5A
:100ED00090E0805C9F4F821B91098F739927089542
:100EE0008DE694E0F1DF21E0892B09F420E0822FE8
:100EF00008958AE095E0E8DF21E0892B09F420E0FD
:100F0000822F089587EA95E0DFDF21E0892B09F43D
:100F100020E0822F0895FC01848DDF01A80FB11D10
:100F2000A35ABF4F2C91848D90E001968F7399271F
:100F3000848FA689B7892C93A089B1898C9180640C
:100F40008C93938D848D981306C00288F389E02DCD
:100F500080818F7D80830895EF92FF920F931F937E
:100F6000CF93DF93EC0181E0888F9B8D8C8D98135C
:100F700005C0E889F989808185FD23C0F62E0B8D97
:100F800010E00F5F1F4F0F731127E02E8C8DE812BA
:100F90000BC00FB607FCFACFE889F989808185FF7D
:100FA000F5CFCE01B8DFF2CF8B8DFE01E80FF11D3A
:100FB000E35AFF4FF0820B8FEA89FB8980818062C0
:100FC00007C0EE89FF896083E889F98980818064A0
:100FD000808381E090E0DF91CF911F910F91FF908E
:100FE000EF900895CF93DF93EC01888D8823C1F0B3
:100FF000EA89FB89808185FD05C0A889B9898C9122
:1010000086FD0EC00FB607FCF5CF808185FFF2CFBD
:10101000A889B9898C9185FFEDCFCE017CDFE8CF1F
:10102000DF91CF91089580E090E0892B19F06ADF7D
:1010300081111BC080E090E0892B19F05ADF8111EB
:1010400017C080E090E0892B19F04ADF811113C0AE
:1010500080E090E0892BA1F080E090E0892B81F086
:101060000E94000081110AC008950E940000E2CF92
:101070000E940000E6CF0E940000EACF0C9400001E
:1010800008953FB7F89480918F0690919006A091B3
:101090009106B091920626B5A89B05C02F3F19F086
:1010A0000196A11DB11D3FBFBA2FA92F982F8827E8
:1010B000820F911DA11DB11DBC01CD0142E0660F43
:1010C000771F881F991F4A95D1F70895089580E0EA
:1010D00090E00895FC0126813781620F731F84819F
:1010E00095818617970738F082819381778366838D
:1010F000820F931F089580E090E008950E940E1ED5
:101100000F931F93CF93DF938B01FC01C281D38197
:10111000209759F06A817B81C8010E941B1E892B90
:1011200021F00990D881C02DF3CFCE01DF91CF916E
:101130001F910F9108951F920F920FB60F921124D5
:101140000BB60F922F933F934F935F936F937F93C1
:101150008F939F93AF93BF93EF93FF938DE694E0AC
:10116000DADEFF91EF91BF91AF919F918F917F91C7
:101170006F915F914F913F912F910F900BBE0F9008
:101180000FBE0F901F9018951F920F920FB60F92DF
:1011900011240BB60F922F933F934F935F936F934E
:1011A0007F938F939F93AF93BF93EF93FF938DE6BE
:1011B00094E040DEFF91EF91BF91AF919F918F91AD
:1011C0007F916F915F914F913F912F910F900BBE47
:1011D0000F900FBE0F901F9018951F920F920FB691
:1011E0000F9211240BB60F922F933F934F935F935F
:1011F0006F937F938F939F93AF93BF93EF93FF93DF
:101200008AE095E088DEFF91EF91BF91AF919F91C9
:101210008F917F916F915F914F913F912F910F909F
:101220000BBE0F900FBE0F901F9018951F920F923C
:101230000FB60F9211240BB60F922F933F934F933B
:101240005F936F937F938F939F93AF93BF93EF932E
:10125000FF938AE095E0EEDDFF91EF91BF91AF91B2
:101260009F918F917F916F915F914F913F912F91BE
:101270000F900BBE0F900FBE0F901F9018951F92EE
:101280000F920FB60F9211240BB60F922F933F932C
:101290004F935F936F937F938F939F93AF93BF937E
:1012A000EF93FF9387EA95E036DEFF91EF91BF91D0
:1012B000AF919F918F917F916F915F914F913F91EE
:1012C0002F910F900BBE0F900FBE0F901F9018958F
:1012D0001F920F920FB60F9211240BB60F922F93FD
:1012E0003F934F935F936F937F938F939F93AF93AE
:1012F000BF93EF93FF9387EA95E09CDDFF91EF9119
:10130000BF91AF919F918F917F916F915F914F911D
:101310003F912F910F900BBE0F900FBE0F901F901B
:101320001895362F90E0FC01E452FC4F4491FC01EB
:10133000EE59FC4F2491FC01E45EFC4F94919923FB
:1013400009F46BC0442309F455C050E0FA01319709
:10135000E231F10508F04EC08827EE58FF4F8F4F5D
:101360000C94F51B809180008F7707C080918000DE
:101370008F7D03C080918000877F809380003AC07A
:1013800084B58F7702C084B58F7D84BD33C08091D2
:10139000B0008F7703C08091B0008F7D8093B00044
:1013A00029C0809190008F7707C0809190008F7D39
:1013B00003C080919000877F809390001BC0809134
:1013C000A0008F7707C08091A0008F7D03C080911F
:1013D000A000877F8093A0000DC0809120018F77AF
:1013E00007C0809120018F7D03C080912001877FFD
:1013F00080932001E92FF0E0EE0FFF1FEE53FC4F2A
:10140000A591B4918FB7F894EC91311103C0209558
:101410002E2301C02E2B2C938FBF0895CF93DF93E3
:1014200090E0FC01EE59FC4F2491FC01E45EFC4F7E
:101430008491882361F190E0880F991FFC01E855A1
:10144000FC4FC591D491FC01EE53FC4FA591B49192
:10145000611109C09FB7F894888120958223888301
:10146000EC912E230BC0623061F49FB7F894388161
:10147000822F809583238883EC912E2B2C939FBF02
:1014800006C08FB7F894E8812E2B28838FBFDF9199
:10149000CF9108958F929F92AF92BF92CF92DF9299
:1014A000EF92FF926B017C01ECDD4B015C01C114FA
:1014B000D104E104F104E9F0E4DDDC01CB01881999
:1014C0009909AA09BB09883E9340A105B10578F3A3
:1014D00021E0C21AD108E108F10888EE880E83E005
:1014E000981EA11CB11CC114D104E104F10421F720
:1014F000DECFFF90EF90DF90CF90BF90AF909F90A6
:101500008F9008952FB7F89460918B0670918C0698
:1015100080918D0690918E062FBF08951F920F9295
:101520000FB60F9211242F933F938F939F93AF93F6
:10153000BF9380918B0690918C06A0918D06B091FF
:101540008E0630918A0623E0230F2D3720F4019672
:10155000A11DB11D05C026E8230F0296A11DB11DD6
:1015600020938A0680938B0690938C06A0938D0619
:10157000B0938E0680918F0690919006A09191066F
:10158000B09192060196A11DB11D80938F06909394
:101590009006A0939106B0939206BF91AF919F9150
:1015A0008F913F912F910F900FBE0F901F90189524
:1015B0001F920F920FB60F9211240F900FBE0F9033
:1015C0001F9018950F931F93CF93DF9399DDEC0134
:1015D000892BC1F00C811D810130110559F46E81F8
:1015E0007F816115710531F087E394E00E941B1E35
:1015F000892B41F0015011090230110518F48E8138
:101600009F8102C080E090E0DF91CF911F910F9108
:101610000895FC01A081B1818C918D3051F024F4AA
:1016200089508230B8F505C0803219F08F3219F038
:10163000089511962CC011968C9111978A3219F049
:101640008F32D1F008951196B183A083A081B1812A
:10165000CD0101969183808311968C9111978823F7
:10166000C9F08A3299F712968C9112978F3271F7DE
:1016700013960DC08A3071F2A081B181CD0101961F
:101680009183808311968C918111F4CF03C0B18333
:10169000A083C0CF08950F931F93CF93DF931F9222
:1016A000CDB7DEB78C016983B4DFD801ED91FC9131
:1016B000119780816981861305C03196ED93FC9363
:1016C00081E001C080E00F90DF91CF911F910F91D9
:1016D0000895EF92FF920F931F93CF93DF938C01A6
:1016E000DC011496CD91DC911597EA80FB808E8108
:1016F0009F81E80EF91EC80102968BDFD801129671
:10170000ED91FC9113979081973291F1923281F192
:1017100080ED890F8A3060F0892F8F7D81548A3166
:1017200038F09B3229F083ED890F823008F060C0D9
:10173000F801228133812F5F3F4F338322832E8133
:101740003F81A9014F5F5F4F6C817D8164177507F1
:1017500040F06A817B81FB01E20FF31F5F834E83C0
:101760009083D8011296ED91FC9113979081D0CF80
:101770003196D8011396FC93EE931297D8011296E6
:10178000ED91FC9113972081222391F1AF014F5FDE
:101790005F4F13965C934E931297291749F12C359E
:1017A000A9F42181A0E4B4E08C91882339F082135C
:1017B00003C011962C9102C01296F6CF2223C1F0DD
:1017C0003296D8011396FC93EE9312974E815F8167
:1017D000BA016F5F7F4FEC81FD81E617F70770F26A
:1017E000EA81FB81E40FF51F7F836E832083C6CFE0
:1017F0008E819F819C012F5F3F4F4C815D814217FD
:10180000530748F04A815B81FA01E80FF91F3F83D3
:101810002E83108202C0E12CF12CC701DF91CF9101
:101820001F910F91FF90EF900895DB01109749F001
:10183000ED91FC9111970190F081E02DBC01CD015B
:10184000199480E090E008959F92AF92BF92CF925A
:10185000DF92EF92FF920F931F93CF93DF9300D00D
:1018600000D0CDB7DEB76C01FC0100811181B80159
:1018700084E090E0DADF009739F0FC011183008307
:10188000138212828C0111C08091800681110BC0DD
:1018900010927D0610927C0610927F0610927E06B2
:1018A00081E0809380060CE716E07601F2E0EF0E0F
:1018B000F11C6BE7C701EFDE882309F45FC06DE719
:1018C000C701E9DE81116BC086E0982EC60101DFF9
:1018D0005C01892B09F452C06AE3C701DCDE88236E
:1018E00009F44CC01A821982BE016F5F7F4FC60196
:1018F0000E94BF03882309F441C0B501C80100DC80
:10190000DC01892B49F5F801608171818AE090E062
:101910008CDFDC01892B39F011961C921E921596F2
:101920001C921E921497F8012281338121153105F2
:1019300051F0F90180819181009711F09C01F9CF5C
:10194000B183A08303C0F801B383A2831097B1F0E1
:101950001396BC92AE921297FE0131961496892D81
:1019600001900D928A95E1F76DE7C70194DE811130
:1019700016C06CE2C7018FDE8111A8CF809180066E
:1019800081110BC010927D0610927C0610927F068A
:1019900010927E0681E0809380060CE716E0C80175
:1019A00026960FB6F894DEBF0FBECDBFDF91CF9164
:1019B0001F910F91FF90EF90DF90CF90BF90AF906D
:1019C0009F900895CF92DF92EF92FF920F931F9313
:1019D000CF93DF936C017A018B01C0E0D0E0CE158C
:1019E000DF0589F0D8016D918D01D601ED91FC9153
:1019F0000190F081E02DC6011995892B11F47E012B
:101A000002C02196ECCFC701DF91CF911F910F91BA
:101A1000FF90EF90DF90CF9008950F931F93CF9397
:101A2000DF93EC0188819981009729F02A813B811D
:101A30002617370788F48B016F5F7F4F0E942A1D9E
:101A4000009761F0998388831B830A832C813D81F1
:101A5000232B11F4FC01108281E001C080E0DF91B2
:101A6000CF911F910F910895CF93DF93EC0188815F
:101A70009981009711F00E94921C198218821D8290
:101A80001C821B821A82DF91CF910895EF92FF9200
:101A90000F931F93CF93DF93EC017B018A01BA016F
:101AA000BCDF811103C0CE01DFDF07C01D830C83C3
:101AB000B701888199810E94241ECE01DF91CF91C8
:101AC0001F910F91FF90EF900895FC01808191810B
:101AD0000C94921CEF92FF920F931F93CF93DF937E
:101AE000CDB7DEB7A1970FB6F894DEBF0FBECDBF5E
:101AF0007C01CB01BA01F70111821082138212829C
:101B00001582148242E0420F8E010F5F1F4F0E9428
:101B10005417009761F0FC0101900020E9F731971C
:101B2000AF01481B590BBC01C701B0DF02C0C701A0
:101B30009BDFA1960FB6F894DEBF0FBECDBFDF913D
:101B4000CF911F910F91FF90EF900895FB01DC0161
:101B500011961C921E9213961C921E921297159625
:101B60001C921E9214978617970741F0608171812D
:101B70006115710519F04481558188CF0895FC01E4
:101B800011821082138212821582148261157105EE
:101B900049F0FB0101900020E9F73197AF01461BA6
:101BA000570B74CF0895DC01ED91FC91DB01149685
:101BB0004D915C9115976D917C910280F381E02DA0
:101BC0001994CF92DF92EF92FF920F931F93E82F19
:101BD000F92F05C0015011092109310961F19081E6
:101BE00096239417B9F305C0015011092109310951
:101BF00011F1908196239413F7CFC12CD12CE12CB5
:101C0000F12C0AC08FEFC81AD80AE80AF80A0C1596
:101C10001D052E053F0579F080818623841791F3F9
:101C20006C2D7D2D8E2D9F2D1F910F91FF90EF908C
:101C3000DF90CF90089560E070E080E090E01F9129
:101C40000F91FF90EF90DF90CF900895CF93DF93A7
:101C5000CDB7DEB7C55AD1090FB6F894DEBF0FBEB7
:101C6000CDBF789484B5826084BD84B5816084BD25
:101C700085B5826085BD85B5816085BD80916E002A
:101C8000816080936E00109281008091810082605B
:101C90008093810080918100816080938100809198
:101CA00080008160809380008091B1008460809387
:101CB000B1008091B00081608093B000809191006C
:101CC0008260809391008091910081608093910067
:101CD000809190008160809390008091A10082604B
:101CE0008093A1008091A10081608093A1008091E8
:101CF000A00081608093A000809121018260809388
:101D00002101809121018160809321018091200136
:101D100081608093200180917A00846080937A00B2
:101D200080917A00826080937A0080917A0081604D
:101D300080937A0080917A00806880937A00109274
:101D4000C10087EA95E00E9485038AE095E00E9441
:101D500085038DE694E00E94850368EE73E080E0E1
:101D600090E098DB65E272E0CE0183599F4F07DF78
:101D700028EB3BE040E050E0BE0163597F4F8E010D
:101D80000F5F1F4FC8010E940706C8019EDECE01EB
:101D900083599F4F9ADE6EE272E0CE0183599F4FC6
:101DA000EEDE20ED37E040E050E0BE0163597F4FAA
:101DB000C8010E940706C80188DECE0183599F4FE3
:101DC00084DE63E372E0CE0183599F4FD8DE20EDBD
:101DD00037E040E050E0BE0163597F4FC8010E94E8
:101DE0000706C80172DECE0183599F4F6EDE8AE07E
:101DF00095E06AD8892BD9F360ED77E080E090E038
:101E000049DB8AE095E060D8892B69F08AE095E0AB
:101E100039D889831A8241E050E0B80184E496E021
:101E20000E94DA05EECF84E496E00E94C004CE0161
:101E300009969C838B8384E690E09E838D8318862D
:101E40001F8281E192E09A83898380914406909178
:101E50004506009711F48AE494E0AF961FAF0EAFE9
:101E6000AF97E1969FAF8EAFE197E3961FAF0EAFAE
:101E7000E3978AE0E4968FAFE497CE0183599F4FB2
:101E8000E3DC7C0161E472E09DDB909301028093CE
:101E900000026AE472E0C70195DB9093030280932D
:101EA00002026FE472E0C7018DDB9093050280931C
:101EB000040263E572E0CE0183599F4F60DE20ED9E
:101EC00037E040E050E0BE0163597F4FC8010E94F7
:101ED0000706C801FADDCE0183599F4FF6DDE09079
:101EE0000402F0900502C0900202D09003026EE559
:101EF00072E0CE0183599F4F42DEBE0163597F4F8E
:101F0000C80124DEB601C8010E94F20669E672E04B
:101F10000E94F206B7010E94F2066DE672E00E948E
:101F2000F206BC01CE0186589F4F10DEC801CDDD00
:101F3000CE0183599F4FC9DDBE0166587F4FCE0148
:101F400083599F4F03DE28E833E140E050E0BE01B3
:101F500063597F4FC8010E940706C801B6DDCE0154
:101F600083599F4FB2DD61E772E0C80108DE64E784
:101F700072E0CE018C589F4F02DE28EB3BE040E040
:101F800050E0BE016C587F4FCE0183599F4F0E9495
:101F90000706B801CE0183599F4F0E94C0057C01FE
:101FA000CE0183599F4F91DDCE018C589F4F8DDD1F
:101FB000C8018BDDEF20E09449F180E892E00E94B7
:101FC0009B02E0910A05F0910B050190F081E02D54
:101FD00061E38AE095E019956EE872E0CE018359DD
:101FE0009F4FCDDD20ED37E040E050E0BE0163596A
:101FF0007F4FC8010E940706C80167DDCE018359E3
:102000009F4F63DD81E0809360040FC089E992E017
:102010000E949B02E0910A05F0910B050190F0816E
:10202000E02D60E38AE095E01995CE0186589F4F38
:102030004CDD61E08BE0F2D961E08CE0EFD961E04A
:102040008DE0ECD961E086E0E9D960E085E0E6D991
:1020500061E086E1E3D961E087E1E0D961E088E110
:10206000DDD961E089E1DAD916E161E0812F59D942
:102070001F5F1A31D1F787EA95E00E94850362E07D
:1020800080916306CBD980E398EFAFEFBFEF8093E9
:10209000670690936806A0936906B0936A068091DC
:1020A0005D06811104C00E944E0381110DC0109283
:1020B0005B0610925D0610925C0684EA92E00E9434
:1020C0009B0210924C0470C060E080EF0E941403E9
:1020D00001E0F12CE12C11E00E94EF02CE55DF4F20
:1020E0008883C25AD0400E94EF02CE55DF4F9881BC
:1020F000C25AD040913019F48130C1F435C02F2D2F
:1021000030E098131DC080915B06181738F4F90170
:10211000E05BF94F8381802349F402C0181731F046
:1021200090E0193060F410935C0609C0EF2DF0E0E8
:10213000E05BF94F8381802B838391E009C0E12E1E
:10214000F901E05BF94F2381802F809582238383FF
:10215000892F0E94BD021F5F000F11F4F39401E06C
:1021600037E03F1508F0B8CF113408F4A0CFE09263
:102170005B06E11003C081E080935D068091530609
:10218000882309F494CFA3E5B6E0E5E6F4E08D9169
:10219000819344E0ED36F407D1F78DE194E00E949D
:1021A0009B0281E080934C0460E08BE0BAD860E051
:1021B0008CE0B7D860E08DE0B4D8CE0101961C0168
:1021C00085E694E0E7E0E80FCF55DF4FE883C15A9A
:1021D000D0400E94D504882309F440C08091640651
:1021E0008B3029F0D8F18551823058F037C060919A
:1021F000600670E080E090E00E940F1A6B017C01A5
:1022000033C010916006612F6F7770E080E090E03E
:102210000E94111A20E030E040E853E40E94701A56
:102220006B017C016091610670E080E090E00E94AB
:10223000111A9B01AC01C701B6010E94251B2DECB0
:102240003CEC4CEC5DE30E94701A6B017C0117FFC3
:102250000BC0F7FAF094F7F8F09406C0C12CD12C1B
:1022600060ECE62E6FE7F62E0E94D5048823A9F1D4
:10227000809164068B3039F180F18551823068F5A8
:1022800060915E0670E080E090E00E940F1A20E00E
:1022900030E040E853E40E94701A4B015C01609109
:1022A0005F0670E080E090E00E94111A9B01AC0193
:1022B000C501B4010E94251B2DEC3CEC4CEC5DE308
:1022C0000E94701A07C060915E0670E080E090E0A6
:1022D0000E940F1A4B015C0106C0812C912C50EC1E
:1022E000A52E5FE7B52E89E0F10111928A95E9F7F5
:1022F00080914C04882309F482C0A5E6B4E0E0E0B4
:10230000CF55DF4FF881C15AD040FA1739F08D917F
:10231000E827F0E0EE5FFD4FE491F2CF80916C048E
:10232000E81729F087EB92E00E949B0270C00E94A0
:102330004E030E94AC0361E084E40E9414030E94F7
:102340004E0368EE73E080E090E0A4D80E94AC03F6
:1023500060E08EEB0E94140321013E012AE0620E30
:10236000711C08E010E021E090E0CB55DF4F28839E
:10237000C55AD040CE55DF4F9883C25AD0400E94F4
:10238000EF02CB55DF4F2881C55AD040CE55DF4FE5
:102390009881C25AD0408111922B220F015011090D
:1023A00021F7F20191932F01E615F705D1F610926E
:1023B0005B0610925D0610925C06EBE5F6E0129269
:1023C00026E0E335F207D9F76A8170E0762F6627B9
:1023D0008981682B072E000C880B990B0E94111A1B
:1023E00020E030E040E85DE30E94701AC856DF4FFD
:1023F000688379838A839B83C859D04008C0C856B4
:10240000DF4F188219821A821B82C859D04061E0BE
:1024100086E00E94910983E290E00197F1F760E085
:1024200086E00E949109E7E6F3E06491E1E2F3E0DF
:10243000E491F0E0EE0FFF1FEE5FFC4F8591949169
:1024400000E412E42FE030E0462FBBDB611571059C
:102450008105910549F0DC01CB010196A11DB11D5B
:10246000BC01CD019F7003C060E070E0CB01D7D705
:1024700020E030E048EE51E40E94891B20E030E08B
:1024800040E05FE30E94701A9B01AC0160E070E0E5
:1024900080EA91E40E94241B20E030E040E751E410
:1024A0000E94891B20E030E048EC52E40E94701A40
:1024B0006093610470936204809363049093640456
:1024C00021D8C356DF4F688379838A839B83CD5994
:1024D000D040E1E5F4E040E080E090E020917B0036
:1024E000277F20937B00242F206420937C00209161
:1024F0007A00206420937A0020917A0026FDFCCF98
:10250000209178005091790030E0352B2193319360
:10251000820F931F4F5F443009F797FD03969595FF
:1025200087959595879590935A04809359048AE0EE
:1025300095E00E946407892BD9F08AE095E00E941B
:102540004207182F082E000C990B87539D4F0E94AD
:102550009B02123029F0133039F41092060208C0A1
:1025600081E08093060204C080EE92E00E949B020C
:1025700080915B0481111DC020E030E040EB51E40C
:10258000C856DF4F688179818A819B81C859D040C4
:102590000E94F11B181654F581E080935B0461E002
:1025A0008BE00E94910961E08CE00E94910961E05A
:1025B0001AC020E030E040EA51E4C856DF4F68819D
:1025C00079818A819B81C859D04025D7181674F02B
:1025D00010925B0460E08BE00E94910960E08CE067
:1025E0000E94910960E08DE00E949109109106021D
:1025F00011110AC030916004C456DF4F3883CC59A2
:10260000D04031111DC03FC38091590490915A04AC
:10261000893791054CF406E160E0802F0E94910912
:102620000F5F0A31C9F7E6CF8D3891051CF306E13B
:1026300061E0802F0E9491090F5F0A31C9F7DACF5C
:1026400080915C0490915D04A0915E04B0915F0460
:10265000C356DF4F288139814A815B81CD59D040F3
:10266000281B390B4A0B5B0BDA01C90181319742F8
:10267000A105B10508F42FC1812F90E084509D4F32
:102680000E949B0268E073E0CE0183599F4F77DA86
:10269000BE0163597F4FC10159DAC856DF4F4881E7
:1026A00059816A817B81C859D040C1010E94550679
:1026B00066ED73E00E94F206BC0187EA95E073DAEA
:1026C000C10103DACE0183599F4FFFD96DE173E059
:1026D000CE0183599F4F53DABE0163597F4FC10129
:1026E00035DAB701A601C1010E94550666ED73E017
:1026F0000E94F206BC0187EA95E055DAC101E5D9EE
:10270000CE0183599F4FE1D960E373E0CE01835935
:102710009F4F35DABE0163597F4FC10117DAB5010A
:10272000A401C1010E94550666ED73E00E94F20605
:10273000BC0187EA95E037DAC101C7D9CE018359D8
:102740009F4FC3D900915B0410E060E473E0CE01B9
:1027500083599F4F14DABE0163597F4FC101F6D9E7
:10276000B801C1010E94BE0666ED73E00E94F20648
:10277000BC0187EA95E017DAC101A7D9CE018359D8
:102780009F4FA3D94091590450915A042091570466
:102790003091580440905504509056046090530472
:1027A0007090540400915104109152046DE473E050
:1027B000CE0183599F4FCB55DF4F2883C55AD04058
:1027C000CC55DF4F3883C45AD040CE55DF4F4883B5
:1027D000C25AD040CD55DF4F5883C35AD040CFD9CD
:1027E000BE0163597F4FC101B1D9B801C1010E9437
:1027F000BE0666E073E00E94F206B3010E94BE06C8
:1028000066E073E00E94F206B2010E94BE0666E036
:1028100073E00E94F206CB55DF4F2881C55AD040A5
:10282000CC55DF4F3881C45AD040B9010E94BE0652
:1028300066E073E00E94F206CE55DF4F4881C25A2F
:10284000D040CD55DF4F5881C35AD040BA010E94C5
:10285000BE0666ED73E00E94F206BC0187EA95E0D1
:10286000A2D9C10132D9CE0183599F4F2ED94090B0
:1028700061045090620460906304709064046AE59F
:1028800073E0CE0183599F4F7AD9BE0163597F4FC0
:10289000C1015CD9B301A201C1010E94550669E6DC
:1028A00073E00E94F206BC0187EA95E07CD9C10181
:1028B0000CD9CE0183599F4F08D90E9493020E94E0
:1028C00093020E94820A60935C0470935D0480937B
:1028D0005E0490935F0480914D0490914E04A0910A
:1028E0004F04B0915004C356DF4F288139814A818B
:1028F0005B81CD59D040281B390B4A0B5B0BDA01A9
:10290000C90189399A43A105B10508F4BCC18BE618
:1029100093E00E949B020091590410915A04409048
:10292000610450906204609063047090640467E8EE
:1029300073E0CE0183599F4F22D9BE0163597F4F67
:10294000C10104D96AE672E0C1010E94F20669E998
:1029500073E00E94F20665EA73E00E94F20660E509
:1029600070E00E948A0665ED73E00E94F206BC01E9
:10297000CE018E569F4FEAD8C101A7D8CE01835908
:102980009F4FA3D861E772E0C101F9D8BE016E562E
:102990007F4FCE018C589F4FD9D828E833E140E0D3
:1029A00050E0BE016C587F4FCE0183599F4F0E946B
:1029B0000706B101CE0183599F4F0E94C0059C01BB
:1029C000CE0183599F4FCB55DF4F2883C55AD04046
:1029D000CC55DF4F3883C45AD04077D8CE018C58BD
:1029E0009F4F73D8C10171D8CB55DF4F2881C55A8D
:1029F000D040CC55DF4F3881C45AD0402F3F3F4F95
:102A000051F48DE694E00E94F207C456DF4F18821D
:102A1000CC59D0401BC1AF961FAE1EAEAF97E1960A
:102A20001FAE1EAEE197E3961FAE1EAEE3974AE0DF
:102A3000B101C80158D2F10101900020E9F73197A6
:102A4000AF0142195309B101CE0183599F4F1ED8DE
:102A500022E0B301A201C1013DD822E0C856DF4FF8
:102A6000488159816A817B81C859D040CE018C58F8
:102A70009F4F30D822E0B501A401CE0186589F4F68
:102A800029D822E0B701A601CE0180589F4F22D855
:102A900068EA73E0CE018A579F4F71D8BE01605833
:102AA0007F4FCE018A579F4F0E9409076CEA73E05F
:102AB0000E94F206BE0166587F4F0E94090760EB34
:102AC00073E00E94F206BE016C587F4F0E94090716
:102AD00065EB73E00E94F206B1010E9409076AEB00
:102AE00073E00E94F206BE0163597F4F0E940907FE
:102AF000BC01CE0184579F4F29D8CE018A579F4FE2
:102B00000E94650DCE0180589F4F0E94650DCE0139
:102B100086589F4F0E94650DCE018C589F4F0E9492
:102B2000650DC1010E94650DCE0183599F4F0E9422
:102B3000650D6EEB73E0C10122D86AE476E0C10155
:102B40000E940907BE0164577F4F0E94090765ED87
:102B500073E00E94F206BC01CE0180589F4F0E9494
:102B6000A60DC1010E94650D44E150E063EC73E0E5
:102B7000CE0180589F4F0E94DA05CC57DF4F088165
:102B80001981C458D04068ED73E0CE0186589F4F3C
:102B90000E94BF0DBE0166587F4FCE018C589F4FDB
:102BA0000E94A60DB801CE018C589F4F0E948A0644
:102BB00065ED73E00E94F206BC01CE0183599F4F80
:102BC0000E94A60D28EE33E040E050E0BE016359BC
:102BD0007F4FC1010E940706C1010E94650DCE0111
:102BE00083599F4F0E94650DCE018C589F4F0E94C4
:102BF000650DCE0186589F4F0E94650DBE0160583D
:102C00007F4FCE0183599F4F0E94A60D28EE33E0DF
:102C100040E050E0BE0163597F4FC1010E940706AA
:102C2000C1010E94650DCE0183599F4F0E94650D21
:102C30008DE694E00E94F207CE0180589F4F0E94DB
:102C4000650DCE0184579F4F0E94650DCE018E56B3
:102C50009F4F0E94650DC456DF4F5881CC59D0401C
:102C6000552319F084EE93E002C081E094E00E94C5
:102C70009B020E94820A60934D0470934E048093DD
:102C80004F04909350040E941308A3CA109270043A
:102C900010926F0448EE53E060E070E040937104DE
:102CA00050937204609373047093740487E192E00C
:102CB00090936E0480936D0425ED30E030937A0498
:102CC0002093790424ED30E030937C0420937B043E
:102CD00020ED30E030937E0420937D0421ED30E040
:102CE0003093800420937F0422ED30E030938204FF
:102CF0002093810426ED30E03093840420938304F4
:102D0000109286041092870410928804109289040D
:102D100010920D0510920C0540930E0550930F056F
:102D2000609310057093110590930B0580930A052D
:102D30002DEC30E030931705209316052CEC30E095
:102D4000309319052093180528EC30E030931B05CB
:102D500020931A0529EC30E030931D0520931C05C3
:102D60002AEC30E030931F0520931E052EEC30E056
:102D700030932105209320051092230510922405FD
:102D800010922505109226051092AA051092A90509
:102D90004093AB055093AC056093AD057093AE05C1
:102DA0009093A8058093A70585EC90E09093B405D7
:102DB0008093B30584EC90E09093B6058093B505BD
:102DC00080EC90E09093B8058093B70581EC90E09B
:102DD0009093BA058093B90582EC90E09093BC057E
:102DE0008093BB0586EC90E09093BE058093BD0573
:102DF0001092C0051092C1051092C2051092C30531
:102E000087E28093630686E180936406E9E8F3E055
:102E1000E491E0936506E3E4F3E0E491E093660671
:102E200080E89EE3A0E0B0E080936B0690936C0690
:102E3000A0936D06B0936E0660E08AE10E940E0AD0
:102E4000ECE7F3E0E491E0935006E6E3F3E0E4918D
:102E5000F0E0EE0FFF1FEE5FFC4F85919491909391
:102E600052068093510610925B0610925D061092F6
:102E70005C06EBE5F6E0129286E0E335F807D9F759
:102E80006DE274E08AE496E00E94BF0D6AE474E0AB
:102E900084E496E00C94BF0D84E496E00E94650DF6
:102EA0008AE496E00C94650DEF920F931F93CF93F5
:102EB000DF93E80147FD02C034E001C034E1E42FB4
:102EC000440FFF0BF7FF03C0F195E195F109E32EE5
:102ED000022F2E2FAE012AD0CE01DF91CF911F916C
:102EE0000F91EF900895BB274A3031F4992322F4D3
:102EF000BDE2909581959F4F01C0BB27FB015527EF
:102F0000AA27880F991FAA1FA41710F0A41B839546
:102F10005051B9F7A05DAA3308F0A95DA1930097BD
:102F200079F7B111B1931192CB0165C24F925F92C3
:102F30006F927F929F92AF92BF92CF92DF92EF9269
:102F4000FF920F931F93CF93DF93CDB7DEB72997EF
:102F50000FB6F894DEBF0FBECDBF6A01122FB02EA0
:102F60002BE3201720F0FF24F394F00E02C0BCE303
:102F7000FB2E0F2D27E0AE014F5F5F4F64D1AC01F8
:102F80008981982F9970913031F0E1FC06C0E0FE04
:102F900006C090E205C09DE203C09BE201C090E044
:102FA000EE2DE07183FF3CC0911102C083E001C0AF
:102FB00084E0811718F4212F281B01C020E0E111C3
:102FC0000BC0F601822F30E2882319F03193815033
:102FD000FBCFC20ED11C20E0992329F0D6019C938F
:102FE000F60131966F01C6010396E2FE0AC03EE487
:102FF000D6013C9341E411964C93119712963C9361
:1030000006C03EE6F601308341E641833283FC018F
:10301000322F40E2332309F442C041933150FACFBA
:1030200082FF44C0911102C083E001C084E0811797
:1030300018F4212F281B01C020E0E1110BC0F6017C
:10304000822F30E2882319F031938150FBCFC20EDA
:10305000D11C20E0992329F0D6019C93F6013196EA
:103060006F01C6010396E2FE0BC039E4D6013C9322
:103070003EE411963C93119736E412963C9307C0B8
:1030800039E6F60130833EE6318336E63283FC01D1
:10309000322F40E2332319F041933150FBCFFC0132
:1030A000E20FF11D10828EEF9FEFB7C0F1E091119A
:1030B00001C0F0E06F2F70E01416150624F49A0199
:1030C0002F5F3F4F02C021E030E0260F371FBB20AB
:1030D00029F06B2D70E06F5F7F4F02C060E070E001
:1030E000260F371F612F70E0261737071CF4121BBD
:1030F000212F01C020E03E2D387159F4D601322F26
:1031000060E2332319F06D933150FBCFC20ED11C16
:1031100020E0FF2331F0D6019C93B6016F5F7F4F13
:103120006B01E1110BC0F601922F30E3992319F0E6
:1031300031939150FBCFC20ED11C20E09F2D940FF4
:103140003A81782F7071A72E84FF03C0313309F4C0
:103150009150191624F4993018F098E001C091E0CC
:10316000E42F852F57FF02C0E0E080E06E2F782F1C
:10317000E0E0F0E0AEE29A2E3A01691A71082A0105
:10318000461A570A0B2D10E01195019511096F3F52
:103190008FEF780729F4D6019C92C60101966C0145
:1031A0004617570784F0661677066CF47F01E40C27
:1031B000F51CA1E0B0E0AC0FBD1FEA0EFB1ED7016D
:1031C0001196BC9002C090E3B92E615071093196FE
:1031D000C60101967C016017710724F0D601BC92EC
:1031E0006C01D5CF6417750741F4363320F43533BD
:1031F00021F4A11002C081E3B82EF601B082F701DC
:10320000822F90E2882319F091938150FBCFF70130
:10321000E20FF11D108280E090E029960FB6F8943D
:10322000DEBF0FBECDBFDF91CF911F910F91FF90F9
:10323000EF90DF90CF90BF90AF909F907F906F9076
:103240005F904F900895283008F027E03327DA0187
:10325000990F311D87FD916000966105710539F464
:1032600032602E5F3D9330E32A95E1F708959F3F4A
:1032700030F080387105610509F03C5F3C5F3D939B
:10328000913008F08068911DDF93CF931F930F93C7
:10329000FF92EF92192F987F9695E92F9695969524
:1032A000E90FFF27EE59FE4F99273327EE24FF241D
:1032B000A701E70105900894079428F4360FE71E4C
:1032C000F81E491F511D660F771F881F991F06940E
:1032D000A1F70590079428F4E70EF81E491F561F22
:1032E000C11D770F881F991F661F0694A1F70590CF
:1032F000079428F4F80E491F561FC71FD11D880FC9
:10330000991F661F771F0694A1F70590079420F474
:10331000490F561FC71FD81F990F661F771F881F99
:103320000694A9F784911095177041F0D695C7952A
:1033300057954795F794E7941A95C1F7E8E0F1E0BF
:1033400068941590159135916591959105907FE25E
:103350007395E118F10A430B560BC90BD009C0F75E
:10336000E10CF11E431F561FC91FD01D7EF47033A0
:1033700011F48A95E6CFE894015030F0080F0AF472
:103380000027021708F4202F2395022F7A3328F004
:1033900079E37D932A95E9F710C07D932A9589F604
:1033A000069497956795379517951794E118F10A44
:1033B000430B560BC90BD00998F023957E9173955A
:1033C0007A3308F070E37C932013B8F77E91706134
:1033D0007D9330F0839571E37D9370E32A95E1F757
:1033E0001124EF90FF900F911F91CF91DF919927BA
:1033F00087FD90950895DC01FC01672F719177237B
:10340000E1F7329704C07C916D9370836291AE179F
:10341000BF07C8F3089540D008F481E00895E89408
:1034200009C097FB3EF490958095709561957F4F0C
:103430008F4F9F4F9923A9F0F92F96E9BB279395BA
:10344000F695879577956795B795F111F8CFFAF4CA
:10345000BB0F11F460FF1BC06F5F7F4F8F4F9F4FFB
:1034600016C0882311F096E911C0772321F09EE859
:10347000872F762F05C0662371F096E8862F70E0BF
:1034800060E02AF09A95660F771F881FDAF7880F99
:103490009695879597F90895990F0008550FAA0BEF
:1034A000E0E8FEEF16161706E807F907C0F0121657
:1034B0001306E407F50798F0621B730B840B950B5A
:1034C00039F40A2661F0232B242B252B21F40895AF
:1034D0000A2609F4A140A6958FEF811D811D08954C
:1034E0000BD078C069D028F06ED018F0952309F081
:1034F0005AC05FC01124A2C07ED0A0F3959FD1F323
:10350000950F50E0551F629FF001729FBB27F00D91
:10351000B11D639FAA27F00DB11DAA1F649F6627E6
:10352000B00DA11D661F829F2227B00DA11D621F35
:10353000739FB00DA11D621F839FA00D611D221FEF
:10354000749F3327A00D611D231F849F600D211DD3
:10355000822F762F6A2F11249F5750408AF0E1F076
:1035600088234AF0EE0FFF1FBB1F661F771F881FBF
:1035700091505040A9F79E3F510570F014C05EC0B5
:103580005F3FECF3983EDCF3869577956795B795AA
:10359000F795E7959F5FC1F7FE2B880F911D9695D4
:1035A000879597F9089597F99F6780E870E060E044
:1035B00008959FEF80EC089500240A9416161706CC
:1035C00018060906089500240A9412161306140614
:1035D00005060895092E0394000C11F4882352F077
:1035E000BB0F40F4BF2B11F460FF04C06F5F7F4F2F
:1035F0008F4F9F4F089557FD9058440F551F59F016
:103600005F3F71F04795880F97FB991F61F09F3FCF
:1036100079F087950895121613061406551FF2CFF8
:103620004695F1DF08C0161617061806991FF1CF48
:1036300086957105610508940895E894BB2766276F
:103640007727CB0197F908955058BB27AA270ED0AA
:10365000C1CFB2DF30F0B7DF20F031F49F3F11F47B
:103660001EF4A7CF0EF4E095E7FB9DCFE92FC3DF53
:1036700080F3BA17620773078407950718F071F48F
:103680009EF5DBCF0EF4E0950B2EBA2FA02D0B018B
:10369000B90190010C01CA01A0011124FF27591B97
:1036A00099F0593F50F4503E68F11A16F040A22F9D
:1036B000232F342F4427585FF3CF4695379527950E
:1036C000A795F0405395C9F77EF41F16BA0B620B0D
:1036D000730B840BBAF09150A1F0FF0FBB1F661F54
:1036E000771F881FC2F70EC0BA0F621F731F841F97
:1036F00048F4879577956795B795F7959E3F08F0BD
:10370000B3CF9395880F08F09927EE0F979587957B
:1037100008950CD05FCF57DF40F04EDF30F021F43A
:103720005F3F19F040CF511189CF43CF64DF98F349
:103730009923C9F35523B1F3951B550BBB27AA2732
:1037400062177307840738F09F5F5F4F220F331FA4
:10375000441FAA1FA9F333D00E2E3AF0E0E830D070
:1037600091505040E695001CCAF729D0FE2F27D073
:10377000660F771F881FBB1F261737074807AB0741
:10378000B0E809F0BB0B802DBF01FF2793585F4FB6
:103790002AF09E3F510568F006CF50CF5F3FECF313
:1037A000983EDCF3869577956795B795F7959F5F7B
:1037B000C9F7880F911D9695879597F90895E1E0CF
:1037C000660F771F881FBB1F621773078407BA072E
:1037D00020F0621B730B840BBA0BEE1F88F7E09589
:1037E00008955ADE08F48FEF0895EE0FFF1F881F2B
:1037F0008BBF0790F691E02D1994CF93DF93823021
:10380000910510F482E090E0E0919506F091960623
:1038100020E030E0C0E0D0E0309711F140815181EC
:1038200048175907C0F04817590761F482819381FE
:10383000209719F09B838A832BC0909396068093E0
:10384000950626C02115310519F04217530718F4C3
:103850009A01BE01DF01EF010280F381E02DDCCF90
:103860002115310509F1281B390B2430310590F45D
:1038700012968D919C9113976115710521F0FB01B2
:103880009383828304C09093960680939506FD01EE
:10389000329644C0FD01E20FF31F819391932250B1
:1038A00031092D933C933AC02091930630919406B0
:1038B000232B41F42091090230910A02309394069F
:1038C00020939306209107023091080221153105BB
:1038D00041F42DB73EB740910B0250910C02241BCE
:1038E000350BE0919306F0919406E217F307A0F4EC
:1038F0002E1B3F0B2817390778F0AC014E5F5F4F46
:103900002417350748F04E0F5F1F509394064093DD
:1039100093068193919302C0E0E0F0E0CF01DF9144
:10392000CF9108950F931F93CF93DF93009709F4DE
:103930008CC0FC013297138212820091950610917F
:1039400096060115110581F420813181820F931FA4
:1039500020919306309194062817390779F5F09352
:103960009406E093930671C0D80140E050E0AE1792
:10397000BF0750F412962D913C911397AD0121157C
:10398000310509F1D901F3CF9D01DA013383228397
:1039900060817181860F971F8217930769F4EC018C
:1039A00028813981260F371F2E5F3F4F31832083B7
:1039B0008A819B8193838283452B29F4F093960619
:1039C000E093950642C01396FC93EE931297ED0197
:1039D000499159919E01240F351FE217F30771F4A5
:1039E00080819181840F951F029611969C938E93EE
:1039F0008281938113969C938E931297E0E0F0E07E
:103A0000D80112968D919C911397009719F0F801A7
:103A10008C01F6CF8D919C9198012E5F3F4F820FC4
:103A2000931F20919306309194062817390769F463
:103A3000309729F4109296061092950602C01382D0
:103A400012821093940600939306DF91CF911F91F9
:103A50000F9108956F927F928F929F92AF92BF9233
:103A6000CF92DF92EF92FF920F931F93CF93DF934A
:103A7000EC01009781F4CB01DF91CF911F910F9161
:103A8000FF90EF90DF90CF90BF90AF909F908F907E
:103A90007F906F90B2CEFC01E60FF71F9C01225081
:103AA0003109E217F30708F4A8C0D9010D911C9160
:103AB000119706171707A8F00530110508F49BC0E9
:103AC000C80104978617970708F495C0025011099A
:103AD000061B170B019311936D937C93CF0122DF8B
:103AE0008AC05B01A01AB10A4C01800E911EA09100
:103AF0009506B091960640E050E0E12CF12C10972D
:103B000009F44AC0A815B905D1F56D907C901197BC
:103B1000630182E0C80ED11CCA14DB0480F1A3014A
:103B20004A195B096A0182E0C80ED11C1296BC904A
:103B300012971396AC91B5E0CB16D10440F0B28247
:103B4000A38351834083D9016D937C930AC00E5F98
:103B50001F4FC301800F911FF90191838083EB2DCB
:103B6000FA2FE114F10431F0D7011396FC93EE9390
:103B7000129741C0F0939606E09395063CC08D9154
:103B80009C9111974817590708F4AC017D011296D2
:103B90000D90BC91A02DB3CF809193069091940687
:103BA00088159905E1F446175707C8F48091070274
:103BB00090910802009741F48DB79EB740910B0297
:103BC00050910C02841B950BE817F907B0F4F093A1
:103BD0009406E0939306F901718360830CC0CB01D6
:103BE0000CDE7C01009749F0A801BE011BD0CE017C
:103BF00099DEC70104C0CE0102C080E090E0DF91F1
:103C0000CF911F910F91FF90EF90DF90CF90BF90D9
:103C1000AF909F908F907F906F90089581E090E09B
:103C2000F89433C0FB01DC0102C001900D924150B9
:103C30005040D8F70895FB01DC018D910190801967
:103C40000110D9F3990B0895FB01DC0101900D924D
:103C50000020E1F70895FB0151915523A9F0BF0120
:103C6000DC014D9145174111E1F759F4CD01019067
:103C7000002049F04D9140154111C9F3FB0141115C
:103C8000EFCF81E090E00197089512E0C2E1D2E029
:103C900000E005C0802FFE01A8DD2196011DC33183
:0C3CA000D10780E00807B1F7F894FFCFCF
:103CAC004A044A044A040100009706800000000000
:103CBC00006A0800000000AC07E20C3307F207644E
:103CCC00074207560741542B5253540D0A004154D6
:103CDC000D0A0041542B43574D4F44453D310D0ABD
:103CEC0000757365724E616D650073736964007065
:103CFC0073770041542B43575141500D0A004154E6
:103D0C002B43574A41503D2200222C2200220D0AFF
:103D1C00004F4B0041542B43574A41503F0D0A0072
:103D2C00736C6176652073756363657373004154BE
:103D3C002B43494653520D0A00736C61766520661D
:103D4C0061696C00445331382043616E206E6F748E
:103D5C002066696E642100435243206973206E6FA4
:103D6C00742076616C696421007265717565737479
:103D7C002066726F6D206D6173746572203A20003D
:103D8C00726571756573742066726F6D206D6173E9
:103D9C00746572203A206572726F72004C45442033
:103DAC006D6F6465203A200057617465722054650C
:103DBC006D7065726174757265203A2000444854C8
:103DCC002054656D7065726174757265203A2000BF
:103DDC004448542048756D6964697479203A200010
:103DEC0046616E205374617465203A2000504F5424
:103DFC002056616C7565203A2000576174657220FD
:103E0C004C6576656C203A200025003D3D3D3D44D7
:103E1C006174612053656E64696E6720737461729E
:103E2C00743D3D3D3D3D0041542B4349505354415D
:103E3C0052543D2254435022003139322E313638FF
:103E4C002E342E3100222C003F743D0026683D009C
:103E5C002677743D0026776C3D0026653D0047456E
:103E6C00542000436F6E6E656374696F6E3A636CB9
:103E7C006F73650D0A0D0A0041542B43495053458D
:103E8C004E443D003D3D3D3D3D44617461207365B4
:103E9C006E64696E6720656E642E2E3D3D3D3D3D22
:103EAC00003D3D3D3D446174612073656E64696EF7
:103EBC0067206661696C2E2E3D3D3D3D00445331BB
:103ECC003820436F6E6E65637465642E002F7365C6
:103EDC006E642E706870006E756C6C0022225C5CD7
:0C3EEC006208660C6E0A720D740900007A
:00000001FF
