:1000000012C2000041C200003FC200003DC2000019
:100010003BC2000039C2000037C2000035C20000F8
:1000200033C20000F0C50000EEC50000ECC50000C2
:100030002BC2000029C2000027C2000025C2000018
:1000400023C2000021C200001FC200001DC2000028
:100050001BC2000019C2000017C200008AC50000C0
:1000600013C2000060C4000035C400000DC20000CF
:100070000BC2000009C2000007C2000005C2000058
:1000800003C2000001C20000FFC10000FDC100006A
:10009000F8C30000CDC30000F7C10000F5C10000A7
:1000A000F3C10000F1C10000EFC10000EDC100008C
:1000B000EBC10000E9C10000E7C10000E5C100009C
:1000C000E3C10000E1C10000DFC1000088C30000FF
:1000D0005DC30000D9C10000D7C10000D5C1000038
:1000E000D3C10000EB04EE04DD04E104E5042505C2
:1000F000F204F604FC04000504050A050E051205C9
:10010000250518051C05200500407A10F35A00A0AB
:10011000724E18090010A5D4E80000E876481700D0
:1001200000E40B54020000CA9A3B000000E1F50510
:10013000000080969800000040420F000000A0865A
:1001400001000000102700000000E803000000008C
:100150006400000000000A00000000000100000030
:1001600000002C76D888DC674F0823DFC1DFAE594A
:10017000E1B1B796E5E3E453C63AE651997696E8DD
:10018000E6C28426EB898C9B62ED407C6FFCEFBC61
:100190009C9F40F2BAA56FA5F490055A2AF75C938C
:1001A0006B6CF9676DC11BFCE0E40D47FEF520E6C2
:1001B000B500D0ED902E0300943577050080841EA5
:1001C000080000204E0A000000C80C333333330F00
:1001D000986E12831141EF8D2114893BE65516CF9D
:1001E000FEE6DB18D1844B381BF77C1D901DA4BBA9
:1001F000E424203284725E228100C9F124ECA1E55E
:100200003D27005EBCE2613FDD83C29C7E20A3FDF2
:100210001F419DC3217FFCA2401E5F01E3BD3E60E4
:1002200082DC237D9FC1421CFEA0E1BF5D0380DE16
:100230003C62BEE0025CDF81633D7C22C09E1D43C8
:10024000A1FF4618FAA427799BC584DA3866E5BB76
:100250005907DB856739BAE406581947A5FB7826A4
:10026000C49A653BD987045AB8E6A7F91B45C698D6
:100270007A24F8A6441A99C7257B3A6486D85B0588
:10028000E7B98CD2306EEDB3510F4E10F2AC2F7136
:1002900093CD114FADF3702ECC92D38D6F31B2EC64
:1002A0000E50AFF1134DCE90722C6D33D18F0C5296
:1002B000B0EE326C8ED0530DEFB1F0AE4C1291CF48
:1002C0002D73CA947628ABF517490856B4EA6937F6
:1002D000D58B5709EBB536688AD495CB2977F4AA24
:1002E0004816E9B7550B88D6346A2B7597C94A1456
:1002F000F6A8742AC896154BA9F7B6E80A54D78908
:100300006B3500002100240027002A002D0030005A
:10031000330001010000040107010A01000022006E
:10032000250028002B002E003100340002010000BF
:10033000050108010B0100000A0B02090C0D0E0853
:10034000070304010000000000000000000000009E
:10035000000000000000000000000000000000009D
:10036000000012111000000000000000000000005A
:10037000000000000000000000000000000020005D
:100380002300260029002C002F003200000100006D
:100390000301060109010505050507050808080808
:1003A000020202020A0A080804040404010101010D
:1003B0000101010103030303030303030407070708
:1003C0000C0C0C0C0C0C0C0C0202020206060606AD
:1003D000060606060B0B0B0B0B0B0B0B010210207A
:1003E000200808102040102040800201020108046B
:1003F00002010102040810204080804020100804FF
:100400000201800402018040201008040201080457
:10041000020101020408102040800102040810209B
:1004200040805E17561711241FBECFEFD1E2DEBF0A
:10043000CDBF00E00CBF26E0A2E8B4E001C01D92F1
:10044000AF3CB207E1F714E0A0E0B2E0EEEFFEE36C
:1004500000E00BBF02C007900D92A238B107D9F798
:1004600012E0C2E1D2E000E006C021970109802F2E
:10047000FE010E941E1DC131D10780E00807A9F7C7
:100480000E94590E0C946E1FBBCDFC01A089B1894E
:100490008C91A689B78982FD0FC09C91818D8F5F59
:1004A0008F73228D821749F0218DDF01A20FB11DBC
:1004B0005D969C93818F08958C910895FC01538DD6
:1004C000448D252F30E0842F90E0821B930B54172E
:1004D00010F0CF96089501970895FC01918D828DBB
:1004E000981761F0828DDF01A80FB11D5D968C9188
:1004F000928D9F5F9F73928F90E008958FEF9FEF93
:100500000895FC01918D828D981731F0828DE80F4E
:10051000F11D858D90E008958FEF9FEF0895FC0108
:10052000918D228D892F90E0805C9F4F821B9109D5
:100530008F73992708958CEB94E0F1DF21E0892BEC
:1005400009F420E0822F089589E595E0E8DF21E0B5
:10055000892B09F420E0822F089586EF95E0DFDFF4
:1005600021E0892B09F420E0822F0895FC01848D7D
:10057000DF01A80FB11DA35ABF4F2C91848D90E0CD
:1005800001968F739927848FA689B7892C93A089A8
:10059000B1898C9180648C93938D848D981306C05F
:1005A0000288F389E02D80818F7D80830895EF920A
:1005B000FF920F931F93CF93DF93EC0181E0888F1D
:1005C0009B8D8C8D981305C0E889F989808185FD04
:1005D00023C0F62E0B8D10E00F5F1F4F0F731127F6
:1005E000E02E8C8DE8120BC00FB607FCFACFE8891D
:1005F000F989808185FFF5CFCE01B8DFF2CF8B8DF1
:10060000FE01E80FF11DE35AFF4FF0820B8FEA89DC
:10061000FB898081806207C0EE89FF896083E88959
:10062000F98980818064808381E090E0DF91CF91BF
:100630001F910F91FF90EF900895CF93DF93EC01FE
:10064000888D8823C1F0EA89FB89808185FD05C0FA
:10065000A889B9898C9186FD0EC00FB607FCF5CF2D
:10066000808185FFF2CFA889B9898C9185FFEDCF74
:10067000CE017CDFE8CFDF91CF91089580E090E05C
:10068000892B19F06ADF81111BC080E090E0892B73
:1006900019F05ADF811117C080E090E0892B19F022
:1006A0004ADF811113C080E090E0892BA1F080E047
:1006B00090E0892B81F00E94000081110AC008950A
:1006C0000E940000E2CF0E940000E6CF0E940000DE
:1006D000EACF0C94000008953FB7F8948091B004DD
:1006E0009091B104A091B204B091B30426B5A89B37
:1006F00005C02F3F19F00196A11DB11D3FBFBA2FB4
:10070000A92F982F8827820F911DA11DB11DBC0113
:10071000CD0142E0660F771F881F991F4A95D1F7D8
:100720000895089580E090E00895FC0126813781C6
:10073000620F731F848195818617970738F0828135
:10074000938177836683820F931F089580E090E002
:1007500008950E94371F0F931F93CF93DF938B0150
:10076000FC01C281D381209759F06A817B81C80145
:100770000E94441F892B21F00990D881C02DF3CF0E
:10078000CE01DF91CF911F910F9108951F920F928B
:100790000FB60F9211240BB60F922F933F934F93E6
:1007A0005F936F937F938F939F93AF93BF93EF93D9
:1007B000FF938CEB94E0DADEFF91EF91BF91AF9164
:1007C0009F918F917F916F915F914F913F912F9169
:1007D0000F900BBE0F900FBE0F901F9018951F9299
:1007E0000F920FB60F9211240BB60F922F933F93D7
:1007F0004F935F936F937F938F939F93AF93BF9329
:10080000EF93FF938CEB94E040DEFF91EF91BF916B
:10081000AF919F918F917F916F915F914F913F9198
:100820002F910F900BBE0F900FBE0F901F90189539
:100830001F920F920FB60F9211240BB60F922F93A7
:100840003F934F935F936F937F938F939F93AF9358
:10085000BF93EF93FF9389E595E088DEFF91EF91D9
:10086000BF91AF919F918F917F916F915F914F91C8
:100870003F912F910F900BBE0F900FBE0F901F90C6
:1008800018951F920F920FB60F9211240BB60F926C
:100890002F933F934F935F936F937F938F939F9388
:1008A000AF93BF93EF93FF9389E595E0EEDDFF9162
:1008B000EF91BF91AF919F918F917F916F915F91D8
:1008C0004F913F912F910F900BBE0F900FBE0F9045
:1008D0001F9018951F920F920FB60F9211240BB60E
:1008E0000F922F933F934F935F936F937F938F93C9
:1008F0009F93AF93BF93EF93FF9386EF95E036DE20
:10090000FF91EF91BF91AF919F918F917F916F91E7
:100910005F914F913F912F910F900BBE0F900FBEA3
:100920000F901F9018951F920F920FB60F921124DF
:100930000BB60F922F933F934F935F936F937F93D9
:100940008F939F93AF93BF93EF93FF9386EF95E0C1
:100950009CDDFF91EF91BF91AF919F918F917F911E
:100960006F915F914F913F912F910F900BBE0F9020
:100970000FBE0F901F901895362F90E0FC01EA5C97
:10098000FC4F4491FC01E452FC4F2491FC01EA56D7
:10099000FC4F9491992309F46BC0442309F455C08A
:1009A00050E0FA013197E231F10508F04EC0882796
:1009B000EE58FF4F8F4F0C941E1D809180008F7753
:1009C00007C0809180008F7D03C080918000877F69
:1009D000809380003AC084B58F7702C084B58F7D44
:1009E00084BD33C08091B0008F7703C08091B00088
:1009F0008F7D8093B00029C0809190008F7707C0D1
:100A0000809190008F7D03C080919000877F8093BC
:100A100090001BC08091A0008F7707C08091A0003C
:100A20008F7D03C08091A000877F8093A0000DC0C0
:100A3000809120018F7707C0809120018F7D03C0B6
:100A400080912001877F80932001E92FF0E0EE0F55
:100A5000FF1FE45EFC4FA591B4918FB7F894EC9121
:100A6000311103C020952E2301C02E2B2C938FBF54
:100A70000895CF93DF9390E0FC01E452FC4F249162
:100A8000FC01EA56FC4F8491882361F190E0880FC5
:100A9000991FFC01EE5FFC4FC591D491FC01E45E0F
:100AA000FC4FA591B491611109C09FB7F89488815A
:100AB000209582238883EC912E230BC0623061F451
:100AC0009FB7F8943881822F809583238883EC9197
:100AD0002E2B2C939FBF06C08FB7F894E8812E2B46
:100AE00028838FBFDF91CF9108958F929F92AF920D
:100AF000BF92CF92DF92EF92FF926B017C01ECDD0F
:100B00004B015C01C114D104E104F104E9F0E4DD1E
:100B1000DC01CB0188199909AA09BB09883E9340D9
:100B2000A105B10578F321E0C21AD108E108F10866
:100B300088EE880E83E0981EA11CB11CC114D1045C
:100B4000E104F10421F7DECFFF90EF90DF90CF902A
:100B5000BF90AF909F908F9008952FB7F8946091B9
:100B6000AC047091AD048091AE049091AF042FBF9E
:100B700008951F920F920FB60F9211242F933F9357
:100B80008F939F93AF93BF938091AC049091AD04EA
:100B9000A091AE04B091AF043091AB0423E0230FD9
:100BA0002D3720F40196A11DB11D05C026E8230FA5
:100BB0000296A11DB11D2093AB048093AC049093C9
:100BC000AD04A093AE04B093AF048091B0049091B3
:100BD000B104A091B204B091B3040196A11DB11D5E
:100BE0008093B0049093B104A093B204B093B30483
:100BF000BF91AF919F918F913F912F910F900FBE19
:100C00000F901F9018951F920F920FB60F921124FC
:100C10000F900FBE0F901F9018950F931F93CF93B7
:100C2000DF9399DDEC01892BC1F00C811D8101302E
:100C3000110559F46E817F816115710531F083E6EC
:100C400094E00E94441F892B41F0015011090230A9
:100C5000110518F48E819F8102C080E090E0DF9141
:100C6000CF911F910F910895FC01A081B1818C91CA
:100C70008D3051F024F489508230B8F505C08032AF
:100C800019F08F3219F0089511962CC011968C919D
:100C900011978A3219F08F32D1F008951196B183ED
:100CA000A083A081B181CD010196918380831196AB
:100CB0008C9111978823C9F08A3299F712968C91FA
:100CC00012978F3271F713960DC08A3071F2A0819E
:100CD000B181CD0101969183808311968C91811110
:100CE000F4CF03C0B183A083C0CF08950F931F93A7
:100CF000CF93DF931F92CDB7DEB78C016983B4DF4A
:100D0000D801ED91FC91119780816981861305C00E
:100D10003196ED93FC9381E001C080E00F90DF916C
:100D2000CF911F910F910895EF92FF920F931F9310
:100D3000CF93DF938C01DC011496CD91DC91159754
:100D4000EA80FB808E819F81E80EF91EC801029621
:100D50008BDFD8011296ED91FC9113979081973219
:100D600091F1923281F180ED890F8A3060F0892F04
:100D70008F7D81548A3138F09B3229F083ED890FC1
:100D8000823008F060C0F801228133812F5F3F4F2D
:100D9000338322832E813F81A9014F5F5F4F6C8196
:100DA0007D816417750740F06A817B81FB01E20F4A
:100DB000F31F5F834E839083D8011296ED91FC91CF
:100DC00013979081D0CF3196D8011396FC93EE9370
:100DD0001297D8011296ED91FC911397208122234E
:100DE00091F1AF014F5F5F4F13965C934E93129753
:100DF000291749F12C35A9F42181ACE6B4E08C9196
:100E0000882339F0821303C011962C9102C01296E8
:100E1000F6CF2223C1F03296D8011396FC93EE93BD
:100E200012974E815F81BA016F5F7F4FEC81FD8128
:100E3000E617F70770F2EA81FB81E40FF51F7F8365
:100E40006E832083C6CF8E819F819C012F5F3F4F91
:100E50004C815D814217530748F04A815B81FA015A
:100E6000E80FF91F3F832E83108202C0E12CF12C82
:100E7000C701DF91CF911F910F91FF90EF900895DF
:100E8000DB01109749F0ED91FC9111970190F081F1
:100E9000E02DBC01CD01199480E090E008959F926F
:100EA000AF92BF92CF92DF92EF92FF920F931F9378
:100EB000CF93DF9300D000D0CDB7DEB76C01FC013B
:100EC00000811181B80184E090E0DADF009739F009
:100ED000FC0111830083138212828C0111C0809166
:100EE000A10481110BC010929E0410929D041092D7
:100EF000A00410929F0481E08093A1040DE914E006
:100F00007601F2E0EF0EF11C6BE7C701EFDE8823FC
:100F100009F45EC06DE7C701E9DE81116AC086E0B1
:100F2000982EC60101DF5C01892B09F451C06AE3E8
:100F3000C701DCDE882309F44BC01A821982BE0186
:100F40006F5F7F4FC60117D2882309F441C0B501F6
:100F5000C80101DCDC01892B49F5F8016081718150
:100F60008AE090E08DDFDC01892B39F011961C922C
:100F70001E9215961C921E921497F80122813381BD
:100F80002115310551F0F90180819181009711F00F
:100F90009C01F9CFB183A08303C0F801B383A2837E
:100FA0001097B1F01396BC92AE921297FE01319653
:100FB0001496892D01900D928A95E1F76DE7C7018E
:100FC00095DE811116C06CE2C70190DE8111A9CFB8
:100FD0008091A10481110BC010929E0410929D0477
:100FE0001092A00410929F0481E08093A1040DE967
:100FF00014E0C80126960FB6F894DEBF0FBECDBF31
:10100000DF91CF911F910F91FF90EF90DF90CF90E4
:10101000BF90AF909F9008958F929F92AF92BF9292
:10102000CF92DF92EF92FF92CF93DF93A091B4061D
:10103000882311F03A2F01C030E08091B50690E08E
:10104000880F991F84589C4FC090BA06D090BB0659
:10105000E090BC06F090BD0640E050E0BA01FC0113
:10106000C591D49128812A2323130FC04A015B0123
:101070002FEF821A920AA20AB20A4C155D056E057C
:101080007F0538F4B501A401EACF342F252FCB0119
:1010900004C030E020E080E090E0632F722FDF9109
:1010A000CF91FF90EF90DF90CF90BF90AF909F9047
:1010B0008F90089542E050E06BE074E086EF95E099
:1010C000C2C3CF93DF93009771F0FC010190002021
:1010D000E9F73197AF01481B590BBC0186EF95E04A
:1010E000B2D3EC0102C0C0E0D0E042E050E06BE0DF
:1010F00074E086EF95E0A7D38C0F9D1FDF91CF9111
:10110000089590919F06E091A006F091A106392FD5
:10111000309580FF13C0F8942281832F822382832D
:101120008181892B8183A3E2B0E01197F1F782815D
:10113000982B9283789487ED90E012C0F8942281E6
:10114000832F822382838181892B8183AFEFB0E05B
:101150001197F1F78281982B928378948FE090E039
:101160000197F1F7089580919F06E091A006F09114
:10117000A106F8949181982B91832281982F9095C4
:1011800029232283A7E0B0E01197F1F72181922370
:101190009183A3E2B0E01197F1F790817894EFEC9E
:1011A000F0E03197F1F7982381E009F480E00895A9
:1011B000EF92FF920F931F93CF93DF931F92CDB7C0
:1011C000DEB7082F88E0E82EF12C11E081E0912FA6
:1011D000902309F480E0698394DF110F81E0E81A1D
:1011E000F1086981E114F10489F7611113C0F894E1
:1011F000E091A006F091A106918180919F068095D3
:1012000098239183E091A006F091A1069281892311
:10121000828378940F90DF91CF911F910F91FF906F
:10122000EF90089590919F06E091A006F091A1069D
:10123000F8948181292F20958223818378948DE7EA
:1012400043E050E0815021F1DA011197F1F730814C
:101250003923C1F3F8948281822382838181892B8F
:1012600081837894ABE7B7E01197F1F7F894818127
:1012700028232183A3E1B1E01197F1F7808198231E
:1012800081E009F080E07894E3E6F6E03197F1F749
:1012900008950F931F9361DC60936105709362055D
:1012A0008093630590936405E0915905F0915A0588
:1012B0000484F585E02D89E595E0199597FF1EC01A
:1012C0004CDC00916105109162052091630530911D
:1012D0006405DC01CB01801B910BA20BB30B0091C9
:1012E0005D0510915E0520915F05309160058017C6
:1012F0009107A207B307C0F28FEF9FEF1F910F91E5
:101300000895FC01A089B18982E08C93A485B585FC
:101310001C92A685B7858FEC8C93108EA489B58915
:1013200086E08C93A289B3898C9180618C93A28989
:10133000B3898C9188608C93A289B3898C918068E1
:101340008C930288F389E02D80818F7D80830895BE
:101350001F93CF93DF9360E085E52ADFC4EBD4E0F1
:101360001C2F185F60E0899123DF1C13FBCFDF91F6
:10137000CF911F9108959F92AF92BF92CF92DF922B
:10138000EF92FF920F931F93CF93DF9300D000D083
:10139000CDB7DEB7FC019681992309F4D8C06B0163
:1013A0007F01915096835F0182E0A80EB11CC501B8
:1013B0005BDCD7011296ED91FC91139780818B3500
:1013C00021F08B3709F492C09BC0F7010081118195
:1013D000B80184E090E054DD009751F0DC011196F3
:1013E0001C930E9313961C921E9212978C0111C09F
:1013F0008091C30681110BC01092C0061092BF06E7
:101400001092C2061092C10681E08093C3060FEBD2
:1014100016E06BE5C5016ADC882309F447C06DE579
:10142000C50164DC811153C086E0982E1A821982AE
:10143000BE016F5F7F4FC7019EDF8823B9F1F801BE
:101440006081718188E090E01BDDDC01892B39F03F
:1014500011961C921E9213961C921E921297F801DE
:10146000228133812115310551F0F901808191816B
:10147000009711F09C01F9CFB183A08303C0F8015C
:10148000B383A283109791F0FE0131961296892DB5
:1014900001900D928A95E1F76DE5C50127DC811178
:1014A00016C06CE2C50122DC8111C0CF8091C30659
:1014B00081110BC01092C0061092BF061092C20696
:1014C0001092C10681E08093C3060FEB16E0D801AD
:1014D0008D919C91892B11F410E031C086E090E051
:1014E000F601918380831383028328C0C701D7DC70
:1014F000DC012D913C91232B79F327E030E019C0DA
:1015000011E0873219F0823209F010E0C7010CDCDB
:10151000009711F3112359F022E030E0D601119623
:101520003C932E9313969C938E93129708C021E0C0
:1015300030E0F601318320839383828311E0D70169
:1015400016968C9116978F5F16968C9301C010E0BB
:10155000812F26960FB6F894DEBF0FBECDBFDF9168
:10156000CF911F910F91FF90EF90DF90CF90BF90A0
:10157000AF909F900895CF93DF93BC0186EF95E0E5
:1015800045D3EC0142E050E06BE074E086EF95E07B
:101590005AD18C0F9D1FDF91CF910895CF92DF928A
:1015A000EF92FF920F931F93CF93DF9300D000D061
:1015B000CDB7DEB78C017B0166E774E02B833C83FB
:1015C0004D835E830FD3B7018CEB94E01FD3C5DA54
:1015D0002B813C814D815E816B017C01C20ED31E4B
:1015E000E41EF51EBADA6C157D058E059F05A0F484
:1015F0008CEB94E00E948F02892BA1F38CEB94E09A
:101600000E946D0289831A8241E050E0BE016F5F43
:101610007F4FC8016AD1ECCFC801ADDFC801269663
:101620000FB6F894DEBF0FBECDBFDF91CF911F91F3
:101630000F91FF90EF90DF90CF900895CF92DF92BF
:10164000EF92FF920F931F93CF93DF93CDB7DEB747
:10165000C054D1400FB6F894DEBF0FBECDBF7DDAC7
:101660000091B6061091B7062091B8063091B906E0
:101670006B017C01C01AD10AE20AF30A40EDC416DC
:1016800047E0D406E104F10418F48091BE06B1C02D
:101690006093B6067093B7068093B8069093B90628
:1016A0001092B1061092B0061092AF061092AE06DC
:1016B0001092AD0661E08091B2065ED96AEF70E0EB
:1016C00080E090E012DA61E08091B206D2D960E069
:1016D0008091B20651D964E170E080E090E005DAD3
:1016E000F89461E08091B20647D98BE990E00197C8
:1016F000F1F762E08091B206BCD983E290E00197F5
:10170000F1F780E089DC672B682B692B21F41092BC
:10171000BE0678943BC081E07FDC672B682B692B89
:10172000B1F38E010F5F1F4F6E018FEBC81A8EEF62
:10173000D80A780180E070DCF701608371838283CE
:10174000938381E069DCF7016483758386839783E3
:10175000F8E0EF0EF11CEC14FD0461F7789420E042
:1017600030E0F8014081518162817381C480D5806D
:10177000E680F780411551056105710529F0C11416
:10178000D104E104F10421F41092BE0680E031C0DE
:10179000F90183E0F595E7958A95E1F7E355F94F6F
:1017A0008081880F4C155D056E057F0508F481600A
:1017B00080832F5F3F4F085F1F4F2832310589F626
:1017C0002091B10630E04091AD068091AE0690E0E8
:1017D000840F911D4091AF06840F911D4091B0067A
:1017E000840F911D99272817390771F681E080939E
:1017F000BE06C05CDE4F0FB6F894DEBF0FBECDBF95
:10180000DF91CF911F910F91FF90EF90DF90CF90DC
:101810000895CF93DF93FC0124813581232B71F050
:10182000FB01DC01CD91DC9160817181CE010E94D0
:10183000541F009719F08C1B9D0B02C08FEF9FEF78
:10184000DF91CF910895CF92DF92EF92FF920F93A5
:101850001F93CF93DF936C017A018B01C0E0D0E03E
:10186000CE15DF0589F0D8016D918D01D601ED917E
:10187000FC910190F081E02DC6011995892B11F49E
:101880007E0102C02196ECCFC701DF91CF911F915D
:101890000F91FF90EF90DF90CF9008950F931F93DB
:1018A000CF93DF93EC0188819981009729F02A81F9
:1018B0003B812617370788F48B016F5F7F4F0E94AB
:1018C000531E009761F0998388831B830A832C81C0
:1018D0003D81232B11F4FC01108281E001C080E0E6
:1018E000DF91CF911F910F910895EF92FF920F9387
:1018F0001F93CF93DF93FC0124813581611571051E
:1019000011F480E018C041155105A1F07B01EC01F4
:101910008A01020F131FB801C1DF882391F32881C8
:1019200039818C819D81B701820F931F0E944D1FC9
:101930001D830C8381E0DF91CF911F910F91FF9068
:10194000EF900895CF93DF93EC0188819981009700
:1019500011F00E94BB1D198218821D821C821B82FD
:101960001A82DF91CF910895EF92FF920F931F9308
:10197000CF93DF93CDB7DEB764970FB6F894DEBF91
:101980000FBECDBF7C01CB01BA018E010F5F1F4F8F
:1019900022E044E00E946418FC0101900020E9F775
:1019A0003197AF01481B590BBC01C7019EDF811164
:1019B00002C0C701C7DFC70164960FB6F894DEBF47
:1019C0000FBECDBFDF91CF911F910F91FF90EF9090
:1019D0000895EF92FF920F931F93CF93DF93CDB7AC
:1019E000DEB727970FB6F894DEBF0FBECDBF7C01E0
:1019F000CB014AE08E010F5F1F4FB8010E948D1886
:101A0000F80101900020E9F73197AF01401B510B1D
:101A1000B801C7016ADF811102C0C70193DFC701A6
:101A200027960FB6F894DEBF0FBECDBFDF91CF91E2
:101A30001F910F91FF90EF900895EF92FF920F93F7
:101A40001F93CF93DF93CDB7DEB728970FB6F894E7
:101A5000DEBF0FBECDBF7C01CB014AE08E010F5F20
:101A60001F4FB8010E948318F80101900020E9F788
:101A70003197AF01401B510BB801C70136DF81110F
:101A800002C0C7015FDFC70128960FB6F894DEBF1A
:101A90000FBECDBFDF91CF911F910F91FF90EF90BF
:101AA0000895CF93DF93EC016115710559F0FB01A7
:101AB00001900020E9F73197AF01461B570B15DF66
:101AC000811102C0CE013EDFCE01DF91CF9108959A
:101AD000CF93DF93EC01FB014481558160817181DB
:101AE00004DF811102C0CE012DDFCE01DF91CF9145
:101AF0000895EF92FF920F931F93CF93DF93EC0122
:101B00007B018A01BA01CADE811103C0CE011ADF4E
:101B100007C01D830C83B701888199810E944D1FE6
:101B2000CE01DF91CF911F910F91FF90EF9008951B
:101B3000FC01808191810C94BB1DEF92FF920F9369
:101B40001F93CF93DF93CDB7DEB7A1970FB6F8946D
:101B5000DEBF0FBECDBF7C01CB01BA01F701118200
:101B60001082138212821582148242E0420F8E018B
:101B70000F5F1F4F0E946418009761F0FC010190F5
:101B80000020E9F73197AF01481B590BBC01C70191
:101B9000B0DF02C0C701D6DEA1960FB6F894DEBF53
:101BA0000FBECDBFDF91CF911F910F91FF90EF90AE
:101BB0000895FB01DC0111961C921E9213961C9253
:101BC0001E92129715961C921E92149786179707CD
:101BD00041F0608171816115710519F04481558171
:101BE00088CF0895FC01118210821382128215821F
:101BF00014826115710549F0FB0101900020E9F79D
:101C00003197AF01461B570B74CF0895DC01ED915E
:101C1000FC91DB0114964D915C9115976D917C912F
:101C20000280F381E02D1994CF92DF92EF92FF9220
:101C30000F931F93E82FF92F05C0015011092109B7
:101C4000310961F1908196239417B9F305C00150D1
:101C500011092109310911F1908196239413F7CFCD
:101C6000C12CD12CE12CF12C0AC08FEFC81AD80A54
:101C7000E80AF80A0C151D052E053F0579F080814C
:101C80008623841791F36C2D7D2D8E2D9F2D1F9112
:101C90000F91FF90EF90DF90CF90089560E070E09B
:101CA00080E090E01F910F91FF90EF90DF90CF9038
:101CB0000895CF93DF93CDB7DEB7C75AD1090FB6DA
:101CC000F894DEBF0FBECDBF789484B5826084BD2A
:101CD00084B5816084BD85B5826085BD85B5816030
:101CE00085BD80916E00816080936E0010928100AE
:101CF0008091810082608093810080918100816069
:101D00008093810080918000816080938000809129
:101D1000B10084608093B1008091B00081608093B5
:101D2000B000809191008260809391008091910039
:101D300081608093910080919000816080939000F9
:101D40008091A10082608093A1008091A1008160B8
:101D50008093A1008091A00081608093A000809179
:101D60002101826080932101809121018160809313
:101D700021018091200181608093200180917A006F
:101D8000846080937A0080917A00826080937A00E8
:101D900080917A00816080937A0080917A008068D7
:101DA00080937A001092C10086EF95E0AADA89E567
:101DB00095E0A7DA8CEB94E0A4DA68EE73E080E0BB
:101DC00090E00E94750565E272E0CE0183599F4F55
:101DD00009DF28EB3BE040E050E0BE0163597F4F54
:101DE0008E010F5F1F4FC801D9DBC801A1DECE01F4
:101DF00083599F4F9DDE6EE272E0CE0183599F4F63
:101E0000F1DE20ED37E040E050E0BE0163597F4F46
:101E1000C801C4DBC8018CDECE0183599F4F88DE28
:101E200063E372E0CE0183599F4FDCDE20ED37E0A3
:101E300040E050E0BE0163597F4FC801AFDBC801ED
:101E400077DECE0183599F4F73DE89E595E00E94CE
:101E50008F02892BD1F360ED77E080E090E00E9463
:101E6000750589E595E00E948F02892B69F089E567
:101E700095E00E946D0289831A8241E050E0B8012A
:101E800083E996E032DDEDCF83E996E074DBCE01A5
:101E900009969C838B8384E690E09E838D831886CD
:101EA0001F8281E192E09A838983809193069091C9
:101EB0009406009711F486E794E0AF961FAF0EAF3B
:101EC000AF97E1969FAF8EAFE197E3961FAF0EAF4E
:101ED000E3978AE0E4968FAFE497CE0183599F4F52
:101EE0000E944F077C0161E472E00E940D0690930E
:101EF0000102809300026AE472E0C7010E940D06AD
:101F000090930302809302026FE472E0C7010E9483
:101F10000D06909305028093040263E572E0CE0102
:101F200083599F4F5FDE20ED37E040E050E0BE0177
:101F300063597F4FC80132DBC801FADDCE018359F6
:101F40009F4FF6DDE0900402F0900502C09002027F
:101F5000D09003026EE572E0CE0183599F4F42DEBE
:101F6000BE0163597F4FC80124DEB601C80199DD67
:101F700069E672E096DDB70194DD6DE672E091DD11
:101F8000BC01CE0186589F4F14DEC801D1DDCE01C1
:101F900083599F4FCDDDBE0166587F4FCE018359D7
:101FA0009F4F07DE28E833E140E050E0BE0163596F
:101FB0007F4FC801F3DAC801BBDDCE0183599F4FC3
:101FC000B7DD61E772E0C8010DDE64E772E0CE01C3
:101FD0008C589F4F07DE28EB3BE040E050E0BE010D
:101FE0006C587F4FCE0183599F4FD8DAB801CE018C
:101FF00083599F4F0EDC7C01CE0183599F4F98DDA2
:10200000CE018C589F4F94DDC80192DDEF20E09403
:1020100039F180E892E055D8E0915905F0915A05E0
:102020000190F081E02D61E389E595E019956EE876
:1020300072E0CE0183599F4FD5DD20ED37E040E0BF
:1020400050E0BE0163597F4FC801A8DAC80170DDB6
:10205000CE0183599F4F6CDD81E0809398040EC0C0
:1020600089E992E02ED8E0915905F0915A05019046
:10207000F081E02D60E389E595E01995CE01865861
:102080009F4F56DD61E08BE00E94390561E08CE0F6
:102090000E94390561E08DE00E94390561E086E02B
:1020A0000E94390560E085E00E94390561E086E123
:1020B0000E94390561E087E10E94390561E088E10D
:1020C0000E94390561E089E10E94390516E161E06D
:1020D000812F0E94BC041F5F1A31C9F786EF95E07B
:1020E00010D962E08091B2060E94390580E398EF32
:1020F000AFEFBFEF8093B6069093B706A093B806F4
:10210000B093B9068091AC06811103C08BD88111C0
:102110000DC01092AA061092AC061092AB0684EA8B
:1021200092E00E946108109282046DC060E080EF2E
:102130003FD801E0F12CE12C11E015D8CC55DF4F50
:102140008883C45AD0400FD8CC55DF4F9881C45AE9
:10215000D040913019F48130C1F435C02F2D30E0DA
:1021600098131DC08091AA06181738F4F901E1569A
:10217000F94F8381802349F402C0181731F090E0B1
:10218000193060F41093AB0609C0EF2DF0E0E15672
:10219000F94F8381802B838391E009C0E12EF901FF
:1021A000E156F94F2381802F809582238383892FE5
:1021B0000E9481081F5F000F11F4F39401E037E0E3
:1021C0003F1508F0BACF113408F4A3CFE092AA0665
:1021D000E11003C081E08093AC068091A2068823C1
:1021E00009F497CFA2EAB6E0E4EBF4E08D91819395
:1021F00044E0EC3BF407D1F783E594E00E946108EA
:1022000081E08093820460E08BE00E94BC0460E087
:102210008CE00E94BC0460E08DE00E94BC04CE0112
:1022200001967C0184EB94E067E0C62EC80E06DAC6
:10223000882309F440C08091B3068B3029F0D8F18F
:102240008551823058F037C06091AF0670E080E071
:1022500090E00E941F1B4B015C0133C01091AF0640
:10226000612F6F7770E080E090E00E94211B20E0FA
:1022700030E040E853E40E94801B4B015C01609118
:10228000B00670E080E090E00E94211B9B01AC0151
:10229000C501B4010E944E1C2DEC3CEC4CEC5DE3FE
:1022A0000E94801B4B015C0117FF0BC0B7FAB09472
:1022B000B7F8B09406C0812C912C50ECA52E5FE7A6
:1022C000B52EBCD98823E9F18091B3068B3049F152
:1022D00008F444C08551823008F040C06091AD06DA
:1022E00070E080E090E00E941F1B20E030E040E8BA
:1022F00053E40E94801B2B013C016091AE0670E00C
:1023000080E090E00E94211B9B01AC01C301B2015F
:102310000E944E1C2DEC3CEC4CEC5DE30E94801BBB
:1023200007C06091AD0670E080E090E00E941F1B46
:10233000C856DF4F688379838A839B83C859D0400E
:1023400019C020E030E040EC5FE7C856DF4F28833B
:1023500039834A835B83C859D0400CC080E090E049
:10236000A0ECBFE7C856DF4F88839983AA83BB835D
:10237000C859D04089E0D7011D928A95E9F780912C
:102380008204882309F46BC0A4EBB4E0E0E0CA1631
:1023900039F08D91E827F0E0EE5FFD4FE491F7CF43
:1023A0008091BB04E81729F087EB92E00E94610856
:1023B0005EC00E9412090E94A80961E084E40E94A4
:1023C000D8080E94120968EE73E080E090E00E9455
:1023D00075050E94A80960E08EEB0E94D8082701CD
:1023E0003E01BAE06B0E711C08E010E03324339418
:1023F000D12C0E94B3088111D328330C015011094C
:10240000C1F7F201D1922F01E615F70569F7109295
:10241000AA061092AC061092AB06EAEAF6E0129217
:1024200026E0E23AF207D9F76A8170E0762F662754
:102430008981682B072E000C880B990B0E94211BA9
:1024400020E030E040E85DE30E94801BC456DF4F8F
:10245000688379838A839B83CC59D04008C0C45653
:10246000DF4F188219821A821B82CC59D04061E05A
:1024700086E00E94BC0483E290E00197F1F760E0FF
:1024800086E00E94BC04E1EEF3E06491EBE9F3E046
:10249000E491F0E0EE0FFF1FE458FC4F859194911A
:1024A00000E412E42FE030E0462FBEDB6115710539
:1024B0008105910549F0DC01CB010196A11DB11DFB
:1024C000BC01CD019F7003C060E070E0CB010E94B1
:1024D0001F1B20E030E048EE51E40E94B21C20E0D7
:1024E00030E040E05FE30E94801B9B01AC0160E0B4
:1024F00070E080EA91E40E944D1C20E030E040E76B
:1025000051E40E94B21C20E030E048EC52E40E940A
:10251000801B6093990470939A0480939B0490931A
:102520009C040E94AD05C056DF4F688379838A837F
:102530009B83C05AD040E9E8F4E040E080E090E0BE
:1025400020917B00277F20937B00242F2064209301
:102550007C0020917A00206420937A0020917A00F8
:1025600026FDFCCF209178005091790030E0352B8A
:1025700021933193820F931F4F5F443009F797FDEA
:10258000039695958795959587959093920480935A
:10259000910489E595E00E948F02892B09F4F3C02C
:1025A0000E944909FC0197FD11C08D32910591F0FF
:1025B000C0970A9778F0E0915905F0915A05028486
:1025C000F385E02D89E595E01995EACF412C512C52
:1025D00032014DC020E030E0A90110E0E130F1050A
:1025E00009F045C4E0915905F0915A050284F3853C
:1025F000E02D89E595E0CA55DF4F2883C65AD040C3
:10260000C955DF4F3883C75AD040CC55DF4F488378
:10261000C45AD040CB55DF4F5883C55AD040199586
:102620000E944909FC01C097CA55DF4F2881C65A4C
:10263000D040C955DF4F3881C75AD040CC55DF4F05
:102640004881C45AD040CB55DF4F5881C55AD0403D
:102650000A9720F2E130F10509F2112309F423C4AD
:10266000442455243201421A530A640A750A82012D
:1026700080918304909184040196909384048093C4
:102680008304EC961FAE1EAEEC97EE961FAE1EAE08
:10269000EE97C258DF4F19821882CE57D0404AE0D9
:1026A000B70131D5F70101900020E9F73197AF016B
:1026B0004E195F09B701CE0186589F4F1ADA69ECAF
:1026C00072E0CE018C589F4F8DDA64ED72E0C70145
:1026D00089DAB701CE0183599F4F6BDAB201CE017F
:1026E00083599F4FAAD9BE016C587F4FF1D9BE01C3
:1026F00066587F4FEDD96CE074E0D3D9BC0186EF0A
:1027000095E084DACE0183599F4F12DAC70110DABF
:10271000CE018C589F4F0CDACE0186589F4F08DAB5
:1027200003301105A1F05CF40230110541F58BEE88
:1027300092E00E94610881E08093060224C0043088
:10274000110561F005301105D1F416E110C080E0EB
:1027500093E00E9461081092060215C016E160E045
:10276000812F0E94BC041F5F1A31C9F70CC061E0C1
:10277000812F0E94BC041F5F1A31C9F704C086E193
:1027800093E00E94610889E595E00E941D03809115
:10279000930481111DC020E030E040EB51E4C456A9
:1027A000DF4F688179818A819B81CC59D0400E941A
:1027B0001A1D181654F581E08093930461E08BE0B4
:1027C0000E94BC0461E08CE00E94BC0461E01AC07D
:1027D00020E030E040EA51E4C456DF4F688179815F
:1027E0008A819B81CC59D04026D7181674F010925C
:1027F000930460E08BE00E94BC0460E08CE00E94E7
:10280000BC0460E08DE00E94BC041091060211112E
:1028100005C0D0909804D1101DC026C380919104AA
:1028200090919204893791054CF406E160E0802F85
:102830000E94BC040F5F0A31C9F7EBCF8D389105B8
:1028400044F306E161E0802F0E94BC040F5F0A316F
:10285000C9F7DFCF8091940490919504A0919604DC
:10286000B0919704C056DF4F288139814A815B813E
:10287000C05AD040281B390B4A0B5B0BDA01C90147
:1028800081319742A105B10508F420C162E373E0EC
:10289000CE0183599F4FA6D9BE0163597F4FC7010F
:1028A00088D9612F70E0C701C8D80E94BB0AC70150
:1028B0003FD9CE0183599F4F3BD96EE373E0CE01E0
:1028C00083599F4F8FD9BE0163597F4FC70171D97B
:1028D000C456DF4F488159816A817B81CC59D040F1
:1028E000C70142D86CE074E0DCD8BC0186EF95E00B
:1028F0008DD9C7011DD9CE0183599F4F19D963E5E1
:1029000073E0CE0183599F4F6DD9BE0163597F4F4C
:10291000C7014FD9B501A401C70126D86CE074E006
:10292000C0D8BC0186EF95E071D9C70101D9CE01AD
:1029300083599F4FFDD866E673E0CE0183599F4FC0
:1029400051D9BE0163597F4FC70133D9C856DF4FF4
:10295000488159816A817B81C859D040C70104D818
:102960006CE074E09ED8BC0186EF95E04FD9C701BA
:10297000DFD8CE0183599F4FDBD80091930410E03C
:1029800066E773E0CE0183599F4F2CD9BE0163598E
:102990007F4FC7010ED9B801C7014FD86CE074E072
:1029A00080D8BC0186EF95E031D9C701C1D8CE01EE
:1029B00083599F4FBDD8209191043091920420906B
:1029C0008F043090900440908D0450908E0460905D
:1029D0008B0470908C040091890410918A0463E840
:1029E00073E0CE0183599F4FCA55DF4F2883C65AE3
:1029F000D040C955DF4F3883C75AD040F3D8BE0105
:102A000063597F4FC701D5D8B801C70116D86CE309
:102A100073E047D8B30111D86CE373E042D8B20138
:102A20000CD86CE373E03DD8B10107D86CE373E0D8
:102A300038D8CA55DF4F2881C65AD040C955DF4F14
:102A40003881C75AD040B9010E941D0D6CE074E076
:102A500028D8BC0186EF95E0D9D8C70169D8CE0146
:102A600083599F4F65D84090990450909A04609084
:102A70009B0470909C0460E973E0CE0183599F4FE2
:102A8000B1D8BE0163597F4FC70193D8B301A201EA
:102A9000C7010E94B40C6FE973E003D8BC0186EF54
:102AA00095E0B4D8C70144D8CE0183599F4F40D890
:102AB0000E945A080E945A080E94AD05609394042F
:102AC0007093950480939604909397048091850465
:102AD00090918604A0918704B0918804C056DF4F7E
:102AE000288139814A815B81C05AD040281B390B2B
:102AF0004A0B5B0BDA01C90189399A43A105B1057B
:102B000008F4B2C181EA93E00E9461080091910447
:102B1000109192044090990450909A0460909B0404
:102B200070909C046DEB73E0CE0183599F4F5AD88F
:102B3000BE0163597F4FC7013CD86AE672E0C70106
:102B40000E94510D6FEC73E00E94510D6BED73E02C
:102B50000E94510D60E570E00E94E90C6BE074E0AA
:102B60000E94510DBC01CE018E569F4F22D8C70145
:102B70000E94980DCE0183599F4F0E94980D61E7E6
:102B800072E0C7012FD8BE016E567F4FCE018C5820
:102B90009F4F0FD828E833E140E050E0BE016C5869
:102BA0007F4FCE0183599F4F0E94CE0AB701CE01BD
:102BB00083599F4F0E94090C1C01CE0183599F4FDE
:102BC0000E94980DCE018C589F4F0E94980DC7010E
:102BD0000E94980D2320209431F48CEB94E00E9405
:102BE0001D03D12C29C1AF961FAE1EAEAF97E19643
:102BF0001FAE1EAEE197E3961FAE1EAEE3974AE00E
:102C0000B701C80180D2F70101900020E9F73197A0
:102C1000AF014E195F09B701CE0183599F4F0E9442
:102C2000790D22E0B301A201C7010E949D0D22E0AF
:102C3000C456DF4F488159816A817B81CC59D0408D
:102C4000CE018C589F4F0E949D0D22E0C856DF4F49
:102C5000488159816A817B81C859D040CE0186580C
:102C60009F4F0E949D0D22E0B501A401CE01805826
:102C70009F4F0E949D0D6EED73E0CE018A579F4FCE
:102C80000E94F20DBE0160587F4FCE018A579F4FC0
:102C90000E94680D62EE73E00E94510DBE016658FD
:102CA0007F4F0E94680D66EE73E00E94510DBE01D9
:102CB0006C587F4F0E94680D6BEE73E00E94510DBF
:102CC000B7010E94680D60EF73E00E94510DBE01D4
:102CD00063597F4F0E94680DBC01CE0184579F4FFE
:102CE0000E94D90DCE018A579F4F0E94980DCE01A8
:102CF00080589F4F0E94980DCE0186589F4F0E948A
:102D0000980DCE018C589F4F0E94980DC7010E94CC
:102D1000980DCE0183599F4F0E94980D64EF73E088
:102D2000C7010E94F20D69E976E0C7010E94680DB3
:102D3000BE0164577F4F0E94680D6BE074E00E94F3
:102D4000510DBC01CE0180589F4F0E94D90DC70183
:102D50000E94980D44E150E069EF73E0CE01805885
:102D60009F4F0E94750CCC57DF4F08811981C458C2
:102D7000D0406EE074E0CE0186589F4F0E94F20D65
:102D8000BE0166587F4FCE018C589F4F0E94D90DCF
:102D9000B801CE018C589F4F0E94E90C6BE074E0A3
:102DA0000E94510DBC01CE0183599F4F0E94D90D45
:102DB00028EE33E040E050E0BE0163597F4FC70189
:102DC0000E94CE0AC7010E94980DCE0183599F4FE1
:102DD0000E94980DCE018C589F4F0E94980DCE01F5
:102DE00086589F4F0E94980DBE0160587F4FCE01BC
:102DF00083599F4F0E94D90D28EE33E040E050E008
:102E0000BE0163597F4FC7010E94CE0AC7010E94CD
:102E1000980DCE0183599F4F0E94980D8CEB94E042
:102E20000E941D03CE0180589F4F0E94980DCE0135
:102E300084579F4F0E94980DCE018E569F4F0E943F
:102E4000980DDD2019F08AE194E002C087E394E058
:102E50000E9461080E94AD0560938504709386040A
:102E600080938704909388040E943E03E0C9ED326A
:102E7000F105B9F0CF01C0970A9708F0B3CBAAE0EB
:102E8000B0E0F2D42F01FF0F66087708460E571EF8
:102E9000681E791EA301920120533109410951098D
:102EA000A1CB11E09FCB29013A01E1CB83E996E068
:102EB0000E94980D89E996E00C94980D1092BF0439
:102EC0001092BE0448EE53E060E070E04093C0040E
:102ED0005093C1046093C2047093C30487E192E0ED
:102EE0009093BD048093BC0425ED30E03093C90479
:102EF0002093C80424ED30E03093CB042093CA041F
:102F000020ED30E03093CD042093CC0421ED30E06F
:102F10003093CF042093CE0422ED30E03093D104DF
:102F20002093D00426ED30E03093D3042093D204D4
:102F30001092D5041092D6041092D7041092D8049F
:102F400010925C0510925B0540935D0550935E0501
:102F500060935F057093600590935A0580935905BF
:102F60002DEC30E030936605209365052CEC30E0C5
:102F7000309368052093670528EC30E030936A05AC
:102F80002093690529EC30E030936C0520936B05A4
:102F90002AEC30E030936E0520936D052EEC30E086
:102FA0003093700520936F0510927205109273058F
:102FB00010927405109275051092F9051092F8059B
:102FC0004093FA055093FB056093FC057093FD0553
:102FD0009093F7058093F60585EC90E090930306B7
:102FE0008093020684EC90E090930506809304069B
:102FF00080EC90E0909307068093060681EC90E0C9
:10300000909309068093080682EC90E090930B065B
:1030100080930A0686EC90E090930D0680930C0650
:1030200010920F06109210061092110610921206BE
:1030300087E28093B20686E18093B306E3E0F4E092
:10304000E491E093B406EDEBF3E0E491E093B50690
:1030500080E89EE3A0E0B0E08093BA069093BB06C0
:10306000A093BC06B093BD0660E08AE10E943905DA
:10307000E6EFF3E0E491E0939F06E0EBF3E0E49108
:10308000F0E0EE0FFF1FE458FC4F85919491909370
:10309000A1068093A0061092AA061092AC06109288
:1030A000AB06EAEAF6E0129286E0E23AF807D9F7D0
:1030B00067E774E089E996E00E94F20D66E774E044
:1030C00083E996E00C94F20DEF920F931F93CF9348
:1030D000DF93E80147FD02C034E001C034E1E42F92
:1030E000440FFF0BF7FF03C0F195E195F109E32EC3
:1030F000022F2E2FAE012AD0CE01DF91CF911F914A
:103100000F91EF900895BB274A3031F4992322F4B0
:10311000BDE2909581959F4F01C0BB27FB015527CC
:10312000AA27880F991FAA1FA41710F0A41B839524
:103130005051B9F7A05DAA3308F0A95DA19300979B
:1031400079F7B111B1931192CB0165C24F925F92A1
:103150006F927F929F92AF92BF92CF92DF92EF9247
:10316000FF920F931F93CF93DF93CDB7DEB72997CD
:103170000FB6F894DEBF0FBECDBF6A01122FB02E7E
:103180002BE3201720F0FF24F394F00E02C0BCE3E1
:10319000FB2E0F2D27E0AE014F5F5F4F64D1AC01D6
:1031A0008981982F9970913031F0E1FC06C0E0FEE2
:1031B00006C090E205C09DE203C09BE201C090E022
:1031C000EE2DE07183FF3CC0911102C083E001C08D
:1031D00084E0811718F4212F281B01C020E0E111A1
:1031E0000BC0F601822F30E2882319F03193815011
:1031F000FBCFC20ED11C20E0992329F0D6019C936D
:10320000F60131966F01C6010396E2FE0AC03EE464
:10321000D6013C9341E411964C93119712963C933E
:1032200006C03EE6F601308341E641833283FC016D
:10323000322F40E2332309F442C041933150FACF98
:1032400082FF44C0911102C083E001C084E0811775
:1032500018F4212F281B01C020E0E1110BC0F6015A
:10326000822F30E2882319F031938150FBCFC20EB8
:10327000D11C20E0992329F0D6019C93F6013196C8
:103280006F01C6010396E2FE0BC039E4D6013C9300
:103290003EE411963C93119736E412963C9307C096
:1032A00039E6F60130833EE6318336E63283FC01AF
:1032B000322F40E2332319F041933150FBCFFC0110
:1032C000E20FF11D10828EEF9FEFB7C0F1E0911178
:1032D00001C0F0E06F2F70E01416150624F49A0177
:1032E0002F5F3F4F02C021E030E0260F371FBB2089
:1032F00029F06B2D70E06F5F7F4F02C060E070E0DF
:10330000260F371F612F70E0261737071CF4121B9A
:10331000212F01C020E03E2D387159F4D601322F03
:1033200060E2332319F06D933150FBCFC20ED11CF4
:1033300020E0FF2331F0D6019C93B6016F5F7F4FF1
:103340006B01E1110BC0F601922F30E3992319F0C4
:1033500031939150FBCFC20ED11C20E09F2D940FD2
:103360003A81782F7071A72E84FF03C0313309F49E
:103370009150191624F4993018F098E001C091E0AA
:10338000E42F852F57FF02C0E0E080E06E2F782FFA
:10339000E0E0F0E0AEE29A2E3A01691A71082A01E3
:1033A000461A570A0B2D10E01195019511096F3F30
:1033B0008FEF780729F4D6019C92C60101966C0123
:1033C0004617570784F0661677066CF47F01E40C05
:1033D000F51CA1E0B0E0AC0FBD1FEA0EFB1ED7014B
:1033E0001196BC9002C090E3B92E615071093196DC
:1033F000C60101967C016017710724F0D601BC92CA
:103400006C01D5CF6417750741F4363320F435339A
:1034100021F4A11002C081E3B82EF601B082F701B9
:10342000822F90E2882319F091938150FBCFF7010E
:10343000E20FF11D108280E090E029960FB6F8941B
:10344000DEBF0FBECDBFDF91CF911F910F91FF90D7
:10345000EF90DF90CF90BF90AF909F907F906F9054
:103460005F904F900895283008F027E03327DA0165
:10347000990F311D87FD916000966105710539F442
:1034800032602E5F3D9330E32A95E1F708959F3F28
:1034900030F080387105610509F03C5F3C5F3D9379
:1034A000913008F08068911DDF93CF931F930F93A5
:1034B000FF92EF92192F987F9695E92F9695969502
:1034C000E90FFF27EE59FE4F99273327EE24FF24FB
:1034D000A701E70105900894079428F4360FE71E2A
:1034E000F81E491F511D660F771F881F991F0694EC
:1034F000A1F70590079428F4E70EF81E491F561F00
:10350000C11D770F881F991F661F0694A1F70590AC
:10351000079428F4F80E491F561FC71FD11D880FA6
:10352000991F661F771F0694A1F70590079420F452
:10353000490F561FC71FD81F990F661F771F881F77
:103540000694A9F784911095177041F0D695C79508
:1035500057954795F794E7941A95C1F7E8E0F1E09D
:1035600068941590159135916591959105907FE23C
:103570007395E118F10A430B560BC90BD009C0F73C
:10358000E10CF11E431F561FC91FD01D7EF470337E
:1035900011F48A95E6CFE894015030F0080F0AF450
:1035A0000027021708F4202F2395022F7A3328F0E2
:1035B00079E37D932A95E9F710C07D932A9589F6E2
:1035C000069497956795379517951794E118F10A22
:1035D000430B560BC90BD00998F023957E91739538
:1035E0007A3308F070E37C932013B8F77E91706112
:1035F0007D9330F0839571E37D9370E32A95E1F735
:103600001124EF90FF900F911F91CF91DF91992797
:1036100087FD90950895DC01FC01672F7191772358
:10362000E1F7329704C07C916D9370836291AE177D
:10363000BF07C8F3089540D008F481E00895E894E6
:1036400009C097FB3EF490958095709561957F4FEA
:103650008F4F9F4F9923A9F0F92F96E9BB27939598
:10366000F695879577956795B795F111F8CFFAF4A8
:10367000BB0F11F460FF1BC06F5F7F4F8F4F9F4FD9
:1036800016C0882311F096E911C0772321F09EE837
:10369000872F762F05C0662371F096E8862F70E09D
:1036A00060E02AF09A95660F771F881FDAF7880F77
:1036B0009695879597F90895990F0008550FAA0BCD
:1036C000E0E8FEEF16161706E807F907C0F0121635
:1036D0001306E407F50798F0621B730B840B950B38
:1036E00039F40A2661F0232B242B252B21F408958D
:1036F0000A2609F4A140A6958FEF811D811D08952A
:103700000BD078C069D028F06ED018F0952309F05E
:103710005AC05FC01124A2C07ED0A0F3959FD1F300
:10372000950F50E0551F629FF001729FBB27F00D6F
:10373000B11D639FAA27F00DB11DAA1F649F6627C4
:10374000B00DA11D661F829F2227B00DA11D621F13
:10375000739FB00DA11D621F839FA00D611D221FCD
:10376000749F3327A00D611D231F849F600D211DB1
:10377000822F762F6A2F11249F5750408AF0E1F054
:1037800088234AF0EE0FFF1FBB1F661F771F881F9D
:1037900091505040A9F79E3F510570F014C05EC093
:1037A0005F3FECF3983EDCF3869577956795B79588
:1037B000F795E7959F5FC1F7FE2B880F911D9695B2
:1037C000879597F9089597F99F6780E870E060E022
:1037D00008959FEF80EC089500240A9416161706AA
:1037E00018060906089500240A94121613061406F2
:1037F00005060895092E0394000C11F4882352F055
:10380000BB0F40F4BF2B11F460FF04C06F5F7F4F0C
:103810008F4F9F4F089557FD9058440F551F59F0F3
:103820005F3F71F04795880F97FB991F61F09F3FAD
:1038300079F087950895121613061406551FF2CFD6
:103840004695F1DF08C0161617061806991FF1CF26
:1038500086957105610508940895E894BB2766274D
:103860007727CB0197F9089509D0A59F900DB49FB4
:10387000900DA49F800D911D11240895A29FB00169
:10388000B39FC001A39F700D811D1124911DB29F94
:10389000700D811D1124911D08955058BB27AA2732
:1038A0000ED0A8CF99DF30F09EDF20F031F49F3F9B
:1038B00011F41EF48ECF0EF4E095E7FB84CFE92FD0
:1038C000AADF80F3BA17620773078407950718F019
:1038D00071F49EF5C2CF0EF4E0950B2EBA2FA02DF9
:1038E0000B01B90190010C01CA01A0011124FF27AD
:1038F000591B99F0593F50F4503E68F11A16F040A8
:10390000A22F232F342F4427585FF3CF46953795A6
:103910002795A795F0405395C9F77EF41F16BA0B6B
:10392000620B730B840BBAF09150A1F0FF0FBB1F19
:10393000661F771F881FC2F70EC0BA0F621F731F62
:10394000841F48F4879577956795B795F7959E3FBF
:1039500008F0B3CF9395880F08F09927EE0F97954D
:10396000879508950CD046CF3EDF40F035DF30F02C
:1039700021F45F3F19F027CF511170CF2ACF4BDFD1
:1039800098F39923C9F35523B1F3951B550BBB2726
:10399000AA2762177307840738F09F5F5F4F220FD3
:1039A000331F441FAA1FA9F333D00E2E3AF0E0E8CC
:1039B00030D091505040E695001CCAF729D0FE2F18
:1039C00027D0660F771F881FBB1F261737074807AA
:1039D000AB07B0E809F0BB0B802DBF01FF27935860
:1039E0005F4F2AF09E3F510568F0EDCE37CF5F3F25
:1039F000ECF3983EDCF3869577956795B795F79548
:103A00009F5FC9F7880F911D9695879597F908953F
:103A1000E1E0660F771F881FBB1F621773078407DB
:103A2000BA0720F0621B730B840BBA0BEE1F88F7EA
:103A3000E095089541DE08F48FEF0895EE0FFF1F23
:103A4000881F8BBF0790F691E02D1994CF93DF93D9
:103A50008230910510F482E090E0E091CD06F09183
:103A6000CE0620E030E0C0E0D0E0309711F1408198
:103A7000518148175907C0F04817590761F48281EE
:103A80009381209719F09B838A832BC09093CE0655
:103A90008093CD0626C02115310519F04217530732
:103AA00018F49A01BE01DF01EF010280F381E02DDD
:103AB000DCCF2115310509F1281B390B24303105E4
:103AC00090F412968D919C9113976115710521F0D8
:103AD000FB019383828304C09093CE068093CD062E
:103AE000FD01329644C0FD01E20FF31F81939193D3
:103AF000225031092D933C933AC02091CB0630914E
:103B0000CC06232B41F42091090230910A02309314
:103B1000CC062093CB062091070230910802211594
:103B2000310541F42DB73EB740910B0250910C0284
:103B3000241B350BE091CB06F091CC06E217F3077E
:103B4000A0F42E1B3F0B2817390778F0AC014E5F0D
:103B50005F4F2417350748F04E0F5F1F5093CC0678
:103B60004093CB068193919302C0E0E0F0E0CF0157
:103B7000DF91CF9108950F931F93CF93DF93009719
:103B800009F48CC0FC013297138212820091CD0699
:103B90001091CE060115110581F420813181820F2B
:103BA000931F2091CB063091CC062817390779F561
:103BB000F093CC06E093CB0671C0D80140E050E012
:103BC000AE17BF0750F412962D913C911397AD019B
:103BD0002115310509F1D901F3CF9D01DA013383B4
:103BE000228360817181860F971F8217930769F482
:103BF000EC0128813981260F371F2E5F3F4F31831B
:103C000020838A819B8193838283452B29F4F093BF
:103C1000CE06E093CD0642C01396FC93EE93129726
:103C2000ED01499159919E01240F351FE217F307C9
:103C300071F480819181840F951F029611969C9357
:103C40008E938281938113969C938E931297E0E0DA
:103C5000F0E0D80112968D919C911397009719F07E
:103C6000F8018C01F6CF8D919C9198012E5F3F4F0A
:103C7000820F931F2091CB063091CC06281739076D
:103C800069F4309729F41092CE061092CD0602C046
:103C9000138212821093CC060093CB06DF91CF9152
:103CA0001F910F9108956F927F928F929F92AF9282
:103CB000BF92CF92DF92EF92FF920F931F93CF9319
:103CC000DF93EC01009781F4CB01DF91CF911F913D
:103CD0000F91FF90EF90DF90CF90BF90AF909F90AB
:103CE0008F907F906F90B2CEFC01E60FF71F9C0182
:103CF00022503109E217F30708F4A8C0D9010D9149
:103D00001C91119706171707A8F00530110508F444
:103D10009BC0C80104978617970708F495C0025006
:103D20001109061B170B019311936D937C93CF011F
:103D300022DF8AC05B01A01AB10A4C01800E911EDD
:103D4000A091CD06B091CE0640E050E0E12CF12CE0
:103D5000109709F44AC0A815B905D1F56D907C906B
:103D60001197630182E0C80ED11CCA14DB0480F1F4
:103D7000A3014A195B096A0182E0C80ED11C1296A0
:103D8000BC9012971396AC91B5E0CB16D10440F0DD
:103D9000B282A38351834083D9016D937C930AC07F
:103DA0000E5F1F4FC301800F911FF9019183808324
:103DB000EB2DFA2FE114F10431F0D7011396FC93A7
:103DC000EE93129741C0F093CE06E093CD063CC02F
:103DD0008D919C9111974817590708F4AC017D010A
:103DE00012960D90BC91A02DB3CF8091CB069091EF
:103DF000CC0688159905E1F446175707C8F4809159
:103E0000070290910802009741F48DB79EB7409148
:103E10000B0250910C02841B950BE817F907B0F4C4
:103E2000F093CC06E093CB06F901718360830CC05C
:103E3000CB010CDE7C01009749F0A801BE011BD02C
:103E4000CE0199DEC70104C0CE0102C080E090E03F
:103E5000DF91CF911F910F91FF90EF90DF90CF9066
:103E6000BF90AF909F908F907F906F90089581E06A
:103E700090E0F89433C0FB01DC0102C001900D9288
:103E800041505040D8F70895FB01DC018D9101901D
:103E900080190110D9F3990B0895FB01DC01019001
:103EA0000D920020E1F70895FB0151915523A9F0EF
:103EB000BF01DC014D9145174111E1F759F4CD01E6
:103EC0000190002049F04D9140154111C9F3FB01CB
:103ED0004111EFCF81E090E00197089512E0C2E137
:103EE000D2E000E005C0802FFE01A8DD2196011D73
:0E3EF000C331D10780E00807B1F7F894FFCF87
:103EFE00760476047604010000CF068000000000F0
:103F0E0000950300000000D702230C5E021D038FF4
:103F1E00026D02810241542B5253540D0A0041543A
:103F2E000D0A0041542B43574D4F44453D310D0A68
:103F3E0000757365724E616D650073736964007010
:103F4E0073770041542B43575141500D0A00415491
:103F5E002B43574A41503D2200222C2200220D0AAB
:103F6E00004F4B0041542B43574A41503F0D0A001E
:103F7E00736C61766520737563636573730041546A
:103F8E002B43494653520D0A00736C6176652066C9
:103F9E0061696C00445331382043616E206E6F743A
:103FAE002066696E642100435243206973206E6F50
:103FBE00742076616C696421002020636F756E74C5
:103FCE00203A2000726571756573742066726F6D8C
:103FDE00206D6173746572203A20006175746F6D87
:103FEE00617469635F6C6564203D20747275650051
:103FFE006175746F6D617469635F6C6564203D20DB
:10400E0066616C7365007265717565737420667296
:10401E006F6D206D6173746572203A206572726FD8
:10402E0072004C4544206D6F6465203A2000576144
:10403E007465722054656D70657261747572652059
:10404E003A20004448542054656D70657261747551
:10405E007265203A20004448542048756D696469A1
:10406E007479203A200046616E2053746174652085
:10407E003A2000504F542056616C7565203A20004E
:10408E005761746572204C6576656C203A20002568
:10409E00003D3D3D3D446174612053656E64696E23
:1040AE00672073746172743D3D3D3D3D0041542B5C
:1040BE0043495053544152543D22544350220031EF
:1040CE0039322E3136382E342E3100222C003F74E8
:1040DE003D0026683D002677743D0026776C3D0036
:1040EE0026653D004745542000436F6E6E65637430
:1040FE00696F6E3A636C6F73650D0A0D0A00415459
:10410E002B43495053454E443D003D3D3D3D3D44BE
:10411E006174612073656E64696E6720656E642ECE
:10412E002E3D3D3D3D3D003D3D3D3D446174612094
:10413E0073656E64696E67206661696C2E2E3D3DF7
:10414E003D3D004453313820436F6E6E6563746598
:10415E00642E006E756C6C0022225C5C6208660C2C
:10416E006E0A720D7409002F73656E642E7068707E
:02417E0000003F
:00000001FF
