:10000000A2C10000D1C10000CFC10000CDC10000DD
:10001000CBC10000C9C10000C7C10000C5C10000BC
:10002000C3C100000C9422190C9422190C942219BB
:10003000BBC10000B9C10000B7C10000B5C10000DC
:10004000B3C10000B1C10000AFC10000ADC10000EC
:10005000ABC10000A9C10000A7C100000C94D818D2
:10006000A3C100000C946D120C9444129DC10000B9
:100070009BC1000099C1000097C1000095C100001C
:1000800093C1000091C100008FC100008DC100002C
:100090000C941B120C94F21187C1000085C1000062
:1000A00083C1000081C100007FC100007DC100004C
:1000B0007BC1000079C1000077C1000075C100005C
:1000C00073C1000071C100006FC100000C94C91120
:1000D0000C94A01169C100000C9477110C944E117E
:1000E00063C10000C512C812B712BB12BF12FF12C3
:1000F000CC12D012D612DA12DE12E412E812EC128E
:10010000FF12F212F612FA1200407A10F35A00A00F
:10011000724E18090010A5D4E80000E876481700D0
:1001200000E40B54020000CA9A3B000000E1F50510
:10013000000080969800000040420F000000A0865A
:1001400001000000102700000000E803000000008C
:100150006400000000000A00000000000100000030
:1001600000002C76D888DC674F0823DFC1DFAE594A
:10017000E1B1B796E5E3E453C63AE651997696E8DD
:10018000E6C28426EB898C9B62ED407C6FFCEFBC61
:100190009C9F40F2BAA56FA5F490055A2AF75C938C
:1001A0006B6CF9676DC11BFCE0E40D47FEF520E6C2
:1001B000B500D0ED902E0300943577050080841EA5
:1001C000080000204E0A000000C80C333333330F00
:1001D000986E12831141EF8D2114893BE65516CF9D
:1001E000FEE6DB18D1844B381BF77C1D901DA4BBA9
:1001F000E424203284725E228100C9F124ECA1E55E
:100200003D27005EBCE2613FDD83C29C7E20A3FDF2
:100210001F41009D23BE46DB65F88C11AF32CA57E3
:10022000E974000020002300260029002C002F0084
:100230003200000100000301060109010505050562
:10024000070508080808020202020A0A080804044E
:10025000040401010101010101010303030303037C
:100260000303040707070C0C0C0C0C0C0C0C02020B
:10027000020206060606060606060B0B0B0B0B0B08
:100280000B0B010210202008081020401020408095
:10029000020102010804020101020408102040804A
:1002A00080402010080402018004020180402010D8
:1002B0000804020108040201010204081020408021
:1002C00001020408102040800000210024002700C3
:1002D0002A002D0030003300010100000401070155
:1002E0000A0100002200250028002B002E0031000A
:1002F000340002010000050108010B0100000A0B97
:1003000002090C0D0E0807030401000000000000A4
:1003100000000000000000000000000000000000DD
:10032000000000000000000012111000000000009A
:1003300000000000000000000000000000000000BD
:100340000000591BC91E11241FBECFEFD1E2DEBF32
:10035000CDBF00E00CBF29E0AAE8B6E001C01D92C5
:10036000A33EB207E1F716E0A0E0B2E0E0E8FCE46B
:1003700000E00BBF02C007900D92AA38B107D9F771
:1003800011E0C2EAD1E000E006C021970109802F08
:10039000FE010E94DB23C13AD10780E00807A9F7DC
:1003A0000E94BF1C0C942F262BCEFC012681378186
:1003B000620F731F848195818617970738F08281B9
:1003C000938177836683820F931F089580E090E086
:1003D000089589E292E00E94EF0C61E084E30E94BC
:1003E000961264EF71E080E090E00E946F1361E08C
:1003F0008EE20E94961261E08FE20E94961264E6FD
:1004000070E080E090E00E946F138AE30E94501336
:10041000BC01990F880B990B0E94782120E030E0F5
:1004200040EA50E40E94D72120E030E040E85AE35F
:100430000E94D7216093A7067093A8068093A9060F
:100440009093AA0660E08EE20E94961260E08FE22E
:100450000C949612CF92DF92EF92FF920F931F931C
:10046000CF93DF93CDB7DEB764970FB6F894DEBFB6
:100470000FBECDBF83E492E00E94EF0C60E084E306
:100480000E94961264EF71E080E090E00E946F138A
:1004900060E08EE20E94961260E08FE20E94961267
:1004A00064E670E080E090E00E946F138E010F5FC1
:1004B0001F4F6E0185E1C80ED11C78018BE30E94AD
:1004C0005013D7018D939D937D016AE070E080E029
:1004D00090E00E946F13CE14DF0481F780E090E07B
:1004E0000196F8019C01D8014D915C9111976281B0
:1004F00073816417750724F46D937C93538342834F
:100500002F5F3F4F32962A30310569F70E5F1F4F3C
:100510008930910529F7FE013596AE014F5E5F4F98
:1005200060E070E0CB0101911191012E000C220BD3
:10053000330B600F711F821F931F4E175F0799F7D0
:1005400060938A0670938B0680938C0690938D0639
:1005500026E030E040E050E00E948B22CA01B90161
:100560000E94762120E030E846EB53E40E94C62248
:1005700020E030E04AE754E40E94D72126E636E640
:100580004EE950E40E94D72127ED33EA4CE652E4CD
:100590000E942B2320E030EC4FE754E40E942B23F1
:1005A0009B01AC0160E070E080EE90E40E94C62206
:1005B00060939406709395068093960690939706A1
:1005C00061E084E364960FB6F894DEBF0FBECDBF42
:1005D000DF91CF911F910F91FF90EF90DF90CF901F
:1005E0000C949612CF92DF92EF92FF920F931F938B
:1005F000CF93DF938C018DEC96E00E946410892BE1
:10060000F1F18DEC96E00E94020D6B017C01EB0193
:100610006DE572E084EA98E00E943B17C6010E94F3
:10062000860D0130110521F00230110581F01BC04B
:10063000C130D10521F481E08093C40620C0CD2BC8
:1006400019F41092C4061BC084E892E00EC0C130B9
:10065000D10521F481E08093C30611C0CD2BA1F711
:100660001092C3060CC089EA92E0DF91CF911F91EE
:100670000F91FF90EF90DF90CF900C94EF0CDF91F3
:10068000CF911F910F91FF90EF90DF90CF90089541
:100690000F931F93CF93DF93CDB7DEB7C357D10925
:1006A0000FB6F894DEBF0FBECDBFCE0109969C8376
:1006B0008B8384E690E09E838D8318861F8281E180
:1006C00092E09A8389838091890990918A090097A1
:1006D00011F489E896E09E012F5F3F4FAF963FAF40
:1006E0002EAFAF97E1969FAF8EAFE197E3963FAF06
:1006F0002EAFE3978AE0E4968FAFE497CE0183595B
:100700009F4F0E94571A8C016FEB72E00E942C19C8
:1007100068EC72E0C8010E942C1990930302809348
:1007200002026DEC72E0C8010E942C199093010244
:1007300080930002CD58DF4F0FB6F894DEBF0FBE96
:10074000CDBFDF91CF911F910F910895DB011097DD
:1007500049F0ED91FC9111970190F081E02DBC01E1
:10076000CD01199480E090E00895CF93DF9300D0FD
:1007700000D0CDB7DEB769E876E0CE0101960E94E1
:10078000271787E098E00E946410892BD1F387E057
:1007900098E00E94020D70938F0660938E0661EDC3
:1007A00072E084EA98E00E943B1780918E06909157
:1007B0008F060E94860D87E098E00E940211CE010C
:1007C00001960E94091726960FB6F894DEBF0FBE59
:1007D000CDBFDF91CF910895EF92FF920F931F93BA
:1007E000CF93DF93CDB7DEB768970FB6F894DEBF2F
:1007F0000FBECDBF609102027091030284EA98E0BF
:100800000E943B1780910002909101020E94EF0C20
:100810006BED72E0CE0101960E94271720ED37E0C4
:1008200040E050E0BE016F5F7F4FCE0107960E940F
:100830005017CE0107960E940917CE0101960E941B
:1008400009170091000210910102E0900202F0905D
:10085000030266EE72E0CE0101960E942717BE01E8
:100860006F5F7F4FCE0107960E940E17B701CE0132
:1008700007960E94601661EF72E00E946016B80150
:100880000E94601665EF72E00E946016BC01CE0106
:1008900043960E940E17CE0107960E940917CE01BB
:1008A00001960E940917BE016D5E7F4FCE01019631
:1008B0000E940E1728E833E140E050E0BE016F5F70
:1008C0007F4FCE0107960E945017CE0107960E94D7
:1008D0000917CE0101960E94091769EF72E0CE0157
:1008E0000D960E9427176CEF72E0CE0101960E94D0
:1008F000271728EB3BE040E050E0BE016F5F7F4FE1
:10090000CE0107960E945017BE01635F7F4FCE0154
:1009100007960E947C158C01CE0107960E9409174C
:10092000CE0101960E940917CE010D960E9409176B
:100930000F3F1F4F31F188E093E00E94EF0C61E31D
:1009400087E098E00E94B61066E173E0CE01019660
:100950000E94271720ED37E040E050E0BE016F5FB6
:100960007F4FCE0107960E945017CE0107960E9436
:100970000917CE0101960E94091781E08093A6060F
:1009800009C081E293E00E94EF0C60E387E098E009
:100990000E94B610CE0143960E94091768960FB6C2
:1009A000F894DEBF0FBECDBFDF91CF911F910F91A5
:1009B000FF90EF9008952F923F924F925F926F9227
:1009C0007F928F929F92AF92BF92CF92DF92EF92DF
:1009D000FF920F931F93CF93DF93CDB7DEB7CB5525
:1009E000D1090FB6F894DEBF0FBECDBF87E098E007
:1009F0000E946410892B09F4B4C087E098E00E943B
:100A0000020D6B017C018B016CE273E0CE0101965B
:100A10000E942717BE016F5F7F4FCE010A960E948A
:100A20000E17B601CE010A960E942C166CE475E0F2
:100A30000E946016BC0184EA98E00E949A0FCE01E1
:100A40000A960E940917CE0101960E9409170A30E2
:100A5000110599F194F40230110519F103301105D3
:100A600009F07CC08DE693E0BAD783E893E0B7D76E
:100A7000109205021092060274C00B301105A1F10C
:100A80000F30110509F06AC084EB93E0A8D72AE083
:100A90004FE050E060E070E087E098E00E9441188D
:100AA00039C083E493E09BD788E593E098D781E051
:100AB000809305028093060254C089E993E08FD7A2
:100AC00066EA73E0CE0101960E94271761E070E0AC
:100AD000CE0101960E94B10FCE0101960E94091726
:100AE00081E08093C2063DC088EA93E078D762EB4C
:100AF00073E0CE0101960E94271761E070E0CE01FD
:100B000001960E94B10FCE0101960E940917109222
:100B1000C20627C087E098E00E946410892BD1F3B9
:100B200060ED77E080E090E00E946F1387E098E04E
:100B30000E946410892B51F087E098E00E944210D7
:100B4000682F89E899E00E948816F0CF89E899E03B
:100B50000E94A00F9DDD40DE08DE03C081EC93E023
:100B60003ED787E098E00E9402118091C206882358
:100B700009F48DC20E94CC182B013C010E9478140C
:100B80008823B9F18091AF098B3029F090F185511C
:100B9000823048F02EC06091AB0970E080E090E0B8
:100BA0000E9476212AC01091AB09612F6F7770E007
:100BB00080E090E00E94782120E030E040E853E4BB
:100BC0000E94D7216B017C016091AC0970E080E04C
:100BD00090E00E947821A70196010E94C7222DEC87
:100BE0003CEC4CEC5DE30E94D72117FF06C0905807
:100BF00004C060E070E080EC9FE76093BE067093F5
:100C0000BF068093C0069093C1060E947814882383
:100C100089F18091AF098B3029F160F185518230E3
:100C200048F56091A90970E080E090E00E9476218B
:100C300020E030E040E853E40E94D7216B017C01C2
:100C40006091AA0970E080E090E00E947821A701FD
:100C500096010E94C7222DEC3CEC4CEC5DE30E9417
:100C6000D7210CC06091A90970E080E090E00E945B
:100C7000762104C060E070E080EC9FE76093BA06E4
:100C80007093BB068093BC069093BD069E012F5FB8
:100C90003F4F790189E0D9011D928A95E9F780914A
:100CA000C709882309F467C0A5ECB6E028E0E0E0B6
:100CB000215089F08D918E27E82FEF70F0E0EE5FE4
:100CC000FD4F9491E82FE295EF70F0E0EE5EFD4F5E
:100CD000E491E927EDCF8091CC068E1721F08DEDC0
:100CE00093E07DD64BC0EAD7D8D761E084E4A7D79C
:100CF000E5D768EE73E080E090E00E946F13CDD7F7
:100D000060E08EEB9CD787015E01BAE0AB0EB11CB0
:100D100078E0C72ED12C912C882483943BD7811165
:100D20009828880CE1E0CE1AD108C1F7D8019D922D
:100D30008D01AA16BB0661F71092A6091092A809A8
:100D40001092A709E6EAF9E08EE999E012928E176F
:100D50009F07E1F769817A81072E000C880B990BB8
:100D60000E94782120E030E040E85DE30E94D72136
:100D70004B015C0103C0812C912C54018092B6067A
:100D80009092B706A092B806B092B9061092B50636
:100D90001092B4065AE0C52ED12C63E2262E312CD7
:100DA00061E087E10E949612C1010197F1F760E0CE
:100DB00087E10E949612E8E9F2E06491E2E5F2E050
:100DC0008491E82FF0E0EE0FFF1FEE5DFD4F85915F
:100DD000949100E412E42FE030E0462F0E94141BAF
:100DE000611571058105910549F0DC01CB01019682
:100DF000A11DB11DBC01CD019F7003C060E070E07A
:100E0000CB010E94762120E030E048EE51E40E94C0
:100E10002B2320E030E040E05FE30E94D7219B01DC
:100E2000AC0160E070E080E791E40E94C62220E01F
:100E300030E040E751E40E942B2320E030E048EC12
:100E400052E40E94D7214B015C0120E030E0A9016F
:100E50000E94722118168CF420E030E048EC52E435
:100E6000C501B4010E94C42387FD0AC0812C912CC6
:100E700038ECA32E32E4B32E03C0812C912C540104
:100E8000C501B4010E9493232091B4063091B506A8
:100E9000C901860F971F9093B5068093B406F1E0C1
:100EA000CF1AD10809F07CCF6AE070E00E94C82315
:100EB0007093B5066093B40608E916E0B12CC12C16
:100EC000D12C8B2D0E945013D8018D939D938D01B1
:100ED000C80ED91EB394B4E0BB12F3CFC601D7FC41
:100EE000039695958795959587959093A106809300
:100EF000A00680910602882391F16091B606709158
:100F0000B7068091B8069091B9062091C3062111C9
:100F10000EC020E030E040EB51E40E94C4231816DC
:100F20000CF581E08093C3066FEE73E00CC020E007
:100F300030E040EA51E40E94722118169CF01092B1
:100F4000C30661EF73E0C7010E94271762E070E0FB
:100F5000C7010E94B10FC7010E94091703C082E0B8
:100F600090E040DB80910502811103C081E090E0B8
:100F700039DB8091B306811105C06CDA2ADA81E091
:100F80008093B3068091AF069091B006A091B10610
:100F9000B091B206A3019201281B390B4A0B5B0BDF
:100FA000DA01C90181339547A105B10560F052DA34
:100FB00010DA0E94CC186093AF067093B00680934D
:100FC000B1069093B2068091AB069091AC06A091C9
:100FD000AD06B091AE06A3019201281B390B4A0B56
:100FE0005B0BDA01C90181369A4EA105B10508F4FF
:100FF00051C0C090A706D090A806E090A906F09036
:10100000AA0683EF93E0EBD420E030E040E85FE312
:10101000C701B6010E94722187FF2EC061E08DE2F8
:101020000E94961260EA7FE080E090E00E946F13D9
:1010300060E08DE20E94961264EF71E080E090E043
:101040000E946F1361E08CE20E9496126CE87AE0D5
:1010500080E090E00E946F1360E08CE20E949612A4
:1010600064EF71E080E090E00E946F1381E194E012
:10107000B6D484E5809304020E94CC186093AB063A
:101080007093AC068093AD069093AE0603C0412CDE
:10109000512C32018091A6063090C206882309F4B3
:1010A00048C4332009F447C48091A2069091A30656
:1010B000A091A406B091A506B301A201481B590B4B
:1010C0006A0B7B0B8091130290911402A091150280
:1010D000B091160284179507A607B70708F0E3C179
:1010E00065E274E0CE0101960E942717BE016F5F92
:1010F0007F4FCE010A960E940E176FE879E0CE016D
:101100000A960E9477161CD7CE010A960E940917EC
:10111000CE0101960E9409170091050210E062E3DA
:1011200074E0CE0101960E942717BE016F5F7F4FCA
:10113000CE010A960E940E17B801CE010A960E94AF
:101140002C16FED6CE010A960E940917CE010196F2
:101150000E9409170091C40610E06EE374E0CE010E
:1011600001960E942717BE016F5F7F4FCE010A963E
:101170000E940E17B801CE010A960E942C166CE44C
:1011800075E00E946016BC0184EA98E0D3D6CE01D7
:101190000A960E940917CE0101960E940917009134
:1011A000C30610E06BE474E0CE0101960E9427179D
:1011B000BE016F5F7F4FCE010A960E940E17B801E5
:1011C000CE010A960E942C166CE475E00E9460160F
:1011D000BC0184EA98E0AED6CE010A960E940917B7
:1011E000CE0101960E940917C090B606D090B706AE
:1011F000E090B806F090B90668E574E0CE0101967B
:101200000E942717BE016F5F7F4FCE010A960E9492
:101210000E17B701A601CE010A960E94C3156CE411
:1012200075E00E946016BC0184EA98E083D6CE0186
:101230000A960E940917CE0101960E940917C090D4
:10124000BE06D090BF06E090C006F090C1066DE6E5
:1012500074E0CE0101960E942717BE016F5F7F4F99
:10126000CE010A960E940E17B701A601CE010A967A
:101270000E94C3156CE475E00E946016BC0184EA0C
:1012800098E058D6CE010A960E940917CE01019621
:101290000E940917C090BA06D090BB06E090BC0629
:1012A000F090BD0660E874E0CE0101960E94271719
:1012B000BE016F5F7F4FCE010A960E940E17B701E5
:1012C000A601CE010A960E94C3156CE475E00E9447
:1012D0006016BC0184EA98E02DD6CE010A960E94E1
:1012E0000917CE0101960E9409178090A0069090E0
:1012F000A106A0909E06B0909F06C0909C06D0903C
:101300009D0600919A0610919B06E0909806F09039
:10131000990660E974E0CE0101960E942717BE018C
:101320006F5F7F4FCE010A960E940E17B701CE0164
:101330000A960E942C1664EE75E00E946016B801B1
:101340000E942C1664EE75E00E946016B6010E94A1
:101350002C1664EE75E00E946016B5010E942C16F2
:1013600064EE75E00E946016B4010E942C166CE4D5
:1013700075E00E946016BC0184EA98E0DBD5CE01DE
:101380000A960E940917CE0101960E940917009142
:10139000B4061091B5066DE974E0CE0101960E9485
:1013A0002717BE016F5F7F4FCE010A960E940E176E
:1013B000B801CE010A960E942C166CEA74E00E94D5
:1013C0006016BC0184EA98E0B5D5CE010A960E9469
:1013D0000917CE0101960E940917C090A706D09068
:1013E000A806E090A906F090AA066FEA74E0CE0184
:1013F00001960E942717BE016F5F7F4FCE010A96AC
:101400000E940E17B701A601CE010A960E94C315CD
:101410006BEB74E00E946016BC0184EA98E08AD508
:10142000CE010A960E940917CE0101960E94091763
:10143000C0909406D0909506E0909606F09097069E
:1014400062EC74E0CE0101960E942717BE016F5F27
:101450007F4FCE010A960E940E17B701A601CE015A
:101460000A960E94C3156CE475E00E946016BC01E8
:1014700084EA98E05FD5CE010A960E940917CE0152
:1014800001960E9409176BE475E084EA98E00E94D7
:101490003B170E94CC186093A2067093A30680931A
:1014A000A4069093A5068091900690919106A09134
:1014B0009206B0919306481A590A6A0A7B0A49E9CA
:1014C00044164AE354066104710408F443C28EECE6
:1014D00094E085D280918E0690918F062E969FAFD4
:1014E0008EAF2E9740909406509095066090960689
:1014F000709097068090A7069090A806A090A906E5
:10150000B090AA06A091A006B091A1066096BFAFC8
:10151000AEAF60976091B4067091B506072E000CCF
:10152000880B990B0E9478216B017C012091B606F3
:101530003091B7064091B8065091B90664962CAF29
:101540003DAF4EAF5FAF64978091BA069091BB06F6
:10155000A091BC06B091BD0668968CAF9DAFAEAFB2
:10156000BFAF68972091BE063091BF064091C0067C
:101570005091C1066C962CAF3DAF4EAF5FAF6C97EC
:101580006AEE74E0CE010A960E942717BE01665FDC
:101590007F4FCE0101960E940E1762EF72E0CE01DE
:1015A00001960E9460166CEF74E00E94601668E07D
:1015B00075E00E94601660E570E00E94F8156BE42B
:1015C00075E00E946016BC01CE018A5B9F4F0E94AD
:1015D0000E17CE0101960E940917CE010A960E94AD
:1015E000091769EF72E0CE0101960E942717BE012C
:1015F0006A5B7F4FCE0140960E940E1728E833E1C8
:1016000040E050E0BE01605F7F4FCE010A960E942D
:101610005017BE016F5F7F4FCE010A960E947C1566
:101620008C01CE010A960E940917CE0140960E94B5
:101630000917CE0101960E9409170F3F1F4F29F489
:101640008AE697E0DFD5312C58C1809104021A82D6
:1016500019821C821B821E821D828A871B86BE0104
:10166000665F7F4FCE0101960E949B162E966EAD4F
:101670007FAD2E97CE010A960E94DF16B301A2011C
:10168000CE0140960E94B016B501A401CE01469647
:101690000E94B01660966EAD7FAD6097CE014C96FD
:1016A0000E94DF16B701A601CE0182960E94B016F5
:1016B00064964CAD5DAD6EAD7FAD6497CE018896FE
:1016C0000E94B01668964CAD5DAD6EAD7FAD68976B
:1016D000CE018E960E94B0166C964CAD5DAD6EAD8F
:1016E0007FAD6C97CE01C4960E94B0166BE075E09A
:1016F000CE01CA960E942717BE016C5C7F4FCE01B7
:10170000CA960E9477166FE075E00E946016BE01CF
:10171000625D7F4F0E94771663E175E00E9460165C
:10172000BE01685D7F4F0E94771668E175E00E94F8
:101730006016BE016E5D7F4F0E9477166DE175E009
:101740000E946016BE01645E7F4F0E94771661E2C0
:1017500075E00E946016BE016A5E7F4F0E94771698
:1017600066E275E00E946016BE01605F7F4F0E94D6
:1017700077166BE275E00E946016BE01665F7F4FD0
:101780000E94771660E375E00E946016BE016F5FED
:101790007F4F0E947716BC01CE01805C9F4F0E9454
:1017A0000E17CE01CA960E940917CE01C4960E9458
:1017B0000917CE018E960E940917CE0188960E94C5
:1017C0000917CE0182960E940917CE014C960E94FD
:1017D0000917CE0146960E940917CE0140960E9435
:1017E0000917CE010A960E940917CE0101960E94A0
:1017F000091764E375E0CE0101960E94271765E999
:1018000079E0CE0101960E947716BE01605C7F4FA1
:101810000E9477166BE475E00E946016BC01CE0151
:101820004C960E940E17CE0101960E94091744E1C2
:1018300050E069E375E0CE014C960E94961508A130
:1018400019A16EE475E0CE0146960E942717BE01ED
:101850006A5E7F4FCE0140960E940E17B801CE01FE
:1018600040960E94F8156BE475E00E946016BC017A
:10187000CE010A960E940E1728EE33E040E050E0B9
:10188000BE01665F7F4FCE0101960E945017CE01C8
:1018900001960E940917CE010A960E940917CE01EF
:1018A00040960E940917CE0146960E940917BE0174
:1018B000645E7F4FCE010A960E940E1728EE33E039
:1018C00040E050E0BE01665F7F4FCE0101960E946E
:1018D0005017CE0101960E940917CE010A960E9468
:1018E00009178AE697E08ED4CE014C960E9409171C
:1018F000CE01805C9F4F0E940917CE018A5B9F4FEB
:101900000E940917332039F08AE595E068D086E413
:101910008093040203C087E795E061D00E94CC1851
:10192000609390067093910680939206909393062D
:1019300011C0311003C083E995E051D08091A60613
:10194000811103C084EA95E04AD068EE73E080E03C
:1019500090E0C5D6C55ADF4F0FB6F894DEBF0FBE74
:10196000CDBFDF91CF911F910F91FF90EF90DF904E
:10197000CF90BF90AF909F908F907F906F905F902F
:101980004F903F902F9008950F931F93CF93DF9325
:10199000EC010E94CC18688779878A879B87CE01E3
:1019A00085D397FF17C00E94CC18088519852A8512
:1019B0003B85DC01CB01801B910BA20BB30B0C818F
:1019C0001D812E813F8180179107A207B30738F34D
:1019D0008FEF9FEFDF91CF911F910F910895CF93DC
:1019E000DF93BC0184EA98E00E943B17EC016BE4B2
:1019F00075E084EA98E00E943B178C0F9D1FDF91F1
:101A0000CF910895CF92DF92EF92FF921F93CF93E1
:101A1000DF93EC01CE01B8DFFC0197FD09C08D32E8
:101A2000910551F0C0970A9738F0CE012BD3F2CF31
:101A300060E070E0CB013EC0C12CD12C760110E0FB
:101A4000E130F10501F1ED32F105E1F0CF01C09790
:101A50000A97C8F4AAE0B0E0A70196010E94AD225F
:101A60006F01FF0FEE08FF08DC01CB018C0D9D1DFF
:101A7000AE1DBF1D6C017D0120E3C21AD108E10833
:101A8000F10801C011E0CE01FDD2CE017DDFFC01E5
:101A9000C0970A97A8F2E130F10591F2112341F0C5
:101AA00066277727CB016C197D098E099F0902C033
:101AB000C701B601DF91CF911F91FF90EF90DF90AA
:101AC000CF900895CF92DF92EF92FF920F931F93E2
:101AD000CF93DF93EC016A017B016DE247D38C0168
:101AE00044275527BA014C195D096E097F092AE080
:101AF000CE010E944118800F911FDF91CF911F915D
:101B00000F91FF90EF90DF90CF900895CF93DF93E8
:101B1000AC01990F660B770B77FF04C084EA98E05D
:101B2000D1DF05C02AE084EA98E00E944118EC0168
:101B30006BE475E084EA98E00E943B178C0F9D1FD0
:101B4000DF91CF910895FC01A089B18982E08C9347
:101B5000A485B5851C92A685B7858FEC8C93108ED5
:101B6000A489B58986E08C93A289B3898C91806120
:101B70008C93A289B3898C9188608C93A289B38954
:101B80008C9180688C930288F389E02D80818F7D11
:101B90008083089590919B09E0919C09F0919D09A3
:101BA000F8948181892B81832281892F8095282334
:101BB0002283A7E0B0E01197F1F72181822381838E
:101BC000A3E2B0E01197F1F780817894EFECF0E0B8
:101BD0003197F1F7982381E009F480E0089590911E
:101BE0009B09E0919C09F0919D09292F209580FF88
:101BF00012C0F8948281822382838181892B818320
:101C0000A3E2B0E01197F1F78281982B9283789448
:101C100087ED90E011C0F8948281822382838181D4
:101C2000892B8183AFEFB0E01197F1F78281982B78
:101C3000928378948FE090E00197F1F70895FF92F6
:101C40000F931F93CF93DF93F82E062FC8E0D0E0B9
:101C500011E081E09F2D912309F480E0C0DF110F96
:101C60002197B9F7011113C0F894E0919C09F09104
:101C70009D09918180919B09809598239183E091A2
:101C80009C09F0919D099281892382837894DF9148
:101C9000CF911F910F91FF900895CF93DF9360E054
:101CA00085E5CDDFC5ECD6E060E08991C8DF86E050
:101CB000CD3CD807C9F7DF91CF91089520919B09BA
:101CC000E0919C09F0919D09F8948181922F909563
:101CD0008923818378948DE743E050E0815021F19E
:101CE000DA011197F1F730813223C1F3F894828140
:101CF000892382838181822B81837894ABE7B7E04B
:101D00001197F1F7F89481819823918383E191E011
:101D10000197F1F78081282381E009F080E0789431
:101D2000E3E6F6E03197F1F70895AF92BF92CF92D4
:101D3000DF92EF92FF920F931F93CF93DF9300D028
:101D400000D0CDB7DEB7FC019681992309F4DFC03E
:101D50006B017F01915096835F0182E0A80EB11C58
:101D6000C5010E945319D7011296ED91FC9113976A
:101D700080818B3521F08B3709F496C0A0C0F70124
:101D800000811181B80184E090E00E94A6030097D1
:101D900051F0DC0111961C930E9313961C921E9227
:101DA00012978C0111C08091BF0981110BC0109254
:101DB000BC091092BB091092BE091092BD0981E0C6
:101DC0008093BF090BEB19E06BE5C5010E949519E3
:101DD000882309F449C06DE5C5010E949519811158
:101DE00054C01A821982BE016F5F7F4FC7019DDF09
:101DF0008823D1F1F8016081718188E090E00E9430
:101E0000A603DC01892B39F011961C921E921396C1
:101E10001C921E921297F8012281338121153105FF
:101E200051F0F90180819181009711F09C01F9CF67
:101E3000B183A08303C0F801B383A2831097A1F0FC
:101E400086E0FE013196129601900D928A95E1F797
:101E50006DE5C5010E949519811117C06CE2C5019D
:101E60000E9495198111BDCF8091BF0981110BC0CE
:101E70001092BC091092BB091092BE091092BD09C4
:101E800081E08093BF090BEB19E0D8018D919C9103
:101E9000892B11F410E033C086E090E0F6019183C5
:101EA0008083138302832AC0C7010E94571ADC0172
:101EB0002D913C91232B71F327E030E01AC011E003
:101EC000873219F0823209F010E0C7010E94AA1986
:101ED000009701F3112359F022E030E0D60111966A
:101EE0003C932E9313969C938E93129708C021E0F7
:101EF00030E0F601318320839383828311E0D701A0
:101F000016968C9116978F5F16968C9301C010E0F1
:101F1000812F26960FB6F894DEBF0FBECDBFDF919E
:101F2000CF911F910F91FF90EF90DF90CF90BF90D6
:101F3000AF900895FB01448155816081718156C441
:101F4000CF93DF93BC0184EA98E0F4DFEC016BE40B
:101F500075E084EA98E08FD78C0F9D1FDF91CF91B9
:101F600008958F929F92AF92BF92CF92DF92EF929D
:101F7000FF920F931F93CF93DF9300D000D0CDB784
:101F8000DEB77C018B010E94CC186B0161EC75E01F
:101F9000CE0101965CD7B701CE010196A8D6D0DF5D
:101FA000CE01019636D7B7018DEC96E0C3DF0D2C3C
:101FB000000CEE08FF0888E8C80E83E1D81EE11C7B
:101FC000F11C8DEC96E080D0892B51F40E94CC1846
:101FD0006C157D058E059F05A0F786EE95E022C065
:101FE0008DEC96E00FDD4B015C016DE572E084EA5B
:101FF00098E041D7C4018ADD0130110521F002309B
:10200000110591F01DC081E08816910421F481E052
:102010008093C40615C0892819F41092C40610C014
:1020200084E892E0DCDC0CC081E08816910421F4A5
:1020300081E08093C30604C0892891F71092C306FB
:1020400026960FB6F894DEBF0FBECDBFDF91CF91BD
:102050001F910F91FF90EF90DF90CF90BF90AF90C6
:102060009F908F900895FC01538D448D252F30E073
:10207000842F90E0821B930B541710F0CF96089595
:1020800001970895FC01918D828D981761F0828DE2
:10209000DF01A80FB11D5D968C91928D9F5F9F739C
:1020A000928F90E008958FEF9FEF0895FC01918D3E
:1020B000828D981731F0828DE80FF11D858D90E0AB
:1020C00008958FEF9FEF0895FC01918D228D892F48
:1020D00090E0805C9F4F821B91098F739927089530
:1020E0008DEC96E0F1DF21E0892B09F420E0822FCE
:1020F00008958AE697E0E8DF21E0892B09F420E0E3
:10210000822F089587E098E0DFDF21E0892B09F432
:1021100020E0822F089584EA98E0D6DF21E0892B21
:1021200009F420E0822F0895FC01848DDF01A80FBF
:10213000B11DA35ABF4F2C91848D90E001968F73EF
:102140009927848FA689B7892C93A089B1898C910E
:10215000837080648C93938D848D981306C002885D
:10216000F389E02D80818F7D80830895EF92FF9227
:102170000F931F93CF93DF93EC0181E0888F9B8DAA
:102180008C8D981305C0E889F989808185FD25C06B
:10219000F62E0B8D10E00F5F1F4F0F731127E02EEF
:1021A0008C8DE8120BC00FB607FCFACFE889F989CD
:1021B000808185FFF5CFCE01B7DFF2CF8B8DFE0199
:1021C000E80FF11DE35AFF4FF0829FB7F8940B8F91
:1021D000EA89FB89808180620AC09FB7F894EE8902
:1021E000FF896083E889F9898081837080648083B6
:1021F0009FBF81E090E0DF91CF911F910F91FF9001
:10220000EF900895CF93DF93EC01888D8823C1F080
:10221000EA89FB89808185FD05C0A889B9898C91EF
:1022200086FD0EC00FB607FCF5CF808185FFF2CF8B
:10223000A889B9898C9185FFEDCFCE0175DFE8CFF4
:10224000DF91CF91089580E090E0892B19F063DF52
:10225000811116C080E090E0892B19F053DF8111C5
:1022600012C080E090E0892B19F043DF81110EC08D
:1022700080E090E0892B79F033DF81110AC0089566
:102280000E940000E7CF0E940000EBCF0E940000F8
:10229000EFCF0C94000008950E94F8251F920F9232
:1022A0000FB60F9211240BB60F922F933F934F93BB
:1022B0005F936F937F938F939F93AF93BF93EF93AE
:1022C000FF938DEC96E030DFFF91EF91BF91AF91DE
:1022D0009F918F917F916F915F914F913F912F913E
:1022E0000F900BBE0F900FBE0F901F9018951F926E
:1022F0000F920FB60F9211240BB60F922F933F93AC
:102300004F935F936F937F938F939F93AF93BF93FD
:10231000EF93FF938DEC96E0D6D3FF91EF91BF91B1
:10232000AF919F918F917F916F915F914F913F916D
:102330002F910F900BBE0F900FBE0F901F9018950E
:102340001F920F920FB60F9211240BB60F922F937C
:102350003F934F935F936F937F938F939F93AF932D
:10236000BF93EF93FF938AE697E0DEDEFF91EF9154
:10237000BF91AF919F918F917F916F915F914F919D
:102380003F912F910F900BBE0F900FBE0F901F909B
:1023900018951F920F920FB60F9211240BB60F9241
:1023A0002F933F934F935F936F937F938F939F935D
:1023B000AF93BF93EF93FF938AE697E084D3FF91A7
:1023C000EF91BF91AF919F918F917F916F915F91AD
:1023D0004F913F912F910F900BBE0F900FBE0F901A
:1023E0001F9018951F920F920FB60F9211240BB6E3
:1023F0000F922F933F934F935F936F937F938F939E
:102400009F93AF93BF93EF93FF9387E098E08CDEA9
:10241000FF91EF91BF91AF919F918F917F916F91BC
:102420005F914F913F912F910F900BBE0F900FBE78
:102430000F901F9018951F920F920FB60F921124B4
:102440000BB60F922F933F934F935F936F937F93AE
:102450008F939F93AF93BF93EF93FF9387E098E0A1
:1024600032D3FF91EF91BF91AF919F918F917F9167
:102470006F915F914F913F912F910F900BBE0F90F5
:102480000FBE0F901F9018951F920F920FB60F92CC
:1024900011240BB60F922F933F934F935F936F933B
:1024A0007F938F939F93AF93BF93EF93FF9384EAB0
:1024B00098E03ADEFF91EF91BF91AF919F918F919C
:1024C0007F916F915F914F913F912F910F900BBE34
:1024D0000F900FBE0F901F9018951F920F920FB67E
:1024E0000F9211240BB60F922F933F934F935F934C
:1024F0006F937F938F939F93AF93BF93EF93FF93CC
:1025000084EA98E0E0D2FF91EF91BF91AF919F9163
:102510008F917F916F915F914F913F912F910F908C
:102520000BBE0F900FBE0F901F901895362F90E0A6
:10253000FC01E450FD4F4491FC01EE57FD4F249106
:10254000FC01E45CFD4F9491992309F46CC0442391
:1025500009F455C050E0FA013197E231F10508F075
:102560004EC08827EE58FF4F8F4F0C94DB2380918D
:1025700080008F7707C0809180008F7D03C080919D
:102580008000877F809380003AC084B58F7702C037
:1025900084B58F7D84BD33C08091B0008F7703C038
:1025A0008091B0008F7D8093B00029C08091900011
:1025B0008F7707C0809190008F7D03C0809190003D
:1025C000877F809390001BC08091A0008F7707C009
:1025D0008091A0008F7D03C08091A000877F8093B1
:1025E000A0000DC0809120018F7707C0809120014D
:1025F0008F7D03C080912001877F80932001E92F88
:10260000F0E0EE0FFF1FEE51FD4FA591B4919FB783
:10261000F894311104C08C912095282302C0EC91CC
:102620002E2B2C939FBF0895CF93DF9390E0FC0156
:10263000EE57FD4F2491FC01E45CFD4F849188230B
:1026400061F190E0880F991FFC01E853FD4FC5919F
:10265000D491FC01EE51FD4FA591B491611109C0D7
:102660009FB7F8948881209582238883EC912E234C
:102670000BC0623061F49FB7F8948881322F309597
:1026800083238883EC912E2B2C939FBF06C08FB79A
:10269000F894E8812E2B28838FBFDF91CF91089586
:1026A000863308F0865390917B00282F2870977FFF
:1026B000922B90937B008770806480937C00809144
:1026C0007A00806480937A0080917A0086FDFCCF46
:1026D000809178002091790090E0922B08958F925C
:1026E0009F92AF92BF92CF92DF92EF92FF926B01D7
:1026F0007C012DD54B015C01C114D104E104F1042E
:10270000E9F025D5DC01CB0188199909AA09BB0993
:10271000883E9340A105B10578F321E0C21AD108A3
:10272000E108F10888EE880E83E0981EA11CB11C18
:10273000C114D104E104F10421F7DECFFF90EF9042
:10274000DF90CF90BF90AF909F908F9008958F9221
:102750009F92AF92BF92CF92DF92EF92FF92CF9370
:10276000DF93A091B009882311F03A2F01C030E027
:102770008091B10990E0880F991F8E5D9D4FC090A8
:10278000B609D090B709E090B809F090B90940E0D7
:1027900050E0BA01FC01C591D49128812A2323136A
:1027A00014C04A015B012FEF821A920AA20AB20AF0
:1027B0004C155D056E057F0518F4B501A401EACF3F
:1027C00030E020E080E090E003C0342F252FCB01E3
:1027D000632F722FDF91CF91FF90EF90DF90CF901A
:1027E000BF90AF909F908F9008950895CF92DF9201
:1027F000EF92FF920F931F93CF93DF936C017A01B7
:102800008B01C0E0D0E0CE15DF0581F0D8016D91DD
:102810008D01D601ED91FC910190F081E02DC60172
:102820001995892B11F02196EECF7E01C701DF911A
:10283000CF911F910F91FF90EF90DF90CF9008956F
:10284000CF93DF93EC0188819981009711F00E946A
:102850008F24198218821D821C821B821A82DF91AA
:10286000CF9108950F931F93CF93DF93EC0188814D
:102870009981009729F02A813B812617370788F430
:102880008B016F5F7F4F0E941825009761F099833D
:1028900088831B830A832C813D81232B11F4FC0147
:1028A000108281E001C080E0DF91CF911F910F91F4
:1028B0000895EF92FF920F931F93CF93DF93EC0154
:1028C0007B018A01BA01CEDF811103C0CE01B8DFDE
:1028D00007C01D830C83B701888199810E940E2651
:1028E000CE01DF91CF911F910F91FF90EF9008954E
:1028F000CF92DF92EF92FF920F931F93CF93DF93CC
:10290000CDB7DEB7C054D1400FB6F894DEBF0FBECE
:10291000CDBF42D40091B2091091B3092091B409FE
:102920003091B5096B017C01C01AD10AE20AF30AA1
:1029300040EDC41647E0D406E104F10418F4809198
:10294000BA09B1C06093B2097093B3098093B40916
:102950009093B5091092AD091092AC091092AB0991
:102960001092AA091092A90961E08091AE09DEDDFA
:102970006AEF70E080E090E0B2DE61E08091AE0945
:1029800053DE60E08091AE09D1DD64E170E080E06B
:1029900090E0A5DEF89461E08091AE09C7DD8BE997
:1029A00090E00197F1F762E08091AE093DDE83E2AD
:1029B00090E00197F1F780E0CADE672B682B692B66
:1029C00021F41092BA0978943BC081E0C0DE672BF5
:1029D000682B692BB1F38E010F5F1F4F6E018FEBD8
:1029E000C81A8EEFD80A780180E0B1DEF701608363
:1029F00071838283938381E0AADEF7016483758308
:102A000086839783F8E0EF0EF11CEC14FD0461F768
:102A1000789420E030E0F801C080D180E280F3803B
:102A20004481558166817781C114D104E104F104A8
:102A300029F0411551056105710521F41092BA097B
:102A400080E031C0F90183E0F595E7958A95E1F7DB
:102A5000E755F64F8081880FC416D506E606F706BF
:102A600008F4816080832F5F3F4F085F1F4F28323B
:102A7000310589F62091AD0930E04091A909809196
:102A8000AA0990E0840F911D4091AB09840F911D1C
:102A90004091AC09840F911D99272817390771F6C9
:102AA00081E08093BA09C05CDE4F0FB6F894DEBFB8
:102AB0000FBECDBFDF91CF911F910F91FF90EF908F
:102AC000DF90CF900895FC01A089B1898C91A689EF
:102AD000B78982FD0FC09C91818D8F5F8F73228D8E
:102AE000821749F0218DDF01A20FB11D5D969C93E5
:102AF000818F08958C910895CF93DF93FC012481F9
:102B00003581232B71F0FB01DC01CD91DC916081DB
:102B10007181CE010E941526009719F08C1B9D0B28
:102B200002C08FEF9FEFDF91CF910895EF92FF9258
:102B30000F931F93CF93DF936115710511F480E01C
:102B40001BC041155105B9F07B01EC018C819D81C1
:102B50008A01080F191FB801CE0184DE882379F39A
:102B6000288139818C819D81B701820F931F0E943A
:102B70000E261D830C8381E0DF91CF911F910F9171
:102B8000FF90EF900895EF92FF920F931F93CF93D2
:102B9000DF93CDB7DEB764970FB6F894DEBF0FBEF4
:102BA000CDBF7C01CB01BA018E010F5F1F4F22E028
:102BB00044E00E94D21EFC0101900020E9F7319709
:102BC000AF01481B590BBC01C701B0DF811102C026
:102BD000C70136DEC70164960FB6F894DEBF0FBE9C
:102BE000CDBFDF91CF911F910F91FF90EF9008958E
:102BF000EF92FF920F931F93CF93DF93CDB7DEB782
:102C000027970FB6F894DEBF0FBECDBF7C01CB0176
:102C10004AE08E010F5F1F4FB8010E94FB1EF801B2
:102C200001900020E9F73197AF01401B510BB8012B
:102C3000C7017CDF811102C0C70102DEC7012796F0
:102C40000FB6F894DEBF0FBECDBFDF91CF911F91BD
:102C50000F91FF90EF900895EF92FF920F931F93C3
:102C6000CF93DF93CDB7DEB728970FB6F894DEBFCA
:102C70000FBECDBF7C01CB014AE08E010F5F1F4F1D
:102C8000B8010E94F11EF80101900020E9F7319788
:102C9000AF01401B510BB801C70148DF811102C0D1
:102CA000C701CEDDC70128960FB6F894DEBF0FBE70
:102CB000CDBFDF91CF911F910F91FF90EF900895BD
:102CC000CF93DF93EC016115710559F0FB01019081
:102CD0000020E9F73197AF01461B570B27DF811121
:102CE00002C0CE01ADDDCE01DF91CF910895CF932B
:102CF000DF93EC01FB01448155816081718116DF16
:102D0000811102C0CE019CDDCE01DF91CF910895EB
:102D1000CF93DF931F921F92CDB7DEB769831A82DC
:102D200041E050E0BE016F5F7F4F00DF0F900F90DA
:102D3000DF91CF910895CF93DF93EC016115710579
:102D400051F0FB0101900020E9F73197AF01461BDC
:102D5000570BAFDD01C074DDCE01DF91CF91089537
:102D6000EF92FF920F931F93CF93DF93CDB7DEB710
:102D7000A1970FB6F894DEBF0FBECDBF7C01CB018B
:102D8000BA01F70111821082138212821582148215
:102D90008E010F5F1F4F22E044E00E94D21EBC0153
:102DA000C701C9DFA1960FB6F894DEBF0FBECDBF35
:102DB000DF91CF911F910F91FF90EF9008950F93A6
:102DC0001F93CF93DF93CDB7DEB762970FB6F8941A
:102DD000DEBF0FBECDBF8C01CB01F8011182108286
:102DE00013821282158214824AE0BE016F5F7F4F08
:102DF000F8D7BE016F5F7F4FC8019DDF62960FB6A7
:102E0000F894DEBF0FBECDBFDF91CF911F910F9120
:102E10000895FC01808191810C948F24FB01DC01D9
:102E200011961C921E9213961C921E921297159642
:102E30001C921E9214978617970741F0608171814A
:102E40006115710519F04481558133CD0895FC0158
:102E5000118210821382128215821482611571050B
:102E600049F0FB0101900020E9F73197AF01461BC3
:102E7000570B1FCD08956115710579F0FB01019085
:102E80000020E9F73197AF01461B570BDC01ED91AC
:102E9000FC910280F381E02D199480E090E0089588
:102EA0008F929F92AF92BF92CF92DF92EF92FF925A
:102EB0000F931F93CF93DF9300D000D0CDB7DEB731
:102EC0006C018B0149015A0169E876E0C0DFB80165
:102ED0008AE697E02FD860D1860E971EA81EB91EED
:102EE0005BD1681579058A059B0560F48AE697E051
:102EF000EBD8892BA9F38AE697E0C4D8682FC601DE
:102F000007DFF4CFD80114968D919C911597892BEA
:102F100009F4A0C066E173E08D919C910E940526A2
:102F2000892B09F097C06DE576E0CE0101968FDF21
:102F3000BE016F5F7F4FC601DFDD5C01CE010196F0
:102F400068DF69EF72E0CE01019681DFBE016F5F3D
:102F50007F4FC601D1DD8C01CE0101965ADF62E6BA
:102F600076E084EA98E087DFC5010E94860D6CE672
:102F700076E084EA98E07FDFC8010E94860D035066
:102F8000110975010A151B0528F0902F812F850165
:102F9000E92EF82E69E876E0CE01019658DFF601B9
:102FA000A480B5800A151B05D0F4EA14FB0408F4CC
:102FB0005701D601ED91FC911197EA0DFB1DF080B0
:102FC00010826D917C91600F711FCE010196B3DE6E
:102FD000F60180819181FC01EA0DFB1DF082809158
:102FE0008F0990919009009739F069817A81611574
:102FF0007105F1F40E948F2489819A819093900940
:1030000080938F098B819C81909392098093910981
:103010008D819E8190939409809393091A821982DD
:103020001C821B821E821D82CE010196F2DE12C01E
:1030300040919109509192092D813E814217530789
:10304000C8F20E940E268D819E81909394098093F0
:103050009309E8CFC6010E94A00FC60126960FB6BD
:10306000F894DEBF0FBECDBFDF91CF911F910F91BE
:10307000FF90EF90DF90CF90BF90AF909F908F9098
:1030800008958F929F92AF92BF92EF92FF920F930B
:103090001F93CF93DF93CDB7DEB7A1970FB6F89408
:1030A000DEBF0FBECDBF7C01FA01CB0119A22230D9
:1030B00008F42AE08E010F5D1F4F822E912CA12C67
:1030C000B12CBF01A50194010E948B22F901CA0114
:1030D000015011096A3014F4605D01C0695CD801C7
:1030E0006C93232B242B252B61F7B801C701C3DE7A
:1030F000A1960FB6F894DEBF0FBECDBFDF91CF9182
:103100001F910F91FF90EF90BF90AF909F908F9085
:10311000089580E090E008950F931F93CF93DF937D
:103120008B01FC01C281D381209759F06A817B8198
:10313000C8010E940526892B21F00990D881C02D55
:10314000F3CFCE01DF91CF911F910F9108953FB73B
:10315000F8948091DB099091DC09A091DD09B09190
:10316000DE0926B5A89B05C02F3F19F00196A11DC9
:10317000B11D3FBFBA2FA92F982F8827820F911D0D
:10318000A11DB11DBC01CD0142E0660F771F881F54
:10319000991F4A95D1F708952FB7F8946091D709F0
:1031A0007091D8098091D9099091DA092FBF0895BB
:1031B0001F920F920FB60F9211242F933F938F936C
:1031C0009F93AF93BF938091D7099091D809A09115
:1031D000D909B091DA093091D60923E0230F2D37B0
:1031E00020F40196A11DB11D05C026E8230F02960B
:1031F000A11DB11D2093D6098093D7099093D809BA
:10320000A093D909B093DA098091DB099091DC0988
:10321000A091DD09B091DE090196A11DB11D809339
:10322000DB099093DC09A093DD09B093DE09BF911F
:10323000AF919F918F913F912F910F900FBE0F9063
:103240001F9018951F920F920FB60F9211240F9096
:103250000FBE0F901F9018950F931F93CF93DF937E
:103260005BDFEC01892BC1F00C811D810130110560
:1032700059F46E817F816115710531F086E796E022
:103280000E940526892B41F00150110902301105D9
:1032900018F48E819F8102C080E090E0DF91CF9191
:1032A0001F910F910895FC01A081B1818C918D3007
:1032B00051F024F489508230B8F505C0803219F0FD
:1032C0008F3219F0089511962CC011968C91119798
:1032D0008A3219F08F32D1F008951196B183A0830C
:1032E000A081B181CD0101969183808311968C914B
:1032F00011978823C9F08A3299F712968C91129708
:103300008F3271F713960DC08A3071F2A081B181AE
:10331000CD0101969183808311968C918111F4CF18
:1033200003C0B183A083C0CF08951F93CF93DF93D1
:10333000EC01162FB8DFE881F9818081181305C0F0
:103340003196F983E88381E001C080E0DF91CF917D
:103350001F910895EF92FF920F931F93CF93DF93E6
:103360008C01DC011496CD91DC911597EA80FB80ED
:103370008E819F81E80EF91EC801029694DFD80164
:103380001296ED91FC9113978081873291F18232F0
:1033900081F190ED980F9A3060F0982F9F7D9154B5
:1033A0009A3138F08B3229F093ED980F923008F073
:1033B00061C0F801228133812F5F3F4F3383228325
:1033C0002E813F81A9014F5F5F4F6C817D81641722
:1033D000750740F06A817B81FB01E20FF31F5F8379
:1033E0004E838083D8011296ED91FC9113978081D2
:1033F000D0CF3196D8011396FC93EE931297D80153
:103400001296ED91FC9113979081992399F19F0168
:103410002F5F3F4F13963C932E931297981751F1BD
:103420009C35A9F49181AFE7B6E02C91222339F0C5
:10343000921303C011969C9102C01296F6CF992365
:10344000C9F03296D8011396FC93EE9312972E8111
:103450003F81A9014F5F5F4F6C817D8164177507C4
:1034600070F26A817B81FB01E20FF31F5F834E8361
:103470009083C5CF8E819F819C012F5F3F4F4C81F0
:103480005D814217530750F04A815B81FA01E80FD2
:10349000F91F3F832E831082C70102C080E090E0B5
:1034A000DF91CF911F910F91FF90EF900895AF9210
:1034B000BF92CF92DF92EF92FF920F931F93CF9321
:1034C000DF9300D000D0CDB7DEB76C01DC010D91E9
:1034D0001C91B80184E090E00E94A603009739F0A7
:1034E000FC0111830083138212828C0111C0809130
:1034F000CC0981110BC01092C9091092C809109211
:10350000CB091092CA0981E08093CC0908EC19E03C
:103510007601F2E0EF0EF11C6BE7C70106DF8823AE
:1035200009F45DC06DE7C70100DF811168C0C60105
:1035300011DF5C01892B09F452C06AE3C701F5DE93
:10354000882309F44CC01A821982BE016F5F7F4F35
:10355000C6010E94950E882309F441C0B501C80137
:10356000DBDD009749F5D8016D917C918AE090E010
:103570000E94A603009729F0FC0111821082158297
:103580001482D8011296ED91FC911397309751F067
:10359000208131812115310511F0F901F9CF918395
:1035A000808303C0F801938382830097C1F0DC011C
:1035B0001396BC92AE92129726E0FE013196DC0182
:1035C000149601900D922A95E1F76DE7C701ADDEE3
:1035D000811115C06CE2C701A8DE8111A8CF8091CE
:1035E000CC0981110EC01092C9091092C80910921D
:1035F000CB091092CA0981E08093CC0902C0C801AE
:1036000002C088EC99E026960FB6F894DEBF0FBE94
:10361000CDBFDF91CF911F910F91FF90EF90DF9081
:10362000CF90BF90AF900895CF92DF92EF92FF922C
:103630000F931F93E82FF92F05C00150110921099D
:10364000310961F1908196239417B9F305C00150B7
:1036500011092109310911F1908196239413F7CFB3
:10366000C12CD12CE12CF12C0AC08FEFC81AD80A3A
:10367000E80AF80A0C151D052E053F0579F0808132
:103680008623841791F36C2D7D2D8E2D9F2D1F91F8
:103690000F91FF90EF90DF90CF90089560E070E081
:1036A00080E090E01F910F91FF90EF90DF90CF901E
:1036B00008951092D0061092CF0648EE53E060E0D5
:1036C00070E04093D1065093D2066093D306709376
:1036D000D4068BE192E09093CE068093CD0625E34D
:1036E00031E03093DA062093D90624E331E03093B9
:1036F000DC062093DB0620E331E03093DE062093E6
:10370000DD0621E331E03093E0062093DF0622E37B
:1037100031E03093E2062093E10626E331E0309376
:10372000E4062093E3061092E6061092E706109254
:10373000E8061092E90610926D0710926C0740930C
:103740006E0750936F0760937007709371079093A3
:103750006B0780936A0725ED30E03093770720935D
:10376000760724ED30E0309379072093780720ED39
:1037700030E030937B0720937A0721ED30E03093DF
:103780007D0720937C0722ED30E030937F07209364
:103790007E0726ED30E0309381072093800710925A
:1037A0008307109284071092850710928607109263
:1037B0000A081092090840930B0850930C08609374
:1037C0000D0870930E0890930808809307082DEC5D
:1037D00030E030931408209313082CEC30E0309341
:1037E00016082093150828EC30E030931808209331
:1037F000170829EC30E030931A08209319082AECB6
:1038000030E030931C0820931B082EEC30E03093FE
:103810001E0820931D081092200810922108109273
:103820002208109223081092A7081092A60840932D
:10383000A8085093A9086093AA087093AB089093C6
:10384000A5088093A40885EC90E09093B10880933C
:10385000B00884EC90E09093B3088093B20880ECB9
:1038600090E09093B5088093B40881EC90E0909339
:10387000B7088093B60882EC90E09093B9088093E3
:10388000B80886EC90E09093BB088093BA08109239
:10389000BD081092BE081092BF081092C008109286
:1038A0004709109248091092490910924A0910924A
:1038B0004B0910924C0910924D0910924E0910922A
:1038C0004F0910925009109251091092520910920A
:1038D000530910925409109255091092560987E223
:1038E0008093AE0986E18093AF09E9EAF2E0E491C2
:1038F000E093B009E3E6F2E0E491E093B10980E8F7
:103900009EE3A0E0B0E08093B6099093B709A0933E
:10391000B809B093B90960E08AE10E941413ECE998
:10392000F2E0E491E0939B09E6E5F2E0E491F0E057
:10393000EE0FFF1FEE5DFD4F8591949190939D09D1
:1039400080939C091092A6091092A8091092A709C9
:10395000E6EAF9E08EE999E012928E179F07E1F707
:1039600067EB75E085E999E072DA69E876E08FE85F
:1039700099E06DDA69E876E089E899E068CACF9362
:10398000DF93CDB7DEB72C970FB6F894DEBF0FBE2E
:10399000CDBF789484B5826084BD84B5816084BDD8
:1039A00085B5826085BD85B5816085BD80916E00DD
:1039B000816080936E00109281008091810082600E
:1039C000809381008091810081608093810080914B
:1039D00080008160809380008091B100846080933A
:1039E000B1008091B00081608093B000809191001F
:1039F000826080939100809191008160809391001A
:103A0000809190008160809390008091A1008260FD
:103A10008093A1008091A10081608093A10080919A
:103A2000A00081608093A00080912101826080933A
:103A300021018091210181608093210180912001E9
:103A400081608093200180917A00846080937A0065
:103A500080917A00826080937A0080917A00816000
:103A600080937A0080917A00806880937A00109227
:103A7000C100109285091092860910928709109250
:103A80008809109243091092440910924509109236
:103A9000460982DB6B017C014B015C0188EB880EDF
:103AA0008BE0981EA11CB11C77DB6C157D058E0583
:103AB0009F0528F086169706A806B906A8F784EA97
:103AC00098E090938409809383090E94A30D64DB9E
:103AD0006093430970934409809345099093460984
:103AE0006CE076E08091830990918409C4D954DB1D
:103AF0006B017C014B015C019AE0890E911CA11CB9
:103B0000B11C4ADB6C157D058E059F0528F08616D5
:103B10009706A806B906A8F781E08093570984EABA
:103B200098E00E94A30D87E098E00E94A30D8AE62A
:103B300097E00E94A30D8DEC96E00E94A30D68EE25
:103B400073E080E090E00E946F136EE176E0CE01BA
:103B500007967DD920EA3FE040E050E0BE01695F72
:103B60007F4FCE0101969CD9CE01019652D9CE014C
:103B700007964FD967E276E0CE01079668D920ED27
:103B800037E040E050E0BE01695F7F4FCE01019613
:103B900087D9CE0101963DD9CE0107963AD96CE27C
:103BA00076E0CE01079653D920ED37E040E050E0B3
:103BB000BE01695F7F4FCE01019672D9CE01019699
:103BC00028D9CE01079625D987E098E00E94641095
:103BD000892BD1F360ED77E080E090E00E946F13D5
:103BE00087E098E00E946410892B49F087E098E014
:103BF0000E944210682F89E899E08AD8F1CF89E8BD
:103C000099E00E94A00F0E9448030E94EC030E94CA
:103C1000B50361E087E10E94141360E086E10E9431
:103C2000141360E08BE30E94141362E08091AE09EC
:103C30000E94141380E398EFAFEFBFEF8093B209B7
:103C40009093B309A093B409B093B5098091A809E2
:103C5000811104C00E945E0E81110DC01092A60950
:103C60001092A8091092A7098AE396E00E94EF0C2F
:103C70001092C70969C060E080EF0E941F0E01E04A
:103C8000E12CD12C11E00E94CA0DF82E0E94CA0D21
:103C900091E0F91203C08130C1F436C02E2D30E01E
:103CA000F8121EC08091A609181738F4F901E556DC
:103CB000F64F8381802349F402C0811731F0F12C43
:103CC000193068F41093A7090AC0EE2DF0E0E5560C
:103CD000F64F8381802B8383FF24F39409C0D12E78
:103CE000F901E556F64F9381802F809589238383D0
:103CF0008F2D0E94EF0D1F5F000F11F4E39401E080
:103D000087E08E1508F0BFCF113408F4A7CFD0920A
:103D1000A609D11003C081E08093A80980919E0973
:103D2000882309F49BCFAEE9B9E0E5ECF6E08D918C
:103D3000819396E0ED3CF907D1F78DE496E00E947F
:103D4000EF0C81E08093C70961E08CE20E941413BC
:103D500061E08DE20E94141361E08EE20E94141370
:103D600061E08FE20E94141361E084E30E94141367
:103D700061E084E30E94961260E08EE20E94961257
:103D800060E08FE20E9496120E94DB040E942311E1
:103D9000FBCF89E899E03DD88FE899E03AD885E9EA
:103DA00099E037C8EF920F931F93CF93DF93E80109
:103DB00047FD02C034E001C034E1042E000C550B75
:103DC00057FF03C0519541955109E32E022F242F2F
:103DD000AE012AD0CE01DF91CF911F910F91EF90CC
:103DE0000895BB274A3031F4992322F4BDE290951F
:103DF00081959F4F01C0BB27FB015527AA27880F3C
:103E0000991FAA1FA41710F0A41B83955051B9F74E
:103E1000A05DAA3308F0A95DA193009779F7B111CD
:103E2000B1931192CB014EC28F929F92AF92BF92EB
:103E3000CF92DF92EF92FF920F931F93CF93DF9376
:103E4000CDB7DEB729970FB6F894DEBF0FBECDBF52
:103E50006A01122FB02E2BE3201720F0FF24F394D9
:103E6000F00E02C02CE3F22E0F2D27E0AE014F5FC3
:103E70005F4F50D1BC014981842F8970813031F06E
:103E8000E1FC06C0E0FE06C090E205C09DE203C072
:103E90009BE201C090E05E2D507143FF3CC0911148
:103EA00002C083E001C084E0811718F4212F281B91
:103EB00001C020E051110BC0F601822F30E28823AF
:103EC00019F031938150FBCFC20ED11C20E0992311
:103ED00029F0D6019C93F60131966F01C601039635
:103EE000E2FE0AC03EE4D6013C9341E411964C93B5
:103EF000119712963C9306C03EE6F601308341E6E8
:103F000041833283FC01322F40E2332309F442C063
:103F100041933150FACF42FF44C0911102C083E077
:103F200001C084E0811718F4212F281B01C020E074
:103F300051110BC0F601822F30E2882319F0319322
:103F40008150FBCFC20ED11C20E0992329F0D6016D
:103F50009C93F60131966F01C6010396E2FE0BC0F9
:103F600039E4D6013C933EE411963C93119736E434
:103F700012963C9307C039E6F60130833EE6318362
:103F800036E63283FC01322F40E2332319F04193AD
:103F90003150FBCFFC01E20FF11D10828EEF9FEF3D
:103FA000A6C021E030E0911102C020E030E01616FA
:103FB00017061CF4FB01319602C0E1E0F0E02E0F81
:103FC0003F1FBB2021F0EB2DF0E0319602C0E0E076
:103FD000F0E02E0F3F1FE12FF0E02E173F071CF4FB
:103FE000121B212F01C020E08E2D887159F4F6019B
:103FF000822F30E2882319F031938150FBCFC20E1B
:10400000D11C20E0992329F0D6019C93F60131962A
:104010006F0151110BC0F601822F90E3882319F034
:1040200091938150FBCFC20ED11C20E00F2D060FC3
:104030009A81342F307144FF03C0913309F4015049
:10404000101624F4093018F008E001C001E0AB01BB
:1040500077FF02C040E050E0FB01E41BF50BA1E05C
:10406000B0E0AC0FBD1FEA0FFB1F8EE2A82E4B0184
:10407000801A91080B2D10E01195019511094F3F01
:10408000BFEF5B0721F4D601AC9211966D01641766
:1040900075072CF08416950614F4818101C080E325
:1040A000415051093196D60111967D0140175107B3
:1040B00024F0D6018C936701E2CF6417750739F4B9
:1040C000963320F4953319F4311101C081E3F601E0
:1040D0008083F701822F90E2882319F09193815019
:1040E000FBCFF701E20FF11D108280E090E02996EE
:1040F0000FB6F894DEBF0FBECDBFDF91CF911F91F9
:104100000F91FF90EF90DF90CF90BF90AF909F9076
:104110008F900895283008F027E03327DA01990FAF
:10412000311D87FD916000966105710539F432609B
:104130002E5F3D9330E32A95E1F708959F3F30F0DD
:1041400080387105610509F03C5F3C5F3D9391301B
:1041500008F08068911DDF93CF931F930F93FF9218
:10416000EF92192F987F9695E92F96959695E90FDE
:10417000FF27EE59FE4F99273327EE24FF24A7018E
:10418000E70105900894079428F4360FE71EF81EFF
:10419000491F511D660F771F881F991F0694A1F7AD
:1041A0000590079428F4E70EF81E491F561FC11DFD
:1041B000770F881F991F661F0694A1F70590079433
:1041C00028F4F80E491F561FC71FD11D880F991FCD
:1041D000661F771F0694A1F70590079420F4490FF6
:1041E000561FC71FD81F990F661F771F881F069479
:1041F000A9F784911095177041F0D695C7955795FA
:104200004795F794E7941A95C1F7E8E0F1E06894D0
:104210001590159135916591959105907FE2739573
:10422000E118F10A430B560BC90BD009C0F7E10C9A
:10423000F11E431F561FC91FD01D7EF4703311F4A9
:104240008A95E6CFE894015030F0080F0AF4002771
:10425000021708F4202F2395022F7A3328F079E3F0
:104260007D932A95E9F710C07D932A9589F60694E7
:1042700097956795379517951794E118F10A430BB1
:10428000560BC90BD00998F023957E9173957A331C
:1042900008F070E37C932013B8F77E9170617D93F2
:1042A00030F0839571E37D9370E32A95E1F7112453
:1042B000EF90FF900F911F91CF91DF91992787FD8C
:1042C00090950895DC01FC01672F71917723E1F748
:1042D000329704C07C916D9370836291AE17BF07D3
:1042E000C8F3089540D008F481E00895E89409C027
:1042F00097FB3EF490958095709561957F4F8F4F19
:104300009F4F9923A9F0F92F96E9BB279395F6952E
:10431000879577956795B795F111F8CFFAF4BB0FAC
:1043200011F460FF1BC06F5F7F4F8F4F9F4F16C010
:10433000882311F096E911C0772321F09EE8872F9A
:10434000762F05C0662371F096E8862F70E060E056
:104350002AF09A95660F771F881FDAF7880F9695CF
:10436000879597F90895990F0008550FAA0BE0E873
:10437000FEEF16161706E807F907C0F01216130627
:10438000E407F50798F0621B730B840B950B39F467
:104390000A2661F0232B242B252B21F408950A26CD
:1043A00009F4A140A6958FEF811D811D08950BD0C2
:1043B00078C069D028F06ED018F0952309F05AC063
:1043C0005FC01124A2C07ED0A0F3959FD1F3950FBA
:1043D00050E0551F629FF001729FBB27F00DB11D89
:1043E000639FAA27F00DB11DAA1F649F6627B00D19
:1043F000A11D661F829F2227B00DA11D621F739F02
:10440000B00DA11D621F839FA00D611D221F749F0F
:104410003327A00D611D231F849F600D211D822F56
:10442000762F6A2F11249F5750408AF0E1F088239D
:104430004AF0EE0FFF1FBB1F661F771F881F9150AA
:104440005040A9F79E3F510570F014C05EC05F3F19
:10445000ECF3983EDCF3869577956795B795F795DD
:10446000E7959F5FC1F7FE2B880F911D9695879565
:1044700097F9089597F99F6780E870E060E00895E4
:104480009FEF80EC089500240A941616170618066C
:104490000906089500240A94121613061406050648
:1044A0000895092E0394000C11F4882352F0BB0FD9
:1044B00040F4BF2B11F460FF04C06F5F7F4F8F4F3C
:1044C0009F4F089557FD9058440F551F59F05F3F77
:1044D00071F04795880F97FB991F61F09F3F79F026
:1044E00087950895121613061406551FF2CF4695A8
:1044F000F1DF08C0161617061806991FF1CF86952A
:104500007105610508940895E894BB27662777270D
:10451000CB0197F90895A1E21A2EAA1BBB1BFD013E
:104520000DC0AA1FBB1FEE1FFF1FA217B307E40792
:10453000F50720F0A21BB30BE40BF50B661F771FEA
:10454000881F991F1A9469F76095709580959095CA
:104550009B01AC01BD01CF01089509D0A59F900D2D
:10456000B49F900DA49F800D911D11240895A29FCA
:10457000B001B39FC001A39F700D811D1124911D37
:10458000B29F700D811D1124911D08955058BB27B5
:10459000AA270ED086CF77DF30F07CDF20F031F411
:1045A0009F3F11F41EF46CCF0EF4E095E7FB62CF51
:1045B000E92F88DF80F3BA1762077307840795072E
:1045C00018F071F49EF5A0CF0EF4E0950B2EBA2FE3
:1045D000A02D0B01B90190010C01CA01A001112409
:1045E000FF27591B99F0593F50F4503E68F11A16B5
:1045F000F040A22F232F342F4427585FF3CF469546
:1046000037952795A795F0405395C9F77EF41F1667
:10461000BA0B620B730B840BBAF09150A1F0FF0F31
:10462000BB1F661F771F881FC2F70EC0BA0F621F1D
:10463000731F841F48F4879577956795B795F7950D
:104640009E3F08F0B3CF9395880F08F09927EE0F9F
:104650009795879508950CD024CF1CDF40F013DF89
:1046600030F021F45F3F19F005CF51114ECF08CF44
:1046700029DF98F39923C9F35523B1F3951B550B03
:10468000BB27AA2762177307840738F09F5F5F4F25
:10469000220F331F441FAA1FA9F333D00E2E3AF066
:1046A000E0E830D091505040E695001CCAF729D080
:1046B000FE2F27D0660F771F881FBB1F26173707CF
:1046C0004807AB07B0E809F0BB0B802DBF01FF27FF
:1046D00093585F4F2AF09E3F510568F0CBCE15CF1F
:1046E0005F3FECF3983EDCF3869577956795B79539
:1046F000F7959F5FC9F7880F911D9695879597F954
:104700000895E1E0660F771F881FBB1F62177307CC
:104710008407BA0720F0621B730B840BBA0BEE1FE1
:1047200088F7E095089504D06894B111EECE08950D
:10473000D1DE88F09F5790F0B92F9927B751A0F09C
:10474000D1F0660F771F881F991F1AF0BA95C9F725
:1047500012C0B13081F0D8DEB1E00895D5CE672F18
:10476000782F8827B85F39F0B93FCCF386957795D5
:104770006795B395D9F73EF49095809570956195BE
:104780007F4F8F4F9F4F0895EEDD08F48FEF089510
:1047900097FB072E16F4009406D077FD08D013D0AF
:1047A00007FC05D03EF4909581959F4F0895709534
:1047B00061957F4F0895EE0FFF1F881F8BBF0790F5
:1047C000F691E02D1994AA1BBB1B51E107C0AA1F4B
:1047D000BB1FA617B70710F0A61BB70B881F991FA2
:1047E0005A95A9F780959095BC01CD0108950F9336
:1047F0001F93CF93DF938230910510F482E090E015
:10480000E091E109F091E20920E030E0A0E0B0E0C1
:10481000309719F14081518102811381481759075E
:10482000C8F08417950769F4109731F012960C932D
:10483000129713961C9327C00093E1091093E20985
:1048400022C02115310519F04217530718F49A01B7
:10485000BD01EF01DF01F801DBCF21153105F9F0D2
:10486000281B390B2430310580F48A819B81611526
:10487000710521F0FB019383828304C09093E209C8
:104880008093E109FE01329644C0FE01E20FF31F5E
:104890008193919322503109398328833AC0209122
:1048A000DF093091E009232B41F420910902309176
:1048B0000A023093E0092093DF092091070230912A
:1048C00008022115310541F42DB73EB740910B0286
:1048D00050910C02241B350BE091DF09F091E009A7
:1048E000E217F307A0F42E1B3F0B2817390778F0C7
:1048F000AC014E5F5F4F2417350748F04E0F5F1F26
:104900005093E0094093DF098193919302C0E0E066
:10491000F0E0CF01DF91CF911F910F910895CF93D8
:10492000DF93009709F481C0FC0132971382128251
:10493000A091E109B091E209109781F420813181C1
:10494000820F931F2091DF093091E0092817390762
:1049500051F5F093E009E093DF0967C0ED0120E035
:1049600030E0CE17DF0740F44A815B819E0141159C
:104970005105F1F0EA01F5CFD383C2834081518123
:10498000840F951FC817D90759F488819981840F1E
:10499000951F0296918380838A819B819383828372
:1049A0002115310529F4F093E209E093E1093DC0B6
:1049B000E901FB83EA8349915991C40FD51FEC1794
:1049C000FD0761F480819181840F951F0296E901B2
:1049D00099838883828193819B838A83E0E0F0E0DE
:1049E00012968D919C911397009719F0FD01DC01AF
:1049F000F7CF8D919C9111979D012E5F3F4F820FB4
:104A0000931F2091DF093091E0092817390769F4D5
:104A1000309729F41092E2091092E10902C0138242
:104A20001282B093E009A093DF09DF91CF9108953E
:104A30006F927F928F929F92AF92BF92CF92DF92AE
:104A4000EF92FF920F931F93CF93DF93009781F420
:104A5000CB01DF91CF911F910F91FF90EF90DF90ED
:104A6000CF90BF90AF909F908F907F906F90BFCE70
:104A7000FC01E60FF71F9C0122503109E217F307F2
:104A800008F4A5C0EC01D9010D911C9111970617EE
:104A90001707A8F00530110508F497C0C80104975E
:104AA0008617970708F491C002501109061B170BCF
:104AB000019311936D937C93CF0131DF86C05B012D
:104AC000A01AB10A4C01800E911EA091E109B0918B
:104AD000E209612C712CE12CF12C109709F446C0ED
:104AE0008D919C911197A815B905B1F56C0142E023
:104AF000C40ED11CCA14DB0478F14C018A189B083F
:104B0000640142E0C40ED11C1296BC901297139619
:104B1000AC91B5E0CB16D10440F0B282A383918270
:104B20008082D9016D937C9309C00E5F1F4F800F67
:104B3000911FF90191838083EB2DFA2FE114F10489
:104B400031F0D7011396FC93EE9312973EC0F09389
:104B5000E209E093E10939C06816790608F43C01DE
:104B60007D0112960D90BC91A02DB7CF8091DF09E9
:104B70009091E00988169906E1F466167706C8F464
:104B80008091070290910802009741F48DB79EB77B
:104B900040910B0250910C02841B950BE817F9070A
:104BA000B0F4F093E009E093DF09F90171836083C9
:104BB0000CC0CB011CDE7C01009749F0A801BE01AE
:104BC0001BD0CE01ACDEC70104C0CE0102C080E024
:104BD00090E0DF91CF911F910F91FF90EF90DF90C8
:104BE000CF90BF90AF909F908F907F906F900895DF
:104BF00081E090E0F89433C0FB01DC0102C0019039
:104C00000D9241505040D8F70895FB01DC018D9181
:104C1000019080190110D9F3990B0895FB01DC0173
:104C200001900D920020E1F70895FB015191552369
:104C3000A9F0BF01DC014D9145174111E1F759F48D
:104C4000CD010190002049F04D9140154111C9F36B
:104C5000FB014111EFCF81E090E00197089511E051
:104C6000C2EAD1E000E005C0802FFE01A4DD21965C
:104C7000011DC33AD10780E00807B1F7F894FFCFD0
:104C8000890689064601010000E309800000000052
:104C900000D5018813000000000000B610F61333A1
:104CA00010021164104210561065786563757465C2
:104CB000642066756E6374696F6E203A2067657450
:104CC00045430065786563757465642066756E6339
:104CD00074696F6E203A2067657450480067657488
:104CE00020726573756C742076616C7565206672D0
:104CF0006F6D20636F6E74726F6C20626F6172648F
:104D0000203A20006572726F7220676574207661A8
:104D10006C75652066726F6D20636F6E74726F6C58
:104D200020626F6172642E2E00756E646566696E16
:104D3000656420747970652076616C75652E0075E8
:104D40007365724E616D650073736964007073778B
:104D5000007366636F6465203D200041542B435708
:104D60005141500D0A0041542B43574A41503D22B6
:104D700000222C2200220D0A004F4B0041542B43ED
:104D8000574A41503F0D0A00736C61766520737578
:104D900063636573730041542B43494653520D0AB4
:104DA00000736C617665206661696C00726571756F
:104DB0006573742066726F6D206D61737465722007
:104DC0003A20006175746F6D617469635F6C65642E
:104DD000203D2074727565006175746F6D61746932
:104DE000635F66616E203D20747275650061757445
:104DF0006F6D617469635F6C6564203D2066616CF2
:104E00007365006175746F6D617469635F66616E6F
:104E1000203D2066616C73650070756D705F727502
:104E20006E6E696E6700340070756D705F73746FBD
:104E3000700035004150207265636F6E6E6563745B
:104E400000726571756573742066726F6D206D6197
:104E500073746572203A206572726F720043524318
:104E6000206973206E6F742076616C69642100384C
:104E700000390065786563757465642066756E63D6
:104E800074696F6E22737570706C795F736F6C22CA
:104E900000537570706C7920534F4C20412F422085
:104EA00034306D4C00446576696365206970203A42
:104EB00020004C4544206D6F6465203A20004C452D
:104EC00044207374617465203A200046616E20535B
:104ED00074617465203A20005761746572205465CE
:104EE0006D7065726174757265203A200044485493
:104EF0002054656D7065726174757265203A20008A
:104F00004448542048756D6964697479203A2000DA
:104F1000504F542056616C7565203A2000576174DB
:104F20006572204C6576656C203A2000250A0045A4
:104F3000432076616C7565203A20006D732F636D98
:104F40000A0050482076616C7565203A20003D3D8E
:104F50003D3D446174612053656E64696E672073E2
:104F6000746172743D3D3D3D3D0041542B434950B9
:104F700053544152543D2254435022003139322E71
:104F80003136382E342E3100222C003F743D00265D
:104F9000683D002677743D0026776C3D0026653D10
:104FA000002665633D002670683D002673663D005F
:104FB00026703D004745542000436F6E6E65637454
:104FC000696F6E3A636C6F73650D0A0D0A00415488
:104FD0002B43495053454E443D003D3D3D3D3D44EE
:104FE0006174612073656E64696E6720656E642EFE
:104FF0002E3D3D3D3D3D003D3D3D3D4461746120C4
:1050000073656E64696E67206661696C2E2E3D3D26
:105010003D3D0070756D70206E6F742072756E6E00
:10502000696E670077696669206E6F7420636F6EC2
:105030006E6563746564002F73656E642E706870AE
:1050400000636F6E74726F6C2064617461207365AD
:105050006E6420746F20436F6E74726F6C426F6168
:105060007264203A200074696D656F7574206765FD
:10507000742076616C75652066726F6D20636F6E4B
:1050800074726F6C20626F6172642E00564D4450D2
:10509000565F317C315F564D4450560D0A004154E5
:1050A0002B5253540D0A0041540D0A0041542B4316
:1050B000574D4F44453D310D0A004453313820438C
:1050C000616E206E6F742066696E642100445331F6
:1050D0003820436F6E6E65637465642E003139321B
:1050E0002E00697020696478203A20006F6B5F6938
:1050F0006478203A20006E756C6C0022225C5C6241
:0A51000008660C6E0A720D740900B7
:00000001FF
