:1000000012C2000041C200003FC200003DC2000019
:100010003BC2000039C2000037C2000035C20000F8
:1000200033C2000046C6000044C6000042C60000BD
:100030002BC2000029C2000027C2000025C2000018
:1000400023C2000021C200001FC200001DC2000028
:100050001BC2000019C2000017C20000E0C500006A
:1000600013C20000B6C400008BC400000DC2000023
:100070000BC2000009C2000007C2000005C2000058
:1000800003C2000001C20000FFC10000FDC100006A
:100090004EC4000023C40000F7C10000F5C10000F9
:1000A000F3C10000F1C10000EFC10000EDC100008C
:1000B000EBC10000E9C10000E7C10000E5C100009C
:1000C000E3C10000E1C10000DFC10000DEC30000A9
:1000D000B3C30000D9C1000086C300005BC30000A9
:1000E000D3C1000041054405330537053B057B05B9
:1000F00048054C05520556055A0560056405680516
:100100007B056E057205760500407A10F35A00A053
:10011000724E18090010A5D4E80000E876481700D0
:1001200000E40B54020000CA9A3B000000E1F50510
:10013000000080969800000040420F000000A0865A
:1001400001000000102700000000E803000000008C
:100150006400000000000A00000000000100000030
:1001600000002C76D888DC674F0823DFC1DFAE594A
:10017000E1B1B796E5E3E453C63AE651997696E8DD
:10018000E6C28426EB898C9B62ED407C6FFCEFBC61
:100190009C9F40F2BAA56FA5F490055A2AF75C938C
:1001A0006B6CF9676DC11BFCE0E40D47FEF520E6C2
:1001B000B500D0ED902E0300943577050080841EA5
:1001C000080000204E0A000000C80C333333330F00
:1001D000986E12831141EF8D2114893BE65516CF9D
:1001E000FEE6DB18D1844B381BF77C1D901DA4BBA9
:1001F000E424203284725E228100C9F124ECA1E55E
:100200003D27005EBCE2613FDD83C29C7E20A3FDF2
:100210001F419DC3217FFCA2401E5F01E3BD3E60E4
:1002200082DC237D9FC1421CFEA0E1BF5D0380DE16
:100230003C62BEE0025CDF81633D7C22C09E1D43C8
:10024000A1FF4618FAA427799BC584DA3866E5BB76
:100250005907DB856739BAE406581947A5FB7826A4
:10026000C49A653BD987045AB8E6A7F91B45C698D6
:100270007A24F8A6441A99C7257B3A6486D85B0588
:10028000E7B98CD2306EEDB3510F4E10F2AC2F7136
:1002900093CD114FADF3702ECC92D38D6F31B2EC64
:1002A0000E50AFF1134DCE90722C6D33D18F0C5296
:1002B000B0EE326C8ED0530DEFB1F0AE4C1291CF48
:1002C0002D73CA947628ABF517490856B4EA6937F6
:1002D000D58B5709EBB536688AD495CB2977F4AA24
:1002E0004816E9B7550B88D6346A2B7597C94A1456
:1002F000F6A8742AC896154BA9F7B6E80A54D78908
:100300006B3500002100240027002A002D0030005A
:10031000330001010000040107010A01000022006E
:10032000250028002B002E003100340002010000BF
:10033000050108010B0100000A0B02090C0D0E0853
:10034000070304010000000000000000000000009E
:10035000000000000000000000000000000000009D
:10036000000012111000000000000000000000005A
:10037000000000000000000000000000000020005D
:100380002300260029002C002F003200000100006D
:100390000301060109010505050507050808080808
:1003A000020202020A0A080804040404010101010D
:1003B0000101010103030303030303030407070708
:1003C0000C0C0C0C0C0C0C0C0202020206060606AD
:1003D000060606060B0B0B0B0B0B0B0B010210207A
:1003E000200808102040102040800201020108046B
:1003F00002010102040810204080804020100804FF
:100400000201800402018040201008040201080457
:10041000020101020408102040800102040810209B
:100420004080CA17C21711241FBECFEFD1E2DEBF32
:10043000CDBF00E00CBF27E0A8EEB4E001C01D92E4
:10044000A33DB207E1F714E0A0E0B2E0EEE4F0E48F
:1004500000E00BBF02C007900D92A83EB107D9F78C
:1004600012E0C2E1D2E000E006C021970109802F2E
:10047000FE010E94C61DC131D10780E00807A9F71F
:100480000E94D40E0C941620BBCDFC01A089B1892A
:100490008C91A689B78982FD0FC09C91818D8F5F59
:1004A0008F73228D821749F0218DDF01A20FB11DBC
:1004B0005D969C93818F08958C910895FC01538DD6
:1004C000448D252F30E0842F90E0821B930B54172E
:1004D00010F0CF96089501970895FC01918D828DBB
:1004E000981761F0828DDF01A80FB11D5D968C9188
:1004F000928D9F5F9F73928F90E008958FEF9FEF93
:100500000895FC01918D828D981731F0828DE80F4E
:10051000F11D858D90E008958FEF9FEF0895FC0108
:10052000918D228D892F90E0805C9F4F821B9109D5
:100530008F739927089583E295E0F1DF21E0892BFD
:1005400009F420E0822F089580EC95E0E8DF21E0B7
:10055000892B09F420E0822F08958DE596E0DFDFF6
:1005600021E0892B09F420E0822F08958AEF96E09C
:10057000D6DF21E0892B09F420E0822F0895FC01C9
:10058000848DDF01A80FB11DA35ABF4F2C91848D1C
:1005900090E001968F739927848FA689B7892C9351
:1005A000A089B1898C9180648C93938D848D9813EC
:1005B00006C00288F389E02D80818F7D80830895B5
:1005C000EF92FF920F931F93CF93DF93EC0181E0A3
:1005D000888F9B8D8C8D981305C0E889F98980815F
:1005E00085FD23C0F62E0B8D10E00F5F1F4F0F739C
:1005F0001127E02E8C8DE8120BC00FB607FCFACF46
:10060000E889F989808185FFF5CFCE01B8DFF2CF87
:100610008B8DFE01E80FF11DE35AFF4FF0820B8F27
:10062000EA89FB898081806207C0EE89FF89608347
:10063000E889F98980818064808381E090E0DF919E
:10064000CF911F910F91FF90EF900895CF93DF937B
:10065000EC01888D8823C1F0EA89FB89808185FDC2
:1006600005C0A889B9898C9186FD0EC00FB607FC1C
:10067000F5CF808185FFF2CFA889B9898C9185FF5C
:10068000EDCFCE017CDFE8CFDF91CF91089580E000
:1006900090E0892B19F06ADF811116C080E090E0AC
:1006A000892B19F05ADF811112C080E090E0892B6C
:1006B00019F04ADF81110EC080E090E0892B79F0BB
:1006C0003ADF81110AC008950E940000E7CF0E941E
:1006D0000000EBCF0E940000EFCF0C9400000895C3
:1006E0003FB7F8948091170590911805A0911905CE
:1006F000B0911A0526B5A89B05C02F3F19F00196A9
:10070000A11DB11D3FBFBA2FA92F982F8827820F97
:10071000911DA11DB11DBC01CD0142E0660F771FE7
:10072000881F991F4A95D1F70895089580E090E0B9
:100730000895FC0126813781620F731F84819581A2
:100740008617970738F08281938177836683820FBB
:10075000931F089580E090E008950E94DF1F0F939B
:100760001F93CF93DF938B01FC01C281D38120972C
:1007700059F06A817B81C8010E94EC1F892B21F00E
:100780000990D881C02DF3CFCE01DF91CF911F9179
:100790000F9108951F920F920FB60F9211240BB66E
:1007A0000F922F933F934F935F936F937F938F930A
:1007B0009F93AF93BF93EF93FF9383E295E0DFDEC8
:1007C000FF91EF91BF91AF919F918F917F916F9129
:1007D0005F914F913F912F910F900BBE0F900FBEE5
:1007E0000F901F9018951F920F920FB60F92112421
:1007F0000BB60F922F933F934F935F936F937F931B
:100800008F939F93AF93BF93EF93FF9383E295E012
:100810003CDEFF91EF91BF91AF919F918F917F91BE
:100820006F915F914F913F912F910F900BBE0F9061
:100830000FBE0F901F9018951F920F920FB60F9238
:1008400011240BB60F922F933F934F935F936F93A7
:100850007F938F939F93AF93BF93EF93FF9380EC1E
:1008600095E08DDEFF91EF91BF91AF919F918F91B8
:100870007F916F915F914F913F912F910F900BBEA0
:100880000F900FBE0F901F9018951F920F920FB6EA
:100890000F9211240BB60F922F933F934F935F93B8
:1008A0006F937F938F939F93AF93BF93EF93FF9338
:1008B00080EC95E0EADDFF91EF91BF91AF919F91C0
:1008C0008F917F916F915F914F913F912F910F90F9
:1008D0000BBE0F900FBE0F901F9018951F920F9296
:1008E0000FB60F9211240BB60F922F933F934F9395
:1008F0005F936F937F938F939F93AF93BF93EF9388
:10090000FF938DE596E03BDEFF91EF91BF91AF91B4
:100910009F918F917F916F915F914F913F912F9117
:100920000F900BBE0F900FBE0F901F9018951F9247
:100930000F920FB60F9211240BB60F922F933F9385
:100940004F935F936F937F938F939F93AF93BF93D7
:10095000EF93FF938DE596E098DDFF91EF91BF91C6
:10096000AF919F918F917F916F915F914F913F9147
:100970002F910F900BBE0F900FBE0F901F901895E8
:100980001F920F920FB60F9211240BB60F922F9356
:100990003F934F935F936F937F938F939F93AF9307
:1009A000BF93EF93FF938AEF96E0E9DDFF91EF911C
:1009B000BF91AF919F918F917F916F915F914F9177
:1009C0003F912F910F900BBE0F900FBE0F901F9075
:1009D00018951F920F920FB60F9211240BB60F921B
:1009E0002F933F934F935F936F937F938F939F9337
:1009F000AF93BF93EF93FF938AEF96E046DDFF91AD
:100A0000EF91BF91AF919F918F917F916F915F9186
:100A10004F913F912F910F900BBE0F900FBE0F90F3
:100A20001F901895362F90E0FC01EA5CFC4F449132
:100A3000FC01E452FC4F2491FC01EA56FC4F9491D6
:100A4000992309F46BC0442309F455C050E0FA011E
:100A50003197E231F10508F04EC08827EE58FF4F7C
:100A60008F4F0C94C61D809180008F7707C08091B6
:100A700080008F7D03C080918000877F80938000FD
:100A80003AC084B58F7702C084B58F7D84BD33C0F2
:100A90008091B0008F7703C08091B0008F7D8093EC
:100AA000B00029C0809190008F7707C0809190009E
:100AB0008F7D03C080919000877F809390001BC042
:100AC0008091A0008F7707C08091A0008F7D03C028
:100AD0008091A000877F8093A0000DC080912001AD
:100AE0008F7707C0809120018F7D03C08091200106
:100AF000877F80932001E92FF0E0EE0FFF1FE45E77
:100B0000FC4FA591B4918FB7F894EC91311103C0CB
:100B100020952E2301C02E2B2C938FBF0895CF93A9
:100B2000DF9390E0FC01E452FC4F2491FC01EA5673
:100B3000FC4F8491882361F190E0880F991FFC019C
:100B4000EE5FFC4FC591D491FC01E45EFC4FA59192
:100B5000B491611109C09FB7F894888120958223D0
:100B60008883EC912E230BC0623061F49FB7F89418
:100B70003881822F809583238883EC912E2B2C93B0
:100B80009FBF06C08FB7F894E8812E2B28838FBFB4
:100B9000DF91CF9108958F929F92AF92BF92CF92A3
:100BA000DF92EF92FF926B017C019ADD4B015C01B9
:100BB000C114D104E104F104E9F092DDDC01CB01C0
:100BC00088199909AA09BB09883E9340A105B10576
:100BD00078F321E0C21AD108E108F10888EE880E06
:100BE00083E0981EA11CB11CC114D104E104F104DE
:100BF00021F7DECFFF90EF90DF90CF90BF90AF90C6
:100C00009F908F9008952FB7F8946091130570917D
:100C1000140580911505909116052FBF08951F9218
:100C20000F920FB60F9211242F933F938F939F93A0
:100C3000AF93BF938091130590911405A091150572
:100C4000B09116053091120523E0230F2D3720F4C3
:100C50000196A11DB11D05C026E8230F0296A11D16
:100C6000B11D209312058093130590931405A09352
:100C70001505B09316058091170590911805A09160
:100C80001905B0911A050196A11DB11D8093170594
:100C900090931805A0931905B0931A05BF91AF91D1
:100CA0009F918F913F912F910F900FBE0F901F90AA
:100CB00018951F920F920FB60F9211240F900FBE2E
:100CC0000F901F9018950F931F93CF93DF9347DDDD
:100CD000EC01892BC1F00C811D810130110559F403
:100CE0006E817F816115710531F084EA94E00E9484
:100CF000EC1F892B41F0015011090230110518F445
:100D00008E819F8102C080E090E0DF91CF911F91A2
:100D10000F910895FC01A081B1818C918D3051F02B
:100D200024F489508230B8F505C0803219F08F3232
:100D300019F0089511962CC011968C9111978A3252
:100D400019F08F32D1F008951196B183A083A0815C
:100D5000B181CD0101969183808311968C91119779
:100D60008823C9F08A3299F712968C9112978F32A4
:100D700071F713960DC08A3071F2A081B181CD0157
:100D800001969183808311968C918111F4CF03C0D9
:100D9000B183A083C0CF08950F931F93CF93DF93A8
:100DA0001F92CDB7DEB78C016983B4DFD801ED9116
:100DB000FC91119780816981861305C03196ED936E
:100DC000FC9381E001C080E00F90DF91CF911F91F3
:100DD0000F910895EF92FF920F931F93CF93DF939C
:100DE0008C01DC011496CD91DC911597EA80FB8093
:100DF0008E819F81E80EF91EC80102968BDFD80113
:100E00001296ED91FC9113979081973291F1923265
:100E100081F180ED890F8A3060F0892F8F7D8154B8
:100E20008A3138F09B3229F083ED890F823008F047
:100E300060C0F801228133812F5F3F4F33832283CB
:100E40002E813F81A9014F5F5F4F6C817D816417C7
:100E5000750740F06A817B81FB01E20FF31F5F831E
:100E60004E839083D8011296ED91FC911397908157
:100E7000D0CF3196D8011396FC93EE931297D801F8
:100E80001296ED91FC9113972081222391F1AF01ED
:100E90004F5F5F4F13965C934E931297291749F15A
:100EA0002C35A9F42181ADEAB4E08C91882339F086
:100EB000821303C011962C9102C01296F6CF222302
:100EC000C1F03296D8011396FC93EE9312974E819F
:100ED0005F81BA016F5F7F4FEC81FD81E617F707F5
:100EE00070F2EA81FB81E40FF51F7F836E8320831C
:100EF000C6CF8E819F819C012F5F3F4F4C815D81CA
:100F00004217530748F04A815B81FA01E80FF91F45
:100F10003F832E83108202C0E12CF12CC701DF91A8
:100F2000CF911F910F91FF90EF9008950F931F9312
:100F3000CF93DF9300D000D0CDB7DEB78C0168EB44
:100F400074E0CE010196C9D6B801CE0101963BD618
:100F50007AD2CE01019667D6B80183E295E0D1D668
:100F600026960FB6F894DEBF0FBECDBFDF91CF91AE
:100F70001F910F910895DB01109749F0ED91FC91BD
:100F800011970190F081E02DBC01CD01199480E012
:100F900090E008959F92AF92BF92CF92DF92EF922E
:100FA000FF920F931F93CF93DF9300D000D0CDB764
:100FB000DEB76C01FC0100811181B80184E090E092
:100FC000DADF009739F0FC0111830083138212826B
:100FD0008C0111C08091080581110BC0109205058C
:100FE00010920405109207051092060581E0809387
:100FF000080504E015E07601F2E0EF0EF11C6BE766
:10100000C701CADE882309F45EC06DE7C701C4DEEC
:1010100081116AC086E0982EC601DCDE5C01892B56
:1010200009F451C06AE3C701B7DE882309F44BC055
:101030001A821982BE016F5F7F4FC6012AD28823B0
:1010400009F441C0B501C8018ADBDC01892B49F5EF
:10105000F801608171818AE090E08DDFDC01892BED
:1010600039F011961C921E9215961C921E9214979E
:10107000F801228133812115310551F0F901808178
:101080009181009711F09C01F9CFB183A08303C037
:10109000F801B383A2831097B1F01396BC92AE927D
:1010A0001297FE0131961496892D01900D928A9522
:1010B000E1F76DE7C70170DE811116C06CE2C70170
:1010C0006BDE8111A9CF8091080581110BC01092B0
:1010D000050510920405109207051092060581E09F
:1010E0008093080504E015E0C80126960FB6F89431
:1010F000DEBF0FBECDBFDF91CF911F910F91FF904B
:10110000EF90DF90CF90BF90AF909F9008958F9217
:101110009F92AF92BF92CF92DF92EF92FF92CF93C6
:10112000DF93A091B807882311F03A2F01C030E077
:101130008091B90790E0880F991F84589C4FC09008
:10114000BE07D090BF07E090C007F090C10740E015
:1011500050E0BA01FC01C591D49128812A232313C0
:101160000FC04A015B012FEF821A920AA20AB20A4B
:101170004C155D056E057F0538F4B501A401EACF75
:10118000342F252FCB0104C030E020E080E090E038
:10119000632F722FDF91CF91FF90EF90DF90CF9070
:1011A000BF90AF909F908F90089542E050E06CE424
:1011B00074E08AEF96E0C2C3CF93DF93009771F09B
:1011C000FC0101900020E9F73197AF01481B590B52
:1011D000BC018AEF96E0B2D3EC0102C0C0E0D0E0DF
:1011E00042E050E06CE474E08AEF96E0A7D38C0F05
:1011F0009D1FDF91CF9108959091A307E091A407DF
:10120000F091A507392F309580FF13C0F894228103
:10121000832F822382838181892B8183A3E2B0E0A3
:101220001197F1F78281982B9283789487ED90E063
:1012300012C0F8942281832F822382838181892B9B
:101240008183AFEFB0E01197F1F78281982B928301
:1012500078948FE090E00197F1F708958091A307CB
:10126000E091A407F091A507F8949181982B9183C0
:101270002281982F909529232283A7E0B0E011972F
:10128000F1F7218192239183A3E2B0E01197F1F766
:1012900090817894EFECF0E03197F1F7982381E0BA
:1012A00009F480E00895EF92FF920F931F93CF937C
:1012B000DF931F92CDB7DEB7082F88E0E82EF12C20
:1012C00011E081E0912F902309F480E0698394DF9D
:1012D000110F81E0E81AF1086981E114F10489F73E
:1012E000611113C0F894E091A407F091A5079181D2
:1012F0008091A307809598239183E091A407F091B2
:10130000A50792818923828378940F90DF91CF91F2
:101310001F910F91FF90EF9008959091A307E09196
:10132000A407F091A507F8948181292F20958223A5
:10133000818378948DE743E050E0815021F1DA0118
:101340001197F1F730813923C1F3F8948281822318
:1013500082838181892B81837894ABE7B7E01197F1
:10136000F1F7F894818128232183A3E1B1E011975B
:10137000F1F78081982381E009F080E07894E3E63A
:10138000F6E03197F1F708950F931F933CDC6093DB
:101390006506709366068093670690936806E091F1
:1013A0005D06F0915E060484F585E02D8DE596E0FE
:1013B000199597FF1EC027DC0091650610916606FF
:1013C0002091670630916806DC01CB01801B910BF0
:1013D000A20BB30B00916106109162062091630687
:1013E0003091640680179107A207B307C0F28FEF10
:1013F0009FEF1F910F910895FC01A089B18982E0B0
:101400008C93A485B5851C92A685B7858FEC8C93AB
:10141000108EA489B58986E08C93A289B3898C91BA
:1014200080618C93A289B3898C9188608C93A28906
:10143000B3898C9180688C930288F389E02D808138
:101440008F7D80830895CF93DF93BC018AEF96E070
:1014500058D4EC0142E050E06CE474E08AEF96E08E
:101460006DD28C0F9D1FDF91CF9108951F93CF9365
:10147000DF9360E085E517DFCBE1D5E01C2F185F37
:1014800060E0899110DF1C13FBCFDF91CF911F919A
:1014900008959F92AF92BF92CF92DF92EF92FF9208
:1014A0000F931F93CF93DF9300D000D0CDB7DEB75B
:1014B000FC019681992309F4D8C06B017F019150FA
:1014C00096835F0182E0A80EB11CC50123DCD70121
:1014D0001296ED91FC91139780818B3521F08B371B
:1014E00009F492C09BC0F70100811181B80184E02A
:1014F00090E041DD009751F0DC0111961C930E93B2
:1015000013961C921E9212978C0111C08091C707EE
:1015100081110BC01092C4071092C3071092C60726
:101520001092C50781E08093C70703EC17E06BE5D5
:10153000C50132DC882309F447C06DE5C5012CDC08
:10154000811153C086E0982E1A821982BE016F5F06
:101550007F4FC7019EDF8823B9F1F8016081718157
:1015600088E090E008DDDC01892B39F011961C92AF
:101570001E9213961C921E921297F80122813381BB
:101580002115310551F0F90180819181009711F009
:101590009C01F9CFB183A08303C0F801B383A28378
:1015A000109791F0FE0131961296892D01900D92BF
:1015B0008A95E1F76DE5C501EFDB811116C06CE29C
:1015C000C501EADB8111C0CF8091C70781110BC033
:1015D0001092C4071092C3071092C6071092C50755
:1015E00081E08093C70703EC17E0D8018D919C91AF
:1015F000892B11F410E031C086E090E0F601918370
:1016000080831383028328C0C701C4DCDC012D91D1
:101610003C91232B79F327E030E019C011E08732A9
:1016200019F0823209F010E0C701D4DB009711F302
:10163000112359F022E030E0D60111963C932E930D
:1016400013969C938E93129708C021E030E0F60128
:10165000318320839383828311E0D70116968C9186
:1016600016978F5F16968C9301C010E0812F2696F7
:101670000FB6F894DEBF0FBECDBFDF91CF911F91A3
:101680000F91FF90EF90DF90CF90BF90AF909F9021
:101690000895CF92DF92EF92FF920F931F93CF9313
:1016A000DF9300D000D0CDB7DEB78C017B0167EBB4
:1016B00074E02B833C834D835E830FD3B70180ECB2
:1016C00095E01FD3A0DA2B813C814D815E816B01B7
:1016D0007C01C20ED31EE41EF51E95DA6C157D0545
:1016E0008E059F05A0F480EC95E00E948F02892B67
:1016F000A1F380EC95E00E946D0289831A8241E09B
:1017000050E0BE016F5F7F4FC8016AD1ECCFC801C6
:101710009ADEC80126960FB6F894DEBF0FBECDBF85
:10172000DF91CF911F910F91FF90EF90DF90CF90BD
:101730000895CF92DF92EF92FF920F931F93CF9372
:10174000DF93CDB7DEB7C054D1400FB6F894DEBFFB
:101750000FBECDBF58DA0091BA071091BB07209198
:10176000BC073091BD076B017C01C01AD10AE20AA7
:10177000F30A40EDC41647E0D406E104F10418F47E
:101780008091C207B1C06093BA077093BB07809382
:10179000BC079093BD071092B5071092B407109242
:1017A000B3071092B2071092B10761E08091B607BB
:1017B00039D96AEF70E080E090E0EDD961E0809186
:1017C000B607ADD960E08091B6072CD964E170E02E
:1017D00080E090E0E0D9F89461E08091B60722D9EA
:1017E0008BE990E00197F1F762E08091B60797D915
:1017F00083E290E00197F1F780E089DC672B682BAA
:10180000692B21F41092C20778943BC081E07FDC01
:10181000672B682B692BB1F38E010F5F1F4F6E0191
:101820008FEBC81A8EEFD80A780180E070DCF701E0
:10183000608371838283938381E069DCF701648331
:10184000758386839783F8E0EF0EF11CEC14FD049A
:1018500061F7789420E030E0F801408151816281A5
:101860007381C480D580E680F780411551056105FC
:10187000710529F0C114D104E104F10421F410929E
:10188000C20780E031C0F90183E0F595E7958A95BC
:10189000E1F7EF54F84F8081880F4C155D056E0518
:1018A0007F0508F4816080832F5F3F4F085F1F4FE3
:1018B0002832310589F62091B50730E04091B10713
:1018C0008091B20790E0840F911D4091B307840F7F
:1018D000911D4091B407840F911D9927281739074E
:1018E00071F681E08093C207C05CDE4F0FB6F894BA
:1018F000DEBF0FBECDBFDF91CF911F910F91FF9043
:10190000EF90DF90CF900895CF93DF93FC01248177
:101910003581232B71F0FB01DC01CD91DC916081DD
:101920007181CE010E94FC1F009719F08C1B9D0B4A
:1019300002C08FEF9FEFDF91CF910895CF92DF929A
:10194000EF92FF920F931F93CF93DF936C017A0175
:101950008B01C0E0D0E0CE15DF0589F0D8016D9194
:101960008D01D601ED91FC910190F081E02DC60131
:101970001995892B11F47E0102C02196ECCFC70185
:10198000DF91CF911F910F91FF90EF90DF90CF905B
:1019900008950F931F93CF93DF93EC018881998172
:1019A000009729F02A813B812617370788F48B019D
:1019B0006F5F7F4F0E94FB1E009761F099838883C1
:1019C0001B830A832C813D81232B11F4FC0110829F
:1019D00081E001C080E0DF91CF911F910F910895C8
:1019E000EF92FF920F931F93CF93DF93FC0124811B
:1019F00035816115710511F480E018C0411551055C
:101A0000A1F07B01EC018A01020F131FB801C1DFB5
:101A1000882391F3288139818C819D81B701820FC0
:101A2000931F0E94F51F1D830C8381E0DF91CF91EE
:101A30001F910F91FF90EF900895CF93DF93EC01EA
:101A400088819981009711F00E94631E1982188283
:101A50001D821C821B821A82DF91CF910895EF9222
:101A6000FF920F931F93CF93DF93CDB7DEB76497A9
:101A70000FB6F894DEBF0FBECDBF7C01CB01BA011B
:101A80008E010F5F1F4F22E044E00E940C19FC0101
:101A900001900020E9F73197AF01481B590BBC01B9
:101AA000C7019EDF811102C0C701C7DFC70164966D
:101AB0000FB6F894DEBF0FBECDBFDF91CF911F915F
:101AC0000F91FF90EF900895EF92FF920F931F9365
:101AD000CF93DF93CDB7DEB727970FB6F894DEBF6D
:101AE0000FBECDBF7C01CB014AE08E010F5F1F4FBF
:101AF000B8010E943519F80101900020E9F73197EB
:101B0000AF01401B510BB801C7016ADF811102C050
:101B1000C70193DFC70127960FB6F894DEBF0FBE4B
:101B2000CDBFDF91CF911F910F91FF90EF9008955E
:101B3000EF92FF920F931F93CF93DF93CDB7DEB752
:101B400028970FB6F894DEBF0FBECDBF7C01CB0146
:101B50004AE08E010F5F1F4FB8010E942B19F80158
:101B600001900020E9F73197AF01401B510BB801FC
:101B7000C70136DF811102C0C7015FDFC7012896A8
:101B80000FB6F894DEBF0FBECDBFDF91CF911F918E
:101B90000F91FF90EF900895CF93DF93EC016115C3
:101BA000710559F0FB0101900020E9F73197AF0171
:101BB000461B570B15DF811102C0CE013EDFCE015F
:101BC000DF91CF910895CF93DF93EC01FB01448126
:101BD00055816081718104DF811102C0CE012DDF4A
:101BE000CE01DF91CF910895EF92FF920F931F9353
:101BF000CF93DF93EC017B018A01BA01CADE811128
:101C000003C0CE011ADF07C01D830C83B701888192
:101C100099810E94F51FCE01DF91CF911F910F9105
:101C2000FF90EF900895FC01808191810C94631ED8
:101C3000EF92FF920F931F93CF93DF93CDB7DEB751
:101C4000A1970FB6F894DEBF0FBECDBF7C01CB01CC
:101C5000BA01F70111821082138212821582148256
:101C600042E0420F8E010F5F1F4F0E940C19009738
:101C700061F0FC0101900020E9F73197AF01481BAA
:101C8000590BBC01C701B0DF02C0C701D6DEA19667
:101C90000FB6F894DEBF0FBECDBFDF91CF911F917D
:101CA0000F91FF90EF900895FB01DC0111961C92BB
:101CB0001E9213961C921E92129715961C921E92BB
:101CC00014978617970741F060817181611571053E
:101CD00019F04481558188CF0895FC01118210824A
:101CE00013821282158214826115710549F0FB017D
:101CF00001900020E9F73197AF01461B570B74CFD5
:101D00000895DC01ED91FC91DB0114964D915C91FD
:101D100015976D917C910280F381E02D1994CF92FB
:101D2000DF92EF92FF920F931F93E82FF92F05C0D8
:101D3000015011092109310961F19081962394170D
:101D4000B9F305C0015011092109310911F1908140
:101D500096239413F7CFC12CD12CE12CF12C0AC07F
:101D60008FEFC81AD80AE80AF80A0C151D052E05C7
:101D70003F0579F080818623841791F36C2D7D2DAA
:101D80008E2D9F2D1F910F91FF90EF90DF90CF90A0
:101D9000089560E070E080E090E01F910F91FF9067
:101DA000EF90DF90CF900895CF93DF93CDB7DEB75C
:101DB000C75AD1090FB6F894DEBF0FBECDBF7894D5
:101DC00084B5826084BD84B5816084BD85B5826040
:101DD00085BD85B5816085BD80916E0081608093F1
:101DE0006E0010928100809181008260809381005A
:101DF000809181008160809381008091800081606A
:101E0000809380008091B10084608093B1008091C4
:101E1000B00081608093B0008091910082608093D7
:101E20009100809191008160809391008091900059
:101E30008160809390008091A10082608093A100D6
:101E40008091A10081608093A1008091A0008160B9
:101E50008093A00080912101826080932101809174
:101E60002101816080932101809120018160809314
:101E7000200180917A00846080937A0080917A00BA
:101E8000826080937A0080917A00816080937A00EA
:101E900080917A00806880937A001092C1008AEF66
:101EA00096E0AADA8DE596E0A7DA80EC95E0A4DA70
:101EB00083E295E0A1DA68EE73E080E090E00E94B2
:101EC000CB0566E272E0CE0183599F4F06DF28EB17
:101ED0003BE040E050E0BE0163597F4F8E010F5F51
:101EE0001F4FC801D6DBC8019EDECE0183599F4F2C
:101EF0009ADE6FE272E0CE0183599F4FEEDE20ED55
:101F000037E040E050E0BE0163597F4FC801C1DBBC
:101F1000C80189DECE0183599F4F85DE64E372E0FC
:101F2000CE0183599F4FD9DE20ED37E040E050E0ED
:101F3000BE0163597F4FC801ACDBC80174DECE011E
:101F400083599F4F70DE8DE596E00E948F02892BAA
:101F5000D1F360ED77E080E090E00E94CB058DE565
:101F600096E00E948F02892B69F08DE596E00E9431
:101F70006D0289831A8241E050E0B80187E997E059
:101F80002FDDEDCF87E997E05EDACE0109969C83DD
:101F90008B8384E690E09E838D8318861F8282E186
:101FA00092E09A8389838091970790919807009790
:101FB00011F487EB94E0AF961FAF0EAFAF97E196A9
:101FC0009FAF8EAFE197E3961FAF0EAFE3978AE026
:101FD000E4968FAFE497CE0183599F4F0E94CA07C2
:101FE0007C0162E472E00E94630690930102809398
:101FF00000026BE472E0C7010E9463069093030243
:102000008093020260E572E0C7010E94630690932C
:1020100005028093040264E572E0CE0183599F4F6C
:102020005CDE20ED37E040E050E0BE0163597F4FB9
:10203000C8012FDBC801F7DDCE0183599F4FF3DDC7
:10204000E0900402F0900502C0900202D0900302DA
:102050006FE572E0CE0183599F4F3FDEBE016359A9
:102060007F4FC80121DEB601C80196DD6AE672E045
:1020700093DDB70191DD6EE672E08EDDBC01CE012D
:1020800086589F4F11DEC801CEDDCE0183599F4F88
:10209000CADDBE0166587F4FCE0183599F4F04DED3
:1020A00028E833E140E050E0BE0163597F4FC801AA
:1020B000F0DAC801B8DDCE0183599F4FB4DD62E785
:1020C00072E0C8010ADE65E772E0CE018C589F4FCE
:1020D00004DE28EB3BE040E050E0BE016C587F4F4F
:1020E000CE0183599F4FD5DAB801CE0183599F4F56
:1020F0000BDC7C01CE0183599F4F95DDCE018C58BE
:102100009F4F91DDC8018FDDEF20E09439F181E828
:1021100092E052D8E0915D06F0915E060190F08168
:10212000E02D61E38DE596E019956FE872E0CE0150
:1021300083599F4FD2DD20ED37E040E050E0BE01F3
:1021400063597F4FC801A5DAC8016DDDCE018359FF
:102150009F4F69DD81E08093FF040EC08AE992E021
:102160002BD8E0915D06F0915E060190F081E02DA4
:1021700060E38DE596E01995CE0186589F4F53DDBB
:1021800061E087E10E948F0560E086E10E948F0593
:1021900062E08091B6070E948F0580E398EFAFEF71
:1021A000BFEF8093BA079093BB07A093BC07B0938F
:1021B000BD078091B007811103C0AFD881110DC058
:1021C0001092AE071092B0071092AF0785EA92E026
:1021D0000E94DC081092E8046DC060E080EF63D8D4
:1021E00001E0F12CE12C11E039D8CC55DF4F888388
:1021F000C45AD04033D8CC55DF4F9881C45AD04010
:10220000913019F48130C1F435C02F2D30E098138E
:102210001DC08091AE07181738F4F901ED55F84F3D
:102220008381802349F402C0181731F090E01930FF
:1022300060F41093AF0709C0EF2DF0E0ED55F84FB3
:102240008381802B838391E009C0E12EF901ED5554
:10225000F84F2381802F809582238383892F0E94CA
:10226000FC081F5F000F11F4F39401E037E03F1505
:1022700008F0BACF113408F4A3CFE092AE07E11012
:1022800003C081E08093B0078091A607882309F4FA
:1022900097CFA6EAB7E0EBE1F5E08D91819345E0B9
:1022A000E332F407D1F784E994E00E94DC0881E08E
:1022B0008093E804CE0101967C018BE195E067E014
:1022C000C62EC80E36DA882309F440C08091B707BD
:1022D0008B3029F0D8F18551823058F037C06091A9
:1022E000B30770E080E090E00E94C71B4B015C01E7
:1022F00033C01091B307612F6F7770E080E090E0FA
:102300000E94C91B20E030E040E853E40E94281CF2
:102310004B015C016091B40770E080E090E00E94A6
:10232000C91B9B01AC01C501B4010E94F61C2DEC38
:102330003CEC4CEC5DE30E94281C4B015C0117FF58
:102340000BC0B7FAB094B7F8B09406C0812C912CAA
:1023500050ECA52E5FE7B52EECD98823E9F18091EA
:10236000B7078B3049F108F444C08551823008F03A
:1023700040C06091B10770E080E090E00E94C71B10
:1023800020E030E040E853E40E94281C2B013C018F
:102390006091B20770E080E090E00E94C91B9B0151
:1023A000AC01C301B2010E94F61C2DEC3CEC4CECDC
:1023B0005DE30E94281C07C06091B10770E080E0D7
:1023C00090E00E94C71BC856DF4F688379838A83D9
:1023D0009B83C859D04019C020E030E040EC5FE753
:1023E000C856DF4F288339834A835B83C859D0405E
:1023F0000CC080E090E0A0ECBFE7C856DF4F8883B8
:102400009983AA83BB83C859D04089E0D7011D9224
:102410008A95E9F78091E804882309F469C0ABE163
:10242000B5E0E0E0CA1639F08D91E827F0E0EE5F04
:10243000FD4FE491F7CF80912205E81729F088EB52
:1024400092E00E94DC085CC00E948D090FD861E018
:1024500084E40E9453090E948D0968EE73E080E0D5
:1024600090E00E94CB0502D860E08EEB0E945309F9
:1024700027013E01BAE06B0E711C08E010E0332426
:102480003394D12C0E942E098111D328330C015092
:102490001109C1F7F201D1922F01E615F70569F78D
:1024A0001092AE071092B0071092AF07EEEAF7E075
:1024B000129227E0E63AF207D9F76A8170E0762FA8
:1024C00066278981682B072E000C880B990B0E94C8
:1024D000C91B20E030E040E85DE30E94281CC456A0
:1024E000DF4F688379838A839B83CC59D04008C0AF
:1024F000C456DF4F188219821A821B82CC59D040F1
:1025000061E087E10E94120583E290E00197F1F714
:1025100060E087E10E941205E2EFF3E06491ECEAEB
:10252000F3E0E491F0E0EE0FFF1FE458FC4F8591DB
:10253000949100E412E42FE030E0462FF0DB6115C7
:1025400071058105910549F0DC01CB010196A11DC2
:10255000B11DBC01CD019F7003C060E070E0CB01F4
:102560000E94C71B20E030E048EE51E40E945A1D53
:1025700020E030E040E05FE30E94281C9B01AC01BA
:1025800060E070E080EA91E40E94F51C20E030E019
:1025900040E751E40E945A1D20E030E048EC52E44C
:1025A0000E94281C6093000570930105809302052A
:1025B000909303050E940306C056DF4F688379831A
:1025C0008A839B83C05AD040E0EFF4E040E080E093
:1025D00090E020917B00277F20937B00242F2064B4
:1025E00020937C0020917A00206420937A0020912F
:1025F0007A0026FDFCCF209178005091790030E0E0
:10260000352B21933193820F931F4F5F443009F78D
:1026100097FD039695958795959587959093F904E1
:102620008093F8048DE596E00E948F02892B09F4CF
:10263000EFC00E94C409FC0197FD11C08D329105C5
:1026400091F0C0970A9778F0E0915D06F0915E06F0
:102650000284F385E02D8DE596E01995EACF412CB3
:10266000512C32014DC020E030E0A90110E0E130F2
:10267000F10509F068C4E0915D06F0915E06028400
:10268000F385E02D8DE596E0CA55DF4F2883C65AC5
:10269000D040C955DF4F3883C75AD040CC55DF4FA3
:1026A0004883C45AD040CB55DF4F5883C55AD040D9
:1026B00019950E94C409FC01C097CA55DF4F2881B3
:1026C000C65AD040C955DF4F3881C75AD040CC5583
:1026D000DF4F4881C45AD040CB55DF4F5881C55A8F
:1026E000D0400A9720F2E130F10509F2112309F4F4
:1026F00046C4442455243201421A530A640A750A16
:1027000082018091E9049091EA0401969093EA0491
:102710008093E904EC961FAE1EAEEC97EE961FAECA
:102720001EAEEE97C258DF4F19821882CE57D040A6
:102730004AE0B70190D5F70101900020E9F7319701
:10274000AF014E195F09B701CE0186589F4F4CDA91
:102750006AEC72E0CE018C589F4FBFDA65ED72E0F3
:10276000C701BBDAB701CE0183599F4F9DDAB20191
:10277000CE0183599F4FDCD9BE016C587F4F23DABD
:10278000BE0166587F4F1FDA6DE474E005DABC01C4
:102790008AEF96E0B6DACE0183599F4F44DAC7013B
:1027A00042DACE018C589F4F3EDACE0186589F4FB9
:1027B0003ADA03301105C9F05CF40230110521F555
:1027C0008CEE92E00E94DC0881E08093060220C03B
:1027D0000630110589F007301105B1F48CE293E061
:1027E0000E94DC081092070213C081E093E00E946F
:1027F000DC08109206020CC087E193E00E94DC081E
:1028000081E08093070204C082E493E00E94DC0828
:102810008DE596E00E942603809107028823A1F1AE
:102820008091FA04811116C020E030E040EB51E4C1
:10283000C456DF4F688179818A819B81CC59D04011
:102840000E94C21D181604F581E08093FA046EE51B
:1028500073E013C020E030E040EA51E4C456DF4F9B
:10286000688179818A819B81CC59D0408CD7181698
:102870005CF01092FA0460E673E0C7012EDAC7013B
:102880000E949607C701CFD980910602882351F193
:102890008091F8049091F904893791058CF4809126
:1028A000EF0481111FC062E673E0C70116DAC701A9
:1028B0000E949607C701B7D981E08093EF0412C048
:1028C0008D3891057CF08091EF04882359F064E6FF
:1028D00073E0C70102DAC7010E949607C701A3D9B6
:1028E0001092EF04D090FF04DD2009F429C38091F9
:1028F000FB049091FC04A091FD04B091FE04C0562D
:10290000DF4F288139814A815B81C05AD040281B22
:10291000390B4A0B5B0BDA01C90181319742A105E2
:10292000B10508F43FC10091060210E066E673E0CD
:10293000CE0183599F4FD1D9BE0163597F4FC70143
:10294000B3D9B801C701F4D80E94230AC7016BD9D3
:10295000CE0183599F4F67D962E773E0CE01835957
:102960009F4FBBD9BE0163597F4FC7019DD9C45644
:10297000DF4F488159816A817B81CC59D040C701A2
:102980006ED86DE474E008D9BC018AEF96E0B9D93D
:10299000C70149D9CE0183599F4F45D967E873E0F4
:1029A000CE0183599F4F99D9BE0163597F4FC7010B
:1029B0007BD9B501A401C70152D86DE474E0ECD80D
:1029C000BC018AEF96E09DD9C7012DD9CE0183596C
:1029D0009F4F29D96AE973E0CE0183599F4F7DD972
:1029E000BE0163597F4FC7015FD9C856DF4F488189
:1029F00059816A817B81C859D040C70130D86DE4C4
:102A000074E0CAD8BC018AEF96E07BD9C7010BD924
:102A1000CE0183599F4F07D90091FA0410E06AEA6A
:102A200073E0CE0183599F4F58D9BE0163597F4F40
:102A3000C7013AD9B801C7017BD86DE474E0ACD8BE
:102A4000BC018AEF96E05DD9C701EDD8CE0183596C
:102A50009F4FE9D82091F8043091F9042090F604B2
:102A60003090F7044090F4045090F5046090F20424
:102A70007090F3040091F0041091F10467EB73E09F
:102A8000CE0183599F4FCA55DF4F2883C65AD04085
:102A9000C955DF4F3883C75AD0401FD9BE0163598B
:102AA0007F4FC70101D9B801C70142D86BED74E06F
:102AB00073D8B3013DD86BED74E06ED8B20138D84D
:102AC0006BED74E069D8B10133D86BED74E064D874
:102AD000CA55DF4F2881C65AD040C955DF4F3881CB
:102AE000C75AD040B90124D86DE474E055D8BC0170
:102AF0008AEF96E006D9C70196D8CE0183599F4F39
:102B000092D80091EF0410E064EC73E0CE01835999
:102B10009F4FE3D8BE0163597F4FC701C5D8B801A5
:102B2000C70106D86DE474E037D8BC018AEF96E09F
:102B3000E8D8C70178D8CE0183599F4F74D8409008
:102B4000000550900105609002057090030561ED4D
:102B500073E0CE0183599F4FC0D8BE0163597F4FA8
:102B6000C701A2D8B301A201C7010E942F0D60EED8
:102B700073E012D8BC018AEF96E0C3D8C70153D8DE
:102B8000CE0183599F4F4FD80E94D5080E94D50887
:102B90000E9403066093FB047093FC048093FD0481
:102BA0009093FE048091EB049091EC04A091ED04CD
:102BB000B091EE04C056DF4F288139814A815B8194
:102BC000C05AD040281B390B4A0B5B0BDA01C901F4
:102BD00089399A43A105B10508F4B2C182EE93E0A8
:102BE0000E94DC080091F8041091F904409000055F
:102BF0005090010560900205709003056EEF73E040
:102C0000CE0183599F4F69D8BE0163597F4FC701D9
:102C10004BD86BE672E0C7010E94CC0D60E174E016
:102C20000E94CC0D6CE174E00E94CC0D60E570E078
:102C30000E94640D6CE474E00E94CC0DBC01CE01D6
:102C40008E569F4F31D8C7010E94130ECE01835973
:102C50009F4F0E94130E62E772E0C7013ED8BE018B
:102C60006E567F4FCE018C589F4F1ED828E833E117
:102C700040E050E0BE016C587F4FCE0183599F4F1A
:102C80000E94490BB701CE0183599F4F0E94840CCB
:102C90001C01CE0183599F4F0E94130ECE018C5808
:102CA0009F4F0E94130EC7010E94130E23202094F1
:102CB00031F480EC95E00E942603D12C29C1AF9617
:102CC0001FAE1EAEAF97E1961FAE1EAEE197E39624
:102CD0001FAE1EAEE3974AE0B701C801BCD2F701B0
:102CE00001900020E9F73197AF014E195F09B70154
:102CF000CE0183599F4F0E94F40D22E0B301A2013F
:102D0000C7010E94180E22E0C456DF4F4881598146
:102D10006A817B81CC59D040CE018C589F4F0E9454
:102D2000180E22E0C856DF4F488159816A817B81A5
:102D3000C859D040CE0186589F4F0E94180E22E0FD
:102D4000B501A401CE0180589F4F0E94180E6FE17B
:102D500074E0CE018A579F4F0E946D0EBE016058ED
:102D60007F4FCE018A579F4F0E94E30D63E274E0CC
:102D70000E94CC0DBE0166587F4F0E94E30D67E2B2
:102D800074E00E94CC0DBE016C587F4F0E94E30D91
:102D90006CE274E00E94CC0DB7010E94E30D61E388
:102DA00074E00E94CC0DBE0163597F4F0E94E30D79
:102DB000BC01CE0184579F4F0E94540ECE018A570A
:102DC0009F4F0E94130ECE0180589F4F0E94130EFA
:102DD000CE0186589F4F0E94130ECE018C589F4FF4
:102DE0000E94130EC7010E94130ECE0183599F4FFC
:102DF0000E94130E65E374E0C7010E946D0E6DE939
:102E000077E0C7010E94E30DBE0164577F4F0E9427
:102E1000E30D6CE474E00E94CC0DBC01CE0180583F
:102E20009F4F0E94540EC7010E94130E44E150E0D0
:102E30006AE374E0CE0180589F4F0E94F00CCC579B
:102E4000DF4F08811981C458D0406FE474E0CE018F
:102E500086589F4F0E946D0EBE0166587F4FCE016F
:102E60008C589F4F0E94540EB801CE018C589F4F32
:102E70000E94640D6CE474E00E94CC0DBC01CE0194
:102E800083599F4F0E94540E28EE33E040E050E0FB
:102E9000BE0163597F4FC7010E94490BC7010E94C1
:102EA000130ECE0183599F4F0E94130ECE018C58F2
:102EB0009F4F0E94130ECE0186589F4F0E94130E03
:102EC000BE0160587F4FCE0183599F4F0E94540E20
:102ED00028EE33E040E050E0BE0163597F4FC70168
:102EE0000E94490BC7010E94130ECE0183599F4FC8
:102EF0000E94130E80EC95E00E942603CE018058BC
:102F00009F4F0E94130ECE0184579F4F0E94130EB5
:102F1000CE018E569F4F0E94130EDD2019F08BE5D7
:102F200094E002C088E794E00E94DC080E94030657
:102F30006093EB047093EC048093ED049093EE04A3
:102F40000E944703BFC9ED32F105B9F0CF01C09728
:102F50000A9708F090CBAAE0B0E02ED52F01FF0F22
:102F600066087708460E571E681E791EA301920157
:102F700020533109410951097ECB11E07CCB290155
:102F80003A01BECB87E997E00E94130E8DE997E0E6
:102F90000C94130E109226051092250548EE53E06E
:102FA00060E070E040932705509328056093290561
:102FB00070932A0588E192E090932405809323057D
:102FC00025E331E03093300520932F0524E331E0F1
:102FD000309332052093310520E331E030933405FE
:102FE0002093330521E331E03093360520933505F6
:102FF00022E331E0309338052093370526E331E0B2
:1030000030933A052093390510923C0510923D0506
:1030100010923E0510923F051092C3051092C20512
:103020004093C4055093C5056093C6057093C705CA
:103030009093C1058093C00525ED30E03093CD0518
:103040002093CC0524ED30E03093CF052093CE05BE
:1030500020ED30E03093D1052093D00521ED30E014
:103060003093D3052093D20522ED30E03093D5057F
:103070002093D40526ED30E03093D7052093D60574
:103080001092D9051092DA051092DB051092DC053A
:103090001092600610925F0640936106509362069C
:1030A000609363067093640690935E0680935D065A
:1030B0002DEC30E030936A06209369062CEC30E06A
:1030C00030936C0620936B0628EC30E030936E064C
:1030D00020936D0629EC30E03093700620936F0644
:1030E0002AEC30E030937206209371062EEC30E02B
:1030F000309374062093730610927606109277062A
:1031000010927806109279061092FD061092FC0635
:103110004093FE065093FF066093000770930107EB
:103120009093FB068093FA0685EC90E09093070756
:103130008093060784EC90E090930907809308073A
:1031400080EC90E090930B0780930A0781EC90E06D
:1031500090930D0780930C0782EC90E090930F07FB
:1031600080930E0786EC90E09093110780931007F0
:103170001092130710921407109215071092160759
:1031800087E28093B60786E18093B707E3E0F4E037
:10319000E491E093B807EDEBF3E0E491E093B90735
:1031A00080E89EE3A0E0B0E08093BE079093BF0765
:1031B000A093C007B093C10760E08AE10E948F0529
:1031C000E6EFF3E0E491E093A307E0EBF3E0E491B2
:1031D000F0E0EE0FFF1FE458FC4F8591949190931F
:1031E000A5078093A4071092AE071092B007109223
:1031F000AF07EEEAF7E0129287E0E63AF807D9F770
:103200006DED74E08DE997E00E946D0E67EB74E060
:1032100087E997E00C946D0EEF920F931F93CF9375
:10322000DF93E80147FD02C034E001C034E1E42F40
:10323000440FFF0BF7FF03C0F195E195F109E32E71
:10324000022F2E2FAE012AD0CE01DF91CF911F91F8
:103250000F91EF900895BB274A3031F4992322F45F
:10326000BDE2909581959F4F01C0BB27FB0155277B
:10327000AA27880F991FAA1FA41710F0A41B8395D3
:103280005051B9F7A05DAA3308F0A95DA19300974A
:1032900079F7B111B1931192CB0165C24F925F9250
:1032A0006F927F929F92AF92BF92CF92DF92EF92F6
:1032B000FF920F931F93CF93DF93CDB7DEB729977C
:1032C0000FB6F894DEBF0FBECDBF6A01122FB02E2D
:1032D0002BE3201720F0FF24F394F00E02C0BCE390
:1032E000FB2E0F2D27E0AE014F5F5F4F64D1AC0185
:1032F0008981982F9970913031F0E1FC06C0E0FE91
:1033000006C090E205C09DE203C09BE201C090E0D0
:10331000EE2DE07183FF3CC0911102C083E001C03B
:1033200084E0811718F4212F281B01C020E0E1114F
:103330000BC0F601822F30E2882319F031938150BF
:10334000FBCFC20ED11C20E0992329F0D6019C931B
:10335000F60131966F01C6010396E2FE0AC03EE413
:10336000D6013C9341E411964C93119712963C93ED
:1033700006C03EE6F601308341E641833283FC011C
:10338000322F40E2332309F442C041933150FACF47
:1033900082FF44C0911102C083E001C084E0811724
:1033A00018F4212F281B01C020E0E1110BC0F60109
:1033B000822F30E2882319F031938150FBCFC20E67
:1033C000D11C20E0992329F0D6019C93F601319677
:1033D0006F01C6010396E2FE0BC039E4D6013C93AF
:1033E0003EE411963C93119736E412963C9307C045
:1033F00039E6F60130833EE6318336E63283FC015E
:10340000322F40E2332319F041933150FBCFFC01BE
:10341000E20FF11D10828EEF9FEFB7C0F1E0911126
:1034200001C0F0E06F2F70E01416150624F49A0125
:103430002F5F3F4F02C021E030E0260F371FBB2037
:1034400029F06B2D70E06F5F7F4F02C060E070E08D
:10345000260F371F612F70E0261737071CF4121B49
:10346000212F01C020E03E2D387159F4D601322FB2
:1034700060E2332319F06D933150FBCFC20ED11CA3
:1034800020E0FF2331F0D6019C93B6016F5F7F4FA0
:103490006B01E1110BC0F601922F30E3992319F073
:1034A00031939150FBCFC20ED11C20E09F2D940F81
:1034B0003A81782F7071A72E84FF03C0313309F44D
:1034C0009150191624F4993018F098E001C091E059
:1034D000E42F852F57FF02C0E0E080E06E2F782FA9
:1034E000E0E0F0E0AEE29A2E3A01691A71082A0192
:1034F000461A570A0B2D10E01195019511096F3FDF
:103500008FEF780729F4D6019C92C60101966C01D1
:103510004617570784F0661677066CF47F01E40CB3
:10352000F51CA1E0B0E0AC0FBD1FEA0EFB1ED701F9
:103530001196BC9002C090E3B92E6150710931968A
:10354000C60101967C016017710724F0D601BC9278
:103550006C01D5CF6417750741F4363320F4353349
:1035600021F4A11002C081E3B82EF601B082F70168
:10357000822F90E2882319F091938150FBCFF701BD
:10358000E20FF11D108280E090E029960FB6F894CA
:10359000DEBF0FBECDBFDF91CF911F910F91FF9086
:1035A000EF90DF90CF90BF90AF909F907F906F9003
:1035B0005F904F900895283008F027E03327DA0114
:1035C000990F311D87FD916000966105710539F4F1
:1035D00032602E5F3D9330E32A95E1F708959F3FD7
:1035E00030F080387105610509F03C5F3C5F3D9328
:1035F000913008F08068911DDF93CF931F930F9354
:10360000FF92EF92192F987F9695E92F96959695B0
:10361000E90FFF27EE59FE4F99273327EE24FF24A9
:10362000A701E70105900894079428F4360FE71ED8
:10363000F81E491F511D660F771F881F991F06949A
:10364000A1F70590079428F4E70EF81E491F561FAE
:10365000C11D770F881F991F661F0694A1F705905B
:10366000079428F4F80E491F561FC71FD11D880F55
:10367000991F661F771F0694A1F70590079420F401
:10368000490F561FC71FD81F990F661F771F881F26
:103690000694A9F784911095177041F0D695C795B7
:1036A00057954795F794E7941A95C1F7E8E0F1E04C
:1036B00068941590159135916591959105907FE2EB
:1036C0007395E118F10A430B560BC90BD009C0F7EB
:1036D000E10CF11E431F561FC91FD01D7EF470332D
:1036E00011F48A95E6CFE894015030F0080F0AF4FF
:1036F0000027021708F4202F2395022F7A3328F091
:1037000079E37D932A95E9F710C07D932A9589F690
:10371000069497956795379517951794E118F10AD0
:10372000430B560BC90BD00998F023957E917395E6
:103730007A3308F070E37C932013B8F77E917061C0
:103740007D9330F0839571E37D9370E32A95E1F7E3
:103750001124EF90FF900F911F91CF91DF91992746
:1037600087FD90950895DC01FC01672F7191772307
:10377000E1F7329704C07C916D9370836291AE172C
:10378000BF07C8F3089540D008F481E00895E89495
:1037900009C097FB3EF490958095709561957F4F99
:1037A0008F4F9F4F9923A9F0F92F96E9BB27939547
:1037B000F695879577956795B795F111F8CFFAF457
:1037C000BB0F11F460FF1BC06F5F7F4F8F4F9F4F88
:1037D00016C0882311F096E911C0772321F09EE8E6
:1037E000872F762F05C0662371F096E8862F70E04C
:1037F00060E02AF09A95660F771F881FDAF7880F26
:103800009695879597F90895990F0008550FAA0B7B
:10381000E0E8FEEF16161706E807F907C0F01216E3
:103820001306E407F50798F0621B730B840B950BE6
:1038300039F40A2661F0232B242B252B21F408953B
:103840000A2609F4A140A6958FEF811D811D0895D8
:103850000BD078C069D028F06ED018F0952309F00D
:103860005AC05FC01124A2C07ED0A0F3959FD1F3AF
:10387000950F50E0551F629FF001729FBB27F00D1E
:10388000B11D639FAA27F00DB11DAA1F649F662773
:10389000B00DA11D661F829F2227B00DA11D621FC2
:1038A000739FB00DA11D621F839FA00D611D221F7C
:1038B000749F3327A00D611D231F849F600D211D60
:1038C000822F762F6A2F11249F5750408AF0E1F003
:1038D00088234AF0EE0FFF1FBB1F661F771F881F4C
:1038E00091505040A9F79E3F510570F014C05EC042
:1038F0005F3FECF3983EDCF3869577956795B79537
:10390000F795E7959F5FC1F7FE2B880F911D969560
:10391000879597F9089597F99F6780E870E060E0D0
:1039200008959FEF80EC089500240A941616170658
:1039300018060906089500240A94121613061406A0
:1039400005060895092E0394000C11F4882352F003
:10395000BB0F40F4BF2B11F460FF04C06F5F7F4FBB
:103960008F4F9F4F089557FD9058440F551F59F0A2
:103970005F3F71F04795880F97FB991F61F09F3F5C
:1039800079F087950895121613061406551FF2CF85
:103990004695F1DF08C0161617061806991FF1CFD5
:1039A00086957105610508940895E894BB276627FC
:1039B0007727CB0197F9089509D0A59F900DB49F63
:1039C000900DA49F800D911D11240895A29FB00118
:1039D000B39FC001A39F700D811D1124911DB29F43
:1039E000700D811D1124911D08955058BB27AA27E1
:1039F0000ED0A8CF99DF30F09EDF20F031F49F3F4A
:103A000011F41EF48ECF0EF4E095E7FB84CFE92F7E
:103A1000AADF80F3BA17620773078407950718F0C7
:103A200071F49EF5C2CF0EF4E0950B2EBA2FA02DA7
:103A30000B01B90190010C01CA01A0011124FF275B
:103A4000591B99F0593F50F4503E68F11A16F04056
:103A5000A22F232F342F4427585FF3CF4695379555
:103A60002795A795F0405395C9F77EF41F16BA0B1A
:103A7000620B730B840BBAF09150A1F0FF0FBB1FC8
:103A8000661F771F881FC2F70EC0BA0F621F731F11
:103A9000841F48F4879577956795B795F7959E3F6E
:103AA00008F0B3CF9395880F08F09927EE0F9795FC
:103AB000879508950CD046CF3EDF40F035DF30F0DB
:103AC00021F45F3F19F027CF511170CF2ACF4BDF80
:103AD00098F39923C9F35523B1F3951B550BBB27D5
:103AE000AA2762177307840738F09F5F5F4F220F82
:103AF000331F441FAA1FA9F333D00E2E3AF0E0E87B
:103B000030D091505040E695001CCAF729D0FE2FC6
:103B100027D0660F771F881FBB1F26173707480758
:103B2000AB07B0E809F0BB0B802DBF01FF2793580E
:103B30005F4F2AF09E3F510568F0EDCE37CF5F3FD3
:103B4000ECF3983EDCF3869577956795B795F795F6
:103B50009F5FC9F7880F911D9695879597F90895EE
:103B6000E1E0660F771F881FBB1F6217730784078A
:103B7000BA0720F0621B730B840BBA0BEE1F88F799
:103B8000E095089541DE08F48FEF0895EE0FFF1FD2
:103B9000881F8BBF0790F691E02D1994CF93DF9388
:103BA0008230910510F482E090E0E091D107F0912D
:103BB000D20720E030E0C0E0D0E0309711F1408142
:103BC000518148175907C0F04817590761F482819D
:103BD0009381209719F09B838A832BC09093D207FF
:103BE0008093D10726C02115310519F042175307DC
:103BF00018F49A01BE01DF01EF010280F381E02D8C
:103C0000DCCF2115310509F1281B390B2430310592
:103C100090F412968D919C9113976115710521F086
:103C2000FB019383828304C09093D2078093D107D2
:103C3000FD01329644C0FD01E20FF31F8193919381
:103C4000225031092D933C933AC02091CF073091F7
:103C5000D007232B41F420910A0230910B023093BC
:103C6000D0072093CF072091080230910902211537
:103C7000310541F42DB73EB740910C0250910D0231
:103C8000241B350BE091CF07F091D007E217F30723
:103C9000A0F42E1B3F0B2817390778F0AC014E5FBC
:103CA0005F4F2417350748F04E0F5F1F5093D00722
:103CB0004093CF078193919302C0E0E0F0E0CF0101
:103CC000DF91CF9108950F931F93CF93DF930097C8
:103CD00009F48CC0FC013297138212820091D10743
:103CE0001091D2070115110581F420813181820FD5
:103CF000931F2091CF073091D0072817390779F506
:103D0000F093D007E093CF0771C0D80140E050E0B6
:103D1000AE17BF0750F412962D913C911397AD0149
:103D20002115310509F1D901F3CF9D01DA01338362
:103D3000228360817181860F971F8217930769F430
:103D4000EC0128813981260F371F2E5F3F4F3183C9
:103D500020838A819B8193838283452B29F4F0936E
:103D6000D207E093D10742C01396FC93EE931297CB
:103D7000ED01499159919E01240F351FE217F30778
:103D800071F480819181840F951F029611969C9306
:103D90008E938281938113969C938E931297E0E089
:103DA000F0E0D80112968D919C911397009719F02D
:103DB000F8018C01F6CF8D919C9198012E5F3F4FB9
:103DC000820F931F2091CF073091D0072817390712
:103DD00069F4309729F41092D2071092D10702C0EB
:103DE000138212821093D0070093CF07DF91CF91F7
:103DF0001F910F9108956F927F928F929F92AF9231
:103E0000BF92CF92DF92EF92FF920F931F93CF93C7
:103E1000DF93EC01009781F4CB01DF91CF911F91EB
:103E20000F91FF90EF90DF90CF90BF90AF909F9059
:103E30008F907F906F90B2CEFC01E60FF71F9C0130
:103E400022503109E217F30708F4A8C0D9010D91F7
:103E50001C91119706171707A8F00530110508F4F3
:103E60009BC0C80104978617970708F495C00250B5
:103E70001109061B170B019311936D937C93CF01CE
:103E800022DF8AC05B01A01AB10A4C01800E911E8C
:103E9000A091D107B091D20740E050E0E12CF12C85
:103EA000109709F44AC0A815B905D1F56D907C901A
:103EB0001197630182E0C80ED11CCA14DB0480F1A3
:103EC000A3014A195B096A0182E0C80ED11C12964F
:103ED000BC9012971396AC91B5E0CB16D10440F08C
:103EE000B282A38351834083D9016D937C930AC02E
:103EF0000E5F1F4FC301800F911FF90191838083D3
:103F0000EB2DFA2FE114F10431F0D7011396FC9355
:103F1000EE93129741C0F093D207E093D1073CC0D3
:103F20008D919C9111974817590708F4AC017D01B8
:103F300012960D90BC91A02DB3CF8091CF07909198
:103F4000D00788159905E1F446175707C8F4809102
:103F5000080290910902009741F48DB79EB74091F5
:103F60000C0250910D02841B950BE817F907B0F471
:103F7000F093D007E093CF07F901718360830CC001
:103F8000CB010CDE7C01009749F0A801BE011BD0DB
:103F9000CE0199DEC70104C0CE0102C080E090E0EE
:103FA000DF91CF911F910F91FF90EF90DF90CF9015
:103FB000BF90AF909F908F907F906F90089581E019
:103FC00090E0F89433C0FB01DC0102C001900D9237
:103FD00041505040D8F70895FB01DC018D910190CC
:103FE00080190110D9F3990B0895FB01DC010190B0
:103FF0000D920020E1F70895FB0151915523A9F09E
:10400000BF01DC014D9145174111E1F759F4CD0194
:104010000190002049F04D9140154111C9F3FB0179
:104020004111EFCF81E090E00197089512E0C2E1E5
:10403000D2E000E005C0802FFE01A8DD2196011D21
:0E404000C331D10780E00807B1F7F894FFCF35
:10404E00B704B704B70401010000D30780000000D5
:10405E000000990300000000E0029E0C5E022603A1
:10406E008F026D02810241542B5253540D0A0041AE
:10407E00540D0A0041542B43574D4F44453D310DCD
:10408E000A00757365724E616D6500737369640025
:10409E007073770041542B43575141500D0A004124
:1040AE00542B43574A41503D2200222C2200220D10
:1040BE000A004F4B0041542B43574A41503F0D0AC3
:1040CE0000736C617665207375636365737300416D
:1040DE00542B43494653520D0A00736C617665208A
:1040EE006661696C00445331382043616E206E6FF7
:1040FE00742066696E642100435243206973206EFA
:10410E006F742076616C696421002020636F756E78
:10411E0074203A2000726571756573742066726F33
:10412E006D206D6173746572203A20006175746F35
:10413E006D617469635F6C6564203D207472756592
:10414E00006175746F6D617469635F6C6564203DA9
:10415E002066616C7365006175746F6D617469635F
:10416E005F66616E203D2074727565006175746FB7
:10417E006D617469635F66616E203D2066616C736C
:10418E006500726571756573742066726F6D206D52
:10419E006173746572203A206572726F7200380016
:1041AE003900340035004C4544206D6F6465203A6B
:1041BE00200057617465722054656D70657261746C
:1041CE00757265203A20004448542054656D706520
:1041DE00726174757265203A200044485420487507
:1041EE006D6964697479203A200046616E205374BB
:1041FE00617465203A2000504F542056616C7565ED
:10420E00203A20004C4544207374617465203A2096
:10421E00005761746572204C6576656C203A2000FB
:10422E0025003D3D3D3D446174612053656E6469DA
:10423E006E672073746172743D3D3D3D3D00415487
:10424E002B43495053544152543D22544350220063
:10425E003139322E3136382E342E3100222C003F99
:10426E00743D0026683D002677743D0026776C3D30
:10427E000026653D004745542000436F6E6E656312
:10428E0074696F6E3A636C6F73650D0A0D0A0041A7
:10429E00542B43495053454E443D003D3D3D3D3D1D
:1042AE00446174612073656E64696E6720656E6427
:1042BE002E2E3D3D3D3D3D003D3D3D3D44617461F5
:1042CE002073656E64696E67206661696C2E2E3D83
:1042DE003D3D3D004453313820436F6E6E6563742F
:1042EE0065642E006E756C6C0022225C5C62086642
:1042FE000C6E0A720D740900636F6E74726F6C200F
:10430E00646174612073656E6420746F20436F6EF8
:10431E0074726F6C426F617264203A20002F736565
:08432E006E642E70687000003F
:00000001FF
