:1000000012C2000041C200003FC200003DC2000019
:100010003BC2000039C2000037C2000035C20000F8
:1000200033C200000C94150B0C94150B0C94150B9B
:100030002BC2000029C2000027C2000025C2000018
:1000400023C2000021C200001FC200001DC2000028
:100050001BC2000019C2000017C200000C94CB0A9A
:1000600013C200000C94A5090C947C090DC2000079
:100070000BC2000009C2000007C2000005C2000058
:1000800003C2000001C20000FFC10000FDC100006A
:100090000C9453090C942A09F7C10000F5C1000023
:1000A000F3C10000F1C10000EFC10000EDC100008C
:1000B000EBC10000E9C10000E7C10000E5C100009C
:1000C000E3C10000E1C10000DFC100000C940109A0
:1000D0000C94D808D9C100000C94AF080C94860881
:1000E000D3C10000FD09000AEF09F309F709370A37
:1000F000040A080A0E0A120A160A1C0A200A240A0E
:10010000370A2A0A2E0A320A00407A10F35A00A04F
:10011000724E18090010A5D4E80000E876481700D0
:1001200000E40B54020000CA9A3B000000E1F50510
:10013000000080969800000040420F000000A0865A
:1001400001000000102700000000E803000000008C
:100150006400000000000A00000000000100000030
:1001600000002C76D888DC674F0823DFC1DFAE594A
:10017000E1B1B796E5E3E453C63AE651997696E8DD
:10018000E6C28426EB898C9B62ED407C6FFCEFBC61
:100190009C9F40F2BAA56FA5F490055A2AF75C938C
:1001A0006B6CF9676DC11BFCE0E40D47FEF520E6C2
:1001B000B500D0ED902E0300943577050080841EA5
:1001C000080000204E0A000000C80C333333330F00
:1001D000986E12831141EF8D2114893BE65516CF9D
:1001E000FEE6DB18D1844B381BF77C1D901DA4BBA9
:1001F000E424203284725E228100C9F124ECA1E55E
:100200003D27005EBCE2613FDD83C29C7E20A3FDF2
:100210001F419DC3217FFCA2401E5F01E3BD3E60E4
:1002200082DC237D9FC1421CFEA0E1BF5D0380DE16
:100230003C62BEE0025CDF81633D7C22C09E1D43C8
:10024000A1FF4618FAA427799BC584DA3866E5BB76
:100250005907DB856739BAE406581947A5FB7826A4
:10026000C49A653BD987045AB8E6A7F91B45C698D6
:100270007A24F8A6441A99C7257B3A6486D85B0588
:10028000E7B98CD2306EEDB3510F4E10F2AC2F7136
:1002900093CD114FADF3702ECC92D38D6F31B2EC64
:1002A0000E50AFF1134DCE90722C6D33D18F0C5296
:1002B000B0EE326C8ED0530DEFB1F0AE4C1291CF48
:1002C0002D73CA947628ABF517490856B4EA6937F6
:1002D000D58B5709EBB536688AD495CB2977F4AA24
:1002E0004816E9B7550B88D6346A2B7597C94A1456
:1002F000F6A8742AC896154BA9F7B6E80A54D78908
:100300006B35000020002300260029002C002F0060
:100310003200000100000301060109010505050581
:10032000070508080808020202020A0A080804046D
:10033000040401010101010101010303030303039B
:100340000303040707070C0C0C0C0C0C0C0C02022A
:10035000020206060606060606060B0B0B0B0B0B27
:100360000B0B0102102020080810204010204080B4
:100370000201020108040201010204081020408069
:1003800080402010080402018004020180402010F7
:100390000804020108040201010204081020408040
:1003A00001020408102040800000210024002700E2
:1003B0002A002D0030003300010100000401070174
:1003C0000A0100002200250028002B002E00310029
:1003D000340002010000050108010B0100000A0BB6
:1003E00002090C0D0E0807030401000000000000C4
:1003F00000000000000000000000000000000000FD
:1004000000000000000000001211100000000000B9
:1004100000000000000000000000000000000000DC
:100420000000FB173D1911241FBECFEFD1E2DEBF44
:10043000CDBF00E00CBF28E0A6E1B5E001C01D92F1
:10044000A130B207E1F715E0A0E0B2E0E0ECF0E4A3
:1004500000E00BBF02C007900D92A631B107D9F79B
:1004600012E0C2E1D2E000E006C021970109802F2E
:10047000FE010E94FF1DC131D10780E00807A9F7E6
:100480000E94DE0E0C944F20BBCD8F929F92AF92B4
:10049000BF92CF92DF92EF92FF92CF93DF93A09122
:1004A000CF07882311F03A2F01C030E08091D007A8
:1004B00090E0880F991F8E5F9C4FC090D507D09019
:1004C000D607E090D707F090D80740E050E0BA0197
:1004D000FC01C591D49128812A2323130FC04A011E
:1004E0005B012FEF821A920AA20AB20A4C155D052F
:1004F0006E057F0538F4B501A401EACF342F252F0E
:10050000CB0104C030E020E080E090E0632F722F48
:10051000DF91CF91FF90EF90DF90CF90BF90AF90A1
:100520009F908F90089542E050E06AE774E081E187
:1005300097E00C94450DCF93DF93009779F0FC0181
:1005400001900020E9F73197AF01481B590BBC011E
:1005500081E197E00E94450DEC0102C0C0E0D0E0CF
:1005600042E050E06AE774E081E197E00E94450DC7
:100570008C0F9D1FDF91CF9108959091BA07E09164
:10058000BB07F091BC07392F309580FF13C0F8945A
:100590002281832F822382838181892B8183A3E21D
:1005A000B0E01197F1F78281982B9283789487EDD0
:1005B00090E012C0F8942281832F8223828381816C
:1005C000892B8183AFEFB0E01197F1F78281982BEF
:1005D000928378948FE090E00197F1F708958091ED
:1005E000BA07E091BB07F091BC07F8949181982B72
:1005F00091832281982F909529232283A7E0B0E050
:100600001197F1F7218192239183A3E2B0E0119732
:10061000F1F790817894EFECF0E03197F1F79823BF
:1006200081E009F480E00895EF92FF920F931F9309
:10063000CF93DF931F92CDB7DEB7082F88E0E82E67
:10064000F12C11E081E0912F902309F480E069837F
:1006500094DF110F81E0E81AF1086981E114F104D7
:1006600089F7611113C0F894E091BB07F091BC07C2
:1006700091818091BA07809598239183E091BB077F
:10068000F091BC0792818923828378940F90DF9147
:10069000CF911F910F91FF90EF9008959091BA071D
:1006A000E091BB07F091BC07F8948181292F209538
:1006B0008223818378948DE743E050E0815021F1DB
:1006C000DA011197F1F730813923C1F3F89482816F
:1006D000822382838181892B81837894ABE7B7E081
:1006E0001197F1F7F894818128232183A3E1B1E0E8
:1006F0001197F1F78081982381E009F080E07894E8
:10070000E3E6F6E03197F1F708950F931F9337D79B
:1007100060937C0670937D0680937E0690937F069F
:10072000E0917406F09175060484F585E02D84E768
:1007300096E0199597FF1EC022D700917C06109174
:100740007D0620917E0630917F06DC01CB01801B67
:10075000910BA20BB30B00917806109179062091B2
:100760007A0630917B0680179107A207B307C0F283
:100770008FEF9FEF1F910F910895FC01A089B18920
:1007800082E08C93A485B5851C92A685B7858FECF5
:100790008C93108EA489B58986E08C93A289B38945
:1007A0008C9180618C93A289B3898C9188608C93A1
:1007B000A289B3898C9180688C930288F389E02D9B
:1007C00080818F7D80830895CF93DF93BC0181E189
:1007D00097E00E948B0EEC0142E050E06AE774E083
:1007E00081E197E00E94450D8C0F9D1FDF91CF9115
:1007F00008951F93CF93DF9360E085E515DFC2E393
:10080000D5E01C2F185F60E089910EDF1C13FBCF31
:10081000DF91CF911F9108959F92AF92BF92CF9297
:10082000DF92EF92FF920F931F93CF93DF9300D04D
:1008300000D0CDB7DEB7FC019681992309F4DAC068
:100840006B017F01915096835F0182E0A80EB11C7D
:10085000C5011CD7D7011296ED91FC9113978081A9
:100860008B3521F08B3709F494C09DC0F7010081CE
:100870001181B80184E090E00E94780C009751F05B
:10088000DC0111961C930E9313961C921E921297E4
:100890008C0111C08091DE0781110BC01092DB0723
:1008A0001092DA071092DD071092DC0781E0809346
:1008B000DE070AED17E06BE5C5012AD7882309F4A6
:1008C00048C06DE5C50124D7811154C086E0982E3B
:1008D0001A821982BE016F5F7F4FC7019DDF882397
:1008E000C1F1F8016081718188E090E00E94780C8C
:1008F000DC01892B39F011961C921E9213961C92E2
:100900001E921297F801228133812115310551F091
:10091000F90180819181009711F09C01F9CFB18399
:10092000A08303C0F801B383A283109791F0FE0166
:1009300031961296892D01900D928A95E1F76DE519
:10094000C501E6D6811116C06CE2C501E1D6811160
:10095000BFCF8091DE0781110BC01092DB07109290
:10096000DA071092DD071092DC0781E08093DE0742
:100970000AED17E0D8018D919C91892B11F410E0BC
:1009800031C086E090E0F601918380831383028377
:1009900028C0C701BCD7DC012D913C91232B79F3F2
:1009A00027E030E019C011E0873219F0823209F0F7
:1009B00010E0C701CBD6009711F3112359F022E0C4
:1009C00030E0D60111963C932E9313969C938E9310
:1009D000129708C021E030E0F60131832083938331
:1009E000828311E0D70116968C9116978F5F169629
:1009F0008C9301C010E0812F26960FB6F894DEBFCD
:100A00000FBECDBFDF91CF911F910F91FF90EF905F
:100A1000DF90CF90BF90AF909F900895CF92DF92DC
:100A2000EF92FF920F931F93CF93DF9300D000D0EC
:100A3000CDB7DEB78C017B016FEE74E02B833C8376
:100A40004D835E830E94770EB70187ED95E00E948B
:100A50008B0E95D52B813C814D815E816B017C0194
:100A6000C20ED31EE41EF51E8AD56C157D058E05BB
:100A70009F0598F487ED95E00ED2892BA9F387EDB9
:100A800095E0E7D189831A8241E050E0BE016F5FB3
:100A90007F4FC8010E94970DEDCFC80195DEC801B8
:100AA00026960FB6F894DEBF0FBECDBFDF91CF9173
:100AB0001F910F91FF90EF90DF90CF900895CF920C
:100AC000DF92EF92FF920F931F93CF93DF93CDB7F7
:100AD000DEB7C054D1400FB6F894DEBF0FBECDBF15
:100AE0004ED50091D1071091D2072091D3073091B4
:100AF000D4076B017C01C01AD10AE20AF30A40ED67
:100B0000C41647E0D406E104F10418F48091D90733
:100B1000B1C06093D1077093D2078093D3079093AD
:100B2000D4071092CC071092CB071092CA071092EC
:100B3000C9071092C80761E08091CD072FD46AEFF2
:100B400070E080E090E0E3D461E08091CD07A3D431
:100B500060E08091CD0722D464E170E080E090E015
:100B6000D6D4F89461E08091CD0718D48BE990E059
:100B70000197F1F762E08091CD078DD483E290E098
:100B80000197F1F780E081DC672B682B692B21F45A
:100B90001092D90778943BC081E077DC672B682BF3
:100BA000692BB1F38E010F5F1F4F6E018FEBC81AD7
:100BB0008EEFD80A780180E068DCF70160837183EA
:100BC0008283938381E061DCF7016483758386838C
:100BD0009783F8E0EF0EF11CEC14FD0461F77894B4
:100BE00020E030E0F8014081518162817381C4804E
:100BF000D580E680F780411551056105710529F022
:100C0000C114D104E104F10421F41092D90780E069
:100C100031C0F90183E0F595E7958A95E1F7E8534E
:100C2000F84F8081880F4C155D056E057F0508F42F
:100C3000816080832F5F3F4F085F1F4F283231054F
:100C400089F62091CC0730E04091C8078091C90710
:100C500090E0840F911D4091CA07840F911D40912F
:100C6000CB07840F911D99272817390771F681E06A
:100C70008093D907C05CDE4F0FB6F894DEBF0FBE7D
:100C8000CDBFDF91CF911F910F91FF90EF90DF903B
:100C9000CF900895CF93DF93FC0124813581232BDE
:100CA00071F0FB01DC01CD91DC9160817181CE019D
:100CB0000E943520009719F08C1B9D0B02C08FEF0E
:100CC0009FEFDF91CF910895EF92FF920F931F93C3
:100CD000CF93DF93CDB7DEB764970FB6F894DEBF3E
:100CE0000FBECDBF7C01CB01BA018E010F5F1F4F3C
:100CF00022E044E00E944519FC0101900020E9F740
:100D00003197AF01481B590BBC01C70110D78111A6
:100D100002C0C70139D7C70164960FB6F894DEBF89
:100D20000FBECDBFDF91CF911F910F91FF90EF903C
:100D30000895EF92FF920F931F93CF93DF93CDB758
:100D4000DEB727970FB6F894DEBF0FBECDBF7C018C
:100D5000CB014AE08E010F5F1F4FB8010E946E1950
:100D6000F80101900020E9F73197AF01401B510BCA
:100D7000B801C701DCD6811102C0C70105D7C70180
:100D800027960FB6F894DEBF0FBECDBFDF91CF918F
:100D90001F910F91FF90EF900895EF92FF920F93A4
:100DA0001F93CF93DF93CDB7DEB728970FB6F89494
:100DB000DEBF0FBECDBF7C01CB014AE08E010F5FCD
:100DC0001F4FB8010E946419F80101900020E9F753
:100DD0003197AF01401B510BB801C701A8D6811153
:100DE00002C0C701D1D6C70128960FB6F894DEBF5E
:100DF0000FBECDBFDF91CF911F910F91FF90EF906C
:100E00000895FC01A089B1898C91A689B78982FDDA
:100E10000FC09C91818D8F5F8F73228D821749F057
:100E2000218DDF01A20FB11D5D969C93818F0895E6
:100E30008C910895FC01538D448D252F30E0842F33
:100E400090E0821B930B541710F0CF9608950197F2
:100E50000895FC01918D828D981761F0828DDF01DC
:100E6000A80FB11D5D968C91928D9F5F9F73928F9D
:100E700090E008958FEF9FEF0895FC01918D828D92
:100E8000981731F0828DE80FF11D858D90E008955F
:100E90008FEF9FEF0895FC01918D228D892F90E0B7
:100EA000805C9F4F821B91098F73992708958AE375
:100EB00095E0F1DF21E0892B09F420E0822F0895ED
:100EC00087ED95E0E8DF21E0892B09F420E0822F0F
:100ED000089584E796E0DFDF21E0892B09F420E024
:100EE000822F089581E197E0D6DF21E0892B09F474
:100EF00020E0822F0895FC01848DDF01A80FB11D31
:100F0000A35ABF4F2C91848D90E001968F7399273F
:100F1000848FA689B7892C93A089B1898C9180642C
:100F20008C93938D848D981306C00288F389E02DED
:100F300080818F7D80830895EF92FF920F931F939E
:100F4000CF93DF93EC0181E0888F9B8D8C8D98137C
:100F500005C0E889F989808185FD23C0F62E0B8DB7
:100F600010E00F5F1F4F0F731127E02E8C8DE812DA
:100F70000BC00FB607FCFACFE889F989808185FF9D
:100F8000F5CFCE01B8DFF2CF8B8DFE01E80FF11D5A
:100F9000E35AFF4FF0820B8FEA89FB8980818062E0
:100FA00007C0EE89FF896083E889F98980818064C0
:100FB000808381E090E0DF91CF911F910F91FF90AE
:100FC000EF900895CF93DF93EC01888D8823C1F0D3
:100FD000EA89FB89808185FD05C0A889B9898C9142
:100FE00086FD0EC00FB607FCF5CF808185FFF2CFDE
:100FF000A889B9898C9185FFEDCFCE017CDFE8CF40
:10100000DF91CF91089580E090E0892B19F06ADF9D
:10101000811116C080E090E0892B19F05ADF811110
:1010200012C080E090E0892B19F04ADF81110EC0D8
:1010300080E090E0892B79F03ADF81110AC00895B1
:101040000E940000E7CF0E940000EBCF0E9400004A
:10105000EFCF0C94000008953FB7F8948091F90702
:101060009091FA07A091FB07B091FC0726B5A89BC9
:1010700005C02F3F19F00196A11DB11D3FBFBA2F2A
:10108000A92F982F8827820F911DA11DB11DBC018A
:10109000CD0142E0660F771F881F991F4A95D1F74F
:1010A0000895089580E090E00895FC01268137813D
:1010B000620F731F848195818617970738F08281AC
:1010C000938177836683820F931F089580E090E079
:1010D00008950E9418200F931F93CF93DF938B01E5
:1010E000FC01C281D381209759F06A817B81C801BC
:1010F0000E942520892B21F00990D881C02DF3CFA3
:10110000CE01DF91CF911F910F9108951F920F9201
:101110000FB60F9211240BB60F922F933F934F935C
:101120005F936F937F938F939F93AF93BF93EF934F
:10113000FF938AE395E0DFDEFF91EF91BF91AF91DE
:101140009F918F917F916F915F914F913F912F91DF
:101150000F900BBE0F900FBE0F901F9018951F920F
:101160000F920FB60F9211240BB60F922F933F934D
:101170004F935F936F937F938F939F93AF93BF939F
:10118000EF93FF938AE395E03CDEFF91EF91BF91EF
:10119000AF919F918F917F916F915F914F913F910F
:1011A0002F910F900BBE0F900FBE0F901F901895B0
:1011B0001F920F920FB60F9211240BB60F922F931E
:1011C0003F934F935F936F937F938F939F93AF93CF
:1011D000BF93EF93FF9387ED95E08DDEFF91EF9145
:1011E000BF91AF919F918F917F916F915F914F913F
:1011F0003F912F910F900BBE0F900FBE0F901F903D
:1012000018951F920F920FB60F9211240BB60F92E2
:101210002F933F934F935F936F937F938F939F93FE
:10122000AF93BF93EF93FF9387ED95E0EADDFF91D6
:10123000EF91BF91AF919F918F917F916F915F914E
:101240004F913F912F910F900BBE0F900FBE0F90BB
:101250001F9018951F920F920FB60F9211240BB684
:101260000F922F933F934F935F936F937F938F933F
:101270009F93AF93BF93EF93FF9384E796E03BDE9A
:10128000FF91EF91BF91AF919F918F917F916F915E
:101290005F914F913F912F910F900BBE0F900FBE1A
:1012A0000F901F9018951F920F920FB60F92112456
:1012B0000BB60F922F933F934F935F936F937F9350
:1012C0008F939F93AF93BF93EF93FF9384E796E041
:1012D00098DDFF91EF91BF91AF919F918F917F9199
:1012E0006F915F914F913F912F910F900BBE0F9097
:1012F0000FBE0F901F9018951F920F920FB60F926E
:1013000011240BB60F922F933F934F935F936F93DC
:101310007F938F939F93AF93BF93EF93FF9381E15D
:1013200097E0E9DDFF91EF91BF91AF919F918F9190
:101330007F916F915F914F913F912F910F900BBED5
:101340000F900FBE0F901F9018951F920F920FB61F
:101350000F9211240BB60F922F933F934F935F93ED
:101360006F937F938F939F93AF93BF93EF93FF936D
:1013700081E197E046DDFF91EF91BF91AF919F91A1
:101380008F917F916F915F914F913F912F910F902E
:101390000BBE0F900FBE0F901F901895362F90E048
:1013A000FC01E452FC4F4491FC01EE59FC4F2491A6
:1013B000FC01E45EFC4F9491992309F46BC0442333
:1013C00009F455C050E0FA013197E231F10508F017
:1013D0004EC08827EE58FF4F8F4F0C94FF1D809111
:1013E00080008F7707C0809180008F7D03C080913F
:1013F0008000877F809380003AC084B58F7702C0D9
:1014000084B58F7D84BD33C08091B0008F7703C0D9
:101410008091B0008F7D8093B00029C080919000B2
:101420008F7707C0809190008F7D03C080919000DE
:10143000877F809390001BC08091A0008F7707C0AA
:101440008091A0008F7D03C08091A000877F809352
:10145000A0000DC0809120018F7707C080912001EE
:101460008F7D03C080912001877F80932001E92F29
:10147000F0E0EE0FFF1FEE53FC4FA591B4918FB734
:10148000F894EC91311103C020952E2301C02E2B2E
:101490002C938FBF0895CF93DF9390E0FC01EE591A
:1014A000FC4F2491FC01E45EFC4F8491882361F1A0
:1014B00090E0880F991FFC01E855FC4FC591D4912D
:1014C000FC01EE53FC4FA591B491611109C09FB787
:1014D000F8948881209582238883EC912E230BC079
:1014E000623061F49FB7F8943881822F809583230E
:1014F0008883EC912E2B2C939FBF06C08FB7F89456
:10150000E8812E2B28838FBFDF91CF9108958F9292
:101510009F92AF92BF92CF92DF92EF92FF926B01B8
:101520007C019ADD4B015C01C114D104E104F1049A
:10153000E9F092DDDC01CB0188199909AA09BB0900
:10154000883E9340A105B10578F321E0C21AD10885
:10155000E108F10888EE880E83E0981EA11CB11CFA
:10156000C114D104E104F10421F7DECFFF90EF9024
:10157000DF90CF90BF90AF909F908F9008952FB73E
:10158000F8946091F5077091F6078091F7079091B4
:10159000F8072FBF08951F920F920FB60F921124D4
:1015A0002F933F938F939F93AF93BF938091F507B2
:1015B0009091F607A091F707B091F8073091F407E2
:1015C00023E0230F2D3720F40196A11DB11D05C086
:1015D00026E8230F0296A11DB11D2093F4078093E6
:1015E000F5079093F607A093F707B093F80780915B
:1015F000F9079091FA07A091FB07B091FC070196BB
:10160000A11DB11D8093F9079093FA07A093FB07E2
:10161000B093FC07BF91AF919F918F913F912F9114
:101620000F900FBE0F901F9018951F920F920FB63C
:101630000F9211240F900FBE0F901F9018950F93CB
:101640001F93CF93DF9347DDEC01892BC1F00C8111
:101650001D810130110559F46E817F81611571057D
:1016600031F08CED94E00E942520892B41F001504F
:1016700011090230110518F48E819F8102C080E0AB
:1016800090E0DF91CF911F910F910895FC01A0810F
:10169000B1818C918D3051F024F489508230B8F5AD
:1016A00005C0803219F08F3219F0089511962CC0C0
:1016B00011968C9111978A3219F08F32D1F00895DA
:1016C0001196B183A083A081B181CD010196918350
:1016D000808311968C9111978823C9F08A3299F7EB
:1016E00012968C9112978F3271F713960DC08A3033
:1016F00071F2A081B181CD01019691838083119611
:101700008C918111F4CF03C0B183A083C0CF089521
:101710000F931F93CF93DF931F92CDB7DEB78C014A
:101720006983B4DFD801ED91FC91119780816981C3
:10173000861305C03196ED93FC9381E001C080E0F3
:101740000F90DF91CF911F910F910895EF92FF922B
:101750000F931F93CF93DF938C01DC011496CD91EF
:10176000DC911597EA80FB808E819F81E80EF91E3F
:10177000C80102968BDFD8011296ED91FC91139768
:101780009081973291F1923281F180ED890F8A3008
:1017900060F0892F8F7D81548A3138F09B3229F097
:1017A00083ED890F823008F060C0F8012281338117
:1017B0002F5F3F4F338322832E813F81A9014F5FEB
:1017C0005F4F6C817D816417750740F06A817B8172
:1017D000FB01E20FF31F5F834E839083D8011296C3
:1017E000ED91FC9113979081D0CF3196D80113964B
:1017F000FC93EE931297D8011296ED91FC911397FA
:101800002081222391F1AF014F5F5F4F13965C93CC
:101810004E931297291749F12C35A9F42181A5EE91
:10182000B4E08C91882339F0821303C011962C9177
:1018300002C01296F6CF2223C1F03296D801139639
:10184000FC93EE9312974E815F81BA016F5F7F4FD9
:10185000EC81FD81E617F70770F2EA81FB81E40F66
:10186000F51F7F836E832083C6CF8E819F819C016D
:101870002F5F3F4F4C815D814217530748F04A81EB
:101880005B81FA01E80FF91F3F832E83108202C0AB
:10189000E12CF12CC701DF91CF911F910F91FF90A7
:1018A000EF9008950F931F93CF93DF9300D000D054
:1018B000CDB7DEB78C0160EF74E0CE01019617D290
:1018C000B801CE01019689D10E94E403CE010196B0
:1018D000B4D1B8018AE395E01ED226960FB6F894EB
:1018E000DEBF0FBECDBFDF91CF911F910F91089545
:1018F000DB01109749F0ED91FC9111970190F08177
:10190000E02DBC01CD01199480E090E008959F92F4
:10191000AF92BF92CF92DF92EF92FF920F931F93FD
:10192000CF93DF9300D000D0CDB7DEB76C01FC01C0
:1019300000811181B80184E090E0DADF009739F08E
:10194000FC0111830083138212828C0111C08091EB
:10195000EA0781110BC01092E7071092E607109278
:10196000E9071092E80781E08093EA0706EE17E0A6
:101970007601F2E0EF0EF11C6BE7C701C9DE8823A8
:1019800009F45FC06DE7C701C3DE81116BC086E05B
:10199000982EC601DBDE5C01892B09F452C06AE394
:1019A000C701B6DE882309F44CC01A821982BE0131
:1019B0006F5F7F4FC6010E940C04882309F441C069
:1019C000B501C80188DBDC01892B49F5F80160818C
:1019D00071818AE090E08CDFDC01892B39F011966F
:1019E0001C921E9215961C921E921497F801228149
:1019F00033812115310551F0F901808191810097E2
:101A000011F09C01F9CFB183A08303C0F801B38327
:101A1000A2831097B1F01396BC92AE921297FE017A
:101A200031961496892D01900D928A95E1F76DE714
:101A3000C7016EDE811116C06CE2C70169DE81113B
:101A4000A8CF8091EA0781110BC01092E70710928E
:101A5000E6071092E9071092E80781E08093EA0711
:101A600006EE17E0C80126960FB6F894DEBF0FBE4B
:101A7000CDBFDF91CF911F910F91FF90EF90DF903D
:101A8000CF90BF90AF909F900895CF92DF92EF924A
:101A9000FF920F931F93CF93DF936C017A018B0119
:101AA000C0E0D0E0CE15DF0589F0D8016D918D0141
:101AB000D601ED91FC910190F081E02DC6011995C0
:101AC000892B11F47E0102C02196ECCFC701DF9172
:101AD000CF911F910F91FF90EF90DF90CF900895DD
:101AE0000F931F93CF93DF93EC0188819981009727
:101AF00029F02A813B812617370788F48B016F5F15
:101B00007F4F0E94341F009761F0998388831B8365
:101B10000A832C813D81232B11F4FC01108281E08A
:101B200001C080E0DF91CF911F910F910895EF9256
:101B3000FF920F931F93CF93DF93FC012481358194
:101B40006115710511F480E018C041155105A1F02F
:101B50007B01EC018A01020F131FB801C1DF88234A
:101B600091F3288139818C819D81B701820F931F68
:101B70000E942E201D830C8381E0DF91CF911F9165
:101B80000F91FF90EF900895CF93DF93EC01888140
:101B90009981009711F00E949C1E198218821D8263
:101BA0001C821B821A82DF91CF910895CF93DF931D
:101BB000EC016115710559F0FB0101900020E9F776
:101BC0003197AF01461B570BB2DF811102C0CE0126
:101BD000DBDFCE01DF91CF910895CF93DF93EC014E
:101BE000FB014481558160817181A1DF811102C0B7
:101BF000CE01CADFCE01DF91CF910895EF92FF921F
:101C00000F931F93CF93DF93EC017B018A01BA01FD
:101C100067DF811103C0CE01B7DF07C01D830C83CE
:101C2000B701888199810E942E20CE01DF91CF914A
:101C30001F910F91FF90EF900895FC018081918199
:101C40000C949C1EEF92FF920F931F93CF93DF9300
:101C5000CDB7DEB7A1970FB6F894DEBF0FBECDBFEC
:101C60007C01CB01BA01F70111821082138212822A
:101C70001582148242E0420F8E010F5F1F4F0E94B7
:101C80004519009761F0FC0101900020E9F73197B8
:101C9000AF01481B590BBC01C701B0DF02C0C7012F
:101CA00073DFA1960FB6F894DEBF0FBECDBFDF91F4
:101CB000CF911F910F91FF90EF900895FB01DC01F0
:101CC00011961C921E9213961C921E9212971596B4
:101CD0001C921E9214978617970741F060817181BC
:101CE0006115710519F04481558188CF0895FC0173
:101CF000118210821382128215821482611571057D
:101D000049F0FB0101900020E9F73197AF01461B34
:101D1000570B74CF0895DC01ED91FC91DB01149613
:101D20004D915C9115976D917C910280F381E02D2E
:101D30001994CF92DF92EF92FF920F931F93E82FA7
:101D4000F92F05C0015011092109310961F1908174
:101D500096239417B9F305C00150110921093109DF
:101D600011F1908196239413F7CFC12CD12CE12C43
:101D7000F12C0AC08FEFC81AD80AE80AF80A0C1525
:101D80001D052E053F0579F080818623841791F388
:101D90006C2D7D2D8E2D9F2D1F910F91FF90EF901B
:101DA000DF90CF90089560E070E080E090E01F91B8
:101DB0000F91FF90EF90DF90CF900895CF93DF9336
:101DC000CDB7DEB7C75AD1090FB6F894DEBF0FBE44
:101DD000CDBF789484B5826084BD84B5816084BDB4
:101DE00085B5826085BD85B5816085BD80916E00B9
:101DF000816080936E0010928100809181008260EA
:101E00008093810080918100816080938100809126
:101E100080008160809380008091B1008460809315
:101E2000B1008091B00081608093B00080919100FA
:101E300082608093910080919100816080939100F5
:101E4000809190008160809390008091A1008260D9
:101E50008093A1008091A10081608093A100809176
:101E6000A00081608093A000809121018260809316
:101E700021018091210181608093210180912001C5
:101E800081608093200180917A00846080937A0041
:101E900080917A00826080937A0080917A008160DC
:101EA00080937A0080917A00806880937A00109203
:101EB000C10081E197E00E94BD0384E796E00E94A3
:101EC000BD0387ED95E00E94BD038AE395E00E9483
:101ED000BD0368EE73E080E090E019DB67E272E03A
:101EE000CE0183599F4F03DF28EB3BE040E050E0F9
:101EF000BE0163597F4F8E010F5F1F4FC8010E94C3
:101F00000E05C8019ADECE0183599F4F96DE60E32D
:101F100072E0CE0183599F4FEADE20ED37E040E0CA
:101F200050E0BE0163597F4FC8010E940E05C801F1
:101F300084DECE0183599F4F80DE65E372E0CE01DF
:101F400083599F4FD4DE20ED37E040E050E0BE01E2
:101F500063597F4FC8010E940E05C8016EDECE0195
:101F600083599F4F6ADE84E796E00E944B07892BD6
:101F7000D1F360ED77E080E090E0C9DA84E796E0A5
:101F80000E944B07892B69F084E796E00E9429079D
:101F900089831A8241E050E0B8018EEA97E0C7DDFC
:101FA000EDCF8EEA97E00E94E403CE0109969C8370
:101FB0008B8384E690E09E838D8318861F8283E165
:101FC00092E09A8389838091AE079091AF07009742
:101FD00011F48FEE94E0AF961FAF0EAFAF97E1967E
:101FE0009FAF8EAFE197E3961FAF0EAFE3978AE006
:101FF000E4968FAFE497CE0183599F4F88DC7C0134
:1020000063E472E01CDB90930102809300026CE4B5
:1020100072E0C70114DB909303028093020261E532
:1020200072E0C7010CDB909305028093040265E522
:1020300072E0CE0183599F4F5ADE20ED37E040E039
:1020400050E0BE0163597F4FC8010E940E05C801D0
:10205000F4DDCE0183599F4FF0DDE0900402F09053
:102060000502C0900202D090030260E672E0CE0149
:1020700083599F4F3CDEBE0163597F4FC8011EDE6E
:10208000B601C80193DD6BE672E090DDB7018EDD2D
:102090006FE672E08BDDBC01CE0186589F4F0EDEED
:1020A000C801CBDDCE0183599F4FC7DDBE01665805
:1020B0007F4FCE0183599F4F01DE28E833E140E096
:1020C00050E0BE0163597F4FC8010E940E05C80150
:1020D000B4DDCE0183599F4FB0DD63E772E0C801E4
:1020E00006DE66E772E0CE018C589F4F00DE28EBDB
:1020F0003BE040E050E0BE016C587F4FCE01835979
:102100009F4F0E940E05B801CE0183599F4F0E9438
:102110004A067C01CE0183599F4F8FDDCE018C583A
:102120009F4F8BDDC80189DDEF20E09449F182E803
:1021300092E00E949B02E0917406F0917506019076
:10214000F081E02D61E384E796E0199560E972E0A3
:10215000CE0183599F4FCBDD20ED37E040E050E0CA
:10216000BE0163597F4FC8010E940E05C80165DD9D
:10217000CE0183599F4F61DD81E080932D050FC013
:102180008BE992E00E949B02E0917406F091750643
:102190000190F081E02D60E384E796E01995CE018F
:1021A00086589F4F4ADD61E087E175D960E086E19E
:1021B00072D962E08091CD076ED980E398EFAFEFDE
:1021C000BFEF8093D1079093D207A093D307B0932A
:1021D000D4078091C707811104C00E944E0381116A
:1021E0000DC01092C5071092C7071092C60786EA65
:1021F00092E00E949B021092160570C060E080EF92
:102200000E94140301E0F12CE12C11E00E94EF0286
:10221000CC55DF4F8883C45AD0400E94EF02CC5582
:10222000DF4F9881C45AD040913019F48130C1F405
:1022300035C02F2D30E098131DC08091C5071817A9
:1022400038F4F901E654F84F8381802349F402C041
:10225000181731F090E0193060F41093C60709C0E8
:10226000EF2DF0E0E654F84F8381802B838391E0DB
:1022700009C0E12EF901E654F84F2381802F8095A3
:1022800082238383892F0E94BD021F5F000F11F4F8
:10229000F39401E037E03F1508F0B8CF113408F4AB
:1022A000A0CFE092C507E11003C081E08093C7078B
:1022B0008091BD07882309F494CFADEBB7E0E2E34A
:1022C000F5E08D91819345E0EA33F407D1F782EC94
:1022D00094E00E949B0281E080931605CE01019656
:1022E0007C0182E395E067E0C62EC80E0E945F0580
:1022F000882309F440C08091CE078B3029F0D8F1B3
:102300008551823058F037C06091CA0770E080E094
:1023100090E00E94001C4B015C0133C01091CA0781
:10232000612F6F7770E080E090E00E94021C20E057
:1023300030E040E853E40E94611C4B015C01609175
:10234000CB0770E080E090E00E94021C9B01AC0192
:10235000C501B4010E942F1D2DEC3CEC4CEC5DE35B
:102360000E94611C4B015C0117FF0BC0B7FAB094CF
:10237000B7F8B09406C0812C912C50ECA52E5FE7E5
:10238000B52E0E945F058823E9F18091CE078B303E
:1023900049F108F444C08551823008F040C0609192
:1023A000C80770E080E090E00E94001C20E030E070
:1023B00040E853E40E94611C2B013C016091C90775
:1023C00070E080E090E00E94021C9B01AC01C30120
:1023D000B2010E942F1D2DEC3CEC4CEC5DE30E9401
:1023E000611C07C06091C80770E080E090E00E9427
:1023F000001CC856DF4F688379838A839B83C85942
:10240000D04019C020E030E040EC5FE7C856DF4F15
:10241000288339834A835B83C859D0400CC080E04D
:1024200090E0A0ECBFE7C856DF4F88839983AA836A
:10243000BB83C859D04089E0D7011D928A95E9F73E
:1024400080911605882309F46AC0A2E3B5E0E0E0B4
:10245000CA1639F08D91E827F0E0EE5FFD4FE49168
:10246000F7CF80913905E81729F089EB92E00E94B7
:102470009B025DC00E944E030E94F90361E084E468
:102480000E9414030E944E0368EE73E080E090E027
:102490003ED80E94F90360E08EEB0E9414032701EE
:1024A0003E01BAE06B0E711C08E010E03324339457
:1024B000D12C0E94EF028111D328330C0150110955
:1024C000C1F7F201D1922F01E615F70569F71092D5
:1024D000C5071092C7071092C607E5ECF7E0129205
:1024E00027E0ED3BF207D9F76A8170E0762F662787
:1024F0008981682B072E000C880B990B0E94021C07
:1025000020E030E040E85DE30E94611CC456DF4FEC
:10251000688379838A839B83CC59D04008C0C45692
:10252000DF4F188219821A821B82CC59D04061E099
:1025300087E10E94CE0983E290E00197F1F760E025
:1025400087E10E94CE09E8E7F3E06491E2E3F3E07B
:10255000E491F0E0EE0FFF1FEE5FFC4F8591949148
:1025600000E412E42FE030E0462FE3DB6115710553
:102570008105910549F0DC01CB010196A11DB11D3A
:10258000BC01CD019F7003C060E070E0CB010E94F0
:10259000001C20E030E048EE51E40E94931D20E052
:1025A00030E040E05FE30E94611C9B01AC0160E011
:1025B00070E080EA91E40E942E1D20E030E040E7C8
:1025C00051E40E94931D20E030E048EC52E40E9468
:1025D000611C60932E0570932F05809330059093B6
:1025E00031050E94BF0AC056DF4F688379838A8312
:1025F0009B83C05AD040EDE1F5E040E080E090E000
:1026000020917B00277F20937B00242F2064209340
:102610007C0020917A00206420937A0020917A0037
:1026200026FDFCCF209178005091790030E0352BC9
:1026300021933193820F931F4F5F443009F797FD29
:102640000396959587959595879590932605809304
:10265000250584E796E00E944B07892B09F404C105
:102660000E948503FC0197FD11C08D32910591F008
:10267000C0970A9778F0E0917406F091750602848D
:10268000F385E02D84E796E01995EACF412C512C93
:1026900032014DC020E030E0A90110E0E130F10549
:1026A00009F08AC4E0917406F09175060284F385FE
:1026B000E02D84E796E0CA55DF4F2883C65AD04004
:1026C000C955DF4F3883C75AD040CC55DF4F4883B8
:1026D000C45AD040CB55DF4F5883C55AD0401995C6
:1026E0000E948503FC01C097CA55DF4F2881C65A56
:1026F000D040C955DF4F3881C75AD040CC55DF4F45
:102700004881C45AD040CB55DF4F5881C55AD0407C
:102710000A9720F2E130F10509F2112309F468C4A7
:10272000442455243201421A530A640A750A82016C
:102730008091170590911805019690931805809344
:102740001705EC961FAE1EAEEC97EE961FAE1EAEB2
:10275000EE97C258DF4F19821882CE57D0404AE018
:10276000B701B2D5F70101900020E9F73197AF0129
:102770004E195F09B701CE0186589F4F3FDA6BECC7
:1027800072E0CE018C589F4FB2DA66ED72E0C7015D
:10279000AEDAB701CE0183599F4F90DAB201CE0174
:1027A00083599F4F0E94CD06BE016C587F4F15DAAA
:1027B000BE0166587F4F11DA6BE774E0F7D9BC01B0
:1027C00081E197E0A8DACE0183599F4F36DAC7013D
:1027D00034DACE018C589F4F30DACE0186589F4FA5
:1027E0002CDA0630110531F16CF402301105D1F00C
:1027F00003301105A9F582E093E00E949B0210923C
:10280000070232C00A301105E9F00B30110511F151
:102810000730110529F58DE293E00E949B0210928A
:10282000080222C08DEE92E00E949B0281E080931C
:1028300007021AC088E193E00E949B0281E0809326
:10284000080212C083E493E00E949B0281E080931F
:1028500006020AC089E593E00E949B0210920602DC
:1028600080E793E00E949B0284E796E00E94E207E3
:10287000809108028823A1F180912705811116C05B
:1028800020E030E040EB51E4C456DF4F68817981AD
:102890008A819B81CC59D0400E94FB1D181604F5FB
:1028A00081E0809327056CE873E013C020E030E0FE
:1028B00040EA51E4C456DF4F688179818A819B8167
:1028C000CC59D04099D718165CF0109227056EE8C5
:1028D00073E0C7010CDAC7010E94520CC701ADD9E1
:1028E00080910702882351F180912505909126055A
:1028F000893791058CF48091280581111FC060E90A
:1029000073E0C701F4D9C7010E94520CC70195D9E1
:1029100081E08093280512C08D3891057CF080916C
:102920002805882359F062E973E0C701E0D9C7019F
:102930000E94520CC70181D910922805D0902D0514
:10294000DD2009F436C38091290590912A05A091D4
:102950002B05B0912C05C056DF4F288139814A8163
:102960005B81C05AD040281B390B4A0B5B0BDA0144
:10297000C90181319742A105B10508F44BC100910D
:10298000070210E064E973E0CE0183599F4FAFD98D
:10299000BE0163597F4FC70191D9B801C7010E9499
:1029A000CD060E94E403C70148D9CE0183599F4F49
:1029B00044D90091280510E060EA73E0CE01835904
:1029C0009F4F95D9BE0163597F4FC70177D9B80191
:1029D000C7010E94CD066BE774E0E8D8BC0181E135
:1029E00097E099D9C70129D9CE0183599F4F25D99D
:1029F0000091270510E06DEA73E0CE0183599F4FE7
:102A000076D9BE0163597F4FC70158D9B801C701B4
:102A10000E94CD066BE774E0C9D8BC0181E197E064
:102A20007AD9C7010AD9CE0183599F4F06D96AEBDB
:102A300073E0CE0183599F4F5AD9BE0163597F4F2E
:102A4000C7013CD9C456DF4F488159816A817B81D7
:102A5000CC59D040C7010E9464066BE774E0A6D849
:102A6000BC0181E197E057D9C701E7D8CE0183596E
:102A70009F4FE3D86FEC73E0CE0183599F4F37D956
:102A8000BE0163597F4FC70119D9B501A401C70120
:102A90000E9464066BE774E089D8BC0181E197E08D
:102AA0003AD9C701CAD8CE0183599F4FC6D862EE22
:102AB00073E0CE0183599F4F1AD9BE0163597F4FEE
:102AC000C701FCD8C856DF4F488159816A817B8194
:102AD000C859D040C7010E9464066BE774E066D80D
:102AE000BC0181E197E017D9C701A7D8CE0183596E
:102AF0009F4FA3D8209125053091260520902305CE
:102B000030902405409021055090220560901F05CB
:102B10007090200500911D0510911E0562EF73E075
:102B2000CE0183599F4FCA55DF4F2883C65AD040E4
:102B3000C955DF4F3883C75AD040D9D8BE01635931
:102B40007F4FC701BBD8B801C7010E94CD0663E122
:102B500075E02CD8B3010E94CD0663E175E026D85C
:102B6000B2010E94CD0663E175E020D8B1010E9458
:102B7000CD0663E175E01AD8CA55DF4F2881C65AE1
:102B8000D040C955DF4F3881C75AD040B9010E94A3
:102B9000CD066BE774E00AD8BC0181E197E0BBD8B1
:102BA000C7014BD8CE0183599F4F47D840902E057F
:102BB00050902F0560903005709031056FEF73E0F5
:102BC000CE0183599F4F93D8BE0163597F4FC701F0
:102BD00075D8B301A201C7010E9464066EE074E0DB
:102BE0000E94D60DBC0181E197E095D8C70125D898
:102BF000CE0183599F4F21D80E9493020E949302D5
:102C00000E94BF0A6093290570932A0580932B05C3
:102C100090932C058091190590911A05A0911B05A0
:102C2000B0911C05C056DF4F288139814A815B81F4
:102C3000C05AD040281B390B4A0B5B0BDA01C90183
:102C400089399A43A105B10508F4B3C180E194E044
:102C50000E949B02009125051091260540902E05AB
:102C600050902F0560903005709031056CE274E053
:102C7000CE0183599F4F3BD8BE0163597F4FC70197
:102C80001DD86CE672E0C7010E94D60D6EE374E0B9
:102C90000E94D60D6AE474E00E94D60D60E570E0F3
:102CA0000E9499066AE774E00E94D60DBC01CE012D
:102CB0008E569F4F03D8C7010E941D0ECE01835927
:102CC0009F4F0E941D0E63E772E0C70110D8BE013E
:102CD0006E567F4FCE018C589F4F0E945E0E28E8A3
:102CE00033E140E050E0BE016C587F4FCE01835984
:102CF0009F4F0E940E05B701CE0183599F4F0E943E
:102D00004A061C01CE0183599F4F0E941D0ECE0121
:102D10008C589F4F0E941D0EC7010E941D0E23203C
:102D2000209431F487ED95E00E94E207D12C29C16F
:102D3000AF961FAE1EAEAF97E1961FAE1EAEE197E7
:102D4000E3961FAE1EAEE3974AE0B701C801BCD2BE
:102D5000F70101900020E9F73197AF014E195F09A3
:102D6000B701CE0183599F4F0E94FE0D22E0B301AF
:102D7000A201C7010E94220E22E0C456DF4F488103
:102D800059816A817B81CC59D040CE018C589F4FAC
:102D90000E94220E22E0C856DF4F488159816A8185
:102DA0007B81C859D040CE0186589F4F0E94220E89
:102DB00022E0B501A401CE0180589F4F0E94220E4F
:102DC0006DE474E0CE018A579F4F0E94770EBE01DA
:102DD00060587F4FCE018A579F4F0E94ED0D61E5ED
:102DE00074E00E94D60DBE0166587F4F0E94ED0D23
:102DF00065E574E00E94D60DBE016C587F4F0E94BD
:102E0000ED0D6AE574E00E94D60DB7010E94ED0D4C
:102E10006FE574E00E94D60DBE0163597F4F0E949A
:102E2000ED0DBC01CE0184579F4F0E945E0ECE0176
:102E30008A579F4F0E941D0ECE0180589F4F0E94BF
:102E40001D0ECE0186589F4F0E941D0ECE018C583C
:102E50009F4F0E941D0EC7010E941D0ECE01835977
:102E60009F4F0E941D0E63E674E0C7010E94770E1B
:102E700064EB77E0C7010E94ED0DBE0164577F4F00
:102E80000E94ED0D6AE774E00E94D60DBC01CE01F0
:102E900080589F4F0E945E0EC7010E941D0E44E1A4
:102EA00050E068E674E0CE0180589F4F0E94970D75
:102EB000CC57DF4F08811981C458D0406DE774E0CA
:102EC000CE0186589F4F0E94770EBE0166587F4FF5
:102ED000CE018C589F4F0E945E0EB801CE018C58D7
:102EE0009F4F0E9499066AE774E00E94D60DBC01CC
:102EF000CE0183599F4F0E945E0E28EE33E040E0E2
:102F000050E0BE0163597F4FC7010E940E05C70103
:102F10000E941D0ECE0183599F4F0E941D0ECE01AF
:102F20008C589F4F0E941D0ECE0186589F4F0E94C5
:102F30001D0EBE0160587F4FCE0183599F4F0E94E6
:102F40005E0E28EE33E040E050E0BE0163597F4F53
:102F5000C7010E940E05C7010E941D0ECE018359B4
:102F60009F4F0E941D0E87ED95E00E94E207CE0163
:102F700080589F4F0E941D0ECE0184579F4F0E9484
:102F80001D0ECE018E569F4F0E941D0EDD2019F0A2
:102F900089E894E002C086EA94E00E949B020E94C5
:102FA000BF0A6093190570931A0580931B059093CF
:102FB0001C050E9403089AC9ED32F105B9F0CF0152
:102FC000C0970A9708F06ECBAAE0B0E02ED52F018B
:102FD000FF0F66087708460E571E681E791EA3016C
:102FE000920120533109410951095CCB11E05ACBC0
:102FF00029013A019CCB10923D0510923C0548EE08
:1030000053E060E070E040933E0550933F056093CD
:1030100040057093410589E192E090933B058093D0
:103020003A0525E331E0309347052093460524E334
:1030300031E0309349052093480520E331E0309397
:103040004B0520934A0521E331E030934D05209351
:103050004C0522E331E030934F0520934E0526E3E3
:1030600031E0309351052093500510925305109292
:10307000540510925505109256051092DA051092DB
:10308000D9054093DB055093DC056093DD05709313
:10309000DE059093D8058093D70525ED30E0309379
:1030A000E4052093E30524ED30E03093E60520931A
:1030B000E50520ED30E03093E8052093E70521EDAC
:1030C00030E03093EA052093E90522ED30E03093BB
:1030D000EC052093EB0526ED30E03093EE052093D0
:1030E000ED051092F0051092F1051092F205109284
:1030F000F305109277061092760640937806509367
:10310000790660937A0670937B0690937506809398
:1031100074062DEC30E030938106209380062CEC71
:1031200030E0309383062093820628EC30E0309321
:1031300085062093840629EC30E03093870620939F
:1031400086062AEC30E030938906209388062EEC20
:1031500030E030938B0620938A0610928D061092F1
:103160008E0610928F0610929006109214071092FD
:103170001307409315075093160760931707709332
:103180001807909312078093110785EC90E09093B5
:103190001E0780931D0784EC90E090932007809396
:1031A0001F0780EC90E0909322078093210781EC29
:1031B00090E0909324078093230782EC90E0909313
:1031C00026078093250786EC90E09093280780934C
:1031D000270710922A0710922B0710922C071092A3
:1031E0002D0787E28093CD0786E18093CE07E9E83B
:1031F000F3E0E491E093CF07E3E4F3E0E491E093BC
:10320000D00780E89EE3A0E0B0E08093D5079093DC
:10321000D607A093D707B093D80760E08AE10E9451
:103220004B0AECE7F3E0E491E093BA07E6E3F3E05E
:10323000E491F0E0EE0FFF1FEE5FFC4F859194915B
:103240009093BC078093BB071092C5071092C707E5
:103250001092C607E5ECF7E0129287E0ED3BF80725
:10326000D9F762ED74E084EB97E00E94770E6FEE81
:1032700074E08EEA97E00C94770E8EEA97E00E9455
:103280001D0E84EB97E00C941D0EEF920F931F938D
:10329000CF93DF93E80147FD02C034E001C034E181
:1032A000E42F440FFF0BF7FF03C0F195E195F109FF
:1032B000E32E022F2E2FAE012AD0CE01DF91CF9127
:1032C0001F910F91EF900895BB274A3031F4992355
:1032D00022F4BDE2909581959F4F01C0BB27FB0171
:1032E0005527AA27880F991FAA1FA41710F0A41BFF
:1032F00083955051B9F7A05DAA3308F0A95DA19359
:10330000009779F7B111B1931192CB0165C24F9239
:103310005F926F927F929F92AF92BF92CF92DF9215
:10332000EF92FF920F931F93CF93DF93CDB7DEB74A
:1033300029970FB6F894DEBF0FBECDBF6A01122FDA
:10334000B02E2BE3201720F0FF24F394F00E02C0E0
:10335000BCE3FB2E0F2D27E0AE014F5F5F4F64D122
:10336000AC018981982F9970913031F0E1FC06C051
:10337000E0FE06C090E205C09DE203C09BE201C0F2
:1033800090E0EE2DE07183FF3CC0911102C083E01C
:1033900001C084E0811718F4212F281B01C020E010
:1033A000E1110BC0F601822F30E2882319F031932E
:1033B0008150FBCFC20ED11C20E0992329F0D60109
:1033C0009C93F60131966F01C6010396E2FE0AC096
:1033D0003EE4D6013C9341E411964C93119712962A
:1033E0003C9306C03EE6F601308341E641833283DA
:1033F000FC01322F40E2332309F442C041933150A3
:10340000FACF82FF44C0911102C083E001C084E082
:10341000811718F4212F281B01C020E0E1110BC0F7
:10342000F601822F30E2882319F031938150FBCFCF
:10343000C20ED11C20E0992329F0D6019C93F601FD
:1034400031966F01C6010396E2FE0BC039E4D60146
:103450003C933EE411963C93119736E412963C93CC
:1034600007C039E6F60130833EE6318336E6328323
:10347000FC01322F40E2332319F041933150FBCF4E
:10348000FC01E20FF11D10828EEF9FEFB7C0F1E05B
:10349000911101C0F0E06F2F70E01416150624F4AE
:1034A0009A012F5F3F4F02C021E030E0260F371F07
:1034B000BB2029F06B2D70E06F5F7F4F02C060E092
:1034C00070E0260F371F612F70E0261737071CF4B6
:1034D000121B212F01C020E03E2D387159F4D60176
:1034E000322F60E2332319F06D933150FBCFC20EBF
:1034F000D11C20E0FF2331F0D6019C93B6016F5F11
:103500007F4F6B01E1110BC0F601922F30E399233D
:1035100019F031939150FBCFC20ED11C20E09F2DAA
:10352000940F3A81782F7071A72E84FF03C0313336
:1035300009F49150191624F4993018F098E001C05C
:1035400091E0E42F852F57FF02C0E0E080E06E2F6E
:10355000782FE0E0F0E0AEE29A2E3A01691A7108A5
:103560002A01461A570A0B2D10E0119501951109F1
:103570006F3F8FEF780729F4D6019C92C601019620
:103580006C014617570784F0661677066CF47F01C6
:10359000E40CF51CA1E0B0E0AC0FBD1FEA0EFB1E71
:1035A000D7011196BC9002C090E3B92E6150710909
:1035B0003196C60101967C016017710724F0D6018F
:1035C000BC926C01D5CF6417750741F4363320F4F3
:1035D000353321F4A11002C081E3B82EF601B08288
:1035E000F701822F90E2882319F091938150FBCF4D
:1035F000F701E20FF11D108280E090E029960FB6EE
:10360000F894DEBF0FBECDBFDF91CF911F910F9118
:10361000FF90EF90DF90CF90BF90AF909F907F9002
:103620006F905F904F900895283008F027E033277F
:10363000DA01990F311D87FD9160009661057105D2
:1036400039F432602E5F3D9330E32A95E1F7089517
:103650009F3F30F080387105610509F03C5F3C5FA9
:103660003D93913008F08068911DDF93CF931F93B5
:103670000F93FF92EF92192F987F9695E92F9695C9
:103680009695E90FFF27EE59FE4F99273327EE2431
:10369000FF24A701E70105900894079428F4360F4A
:1036A000E71EF81E491F511D660F771F881F991FBF
:1036B0000694A1F70590079428F4E70EF81E491F19
:1036C000561FC11D770F881F991F661F0694A1F70B
:1036D0000590079428F4F80E491F561FC71FD11DE7
:1036E000880F991F661F771F0694A1F7059007940E
:1036F00020F4490F561FC71FD81F990F661F771F49
:10370000881F0694A9F784911095177041F0D695FB
:10371000C79557954795F794E7941A95C1F7E8E050
:10372000F1E068941590159135916591959105900A
:103730007FE27395E118F10A430B560BC90BD009D0
:10374000C0F7E10CF11E431F561FC91FD01D7EF4A8
:10375000703311F48A95E6CFE894015030F0080FE9
:103760000AF40027021708F4202F2395022F7A333A
:1037700028F079E37D932A95E9F710C07D932A9587
:1037800089F6069497956795379517951794E118DC
:10379000F10A430B560BC90BD00998F023957E9183
:1037A00073957A3308F070E37C932013B8F77E9119
:1037B00070617D9330F0839571E37D9370E32A957A
:1037C000E1F71124EF90FF900F911F91CF91DF91BE
:1037D000992787FD90950895DC01FC01672F719171
:1037E0007723E1F7329704C07C916D9370836291E7
:1037F000AE17BF07C8F3089540D008F481E00895DC
:10380000E89409C097FB3EF490958095709561957A
:103810007F4F8F4F9F4F9923A9F0F92F96E9BB2730
:103820009395F695879577956795B795F111F8CFAC
:10383000FAF4BB0F11F460FF1BC06F5F7F4F8F4F17
:103840009F4F16C0882311F096E911C0772321F00D
:103850009EE8872F762F05C0662371F096E8862FA5
:1038600070E060E02AF09A95660F771F881FDAF7FC
:10387000880F9695879597F90895990F0008550F29
:10388000AA0BE0E8FEEF16161706E807F907C0F0E6
:1038900012161306E407F50798F0621B730B840BEE
:1038A000950B39F40A2661F0232B242B252B21F4C8
:1038B00008950A2609F4A140A6958FEF811D811D68
:1038C00008950BD078C069D028F06ED018F09523F9
:1038D00009F05AC05FC01124A2C07ED0A0F3959F0A
:1038E000D1F3950F50E0551F629FF001729FBB27E7
:1038F000F00DB11D639FAA27F00DB11DAA1F649F93
:103900006627B00DA11D661F829F2227B00DA11D45
:10391000621F739FB00DA11D621F839FA00D611DCB
:10392000221F749F3327A00D611D231F849F600DEC
:10393000211D822F762F6A2F11249F5750408AF025
:10394000E1F088234AF0EE0FFF1FBB1F661F771FB1
:10395000881F91505040A9F79E3F510570F014C048
:103960005EC05F3FECF3983EDCF3869577956795F4
:10397000B795F795E7959F5FC1F7FE2B880F911DCF
:103980009695879597F9089597F99F6780E870E075
:1039900060E008959FEF80EC089500240A941616C5
:1039A000170618060906089500240A94121613062D
:1039B000140605060895092E0394000C11F48823BB
:1039C00052F0BB0F40F4BF2B11F460FF04C06F5FD7
:1039D0007F4F8F4F9F4F089557FD9058440F551FAD
:1039E00059F05F3F71F04795880F97FB991F61F081
:1039F0009F3F79F087950895121613061406551FF8
:103A0000F2CF4695F1DF08C0161617061806991F63
:103A1000F1CF86957105610508940895E894BB2758
:103A200066277727CB0197F9089509D0A59F900DB8
:103A3000B49F900DA49F800D911D11240895A29F05
:103A4000B001B39FC001A39F700D811D1124911D72
:103A5000B29F700D811D1124911D08955058BB27F0
:103A6000AA270ED0A8CF99DF30F09EDF20F031F4E6
:103A70009F3F11F41EF48ECF0EF4E095E7FB84CF48
:103A8000E92FAADF80F3BA17620773078407950747
:103A900018F071F49EF5C2CF0EF4E0950B2EBA2FFC
:103AA000A02D0B01B90190010C01CA01A001112444
:103AB000FF27591B99F0593F50F4503E68F11A16F0
:103AC000F040A22F232F342F4427585FF3CF469581
:103AD00037952795A795F0405395C9F77EF41F16A3
:103AE000BA0B620B730B840BBAF09150A1F0FF0F6D
:103AF000BB1F661F771F881FC2F70EC0BA0F621F59
:103B0000731F841F48F4879577956795B795F79548
:103B10009E3F08F0B3CF9395880F08F09927EE0FDA
:103B20009795879508950CD046CF3EDF40F035DF5E
:103B300030F021F45F3F19F027CF511170CF2ACF19
:103B40004BDF98F39923C9F35523B1F3951B550B1C
:103B5000BB27AA2762177307840738F09F5F5F4F60
:103B6000220F331F441FAA1FA9F333D00E2E3AF0A1
:103B7000E0E830D091505040E695001CCAF729D0BB
:103B8000FE2F27D0660F771F881FBB1F261737070A
:103B90004807AB07B0E809F0BB0B802DBF01FF273A
:103BA00093585F4F2AF09E3F510568F0EDCE37CF16
:103BB0005F3FECF3983EDCF3869577956795B79574
:103BC000F7959F5FC9F7880F911D9695879597F98F
:103BD0000895E1E0660F771F881FBB1F6217730708
:103BE0008407BA0720F0621B730B840BBA0BEE1F1D
:103BF00088F7E095089541DE08F48FEF0895EE0F01
:103C0000FF1F881F8BBF0790F691E02D1994CF936B
:103C1000DF938230910510F482E090E0E091FF079D
:103C2000F091000820E030E0C0E0D0E0309711F1E2
:103C30004081518148175907C0F04817590761F46E
:103C400082819381209719F09B838A832BC0909364
:103C500000088093FF0726C02115310519F042178F
:103C6000530718F49A01BE01DF01EF010280F381CE
:103C7000E02DDCCF2115310509F1281B390B24304B
:103C8000310590F412968D919C91139761157105F1
:103C900021F0FB019383828304C0909300088093FA
:103CA000FF07FD01329644C0FD01E20FF31F81932F
:103CB0009193225031092D933C933AC02091FD07F6
:103CC0003091FE07232B41F420910B0230910C021E
:103CD0003093FE072093FD072091090230910A02DC
:103CE0002115310541F42DB73EB740910D02509199
:103CF0000E02241B350BE091FD07F091FE07E21741
:103D0000F307A0F42E1B3F0B2817390778F0AC01FE
:103D10004E5F5F4F2417350748F04E0F5F1F5093DB
:103D2000FE074093FD078193919302C0E0E0F0E02D
:103D3000CF01DF91CF9108950F931F93CF93DF931E
:103D4000009709F48CC0FC01329713821282009113
:103D5000FF07109100080115110581F420813181C0
:103D6000820F931F2091FD073091FE072817390716
:103D700079F5F093FE07E093FD0771C0D80140E0AC
:103D800050E0AE17BF0750F412962D913C91139757
:103D9000AD012115310509F1D901F3CF9D01DA01FA
:103DA0003383228360817181860F971F8217930767
:103DB00069F4EC0128813981260F371F2E5F3F4FB0
:103DC000318320838A819B8193838283452B29F4CD
:103DD000F0930008E093FF0742C01396FC93EE9324
:103DE0001297ED01499159919E01240F351FE21759
:103DF000F30771F480819181840F951F02961196CB
:103E00009C938E938281938113969C938E931297A9
:103E1000E0E0F0E0D80112968D919C911397009705
:103E200019F0F8018C01F6CF8D919C9198012E5FCD
:103E30003F4F820F931F2091FD073091FE072817F7
:103E4000390769F4309729F4109200081092FF079F
:103E500002C0138212821093FE070093FD07DF91C8
:103E6000CF911F910F9108956F927F928F929F92A1
:103E7000AF92BF92CF92DF92EF92FF920F931F9378
:103E8000CF93DF93EC01009781F4CB01DF91CF91C9
:103E90001F910F91FF90EF90DF90CF90BF90AF9068
:103EA0009F908F907F906F90B2CEFC01E60FF71F2E
:103EB0009C0122503109E217F30708F4A8C0D90188
:103EC0000D911C91119706171707A8F005301105E1
:103ED00008F49BC0C80104978617970708F495C09B
:103EE00002501109061B170B019311936D937C93DC
:103EF000CF0122DF8AC05B01A01AB10A4C01800EFB
:103F0000911EA091FF07B091000840E050E0E12C25
:103F1000F12C109709F44AC0A815B905D1F56D9098
:103F20007C901197630182E0C80ED11CCA14DB0497
:103F300080F1A3014A195B096A0182E0C80ED11C15
:103F40001296BC9012971396AC91B5E0CB16D104A3
:103F500040F0B282A38351834083D9016D937C9357
:103F60000AC00E5F1F4FC301800F911FF90191839B
:103F70008083EB2DFA2FE114F10431F0D701139671
:103F8000FC93EE93129741C0F0930008E093FF0773
:103F90003CC08D919C9111974817590708F4AC01CA
:103FA0007D0112960D90BC91A02DB3CF8091FD079D
:103FB0009091FE0788159905E1F446175707C8F454
:103FC0008091090290910A02009741F48DB79EB743
:103FD00040910D0250910E02841B950BE817F907D2
:103FE000B0F4F093FE07E093FD07F901718360835D
:103FF0000CC0CB010CDE7C01009749F0A801BE018A
:104000001BD0CE0199DEC70104C0CE0102C080E002
:1040100090E0DF91CF911F910F91FF90EF90DF9093
:10402000CF90BF90AF909F908F907F906F900895AA
:1040300081E090E0F89433C0FB01DC0102C0019004
:104040000D9241505040D8F70895FB01DC018D914D
:10405000019080190110D9F3990B0895FB01DC013F
:1040600001900D920020E1F70895FB015191552335
:10407000A9F0BF01DC014D9145174111E1F759F459
:10408000CD010190002049F04D9140154111C9F337
:10409000FB014111EFCF81E090E00197089512E01C
:1040A000C2E1D2E000E005C0802FFE01A8DD21962C
:1040B000011DC331D10780E00807B1F7F894FFCFA5
:1040C000EF04EF04EF04010101000001088000008B
:1040D0000000005508000000009C07450D1A07E28B
:1040E000074B0729073D0741542B5253540D0A0033
:1040F00041540D0A0041542B43574D4F44453D3127
:104100000D0A00757365724E616D650073736964A5
:10411000007073770041542B43575141500D0A00F2
:1041200041542B43574A41503D2200222C22002269
:104130000D0A004F4B0041542B43574A41503F0D4D
:104140000A00736C61766520737563636573730031
:1041500041542B43494653520D0A00736C617665F6
:10416000206661696C00445331382043616E206ED3
:104170006F742066696E6421004352432069732086
:104180006E6F742076616C696421002020636F7506
:104190006E74203A200072657175657374206672C2
:1041A0006F6D206D6173746572203A2000617574C3
:1041B0006F6D617469635F6C6564203D2074727516
:1041C00065006175746F6D617469635F6C6564200F
:1041D0003D2066616C7365006175746F6D61746913
:1041E000635F66616E203D20747275650061757451
:1041F0006F6D617469635F66616E203D2066616CFE
:104200007365006175746F6D617469635F70756D5E
:1042100070203D2074727565006175746F6D6174F6
:1042200069635F70756D70203D2066616C73650019
:10423000726571756573742066726F6D206D617340
:10424000746572203A206572726F7200380039000E
:10425000340035004C4544206D6F6465203A2000E1
:104260004C4544207374617465203A200046616EA9
:10427000205374617465203A200057617465722080
:1042800054656D7065726174757265203A200044E2
:1042900048542054656D7065726174757265203A7A
:1042A00020004448542048756D6964697479203A47
:1042B0002000504F542056616C7565203A200057FD
:1042C00061746572204C6576656C203A200025008B
:1042D0003D3D3D3D446174612053656E64696E6788
:1042E0002073746172743D3D3D3D3D0041542B434C
:1042F000495053544152543D2254435022003139C5
:10430000322E3136382E342E3100222C003F743DAF
:104310000026683D002677743D0026776C3D002618
:10432000653D004745542000436F6E6E65637469B8
:104330006F6E3A636C6F73650D0A0D0A0041542B62
:1043400043495053454E443D003D3D3D3D3D446154
:1043500074612073656E64696E6720656E642E2ECD
:104360003D3D3D3D3D003D3D3D3D4461746120731B
:10437000656E64696E67206661696C2E2E3D3D3DF9
:104380003D004453313820436F6E6E65637465643D
:104390002E002F73656E642E706870006E756C6CE5
:1043A0000022225C5C6208660C6E0A720D740900C1
:1043B000636F6E74726F6C20646174612073656EDC
:1043C0006420746F20436F6E74726F6C426F617201
:0643D00064203A20000009
:020000023000CC
:10E000000D9489F10D94B2F10D94B2F10D94B2F129
:10E010000D94B2F10D94B2F10D94B2F10D94B2F1F0
:10E020000D94B2F10D94B2F10D94B2F10D94B2F1E0
:10E030000D94B2F10D94B2F10D94B2F10D94B2F1D0
:10E040000D94B2F10D94B2F10D94B2F10D94B2F1C0
:10E050000D94B2F10D94B2F10D94B2F10D94B2F1B0
:10E060000D94B2F10D94B2F10D94B2F10D94B2F1A0
:10E070000D94B2F10D94B2F10D94B2F10D94B2F190
:10E080000D94B2F10D94B2F10D94B2F10D94B2F180
:10E090000D94B2F10D94B2F10D94B2F10D94B2F170
:10E0A0000D94B2F10D94B2F10D94B2F10D94B2F160
:10E0B0000D94B2F10D94B2F10D94B2F10D94B2F150
:10E0C0000D94B2F10D94B2F10D94B2F10D94B2F140
:10E0D0000D94B2F10D94B2F10D94B2F10D94B2F130
:10E0E0000D94B2F141546D656761323536300041AF
:10E0F000726475696E6F206578706C6F72657220DE
:10E1000073746B3530305632206279204D4C530099
:10E11000426F6F746C6F616465723E004875683F52
:10E1200000436F6D70696C6564206F6E203D200048
:10E130004350552054797065202020203D20005FF9
:10E140005F4156525F415243485F5F3D2000415658
:10E1500052204C696243205665723D20004743437C
:10E160002056657273696F6E203D20004350552024
:10E1700049442020202020203D20004C6F7720663D
:10E18000757365202020203D20004869676820665F
:10E190007573652020203D200045787420667573D6
:10E1A00065202020203D20004C6F636B2066757336
:10E1B000652020203D20004D617220203720323024
:10E1C000313300312E362E3800342E332E350056A2
:10E1D00023202020414444522020206F7020636F70
:10E1E00064652020202020696E73747275637469E1
:10E1F0006F6E2061646472202020496E74657272B3
:10E20000757074006E6F20766563746F7200726A49
:10E210006D702020006A6D70200057686174207056
:10E220006F72743A00506F7274206E6F7420737541
:10E2300070706F72746564004D7573742062652030
:10E2400061206C6574746572002000577269747483
:10E25000696E672045450052656164696E672045B7
:10E26000450045452065727220636E743D00504F35
:10E27000525400303D5A65726F2061646472003FF1
:10E280003D43505520737461747300403D454550C3
:10E29000524F4D207465737400423D426C696E6B41
:10E2A000204C454400453D44756D70204545505215
:10E2B0004F4D00463D44756D7020464C415348001B
:10E2C000483D48656C70004C3D4C69737420492F83
:10E2D0004F20506F72747300513D51756974005234
:10E2E0003D44756D702052414D00563D73686F7707
:10E2F00020696E7465727275707420566563746FF0
:10E30000727300593D506F727420626C696E6B00BD
:10E310002A0011241FBECFEFD1E2DEBFCDBF01E046
:10E320000CBF12E0A0E0B2E0EEE1FDEF03E00BBFB6
:10E3300002C007900D92A030B107D9F712E0A0E01B
:10E34000B2E001C01D92AE30B107E1F70F9460F367
:10E350000D948DFE01E20EBF0FEF0DBF11241FBE05
:10E360000D9460F30D9400F020E030E040ED57E0B4
:10E3700005C0FA013197F1F72F5F3F4F2817390792
:10E38000C0F308959C01260F311DC901A0E0B0E043
:10E390002F5F3F4FABBFFC018791882361F08093D3
:10E3A000C6008091C00086FFFCCF8091C0008064D1
:10E3B0008093C000EACF08958DE08093C6008091DD
:10E3C000C00086FFFCCF8091C00080648093C000B5
:10E3D0008AE08093C6008091C00086FFFCCF8091C8
:10E3E000C00080648093C00008950F94C2F10F9420
:10E3F000DCF10895FC019081992359F09093C600B7
:10E400008091C00086FFFCCF8091C0008064809323
:10E41000C0003196992379F70895282F982F929567
:10E420009F70892F805D8A3308F0895F8093C600D2
:10E430008091C00086FFFCCF8091C00080648093F3
:10E44000C000822F8F70982F905D9A3308F0995FEB
:10E450009093C6008091C00086FFFCCF8091C000E1
:10E4600080648093C00008959C01FB01853691056E
:10E470001CF46330710594F0C90164E670E00F94F8
:10E480002EFE605D7F4F6093C6008091C00086FFC6
:10E49000FCCF8091C00080648093C0002B30310598
:10E4A00014F43297B4F0C90164E670E00F942EFEC4
:10E4B0006AE070E00F942EFE605D7F4F6093C600AF
:10E4C0008091C00086FFFCCF8091C0008064809363
:10E4D000C000C9016AE070E00F942EFEC0968093E0
:10E4E000C6008091C00086FFFCCF8091C000806490
:10E4F0008093C00008951F93182F8EE692EE60E07F
:10E500000F94C2F11093C6008091C00086FFFCCF2B
:10E510008091C00080648093C0000F94DCF11F9153
:10E5200008952F923F924F925F926F927F928F92B7
:10E530009F92AF92BF92CF92DF92EF92FF920F9392
:10E540001F93DF93CF93CDB7DEB762970FB6F894E2
:10E55000DEBF0FBECDBF382E622ECA01DB015C01CB
:10E560006D01772420E2222E2E010894411C511CBB
:10E570008BC081E0A81680E0B80681E0C80680E084
:10E58000D80628F0C601AA27BB270F940DF2BB2797
:10E59000AD2D9C2D8B2D0F940DF28A2D0F940DF225
:10E5A0002092C6008091C00086FFFCCF8091C00001
:10E5B00080648093C0009DE29093C6008091C0006B
:10E5C00086FFFCCF8091C00080648093C0002092C1
:10E5D000C6008091C00086FFFCCF8091C00080649F
:10E5E0008093C00019828601750188249924A1E0D6
:10E5F0003A1651F03A1620F0B2E03B1661F409C029
:10E600000BBFF701779007C0C7010F9477FE782EF4
:10E6100002C0F7017080872D0F940DF22092C60082
:10E620008091C00086FFFCCF8091C0008064809301
:10E63000C000872D8052F401EF70F0708F3520F408
:10E64000E40DF51D708204C0E40DF51D8EE280839B
:10E650000894E11CF11C011D111D0894811C911CE2
:10E6600090E18916910409F0C2CF80E190E0A0E02A
:10E67000B0E0A80EB91ECA1EDB1E198AC2010F9493
:10E68000FAF10F94DCF16A94662009F072CF629679
:10E690000FB6F894DEBF0FBECDBFCF91DF911F91B3
:10E6A0000F91FF90EF90DF90CF90BF90AF909F9031
:10E6B0008F907F906F905F904F903F902F90089534
:10E6C0002F923F924F925F926F927F928F929F9282
:10E6D000AF92BF92CF92DF92EF92FF920F931F9370
:10E6E000DF93CF93CDB7DEB7CD53D1400FB6F894BB
:10E6F000DEBF0FBECDBF01E20EBF0FEF0DBF94B75F
:10E70000F894A89514BE80916000886180936000A1
:10E7100010926000789493FF05C0E0910002F091A0
:10E7200001021995279A2F9A8091C00082608093E8
:10E73000C00080E18093C40088E18093C1000000A4
:10E74000EE24FF24870144E0A42EB12CCC24DD2448
:10E7500024C0C5010197F1F70894E11CF11C011DCB
:10E76000111D21E2E2162EE4F20620E0020720E06D
:10E77000120718F031E0C32ED12CC801B70127ECE5
:10E780003BE140E050E00F9441FE611571058105C9
:10E79000910519F485B1805885B98091C00087FD35
:10E7A00003C0C114D104A9F2A6014F5F5F4FC25E3E
:10E7B000DE4F59834883CE51D140C25EDE4F8881FF
:10E7C0009981CE51D140019711F00D9410FEC05D9A
:10E7D000DE4F19821882C053D14060E0C15DDE4F28
:10E7E0001882CF52D14088249924C35DDE4F19820C
:10E7F0001882CD52D140C05EDE4F188219821A8233
:10E800001B82C052D140CE5CDE4F188219821A8220
:10E810001B82C253D140EE24FF2487010BBFF701B6
:10E8200007911691C45CDE4F19830883CC53D14005
:10E830000D940BFEC25EDE4F28813981CE51D1404E
:10E840002130310509F52091C600C25EDE4F1982E4
:10E850001882CE51D14022C02F5F3F4F4F4F5F4FA4
:10E86000213082E138078AE7480780E0580780F0C6
:10E87000C45CDE4FE881F981CC53D140EF5FFF4F9C
:10E8800019F0EE27FF27099420E030E040E050E047
:10E890008091C00087FFE0CF2091C600C35DDE4FAE
:10E8A00048815981CD52D1404F5F5F4FC35DDE4FEC
:10E8B00059834883CD52D140213209F063C64A3092
:10E8C000510508F05FC60894811C911C53E0851621
:10E8D000910409F059C600E010E018C081E280936D
:10E8E000C6008091C00086FFFCCF8091C00080648C
:10E8F0008093C0002F5F3F4F2931310579F70F9486
:10E90000DCF10F5F1F4F0530110519F020E030E0FA
:10E91000E5CF10920A0210920B0210920C02109294
:10E920000D02109206021092070210920802109235
:10E930000902109202021092030210920402109235
:10E9400005028FEE90EE60E00F94F5F180E191EE1C
:10E9500060E00F94C2F18091C00087FFFCCF9091DE
:10E96000C600903608F09F759032B8F09093C600BC
:10E970008091C00086FFFCCF8091C00080648093AE
:10E98000C000A0E2A093C6008091C00086FFFCCF2B
:10E990008091C00080648093C000983409F4D7C18E
:10E9A0009934B8F4923409F459C1933458F490333B
:10E9B00019F1903308F4E3C59F33A1F1903409F0C5
:10E9C000DEC5BDC0953409F470C1963409F0D7C5D1
:10E9D00098C1923509F42BC2933538F49C3409F46C
:10E9E000F5C1913509F0CBC518C2963509F445C279
:10E9F000993509F0C4C567C483E792EE62E00F94CD
:10EA0000F5F110920602109207021092080210927D
:10EA1000090210920A0210920B0210920C0210923C
:10EA20000D0213C18FE792EE62E00F94F5F18FEEC5
:10EA300090EE60E00F94F5F181E291EE60E00F94CA
:10EA4000C2F187EB91EE60E00F94F5F180E391EE77
:10EA500060E00F94C2F184EE90EE60E00F94F5F167
:10EA60008FE391EE60E00F94C2F186E090E061E008
:10EA700070E00F9434F20F94DCF18DE591EE60E0DC
:10EA80000F94C2F189EC91EE60E00F94F5F18EE401
:10EA900091EE60E00F94C2F183EC91EE60E00F9490
:10EAA000F5F18CE691EE60E00F94C2F18EE10F94E7
:10EAB0000DF288E90F940DF281E00F940DF20F949E
:10EAC000DCF18BE791EE60E00F94C2F119E0E0E039
:10EAD000F0E010935700E4918E2F0F940DF20F94F5
:10EAE000DCF18AE891EE60E00F94C2F1E3E0F0E03F
:10EAF00010935700E4918E2F0F940DF20F94DCF1D8
:10EB000089E991EE60E00F94C2F1E2E0F0E0109349
:10EB10005700E4918E2F0F940DF20F94DCF188EAE8
:10EB200091EE60E00F94C2F1E1E0F0E01093570045
:10EB30001491812F0F940DF20F94DCF107CF8BE825
:10EB400092EE62E00F94F5F18BE492EE60E00F94A8
:10EB5000F5F10F94DCF100E010E019C0C8016F2D51
:10EB60000F947FFEFF2031F489E492EE60E00F9471
:10EB7000C2F10BC0F092C6008091C00086FFFCCFAE
:10EB80008091C00080648093C0000F5F1F4FC80158
:10EB900081519F41A0E0B0E0ABBFFC01F790BAE229
:10EBA000FB1621F0E2E000301E07C1F60F94DCF105
:10EBB0000F94DCF187E592EE60E00F94F5F10F948D
:10EBC000DCF1CC24DD2400E010E01EC0C8010F946D
:10EBD00077FEF82E882331F489E492EE60E00F94FA
:10EBE000C2F10BC08093C6008091C00086FFFCCFAD
:10EBF0008091C00080648093C000FE1419F00894D6
:10EC0000C11CD11C0F5F1F4FC80181519F41A0E063
:10EC1000B0E0ABBFFC01E790FAE2EF1621F022E092
:10EC20000030120799F60F94DCF10F94DCF182E6C4
:10EC300092EE60E00F94C2F1C60161E070E00F94C3
:10EC400034F20F94DCF10F94DCF110920202109276
:10EC50000302109204021092050278CE89E992EE26
:10EC600062E00F94F5F1279A2F9A16C02F9880E052
:10EC700090E0E0EDF7E03197F1F7019684369105E9
:10EC8000C1F72F9A80E090E0E0EDF7E03197F1F7DF
:10EC9000019684369105C1F78091C00087FFE6CFC9
:10ECA0008091C00087FFFCCF64C485EA92EE62E0E9
:10ECB0000F94F5F140910202509103026091040219
:10ECC0007091050281E020E10F9491F2809102029F
:10ECD00090910302A0910402B091050280509F4FD1
:10ECE000AF4FBF4F8093020290930302A0930402A0
:10ECF000B093050280509041A040B04008F426CE69
:10ED0000A4CF83EB92EE62E00F94F5F140910602FE
:10ED100050910702609108027091090280E020E1A1
:10ED20000F9491F28091060290910702A09108023F
:10ED3000B091090280509F4FAF4FBF4F80930602A2
:10ED400090930702A0930802B0930902FFCD80ECD4
:10ED500092EE62E00F94F5F183E792EE60E00F949B
:10ED6000F5F18FE792EE60E00F94F5F18BE892EE0B
:10ED700060E00F94F5F189E992EE60E00F94F5F10F
:10ED800085EA92EE60E00F94F5F183EB92EE60E09D
:10ED90000F94F5F180EC92EE60E00F94F5F187ECC2
:10EDA00092EE60E00F94F5F188ED92EE60E00F9442
:10EDB000F5F18FED92EE60E00F94F5F18AEE92EEB0
:10EDC00060E00F94F5F183E093EEBDCD87EC92EE19
:10EDD00062E00F94F5F181E40F947BF282E40F94EA
:10EDE0007BF283E40F947BF284E40F947BF285E45E
:10EDF0000F947BF286E40F947BF287E40F947BF20E
:10EE000088E40F947BF28AE40F947BF28BE40F94F6
:10EE10007BF28CE40F947BF299CD88ED92EE62E068
:10EE20000F94F5F1772473948824992409C48FED05
:10EE300092EE62E00F94F5F140910A0250910B02BC
:10EE400060910C0270910D0282E020E10F9491F22A
:10EE500080910A0290910B02A0910C02B0910D02D8
:10EE600080509F4FAF4FBF4F80930A0290930B0289
:10EE7000A0930C02B0930D0269CD8AEE92EE62E08F
:10EE80000F94F5F184EE90EE60E00F94F5F18FECC5
:10EE900091EE60E00F94F5F1662477244301CC5D98
:10EEA000DE4F19821882C452D140D401C301B695F5
:10EEB000A79597958795CA5DDE4F88839983AA8326
:10EEC000BB83C652D140CC5DDE4FA881B981C4520C
:10EED000D1401196CC5DDE4FB983A883C452D14096
:10EEE000CD0162E070E00F9434F2B0E2B093C6005E
:10EEF0008091C00086FFFCCF8091C0008064809329
:10EF0000C000EDE2E093C6008091C00086FFFCCF18
:10EF10008091C00080648093C000F0E2F093C6004E
:10EF20008091C00086FFFCCF8091C00080648093F8
:10EF3000C000CA5DDE4FE880F9800A811B81C6529D
:10EF4000D140BB27A12F902F8F2D0F940DF2CA5DBA
:10EF5000DE4F8881C652D1400F940DF2B0E2FB2EF5
:10EF6000F092C6008091C00086FFFCCF8091C00067
:10EF700080648093C0000DE30093C6008091C000C0
:10EF800086FFFCCF8091C00080648093C00010E2B7
:10EF90001093C6008091C00086FFFCCF8091C00016
:10EFA00080648093C0008BBEF3012791C65DDE4F65
:10EFB0002883CA52D140A22EBB24CC24DD2408943D
:10EFC000611C711C811C911C8BBEF3018791282E42
:10EFD0003324442455240894611C711C811C911C09
:10EFE0008BBEF3013791C55DDE4F3883CB52D140E4
:10EFF0000894611C711C811C911C8BBEF30147910C
:10F00000C45DDE4F4883CC52D140ADEFEA2EAFEF66
:10F01000FA2EAFEF0A2FAFEF1A2F6E0C7F1C801E57
:10F02000911E142D032DF22CEE24EA0CFB1C0C1D5A
:10F030001D1D0F940DF220E22093C6008091C000A8
:10F0400086FFFCCF8091C00080648093C000C65DC5
:10F05000DE4F8881CA52D1400F940DF230E23093D6
:10F06000C6008091C00086FFFCCF8091C000806404
:10F070008093C000C45DDE4F8881CC52D1400F9494
:10F080000DF240E24093C6008091C00086FFFCCFA5
:10F090008091C00080648093C000C55DDE4F888190
:10F0A000CB52D1400F940DF250E25093C6008091A4
:10F0B000C00086FFFCCF8091C00080648093C000B8
:10F0C0008FEFE8168FEFF80680E0080780E018075A
:10F0D00031F484E092EE60E00F94C2F1DFC0D80119
:10F0E000C7018070907CA070B0708050904CA040A0
:10F0F000B040D1F52FEF3FE340E050E0E222F322B1
:10F1000004231523CA5DDE4FA880B980CA80DB8046
:10F11000C652D140AE0CBF1CC01ED11EAA0CBB1CD7
:10F12000CC1CDD1C8EE092EE60E00F94C2F1BB2798
:10F13000A12F902F8F2D0F940DF28E2D0F940DF285
:10F1400030E23093C6008091C00086FFFCCF8091F2
:10F15000C00080648093C0004EE34093C60080915D
:10F16000C00086FFFCCF87C08EE09EEFA0E0B0E03D
:10F17000E822F9220A231B239CE0E91694E9F90608
:10F1800090E0090790E0190709F088C0C45DDE4FE0
:10F19000A881CC52D140EA2EFF2400E010E0102FCD
:10F1A0000F2DFE2CEE24C55DDE4FB881CB52D14031
:10F1B000EB0EF11C011D111DD601C501817090706F
:10F1C000A070B070DC0199278827E80EF91E0A1F8D
:10F1D0001B1F20EF30E040E050E0A222B322C42207
:10F1E000D52241E1AA0CBB1CCC1CDD1C4A95D1F7F1
:10F1F000EA0CFB1C0C1D1D1D81E090E0A0E0B0E0BE
:10F20000282239224A225B2235E1220C331C441C7D
:10F21000551C3A95D1F7E20CF31C041D151D57013E
:10F220006801AA0CBB1CCC1CDD1C85E192EE60E0E1
:10F230000F94C2F1C801AA27BB270F940DF2BB2778
:10F24000A12F902F8F2D0F940DF28E2D0F940DF274
:10F2500090E29093C6008091C00086FFFCCF809121
:10F26000C00080648093C000AEE3A093C60080918C
:10F27000C00086FFFCCF8091C00080648093C000F6
:10F28000C601AA27BB270F940DF2BB27AD2D9C2DDD
:10F290008B2D0F940DF28A2D0F940DF20F94DCF14B
:10F2A000CC5DDE4FE881F981C452D140F99709F471
:10F2B0004DCBF4E0EF2EF12C012D112D6E0C7F1CA7
:10F2C000801E911EF2CD83E093EE62E00F94F5F183
:10F2D0008AE192EE60E00F94C2F18091C00087FF56
:10F2E000FCCF1091C6001F751093C6008091C0001E
:10F2F00086FFFCCF8091C00080648093C0000F9493
:10F30000DCF1812F81548A3108F036C1163409F4BA
:10F3100095C0173490F4133409F44EC0143430F40B
:10F320001134F1F0123409F01DC130C0143409F465
:10F3300059C0153409F016C16BC01A3409F4C4C0A1
:10F340001B3438F4173409F48FC0183409F00AC19B
:10F35000A1C01B3409F4D2C01C3409F003C1E8C0B9
:10F360008FEF81B90DC082B1809582B980E090E0C5
:10F37000E0EDF7E03197F1F70196883C9105C1F790
:10F380008091C00087FFEFCF12B8EFC08FEF84B934
:10F390000DC085B1809585B980E090E0E0EDF7E0A3
:10F3A0003197F1F70196883C9105C1F78091C00033
:10F3B00087FFEFCF15B8D9C08FEF87B90DC088B1DF
:10F3C000809588B980E090E0E0EDF7E03197F1F7C3
:10F3D0000196883C9105C1F78091C00087FFEFCF6F
:10F3E00018B8C3C08FEF8AB90DC08BB180958BB9A7
:10F3F00080E090E0E0EDF7E03197F1F70196883C8E
:10F400009105C1F78091C00087FFEFCF1BB8ADC059
:10F410008FEF8DB90DC08EB180958EB980E090E0F0
:10F42000E0EDF7E03197F1F70196883C9105C1F7DF
:10F430008091C00087FFEFCF1EB897C08FEF80BBD1
:10F440000DC081B3809581BB80E090E0E0EDF7E0F6
:10F450003197F1F70196883C9105C1F78091C00082
:10F4600087FFEFCF11BA81C08FEF83BB0DC084B38C
:10F47000809584BB80E090E0E0EDF7E03197F1F714
:10F480000196883C9105C1F78091C00087FFEFCFBE
:10F4900014BA6BC08FEF809301010FC080910201FD
:10F4A00080958093020180E090E0E0EDF7E03197F5
:10F4B000F1F70196883C9105C1F78091C00087FF64
:10F4C000EDCF1092020151C08FEF809304010FC065
:10F4D0008091050180958093050180E090E0E0ED4A
:10F4E000F7E03197F1F70196883C9105C1F78091DB
:10F4F000C00087FFEDCF1092050137C08FEF8093DA
:10F5000007010FC08091080180958093080180E079
:10F5100090E0E0EDF7E03197F1F70196883C910536
:10F52000C1F78091C00087FFEDCF109208011DC088
:10F530008FEF80930A010FC080910B01809580931B
:10F540000B0180E090E0E0EDF7E03197F1F70196F4
:10F55000883C9105C1F78091C00087FFEDCF1092E4
:10F560000B0103C085E292EEEEC98091C00087FFD7
:10F57000FCCF8091C600EAC988E392EEE4C98CE131
:10F5800091EEE1C988249924933011F1943028F444
:10F59000913089F09230B8F408C0953061F195301F
:10F5A000F0F0963009F048C043C02B3109F042C951
:10F5B00091E06BE13FC96227C15DDE4F2883CF52E6
:10F5C000D14092E037C9B22FA0E0622793E032C960
:10F5D000822F90E0A82BB92B622794E02BC92E3004
:10F5E00009F039C3622795E0C05DDE4F19821882A9
:10F5F000C053D1401FC9E1E0F0E0EC0FFD1FC05D3A
:10F60000DE4F08811981C053D140E00FF11F2083E4
:10F610000F5F1F4FC05DDE4F19830883C053D14079
:10F6200062270A171B0709F005C9D80196E002C92D
:10F63000261709F010C303C0973009F0FBC87724E0
:10F640009981933109F412C19431C8F4963009F4C8
:10F65000D8C0973050F4923009F406C1933009F4C1
:10F660006DC0913009F059C253C0913109F477C08F
:10F67000923108F0BBC0903109F04FC2F5C098310B
:10F6800009F487C0993150F4953109F4EFC09531F0
:10F6900008F4C6C1963109F040C2C2C19A3109F4DA
:10F6A0006CC09A3108F491C09B3109F45BC09D3164
:10F6B00009F033C29D81903359F48F81882311F46E
:10F6C0009EE11CC0813011F091E018C098E916C08D
:10F6D000892F807591F0903539F4E0E0F0E089E011
:10F6E0008093570094910AC0983539F4E3E0F0E034
:10F6F00089E080935700949101C090E01A821B82A8
