:100000000C9463000C948B000C948B000C945A039A
:100010000C945A030C945A030C948B000C948B0090
:100020000C948B000C948B000C948B000C948B0024
:100030000C948B000C948B000C948B000C948B0014
:100040000C9410030C948B000C943D020C9417023A
:100050000C948B000C948B000C948B000C948B00F4
:100060000C948B000C948B000000000024002700EF
:100070002A0000000008000201000003040700003D
:1000800000000000000000000000230026002900FE
:1000900000000000250028002B00040404040404D0
:1000A0000404020202020202030303030303010227
:1000B00004081020408001020408102001020408F6
:1000C0001020AD08910811241FBECFEFD8E0DEBF8D
:1000D000CDBF22E0AAE4B1E001C01D92AF39B20762
:1000E000E1F711E0A0E0B1E0E8EEF3E102C0059035
:1000F0000D92AA34B107D9F710E0C2E6D0E004C0EF
:100100002197FE010E94DC09C136D107C9F70E9480
:1001100060050C94E7090C9400000895FC01538DD0
:10012000448D252F30E0842F90E0821B930B5417D1
:1001300010F0CF96089501970895FC01918D828D5E
:10014000981761F0828DDF01A80FB11D5D968C912B
:10015000928D9F5F9F73928F90E008958FEF9FEF36
:100160000895FC01918D828D981731F0828DE80FF2
:10017000F11D858D90E008958FEF9FEF0895FC01AC
:10018000918D228D892F90E0805C9F4F821B910979
:100190008F73992708958BE991E00E94BF0021E0B9
:1001A000892B09F420E0822F0895FC01848DDF0162
:1001B000A80FB11DA35ABF4F2C91848D90E00196DA
:1001C0008F739927848FA689B7892C93A089B189C9
:1001D0008C91837080648C93938D848D981306C06A
:1001E0000288F389E02D80818F7D80830895EF92CE
:1001F000FF920F931F93CF93DF93EC0181E0888FE1
:100200009B8D8C8D981305C0E889F989808185FDC7
:1002100026C0F62E0B8D10E00F5F1F4F0F731127B6
:10022000E02E8C8DE8120CC00FB607FCFACFE889DF
:10023000F989808185FFF5CFCE010E94D500F1CFED
:100240008B8DFE01E80FF11DE35AFF4FF0829FB73F
:10025000F8940B8FEA89FB89808180620AC09FB77E
:10026000F894EE89FF896083E889F9898081837039
:10027000806480839FBF81E090E0DF91CF911F91E8
:100280000F91FF90EF900895CF93DF93EC01888D4D
:100290008823C9F0EA89FB89808185FD05C0A8898A
:1002A000B9898C9186FD0FC00FB607FCF5CF808110
:1002B00085FFF2CFA889B9898C9185FFEDCFCE015A
:1002C0000E94D500E7CFDF91CF91089580E090E0C4
:1002D000892B29F00E94CB0081110C940000089515
:1002E00020919501309196012817390771F490916A
:1002F000930180919401981741F0E0919301F0E00F
:10030000E65BFE4F808190E008958FEF9FEF0895A8
:100310001F93CF93DF93DC015C968D919C915D9749
:10032000009739F421E030E013963C932E93129716
:100330003BC05196ED91FC91529750962C9150975D
:10034000322F30951FB75E964C915E97742F727066
:1003500041FD6095F8944081772311F0422B01C054
:1003600043234083EC012197F1F748E0508160FF7F
:1003700002C0522B01C053235083EC012197F1F7A7
:100380006695415099F78081772319F08323808304
:1003900002C0282B20831FBF5C968D919C915D9796
:1003A0000197F1F781E090E0DF91CF911F910895DF
:1003B00020919501309196012817390771F48091A9
:1003C00094012091930190E0805C9F4F821B9109E2
:1003D00060E470E00E94B409089580E090E0089520
:1003E000209195013091960128173907B9F4909121
:1003F000930180919401981789F0E0919301F0E0C6
:10040000E65BFE4F80812091930130E02F5F3F4FEC
:100410002F7333272093930190E008958FEF9FEF80
:100420000895089580E090E008950E94E2091F92E7
:100430000F920FB60F9211242F933F934F935F9318
:100440006F937F938F939F93AF93BF93EF93FF939C
:100450008BE991E00E94D500FF91EF91BF91AF91A0
:100460009F918F917F916F915F914F913F912F91CC
:100470000F900FBE0F901F9018951F920F920FB6FE
:100480000F9211242F938F939F93EF93FF93E091FB
:10049000AB01F091AC018081E091B101F091B2012A
:1004A00082FD12C090818091B4018F5F8F73209183
:1004B000B501821751F0E091B401F0E0E556FE4F2E
:1004C000958F8093B40101C08081FF91EF919F913E
:1004D0008F912F910F900FBE0F901F90189590E065
:1004E000FC01EE58FF4F2491FC01E255FF4F34917F
:1004F000FC01E656FF4FE491EE2309F43CC02223B1
:1005000039F1233091F038F42130A9F0223001F58F
:1005100084B58F7D12C0273091F02830A1F02430AF
:10052000B9F4809180008F7D03C0809180008F7727
:10053000809380000DC084B58F7784BD09C0809101
:10054000B0008F7703C08091B0008F7D8093B000A2
:10055000F0E0EE0FFF1FE057FF4FA591B4919FB75A
:10056000F894611104C08C913095382302C0EC914D
:100570003E2B3C939FBF089561E08BE00E946F0289
:1005800061E08CE00E946F0261E08DE00C946F02EC
:10059000CF93DF9390E0FC01E255FF4F2491FC01E3
:1005A000E656FF4F8491882361F190E0880F991FF0
:1005B000FC01E859FF4FC591D491FC01E057FF4F72
:1005C000A591B491611109C09FB7F89488812095D5
:1005D00082238883EC912E230BC0623061F49FB795
:1005E000F8948881322F309583238883EC912E2BC9
:1005F0002C939FBF06C08FB7F894E8812E2B2883D9
:100600008FBFDF91CF9108952FB7F89460918F013C
:100610007091900180919101909192012FBF089566
:100620001F920F920FB60F9211242F933F938F9327
:100630009F93AF93BF9380918F0190919001A09170
:100640009101B091920130918E0123E0230F2D375B
:1006500020F40196A11DB11D05C026E8230F0296C6
:10066000A11DB11D20938E0180938F019093900165
:10067000A0939101B093920180918A0190918B0196
:10068000A0918C01B0918D010196A11DB11D8093A7
:100690008A0190938B01A0938C01B0938D01BF913F
:1006A000AF919F918F913F912F910F900FBE0F901F
:1006B0001F9018951F920F920FB60F9211242F932F
:1006C0003F934F935F936F937F938F939F93AF93DA
:1006D000BF93EF93FF93E0919501F09196013097CE
:1006E00009F451C0968DA685B785858591FF04C014
:1006F0009C91892329F447C09C91892309F043C028
:10070000A389B4899C918589809589238C93868956
:1007100097890197F1F7608D718DA685B78555850D
:1007200038E020E0CB010197F1F7822F90E095951A
:100730008795282F4C91452309F02068315091F777
:10074000868D81FD20958091940190E001968F73B4
:10075000992730919301381749F0A0919401B0E0A6
:10076000A65BBE4F2C938093940103C0868D81605D
:10077000868F828D938D0197F1F7A389B4899C911F
:100780008589892B8C93FF91EF91BF91AF919F91B8
:100790008F917F916F915F914F913F912F910F902A
:1007A0000FBE0F901F901895CF92DF92EF92FF929D
:1007B0000F931F93CF93DF936C017A018B01C0E0FD
:1007C000D0E0CE15DF0581F0D8016D918D01D60105
:1007D000ED91FC910190F081E02DC6010995892BE6
:1007E00011F02196EECF7E01C701DF91CF911F91CD
:1007F0000F91FF90EF90DF90CF9008950F931F938C
:10080000CF93DF93EC010E940403688779878A877E
:100810009B87E881F9810484F585E02DCE01099557
:1008200097FF17C00E940403088519852A853B8518
:10083000DC01CB01801B910BA20BB30B0C811D8142
:100840002E813F8180179107A207B30710F38FEF26
:100850009FEFDF91CF911F910F910895EBE9F1E0A8
:10086000A089B18982E08C93A485B5851C92A68568
:10087000B7858FEC8C93108EA489B58986E08C9314
:10088000A289B3898C9180618C93A289B3898C9160
:1008900088608C93A289B3898C9180688C9302883C
:1008A000F389E02D80818F7D8083089560E08BE067
:1008B0000E946F0260E08CE00E946F0260E08DE0B9
:1008C0000C946F02CF92DF92EF92FF921F93CF931F
:1008D000DF93EC01CE010E94FE03FC0197FD0EC0E8
:1008E0008D32910579F0C0970A9760F0E881F9811F
:1008F0000284F385E02DCE010995ECCF60E070E035
:10090000CB0144C0C12CD12C760110E0E130F105BF
:1009100001F1ED32F105E1F0CF01C0970A97C8F47B
:10092000AAE0B0E0A70196010E949A096F01FF0FAB
:10093000EE08FF08DC01CB018C0D9D1DAE1DBF1D17
:100940006C017D0120E3C21AD108E108F10801C061
:1009500011E0E881F9810284F385E02DCE0109954B
:10096000CE010E94FE03FC01C0970A9778F2E130A5
:10097000F10561F2112341F066277727CB016C194D
:100980007D098E099F0902C0C701B601DF91CF9191
:100990001F91FF90EF90DF90CF9008956115710542
:1009A00079F0FB0101900020E9F73197AF01461B78
:1009B000570BDC01ED91FC910280F381E02D09944D
:1009C00080E090E008958F929F92AF92BF92EF9255
:1009D000FF920F931F93CF93DF93CDB7DEB7A1970D
:1009E0000FB6F894DEBF0FBECDBF7C01FA01CB017C
:1009F00019A2223008F42AE08E010F5D1F4F822ECB
:100A0000912CA12CB12CBF01A50194010E94780961
:100A1000F901CA01015011096A3014F4605D01C086
:100A2000695CD8016C93232B242B252B61F7B8012B
:100A3000C7010E94CE04A1960FB6F894DEBF0FBE88
:100A4000CDBFDF91CF911F910F91FF90EF90BF909D
:100A5000AF909F908F900895CF92DF92EF92FF9288
:100A6000CF93DF936C01990FEE08FF08F7FE1BC0D0
:100A70006DE28BE991E00E94F700EC0144275527D5
:100A8000BA014C195D096E097F092AE08BE991E0F2
:100A90000E94E3048C0F9D1FDF91CF91FF90EF9098
:100AA000DF90CF9008952AE0B701A6018BE991E08D
:100AB000DF91CF91FF90EF90DF90CF900C94E30403
:100AC000789484B5826084BD84B5816084BD85B529
:100AD000826085BD85B5816085BD80916E00816035
:100AE00080936E00109281008091810082608093DB
:100AF00081008091810081608093810080918000DD
:100B00008160809380008091B10084608093B10007
:100B10008091B00081608093B00080917A00846001
:100B200080937A0080917A00826080937A0080912D
:100B30007A00816080937A0080917A008068809347
:100B40007A001092C10010927C0210927D021092E5
:100B50007E0210927F0210923A0210923B02109293
:100B60003C0210923D020E9404036B017C014B0188
:100B70005C0128EB820E2BE0921EA11CB11C0E948E
:100B800004036C157D058E059F0528F086169706D3
:100B9000A806B906A0F78BE991E090937B028093B9
:100BA0007A020E942E040E94040360933A0270931A
:100BB0003B0280933C0290933D0264E271E080919D
:100BC0007A0290917B020E94CE040E9404036B0182
:100BD0007C014B015C013AE0830E911CA11CB11C0D
:100BE0000E9404036C157D058E059F0528F086166E
:100BF0009706A806B906A0F781E080934E020E94EE
:100C00002E0410929B0210929A0210929902109256
:100C1000980210929702109296028DE991E09093BB
:100C20009D0280939C0290918C02963108F058C0EE
:100C30002DEB30E030939702209396022BE931E0C0
:100C400030939902209398022CE231E030939B027A
:100C500020939A0240916800983058F031E09E301D
:100C600008F430E021E0822F01C0880F3A95EAF7BE
:100C700001C084E0842B80936800983038F09E3067
:100C800040F0963148F020E030E008C02DE630E03A
:100C900005C02BE630E002C02CE630E03093940231
:100CA00020939302983030F481E001C0880F9A9528
:100CB000EAF70EC0292F30E09E3018F42850310991
:100CC00002C02E50310981E001C0880F2A95EAF751
:100CD0008093950280919C0290919D020197F1F77B
:100CE00080919A0290919B02892B49F1E0919501A4
:100CF000F091960142E0E038F40709F1309739F0BD
:100D0000A389B4899C918589809589238C9380914E
:100D10009E028E7F80939E02109294011092930106
:100D200080E892E09093960180939501E091930280
:100D3000F0919402908180919502892B808361E0EB
:100D40008BE00E94C80261E08CE00E94C80261E072
:100D50008DE00E94C80261E084E00E94C80261E068
:100D600085E00E94C80261E086E00E94C80261E05E
:100D700087E00E94C802C4E0D0E0C630D10519F473
:100D800060E086E002C061E08C2F0E946F02219635
:100D9000C830D10591F760E08BE00E946F0260E0FF
:100DA0008CE00E946F0260E08DE00E946F0284EF91
:100DB000C82EDD24D394E12CF12C0E940403672B70
:100DC000682B692B41F40E94040362307105810590
:100DD000910508F410C10E9404038090970190903F
:100DE0009801A0909901B0909A01681579058A053B
:100DF0009B0540F46093970170939801809399014B
:100E000090939A018090970190909801A0909901F9
:100E1000B0909A019B01AC01281939094A095B0974
:100E200049015A013AEF83169104A104B10408F470
:100E3000E2C0609397017093980180939901909319
:100E40009A01C0924602D0924702E0924802F09284
:100E5000490210924A0210924B0210924C021092D8
:100E60004D0280913E0290913F02A0914002B091CC
:100E700041028093420290934302A0934402B093B4
:100E800045020E94040360933E0270933F028093E8
:100E90004002909341020E94040360933A027093CF
:100EA0003B0280933C0290933D020E9404034B015D
:100EB0005C0166E371E080917A0290917B020E946E
:100EC000CE042AE041E050E060E070E080917A02D8
:100ED00090917B020E94E3046DE371E080917A02BD
:100EE00090917B020E94CE042AE0B501A40180917A
:100EF0007A0290917B020E94E3046FE371E080919B
:100F00007A0290917B020E94CE0480913E029091E1
:100F10003F02A0914002B0914102B501A401481BDB
:100F2000590B6A0B7B0B2AE080917A0290917B022D
:100F30000E94E3046FE371E080917A0290917B025A
:100F40000E94CE0440913E0250913F0260914002C7
:100F5000709141028091420290914302A09144021B
:100F6000B0914502481B590B6A0B7B0B2AE080911C
:100F70007A0290917B020E94E30461E471E0809127
:100F80007A0290917B020E94CE040E940403AB017E
:100F9000BC012AE080917A0290917B020E94E304D6
:100FA000C0917A02D0917B0263E471E0CE010E948D
:100FB000CE0463E371E0CE010E94CE040E940403DC
:100FC0004B015C012B013C0145E0440E511C611CAE
:100FD000711C0E940403681579058A059B0508F0B9
:100FE00099C00E94040360933E0270933F02809375
:100FF0004002909341028BE991E00E94BF00892B4F
:1010000009F43FC08BE991E00E94620465307105EC
:10101000F1F034F464307105A1F5C4E0D0E011C002
:101020006830710529F16930710559F50E9456043F
:1010300024C060E08C2F0E946F022196C830D10539
:10104000C9F0C630D105A9F761E086E0F4CFC4E06D
:10105000D0E0C630D10519F460E086E002C061E05E
:101060008C2F0E946F022196C830D10591F705C0E0
:101070000E94BC0281E090E002C080E090E00E940B
:101080002C0580E892E00E94D801892B09F43FC02A
:1010900080E892E00E9462046530710509F134F441
:1010A00064307105A1F5C4E0D0E009C06830710575
:1010B00061F16930710559F50E94560428C0C630A7
:1010C000D10519F461E086E002C060E08C2F0E9437
:1010D0006F022196C830D10591F781E090E012C0EF
:1010E000C4E0D0E0C630D10519F460E086E002C06B
:1010F00061E08C2F0E946F022196C830D10591F7D4
:1011000080E090E00E942C0502C00E94BC020E9478
:10111000660153CE461657066806790608F059CF81
:1011200060CF86E191E0909381028093800280916C
:101130009501909196018058924071F4E09193024C
:10114000F09194029081809195028095892380830B
:101150001092960110929501089510929E0110929E
:101160009D0188EE93E0A0E0B0E080939F01909312
:10117000A001A093A101B093A20124E031E030933B
:101180009C0120939B0125EC30E03093A801209333
:10119000A70124EC30E03093AA012093A90120ECB0
:1011A00030E03093AC012093AB0121EC30E0309380
:1011B000AE012093AD0122EC30E03093B0012093DA
:1011C000AF0126EC30E03093B2012093B1011092D0
:1011D000B4011092B5011092B6011092B7011092AD
:1011E0003E0210923F021092400210924102109271
:1011F0004202109243021092440210924502109251
:101200004602109247021092480210924902109230
:101210004A0210924B0210924C0210924D02109210
:101220008302109282028093840290938502A0939D
:101230008602B093870286E191E0909381028093C9
:1012400080021092970210929602109299021092C8
:10125000980210929B0210929A0210929D02109294
:101260009C0260919E026E7F6D7F60939E026695E8
:10127000617081E0682783E00E946F0261E083E093
:101280000E94C802E1EBF0E0E491E0939002EDE906
:10129000F0E0E491F0E0EE0FFF1FE057FF4F859183
:1012A0009491909392028093910260E082E00E9478
:1012B000C80280919E0281FD04C061E082E00E942C
:1012C0006F0282E080938C02E0EBF0E0E491E09327
:1012D0008D02ECE9F0E0E491F0E0EE0FFF1FEA5739
:1012E000FF4F8591949190938F0280938E02089581
:1012F000A1E21A2EAA1BBB1BFD010DC0AA1FBB1F1A
:10130000EE1FFF1FA217B307E407F50720F0A21B8B
:10131000B30BE40BF50B661F771F881F991F1A94F8
:1013200069F760957095809590959B01AC01BD0122
:10133000CF0108950E94A509A59F900DB49F900D1F
:10134000A49F800D911D11240895A29FB001B39F09
:10135000C001A39F700D811D1124911DB29F700DBE
:10136000811D1124911D089597FB072E16F40094FA
:1013700007D077FD09D00E94C80907FC05D03EF4CC
:10138000909581959F4F0895709561957F4F089531
:10139000AA1BBB1B51E107C0AA1FBB1FA617B7079B
:1013A00010F0A61BB70B881F991F5A95A9F78095B7
:1013B0009095BC01CD010895EE0FFF1F0590F491AB
:1013C000E02D099481E090E0F8940C94E70910E096
:1013D000C2E6D0E004C0FE010E94DC092196C336BB
:0813E000D107C9F7F894FFCF13
:1013E80000000000F700D4038E004401BF009D00F8
:1013F800B100000000008801D40312028D00D8015A
:10140800F0017001564D4450565F317C315F564DA6
:101418004450560D0A00564D4450455F003A323A42
:0A142800007C005F564D4450450063
:00000001FF
