:100000000C9463000C948B000C948B000C94CD0426
:100010000C94CD040C94CD040C948B000C948B00A8
:100020000C948B000C948B000C948B000C948B0024
:100030000C948B000C948B000C948B000C948B0014
:100040000C942B040C948B000C949B040C9475045E
:100050000C948B000C948B000C948B000C948B00F4
:100060000C948B000C948B000000000024002700EF
:100070002A0000000008000201000003040700003D
:1000800000000000000000000000250028002B00F8
:1000900000000000230026002900040404040404D6
:1000A0000404020202020202030303030303010227
:1000B00004081020408001020408102001020408F6
:1000C00010204705DD0711241FBECFEFD8E0DEBFAB
:1000D000CDBF22E0A4E2B1E001C01D92AD32B20773
:1000E000E1F711E0A0E0B1E0E6ECF0E102C005903C
:1000F0000D92A432B107D9F710E0C2E6D0E004C0F7
:100100002197FE010E944B08C136D107C9F70E9412
:10011000F2050C9456080C940000CF93DF93EC0189
:100120002FB7F89480916D0190916E01A0916F01AD
:10013000B09170012FBF88879987AA87BB87E88114
:10014000F9810484F585E02DCE01099597FF1EC045
:100150002FB7F89480916D0190916E01A0916F017D
:10016000B09170012FBF488559856A857B85841BB6
:10017000950BA60BB70B4C815D816E817F81841737
:100180009507A607B707D8F28FEF9FEFDF91CF91C2
:100190000895AF92BF92CF92DF92EF92FF921F939A
:1001A000CF93DF9300D000D0CDB7DEB75C01C5019F
:1001B0000E948D00FC0197FD0FC08D32910581F0EA
:1001C000C0970A9768F0D501ED91FC910284F38500
:1001D000E02DC5010995EBCF60E070E0CB014AC08E
:1001E00020E030E0A90110E0E130F105E9F0ED3266
:1001F000F105C9F0CF01C0970A97B0F4AAE0B0E0CA
:100200000E94E7076F01FF0FEE08FF08DC01CB013A
:100210008C0D9D1DAE1DBF1D9C01AD0120533109EC
:100220004109510901C011E0D501ED91FC91028411
:10023000F385E02DC50129833A834B835C830995BF
:10024000C5010E948D00FC01C09729813A814B8134
:100250005C810A9748F2E130F10531F2112341F057
:1002600066277727CB01621B730B840B950B02C0AB
:10027000CA01B9010F900F900F900F90DF91CF91AD
:100280001F91FF90EF90DF90CF90BF90AF900895B7
:10029000CF92DF92EF92FF920F931F93CF93DF9352
:1002A0006C017A018B01C0E0D0E0CE15DF0589F04A
:1002B000D8016D918D01D601ED91FC910190F081F5
:1002C000E02DC6010995892B11F47E0102C021960B
:1002D000ECCFC701DF91CF911F910F91FF90EF906D
:1002E000DF90CF900895FC01538D448D252F30E091
:1002F000842F90E0821B930B541710F0CF96089533
:1003000001970895FC01918D828D981761F0828D7F
:10031000DF01A80FB11D5D968C91928D9F5F9F7339
:10032000928F90E008958FEF9FEF0895FC01918DDB
:10033000828D981731F0828DE80FF11D858D90E048
:1003400008958FEF9FEF0895FC01918D228D892FE5
:1003500090E0805C9F4F821B91098F7399270895CD
:1003600081E791E00E94A40121E0892B09F420E0BB
:10037000822F0895FC01848DDF01A80FB11DA35ABF
:10038000BF4F2C91848D90E001968F739927848FB5
:10039000A689B7892C93A089B1898C9180648C93AC
:1003A000938D848D981306C00288F389E02D808197
:1003B0008F7D80830895EF92FF920F931F93CF93C9
:1003C000DF93EC0181E0888F9B8D8C8D981305C0A5
:1003D000E889F989808185FD24C0F62E0B8D10E017
:1003E0000F5F1F4F0F731127E02E8C8DE8120CC08A
:1003F0000FB607FCFACFE889F989808185FFF5CF30
:10040000CE010E94BA01F1CF8B8DFE01E80FF11DE4
:10041000E35AFF4FF0820B8FEA89FB89808180626B
:1004200007C0EE89FF896083E889F989808180644B
:10043000808381E090E0DF91CF911F910F91FF9039
:10044000EF900895CF93DF93EC01888D8823C9F056
:10045000EA89FB89808185FD05C0A889B9898C91CD
:1004600086FD0FC00FB607FCF5CF808185FFF2CF68
:10047000A889B9898C9185FFEDCFCE010E94BA0180
:10048000E7CFDF91CF91089580E090E0892B29F0AC
:100490000E94B00181110C940000089590E0FC01CD
:1004A000EE58FF4F3491FC01E255FF4F2491FC01BF
:1004B000E656FF4FE491EE2309F43BC0332339F1B4
:1004C000333091F038F43130A9F0323001F584B591
:1004D0008F7D12C0373091F03830A1F03430B9F44C
:1004E000809180008F7D03C0809180008F77809302
:1004F00080000DC084B58F7784BD09C08091B000A5
:100500008F7703C08091B0008F7D8093B000F0E0C2
:10051000EE0FFF1FEA57FF4FA591B4918FB7F894E4
:10052000EC91611103C020952E2301C02E2B2C933A
:100530008FBF0895CF93DF9390E0FC01E255FF4F0A
:100540002491FC01E656FF4F8491882361F190E0ED
:10055000880F991FFC01E859FF4FC591D491FC0108
:10056000EA57FF4FA591B491611109C09FB7F89464
:100570008881209582238883EC912E230BC06230E2
:1005800061F49FB7F8943881822F80958323888304
:10059000EC912E2B2C939FBF06C08FB7F894E88167
:1005A0002E2B28838FBFDF91CF9108952091660174
:1005B000309167012817390771F490916401809197
:1005C0006501981741F0E0916401F0E0EC5DFE4FA9
:1005D000808190E008958FEF9FEF089508951F9315
:1005E000CF93DF93DC015C962D913C915D972115B3
:1005F000310539F481E090E013969C938E93129725
:100600003DC05196ED91FC91529750969C91509718
:10061000892F80951FB75E964C915E9741FB772797
:1006200070F941FD6095F8944081772311F0492BD2
:1006300001C048234083E9012197F1F748E0508148
:1006400060FF02C0592B01C058235083E901219754
:10065000F1F76695415099F7772321F0908189232E
:10066000808303C08081982B90831FBF5C968D91FF
:100670009C915D970197F1F721E030E0C901DF918E
:10068000CF911F910895209166013091670128173D
:10069000390771F4809165012091640190E0805CDC
:1006A0009F4F821B910960E470E00E940108089549
:1006B00080E090E00895209166013091670128174D
:1006C0003907B9F49091640180916501981789F018
:1006D000E0916401F0E0EC5DFE4F808120916401C7
:1006E00030E02F5F3F4F2F7333272093640190E05A
:1006F00008958FEF9FEF0895E0916601F0916701F3
:10070000E817F90769F4A389B4899C9185898095D4
:1007100089238C93109267011092660181E00895FD
:1007200080E00895089580E090E0089561E08BE016
:100730000E944E0261E08CE00E944E0261E08DE07A
:100740000C944E028F929F92AF92BF920F931F9381
:10075000CF93DF93CDB7DEB7A1970FB6F894DEBF86
:100760000FBECDBF19A2423008F44AE08E010F5DE2
:100770001F4F842E912CA12CB12CA50194010E9415
:100780001508E62FB901CA0101501109EA3014F425
:10079000E05D01C0E95CD801EC93232B242B252BD1
:1007A00061F70115110571F0F80101900020E9F7DA
:1007B0003197AF01401B510BB80181E791E00E94D6
:1007C000480102C080E090E0A1960FB6F894DEBF29
:1007D0000FBECDBFDF91CF911F910F91BF90AF9012
:1007E0009F908F900895CF92DF92EF92FF92CF93D8
:1007F000DF936C01990FEE08FF08F7FE1FC0E09130
:100800007101F09172010190F081E02D6DE281E7BC
:1008100091E00995EC0166277727CB016C197D09DA
:100820008E099F094AE00E94A2038C0F9D1FDF9151
:10083000CF91FF90EF90DF90CF9008954AE0C701ED
:10084000B601DF91CF91FF90EF90DF90CF900C94A5
:10085000A2030E9451081F920F920FB60F9211240B
:100860002F933F938F939F93AF93BF9380916D018D
:1008700090916E01A0916F01B091700130916C0167
:1008800023E0230F2D3720F40196A11DB11D05C0D3
:1008900026E8230F0296A11DB11D20936C018093C1
:1008A0006D0190936E01A0936F01B09370018091E0
:1008B000680190916901A0916A01B0916B01019664
:1008C000A11DB11D8093680190936901A0936A01F5
:1008D000B0936B01BF91AF919F918F913F912F91F9
:1008E0000F900FBE0F901F9018951F920F920FB68A
:1008F0000F9211242F933F934F935F936F937F93A6
:100900008F939F93AF93BF93EF93FF9381E791E012
:100910000E94BA01FF91EF91BF91AF919F918F918A
:100920007F916F915F914F913F912F910F900FBEEB
:100930000F901F9018951F920F920FB60F921124CF
:100940002F938F939F93EF93FF93E0918101F09109
:1009500082018081E0918701F091880182FD12C0BF
:10096000908180918A018F5F8F7320918B01821714
:1009700051F0E0918A01F0E0EF58FE4F958F80939F
:100980008A0101C08081FF91EF919F918F912F91FA
:100990000F900FBE0F901F9018951F920F920FB6D9
:1009A0000F9211242F933F934F935F936F937F93F5
:1009B0008F939F93AF93BF93EF93FF93E091660163
:1009C000F0916701309709F451C0968DA685B785DF
:1009D000858591FF04C09C91892329F447C09C918F
:1009E000892309F043C0A389B4899C9185898095A6
:1009F00089238C93868997890197F1F7608D718D92
:100A0000A685B785558538E020E0CB010197F1F741
:100A1000822F90E095958795282F4C91452309F0DA
:100A20002068315091F7868D81FD20958091650178
:100A300090E001968F73992730916401381749F03F
:100A4000A0916501B0E0AC5DBE4F2C938093650131
:100A500003C0868D8160868F828D938D0197F1F71B
:100A6000A389B4899C918589892B8C93FF91EF91FF
:100A7000BF91AF919F918F917F916F915F914F91B6
:100A80003F912F910F900FBE0F901F9018951092CD
:100A900074011092730188EE93E0A0E0B0E08093BF
:100AA000750190937601A0937701B093780124E0CB
:100AB00031E0309372012093710125EC30E03093E6
:100AC0007E0120937D0124EC30E03093800120935F
:100AD0007F0120EC30E0309382012093810121ECF2
:100AE00030E0309384012093830122EC30E0309396
:100AF00086012093850126EC30E030938801209315
:100B0000870110928A0110928B0110928C01109231
:100B10008D01109211021092100280931202909394
:100B20001302A0931402B093150286E191E0909312
:100B30000F0280930E02109225021092240210924E
:100B40002702109226021092290210922802109277
:100B50002B0210922A0260912C026E7F6D7F6093AF
:100B60002C026695617081E0682783E00E944E0246
:100B700061E083E00E949A02E1EBF0E0E491E0930F
:100B80001E02EDE9F0E0E491F0E0EE0FFF1FEA57FE
:100B9000FF4F859194919093200280931F0260E013
:100BA00082E00E949A0280912C0281FD04C061E0E3
:100BB00082E00E944E0282E080931A02E0EBF0E0B5
:100BC000E491E0931B02ECE9F0E0E491F0E0EE0F39
:100BD000FF1FE057FF4F8591949190931D028093E2
:100BE0001C020895789484B5826084BD84B58160C8
:100BF00084BD85B5826085BD85B5816085BD8091E8
:100C00006E00816080936E0010928100809181005F
:100C10008260809381008091810081608093810057
:100C2000809180008160809380008091B100846019
:100C30008093B1008091B00081608093B00080917A
:100C40007A00846080937A0080917A008260809339
:100C50007A0080917A00816080937A0080917A0096
:100C6000806880937A001092C100E0918101F09138
:100C7000820182E08083E0917D01F0917E0110820B
:100C8000E0917F01F09180018FEC808310928901C7
:100C9000E0918501F091860186E08083E0918301F7
:100CA000F0918401808180618083E0918301F091E3
:100CB0008401808188608083E0918301F0918401C8
:100CC000808180688083E0918301F091840180813C
:100CD0008F7D8083109229021092280210922702A1
:100CE0001092260210922502109224028DE991E0C2
:100CF00090932B0280932A0290911A02963108F069
:100D000057C02DEB30E030932502209324022BE9CD
:100D100031E030932702209326022CE231E0309319
:100D200029022093280220916800983050F031E089
:100D30009E3008F430E081E001C0880F3A95EAF770
:100D400001C084E0822B80936800983038F09E3098
:100D500040F0963148F020E030E008C02DE630E069
:100D600005C02BE630E002C02CE630E030932202D2
:100D700020932102983030F481E001C0880F9A95C9
:100D8000EAF70EC0292F30E09E3018F428503109C0
:100D900002C02E50310981E001C0880F2A95EAF780
:100DA0008093230280912A0290912B020197F1F700
:100DB0008091280290912902892B21F1809166016E
:100DC0009091670122E08E309207E1F0009711F0D8
:100DD0000E947C0380912C028E7F80932C021092C3
:100DE0006501109264018EE092E090936701809318
:100DF0006601E0912102F09122029081809123020C
:100E0000892B808361E08BE00E949A0261E08CE094
:100E10000E949A0261E08DE00E949A0261E084E003
:100E20000E949A0261E085E00E949A0261E086E0F9
:100E30000E949A0261E087E00E949A02C4E0D0E03A
:100E4000C630D10519F460E086E002C061E08C2F65
:100E50000E944E022196C830D10591F760E08BE0E8
:100E60000E944E0260E08CE00E944E0260E08DE045
:100E70000E944E0281E791E00E94A401892B09F4AF
:100E800049C081E791E00E94C9006530710541F1D8
:100E900034F464307105F1F5C4E0D0E01BC0683073
:100EA000710579F169307105A9F560E08BE00E9468
:100EB0004E0260E08CE00E944E0260E08DE00E94F5
:100EC0004E0224C060E08C2F0E944E022196C83052
:100ED000D105C9F0C630D105A9F761E086E0F4CFAD
:100EE000C4E0D0E0C630D10519F460E086E002C06D
:100EF00061E08C2F0E944E022196C830D10591F7F7
:100F000005C00E94960381E090E002C080E090E07E
:100F10000E94F3038EE092E00E944303892B09F4C0
:100F200049C08EE092E00E94C9006530710559F118
:100F300034F464307105F1F5C4E0D0E013C06830DA
:100F40007105B1F169307105A9F560E08BE00E948F
:100F50004E0260E08CE00E944E0260E08DE00E9454
:100F60004E0228C0C630D10519F461E086E002C007
:100F700060E08C2F0E944E022196C830D10591F777
:100F800081E090E012C0C4E0D0E0C630D10519F491
:100F900060E086E002C061E08C2F0E944E02219644
:100FA000C830D10591F780E090E00E94F30302C0C1
:100FB0000E9496030E9444025DCF86E191E09093E7
:100FC0000F0280930E028EE092E00C947C030E944C
:100FD000F207A59F900DB49F900DA49F800D911DC9
:100FE00011240895A29FB001B39FC001A39F700D6B
:100FF000811D1124911DB29F700D811D1124911D21
:10100000089597FB072E16F4009407D077FD09D0BA
:101010000E94370807FC05D03EF4909581959F4FBC
:101020000895709561957F4F0895A1E21A2EAA1B2D
:10103000BB1BFD010DC0AA1FBB1FEE1FFF1FA21788
:10104000B307E407F50720F0A21BB30BE40BF50B85
:10105000661F771F881F991F1A9469F7609570950E
:10106000809590959B01AC01BD01CF010895AA1B0D
:10107000BB1B51E107C0AA1FBB1FA617B70710F083
:10108000A61BB70B881F991F5A95A9F780959095B5
:10109000BC01CD010895EE0FFF1F0590F491E02DE6
:1010A000099481E090E0F8940C94560810E0C2E6B0
:1010B000D0E004C0FE010E944B082196C336D10740
:0610C000C9F7F894FFCF10
:1010C60000000000DB01480173012202A401820135
:1010D600960100000000EF0248019303EE0243036D
:0410E6005B03D602D0
:107E0000112484B714BE81FFF0D085E080938100F7
:107E100082E08093C00088E18093C10086E0809377
:107E2000C20080E18093C4008EE0C9D0259A86E02C
:107E300020E33CEF91E0309385002093840096BBD3
:107E4000B09BFECF1D9AA8958150A9F7CC24DD24C4
:107E500088248394B5E0AB2EA1E19A2EF3E0BF2EE7
:107E6000A2D0813461F49FD0082FAFD0023811F036
:107E7000013811F484E001C083E08DD089C08234E0
:107E800011F484E103C0853419F485E0A6D080C0E4
:107E9000853579F488D0E82EFF2485D0082F10E0AE
:107EA000102F00270E291F29000F111F8ED06801E7
:107EB0006FC0863521F484E090D080E0DECF843638
:107EC00009F040C070D06FD0082F6DD080E0C81688
:107ED00080E7D80618F4F601B7BEE895C0E0D1E017
:107EE00062D089930C17E1F7F0E0CF16F0E7DF06D8
:107EF00018F0F601B7BEE89568D007B600FCFDCFD4
:107F0000A601A0E0B1E02C9130E011968C91119780
:107F100090E0982F8827822B932B1296FA010C0160
:107F200087BEE89511244E5F5F4FF1E0A038BF0790
:107F300051F7F601A7BEE89507B600FCFDCF97BE46
:107F4000E89526C08437B1F42ED02DD0F82E2BD052
:107F50003CD0F601EF2C8F010F5F1F4F84911BD097
:107F6000EA94F801C1F70894C11CD11CFA94CF0C13
:107F7000D11C0EC0853739F428D08EE10CD085E9AC
:107F80000AD08FE07ACF813511F488E018D01DD067
:107F900080E101D065CF982F8091C00085FFFCCF94
:107FA0009093C60008958091C00087FFFCCF809118
:107FB000C00084FD01C0A8958091C6000895E0E648
:107FC000F0E098E1908380830895EDDF803219F02E
:107FD00088E0F5DFFFCF84E1DECF1F93182FE3DFCA
:107FE0001150E9F7F2DF1F91089580E0E8DFEE27F6
:047FF000FF270994CA
:027FFE00040479
:0400000300007E007B
:00000001FF